:040000002DEF14F0DC
:100F00000001000A006400E8031027280C01060015
:100F1000803F72313FFE753E58633D951D3CC5AE26
:100F20003A79213994803793A7355615340000005B
:100F300000803FF0FFBEE2A93E8376BEAE2B3E3C72
:100F4000C3BDD2133D78D3BB25750025002B002DE2
:100F5000007800000DEC14F0808E809C809A8096C2
:100F600080A408D0070E1C6E000E1D6E1FEC0EF044
:100F700080B4FED780A208D0080E1C6E000E1D6E35
:100F80001FEC0EF080B2FED780A008D0090E1C6EB8
:100F9000000E1D6E1FEC0EF080B0FED782A018D0A0
:100FA000010E056E080ECFEC14F04B0E096E0F0EFD
:100FB0000A6E7EEC13F0000E0001996F010E986F1F
:100FC0004B0E0001E76F0F0E0001E86F82B0FED7F5
:100FD000809E808C809A809680A408D0040E1C6E1F
:100FE000000E1D6E1FEC0EF080B4FED780A208D05C
:100FF000050E1C6E000E1D6E1FEC0EF080B2FED7AB
:1010000080A008D0060E1C6E000E1D6E1FEC0EF0A8
:1010100080B0FED782A018D0010E056E080ECFEC6E
:1010200014F0510E096E0F0E0A6E7EEC13F0000ED6
:101030000001996F010E986F510E0001E76F0F0EBE
:101040000001E86F82B0FED7809E809C808A8096E7
:1010500080A408D0010E1C6E000E1D6E1FEC0EF059
:1010600080B4FED780A208D0020E1C6E000E1D6E4A
:101070001FEC0EF080B2FED780A008D0030E1C6ECD
:10108000000E1D6E1FEC0EF080B0FED782A018D0AF
:10109000010E056E080ECFEC14F04F0E096E0F0E08
:1010A0000A6E7EEC13F0000E0001996F010E986F2E
:1010B0004F0E0001E76F0F0E0001E86F82B0FED700
:1010C000809E809C809A808680A41AD0B1EC12F019
:1010D0000DEC14F0000E0001996F000E986F4C0E8D
:1010E0000001E76F0F0E0001E86F000E0001976F1F
:1010F000000E966F000E5E6E000E5D6E80B4FED721
:1011000080A208D0000E1C6E000E1D6E1FEC0EF0AB
:1011100080B2FED780A0B5D1000E0001E46F000EB2
:10112000E36FFF0E5D240001DF6FFF0E5E20000104
:10113000E06F0001E0BF5AD0010E0001DF255B6EB9
:10114000000E0001E0215C6E5B1E5C1E5B4A5C2AA7
:101150005D505B24096E5E505C200A6E4BEC14F00F
:1011600009C0D1F00AC0D2F00BC0D3F0D1C04DF00D
:10117000D2C04EF0D3C04FF0000E4A6E200E4B6E20
:10118000410E4C6E45EC0CF04AC0D4F04BC0D5F08B
:101190004CC0D6F0D4C00DF0D5C00EF0D6C00FF0C4
:1011A000AAEC0EF00DC01CF00EC01DF0D89000018E
:1011B000DF35D96E0001E035DA6E6C0ED926000EEF
:1011C000DA22DECF1EF0DDCF1FF0AAEC14F0000112
:1011D000E3511C240001E36F0001E4511D200001D4
:1011E000E46F0001DF07D8A0E007A3D7000E0001DD
:1011F000E66F000EE56FFF0E000196250001E16F1E
:10120000FF0E000197210001E26F0001E2BF5CD0F8
:10121000010E0001E1255B6E000E0001E2215C6E13
:101220005B1E5C1E5B4A5C2A000196515B24096EC2
:10123000000197515C200A6E4BEC14F009C0D1F00C
:101240000AC0D2F00BC0D3F0D1C04DF0D2C04EF0E6
:10125000D3C04FF0000E4A6E200E4B6E410E4C6E06
:1012600045EC0CF04AC0D4F04BC0D5F04CC0D6F0E1
:10127000D4C00DF0D5C00EF0D6C00FF0AAEC0EF021
:101280000DC01CF00EC01DF0D8900001E135D96EE4
:101290000001E235DA6E600ED926000EDA22DECFCA
:1012A0001EF0DDCF1FF0AAEC14F00001E5511C2464
:1012B0000001E56F0001E6511D200001E66F00010D
:1012C000E107D8A0E207A1D7020E056E010ECFEC10
:1012D00014F04D0E0001E71924E10F0E0001E8198A
:1012E000D8A41FD0000E0001D86F000ED76F0001E8
:1012F000E3510001D7255B6E0001E4510001D821C4
:101300005C6E0001E5515B240001D76F0001E651DE
:101310005C200001D86FD7C01AF0D8C01BF095EC44
:1013200014F0510E0001E71924E10F0E0001E81935
:10133000D8A41FD0000E0001DA6F000ED96FE3C0F1
:101340001CF0E4C01DF0E5C01EF0E6C01FF0AAECE2
:1013500014F00001D9511C240001D96F0001DA51A9
:101360001D200001DA6FD9C01AF0DAC01BF095EC2D
:1013700014F04B0E0001E71924E10F0E0001E819EB
:10138000D8A41FD0000E0001DC6F000EDB6FE3C09D
:1013900001F0E4C002F0E5C003F0E6C004F033EC75
:1013A00012F00001DB5101240001DB6F0001DC5170
:1013B00002200001DC6FDBC01AF0DCC01BF095ECF2
:1013C00014F04F0E0001E7195AE10F0E0001E81961
:1013D000D8A455D0000E0001DE6F000EDD6F0001B5
:1013E000E5510001E35D0001E451800A5B6E0001FC
:1013F000E651800A5B58D8B024D0E3C05BF0E4C06B
:101400005CF05B1E5C1E5B4A5C2A0001E5515B24BC
:101410000001DD6F0001E6515C200001DE6F4F0E20
:10142000096E0F0E0A6E80EC14F0020E056E020EAD
:10143000CFEC14F0DDC01AF0DEC01BF095EC14F018
:101440001ED0E5C05BF0E6C05CF05B1E5C1E5B4A34
:101450005C2A0001E3515B260001E4515C2200019B
:10146000DD515B240001DD6F0001DE515C200001D5
:10147000DE6FDDC01AF0DEC01BF095EC14F080B01A
:10148000FED782A018D0010E056E080ECFEC14F026
:101490004D0E096E0F0E0A6E7EEC13F0000E000169
:1014A000996F010E986F4D0E0001E76F0F0E00014E
:1014B000E86F82B0FED78AB203D05B6A5B2A01D0A4
:1014C0005B6A5B468A505B18FD0B5B188A6E8AB0BC
:1014D00003D05B6A5B2A01D05B6A8A505B18FE0B03
:1014E0005B188A6EFF0E5B6E8A0EE82EFED75B2EAF
:1014F000FCD700D031D5415042104310D8A407D0BA
:10150000000E416E800E426E3F0E436E1200720E50
:10151000016E310E026E440E036E41C004F042C0F3
:1015200005F043C006F0EBEC11F0D8B00CD0000E83
:101530000001956F220E946FFF0E416E7F0E426E7A
:101540007F0E436E120041C001F042C002F043C062
:1015500003F0490E046E3A0E056EC40E066EEBECF7
:1015600011F0D8B00CD0000E0001956F220E946FD0
:10157000000E416E000E426E000E436E120043AE2E
:1015800002D0010E01D0000E496E4950D8B40ED0E1
:1015900041C001F042C002F043C003F0BDEC14F0C2
:1015A00001C041F002C042F003C043F041C00DF061
:1015B00042C00EF043C00FF0AA0E106EB80E116EAE
:1015C0003F0E126E24EC0FF00DC041F00EC042F041
:1015D0000FC043F041C02EF042C02FF043C030F0A6
:1015E00011EC10F02EC044F02FC045F030C046F092
:1015F00044C00DF045C00EF046C00FF0AAEC0EF04E
:101600000DC047F00EC048F041C02EF042C02FF090
:1016100043C030F047C009F048C00AF04BEC14F06A
:1016200009C031F00AC032F00BC033F0EDEC13F01A
:101630002EC041F02FC042F030C043F041C02EF028
:1016400042C02FF043C030F00F0E316E0F0E326EDD
:10165000000E346E090E336E80EC10F02EC03AF09E
:101660002FC03BF030C03CF047C03DF048C03EF0DA
:10167000E9EC10F03AC041F03BC042F03CC043F00E
:101680004950D8B425D041280EE17F0E42180BE115
:101690007F0E4318D8A407D0000E416E000E426E94
:1016A000000E436E1200000E096E800E0A6E3F0E91
:1016B0000B6E41C00CF042C00DF043C00EF09EEC2A
:1016C0000FF009C041F00AC042F00BC043F0120015
:1016D00041C041F042C042F043C043F0120024C078
:1016E00028F0296A2A6A2334283601E32980285001
:1016F0002D6E27C028F0296A2A6A2634283601E38D
:10170000298028502C6E2D50D8B40BD02C502D5C35
:10171000D8B00ED02D5000082C24286E180E286446
:1017200007D025C022F026C023F027C024F01200E5
:101730002C50D8B40BD02D502C5CD8B00ED02C50DF
:1017400000082D24286E180E286407D022C022F02D
:1017500023C023F024C024F01200060E2B6E24BEFA
:101760002B8E27BE2B8C238EFF0E2216FF0E2316E8
:10177000000E2416268EFF0E2516FF0E2616000ECE
:1017800027162C502D5CD8B01BD0D8902536263685
:1017900027362C062D502C18D8B40DD02B062BC074
:1017A00028F0070E2816D8B406D0EFD7D8902432E8
:1017B000233222322D2A2C502D18D8B41FD0F6D720
:1017C0002D502C5CD8B01AD0D8902236233624362F
:1017D0002D062D502C18D8B40DD02B062BC028F078
:1017E000070E2816D8B406D0EFD7D8902732263265
:1017F00025322C2A2C502D18D8A4F7D72BAE0CD07C
:10180000FF0E221AFF0E231AFF0E241A010E2226A3
:10181000000E2322000E24222BAC0CD0FF0E251A22
:10182000FF0E261AFF0E271A010E2526000E26226D
:10183000000E2722000E2B6E225025262350262232
:101840002450272227AE0ED0FF0E251AFF0E261A8F
:10185000FF0E271A010E2526000E2622000E272233
:10186000010E2B6E25C001F026C002F027C003F048
:101870002DC004F02BC005F04CEC11F001C022F09B
:1018800002C023F003C024F01200000E566E4A502E
:101890004B104C10D8A41CD0000E016E000E026E2E
:1018A000000E036E4DC004F04EC005F04FC006F0B0
:1018B000EBEC11F0D8A005D0000E0001956F210EC1
:1018C000946F000E4A6E000E4B6E000E4C6E1200AE
:1018D0004D504E104F10D8A407D0000E4A6E800E07
:1018E0004B6E3F0E4C6E12004CAE41D04DC00DF011
:1018F0004EC00EF04FC00FF0AAEC0EF00DC057F026
:101900000EC058F00FC059F010C05AF057C009F07F
:1019100058C00AF059C00BF05AC00CF027EC13F075
:101920004D50091807E14E500A1804E14F500B18AA
:10193000D8B40CD0000E0001956F210E946F000EEC
:101940004A6E000E4B6E000E4C6E12005750010B8B
:10195000566E4AC001F04BC002F04CC003F0BDEC23
:1019600014F001C04AF002C04BF003C04CF04AC072
:101970003AF04BC03BF04CC03CF090EC0DF03AC05C
:1019800050F03BC051F03CC052F050C00DF051C07F
:101990000EF052C00FF04DC010F04EC011F04FC00D
:1019A00012F024EC0FF00DC053F00EC054F00FC035
:1019B00055F053C041F054C042F055C043F07BECA9
:1019C0000AF041C04AF042C04BF043C04CF05650C0
:1019D000D8B40FD04AC001F04BC002F04CC003F0A5
:1019E000BDEC14F001C04AF002C04BF003C04CF053
:1019F00012004AC04AF04BC04BF04CC04CF01200F1
:101A0000110E146E000E156E78D0250E1918D8B46C
:101A100009D00DC0D9FF0EC0DAFF19C0DFFF0D4A93
:101A20000E2A6BD0000E136E03D0C00E131211D00D
:101A30000FC0F6FF10C0F7FF0F4A102A0800F5CFBD
:101A400019F01950000AD8B464D0750AD8B4EDD78B
:101A500054D014C0D9FF15C0DAFFDECF16F0DDCFA9
:101A600017F0020E1426000E1522010E196E11D069
:101A70001950020D010EF324F66E0F0EF420F76ECE
:101A80000900F550165C0900F5501758D8A005D08C
:101A9000192A050E1918D8A4EBD719C018F029D0A7
:101AA0001850020D010EF324F66E0F0EF420F76E9F
:101AB0000900F5CF03F00A00F5CF04F016C001F0DD
:101AC00017C002F055EC13F001C008F002C009F095
:101AD000000E0B6E0A0E0A6ECCEC13F00850300F9D
:101AE000196E0DC0D9FF0EC0DAFF19C0DFFF0D4A15
:101AF0000E2A18061828D8A4D3D70FC0F6FF10C096
:101B0000F7FF0F4A102A0800F5CF19F01950D8A492
:101B10007CD70DC0D9FF0EC0DAFF000EDF6E1200B9
:101B20003CAE0CD0000E0001956F210E946F000E9C
:101B30003A6E000E3B6E000E3C6E12003A503B10A7
:101B40003C10D8A40CD0000E0001956F220E946FAB
:101B5000000E3A6E000E3B6E000E3C6E1200000E40
:101B6000106E000E116E400E126E3D0E046E000ED1
:101B7000056E3AC001F03BC002F03CC003F0A3EC9C
:101B800011F001C00DF002C00EF003C00FF024EC04
:101B90000FF00DC022F00EC023F00FC024F0000E95
:101BA000256E800E266EBF0E276E6FEC0BF022C0E6
:101BB0003AF023C03BF024C03CF03D06D8A03E06DE
:101BC0003AC02EF03BC02FF03CC030F02D0E316EED
:101BD0000F0E326E000E346E080E336E80EC10F075
:101BE0002EC03AF02FC03BF030C03CF0720E106EA9
:101BF000310E116E3F0E126E3DC009F03EC00AF06C
:101C00004BEC14F009C00DF00AC00EF00BC00FF041
:101C100024EC0FF00DC022F00EC023F00FC024F012
:101C20003AC025F03BC026F03CC027F06FEC0BF02B
:101C300022C03AF023C03BF024C03CF01200000167
:101C4000985100019911D8A43FD05EBE06D05E50D5
:101C500003E1060E5D5CD8B01200D8905D34D96EF9
:101C60005E34DA6E6C0ED926000EDA221CC0DEFF5E
:101C70001DC0DDFF5D4A5E2A010E056E5D50000845
:101C8000070FCFEC14F0000E206E000E1F6E11D067
:101C9000D8901F34D96E2034DA6E6C0ED926000E1F
:101CA000DA22DECF1AF0DDCF1BF095EC14F01F4ADC
:101CB000202A5D501F5C2050800A1E6E5E50800AF4
:101CC0001E58D8B01200E4D7000197BF08D0000119
:101CD00097513FE1060E0001965DD8B01200D890F2
:101CE00000019635D96E00019735DA6E600ED9265F
:101CF000000EDA221CC0DEFF1DC0DDFF0001964B86
:101D0000972B010E056E0A0ECFEC14F0000E226E1A
:101D1000000E216E11D0D8902134D96E2234DA6EA3
:101D2000600ED926000EDA22DECF1AF0DDCF1BF0CE
:101D300095EC14F0214A222A00019651215C225090
:101D4000800A1E6E00019751800A1E58D8B01200FA
:101D5000E2D712000FC011F0126A136A0E34113666
:101D600001E3128011501B6E1B50D8A409D0000E45
:101D70000D6E000E0E6E000E0F6E000E106E120035
:101D8000170E116E0DC012F00EC013F00FC014F03C
:101D90001128156E04D0D890143213321232152E39
:101DA000FAD71250166E0E8EFF0E0D16FF0E0E167F
:101DB000000E0F160D50176E0E50186E0F50196E44
:101DC0001A6A8E0E1B5E1BAE16D01B50800A8F0F38
:101DD000D8B009D0000E0D6E000E0E6E000E0F6E04
:101DE000000E106E1200D8901A32193218321732C3
:101DF0001B3EF9D715D0170E1B640FD0000E0D6EC9
:101E0000000E0E6E000E0F6E000E106E1200D890B7
:101E10001736183619361A361B061B50D8A4F7D7B2
:101E20001650D8B408D01A1E191E181E176C000EB2
:101E3000182219221A2217C00DF018C00EF019C06E
:101E40000FF01AC010F012000FC013F0146A156AD8
:101E50000E34133601E314801350166E1650D8A4B6
:101E600007D0000E0D6E000E0E6E000E0F6E1200EB
:101E700012C013F0146A156A1134133601E314808A
:101E800013501B6E1B50D8A407D0000E0D6E000E11
:101E90000E6E000E0F6E12001B507B0F16260FC029
:101EA0001BF012501B1A800E1B160E8E118EFF0E89
:101EB0001016FF0E1116000E1216000E176E000EF1
:101EC000186E000E196E070E1A6E0DA006D0105077
:101ED00017261150182212501922D8900F320E32A4
:101EE0000D32D8901036113612361A2EEED7090E52
:101EF0001A6E0DA006D0105017261150182212503D
:101F00001922D8900F320E320D32D8901932183271
:101F100017321A2EEED717C001F018C002F019C000
:101F200003F016C004F01BC005F04CEC11F001C02A
:101F30000DF002C00EF003C00FF012000BC00FF046
:101F4000106A116A0A340F3601E310800F50166EC2
:101F50001650D8A407D0000E096E000E0A6E000EAF
:101F60000B6E12000EC00FF0106A116A0D340F369E
:101F700001E310800F50176E1750D8A407D0000E41
:101F8000096E000E0A6E000E0B6E1200000E136E2C
:101F9000000E146E000E156E1750890F165E0BC0E2
:101FA00017F00E50171A800E17160A8EFF0E09161C
:101FB000FF0E0A16000E0B160D8EFF0E0C16FF0EEE
:101FC0000D16000E0E16180E126ED890133614361B
:101FD00015360C50095C0D500A580E500B58D8A0FD
:101FE00007D00C50095E0D500A5A0E500B5A138040
:101FF000D89009360A360B36122EE7D713C001F0F7
:1020000014C002F015C003F016C004F017C005F0AC
:102010004CEC11F001C009F002C00AF003C00BF053
:1020200012002EC001F02FC002F030C003F0340EB9
:10203000046E000E056EA3EC11F035AE10D030AE7C
:1020400007D0000E2E6E800E2F6EBF0E306E120067
:10205000000E2E6E000E2F6E000E306E12003550E8
:1020600004E1150E345CD8A007D02EC02EF02FC08E
:102070002FF030C030F012002EC00DF02FC00EF047
:1020800030C00FF0AAEC0EF00DC01CF00EC01DF019
:102090000FC01EF010C01FF075EC12F01CC031F024
:1020A0001DC032F01EC033F02EC001F02FC002F070
:1020B00030C003F031C004F032C005F033C006F088
:1020C000EBEC11F0D8B015D031C022F032C023F0C3
:1020D00033C024F0000E256E800E266EBF0E276ED4
:1020E0006FEC0BF022C02EF023C02FF024C030F094
:1020F000120031C02EF032C02FF033C030F0120089
:1021000033C01CF034C01DF0000E1F6E030E1E6E97
:10211000AAEC14F031C035F032C036F01C50352630
:102120001D50362235C0F6FF36C0F7FF0900F5CF47
:1021300037F00900F5CF38F00A00F5CF39F03ED07E
:1021400037C010F038C011F039C012F02EC00DF0B9
:102150002FC00EF030C00FF024EC0FF00DC022F0B5
:102160000EC023F00FC024F0000E1F6E030E1E6E73
:102170003306D8A0340633C01CF034C01DF0AAECDE
:1021800014F031C035F032C036F01C5035261D50E9
:10219000362235C0F6FF36C0F7FF0900F5CF25F02F
:1021A0000900F5CF26F00A00F5CF27F06FEC0BF011
:1021B00022C037F023C038F024C039F03350341037
:1021C000D8A4BED737C02EF038C02FF039C030F0B9
:1021D00012003A503B103C10D8A407D0000E3A6EC3
:1021E000000E3B6E000E3C6E12003C507F0B3F6EAB
:1021F000406AD8903F3640363F503D2640503E2200
:102200003BAE03D03F6A3F2A01D03F6A3F503D2694
:10221000000E3E223EAE0CD0000E0001956F220E45
:10222000946F000E3A6E000E3B6E000E3C6E120074
:102230003EBE16D03E04D8A013D0000E0001956F0C
:10224000220E946F3CAE06D0FF0E3A6E7F0E3B6EB0
:10225000FF0EECD7FF0E3A6E7F0E3B6E7F0EE6D779
:102260003E343E30406E3D303F6E3C503F18800B58
:102270003F183C6E3DC03FF0010E3F163F323F32EB
:102280003B503F187F0B3F183B6E3AC03AF03BC0C3
:102290003BF03CC03CF012000450D8B405D00150D3
:1022A00002100310D8A40CD0000E016E000E026EB6
:1022B000000E036E1200042AD8900332023201325B
:1022C000000E0114066E000E0214076EFE0E0314BB
:1022D000086E065007100810D8B40CD0ECD7042AAA
:1022E000010E0126000E0222000E0322D8900332B6
:1022F00002320132000E0114066E000E0214076E47
:10230000FF0E0314086E065007100810D8B406D04C
:10231000E6D70406D89001360236033602BE03D053
:10232000020E0460F6D704A0029ED8900432045036
:1023300003120550D8A4038E01C001F002C002F0C0
:1023400003C003F01200015002100310D8A40FD0F4
:1023500004C0D9FF05C0DAFF000EDE6E000EDD6E90
:10236000000E016E000E026E000E036E120003508E
:102370007F0B066E076AD8900636073604C0D9FF71
:1023800005C0DAFF06C0DEFF07C0DDFF02AE03D0E6
:10239000066A062A01D0066A065004C0D9FF05C0A5
:1023A000DAFFDE12000EDD1204C0D9FF05C0DAFF2D
:1023B000820EDE26FF0EDD22038003820384038665
:1023C0000388038A039C029E01C001F002C002F050
:1023D00003C003F0120003AE16D001C007F002C024
:1023E00008F003C009F0071E081E091E072A000E88
:1023F00008220922000E0724016E000E0820026E3A
:10240000800E0920036E06AE16D004C007F005C08A
:1024100008F006C009F0071E081E091E072A000E54
:1024200008220922000E0724046E000E0820056E03
:10243000800E0920066E000E011A000E021A800E90
:10244000031A000E041A000E051A800E061A045014
:10245000015C0550025806500358D8B002D0D890FD
:102460001200D8801200000E066E04AE06D0036C77
:10247000041ED8B0042A010E066E02AE06D0016C0E
:10248000021ED8B0022A010E061A000E086E000EB7
:10249000076E03500410D8B41CD0010E056E04D092
:1024A000D89003360436052A04AEFAD7D8900736FA
:1024B00008360350015C04500258D8A005D00350E0
:1024C000015E0450025A0780D89004320332052E70
:1024D000EDD70650D8B404D0076C081ED8B0082A2F
:1024E00007C001F008C002F01200000E256E8E0E2B
:1024F000246E1FAE11D01F1E1E1E1D1E1C6C000E52
:102500001D221E221F22010E256E06D0D8901F32DA
:102510001E321D321C32242A000E1C14206E000EA6
:102520001D14216E000E1E14226EFF0E1F14236E4A
:102530002050211022102310D8A4E8D71CC001F08D
:102540001DC002F01EC003F024C004F025C005F039
:102550004CEC11F001C01CF002C01DF003C01EF0D5
:102560001200939693948A968A949398939A939C44
:10257000939E0A0EE0EC14F00A0EE0EC14F00A0E42
:10258000E0EC14F0000E056E020E056401D008D0D8
:10259000030EECEC12F00A0EE0EC14F0052AF4D76E
:1025A000020EECEC12F0000E056E030E056401D075
:1025B00012000550010D0B0EF324F66E0F0EF420E1
:1025C000F76E0800F5CF03F0000E67EC14F00A0E6A
:1025D000E0EC14F0052AE9D7026E02A003D0016AEC
:1025E000012A01D0016A013A8A500118EF0B011843
:1025F0008A6E02A203D0016A012A01D0016A013A5F
:1026000001468A500118DF0B01188A6E02A403D01C
:10261000016A012A01D0016A013A014601468A5045
:102620000118BF0B01188A6E02A603D0016A012AA5
:1026300001D0016A013201328A5001187F0B011862
:102640008A6E00F08A8400F000F08A9412008E0EE8
:10265000116E06D0D8900C320B320A320932112A90
:10266000000E09140D6E000E0A140E6E000E0B14EF
:102670000F6EFF0E0C14106E0D500E100F10101078
:10268000D8A4E8D709C001F00AC002F00BC003F0DB
:1026900011C004F0000E056E4CEC11F001C009F001
:1026A00002C00AF003C00BF01200000E066E000E0E
:1026B000056E03500410D8B41CD0010E076E04D070
:1026C000D89003360436072A04AEFAD7D8900536D8
:1026D00006360350015C04500258D8A005D00350C0
:1026E000015E0450025A0580D89004320332072E4E
:1026F000EDD705C001F006C002F0120014D009C0E9
:10270000F6FF0AC0F7FFF86A0E0EF76403D0080060
:10271000F55005D0F6CFE9FFF7CFEAFFEF50A7EC71
:1027200013F0094A0A2A09C0F6FF0AC0F7FFF86A3F
:102730000E0EF76403D00800F55005D0F6CFE9FF80
:10274000F7CFEAFFEF500009D8B41200D8D7086ECF
:1027500018D0010E036E000E67EC14F01200020E8A
:10276000056E010ECFEC14F01200100E036E000E79
:1027700067EC14F0120008C003F0010E67EC14F0CF
:1027800012000850080AD8B4F0D7020AD8B4E7D724
:10279000060AD8B4DED7EFD70A500B10D8B418D039
:1027A000010E0C6E04D0D8900A360B360C2A0BAEF4
:1027B000FAD70A50085C0B500958D8A004D00A5028
:1027C000085E0B50095AD8900B320A320C2EF1D702
:1027D00008C008F009C009F012003150321033105F
:1027E000D8B406D0000E311A000E321A800E331AF9
:1027F0002EC022F02FC023F030C024F031C025F0CD
:1028000032C026F033C027F06FEC0BF022C02EF060
:1028100023C02FF024C030F012009B8E9B9CD388E5
:10282000D38AD38CD390D392170E926E000E936EF0
:10283000070E946EF18E0F014869970E0F01486FD5
:102840002D0EC26E100EC16ECD86B1EC12F00C0EC4
:10285000F7EC14F08A928A901200E00EF66E290EC0
:10286000F76E000EF86E00EEE7F010EE0EF00900C5
:10287000F5CFEEFFE550E150FAE100EE60F0710EA9
:10288000EE6AE806FDE15F6A5E6A5D6A000EF86E58
:102890000001AAEF07F0000E0C6E0AAE06D0096C1C
:1028A0000A1ED8B00A2A010E0C6E09C001F00AC037
:1028B00002F0036A8E0E046E0CC005F04CEC11F0B1
:1028C00001C009F002C00AF003C00BF01200046E50
:1028D0008A96020EE8EC14F09398939A939C939E38
:1028E0000450D8B402D08A8601D08A9600F003380A
:1028F0000F0BECEC12F003500F0BECEC12F012008B
:102900000AD009C0F6FF0AC0F7FF0800F550A7EC8F
:1029100013F0094A0A2A09C0F6FF0AC0F7FF0800A7
:10292000F5500009D8B41200ECD7B50E0D6E000EAC
:102930000E6E480E0F6E0F0E106E1AC011F01BC0F7
:1029400012F000EC0DF0B50E096E000E0A6E7EEC72
:1029500013F012001C501E02F3CF20F0F4CF21F030
:102960001C501F02F35021261D501E02F350212639
:1029700020C01CF021C01DF01200015002100310F5
:10298000D8B406D0000E011A000E021A800E031AE7
:1029900001C001F002C002F003C003F01200066E95
:1029A0000504D8B402D0400E01D0000E076E060414
:1029B000072607508009036E000E67EC14F0120022
:1029C000016EC80E00D0E82EFDD7012EFAD71200F6
:1029D000016E210EE82EFED700F0012EFAD712006C
:1029E0004C0F1E0012000800030009000F00056EC6
:0C29F00005C003F0000E67EC14F01200AC
:08FFF800AEF718FFF3F8FFF16A
:00000001FF
