:0400000066EF0BF0AC
:100F00000001000A006400E8031027280C010625F0
:0D0F10003031750025002B002D0078000009
:100F1E00A9EC0BF0808E809C809A809680A408D0DD
:100F2E00070E226E000E236E02EC0AF080B4FED77E
:100F3E0080A208D0080E226E000E236E02EC0AF07C
:100F4E0080B2FED780A008D0090E226E000E236E4E
:100F5E0002EC0AF080B0FED782A015D0010E056E0D
:100F6E00080E0AEC0CF0140E096E0F0E0A6E18EC39
:100F7E000BF0000E376E010E366E140E516E0F0E04
:100F8E00526E82B0FED7809E808C809A809680A40E
:100F9E0008D0040E226E000E236E02EC0AF080B40E
:100FAE00FED780A208D0050E226E000E236E02EC34
:100FBE000AF080B2FED780A008D0060E226E000E78
:100FCE00236E02EC0AF080B0FED782A015D0010E7F
:100FDE00056E080E0AEC0CF01A0E096E0F0E0A6E54
:100FEE0018EC0BF0000E376E010E366E1A0E516EA7
:100FFE000F0E526E82B0FED7809E809C808A8096A5
:10100E0080A408D0010E226E000E236E02EC0AF0B0
:10101E0080B4FED780A208D0020E226E000E236E80
:10102E0002EC0AF080B2FED780A008D0030E226E2A
:10103E00000E236E02EC0AF080B0FED782A015D00F
:10104E00010E056E080E0AEC0CF0180E096E0F0E4E
:10105E000A6E18EC0BF0000E376E010E366E180E7F
:10106E00516E0F0E526E82B0FED7809E809C809A7B
:10107E00808680A416D079EC0AF0A9EC0BF0000E55
:10108E00376E000E366E150E516E0F0E526E000E2E
:10109E00336E000E326E000E356E000E346E80B45E
:1010AE00FED780A208D0000E226E000E236E02EC38
:1010BE000AF080B2FED780A04FD0160E51184AE12A
:1010CE000F0E5218D8A446D0150E316E000E2E6E8D
:1010DE00000E2D6E0BD07E0E2D24D96E000E2E20FE
:1010EE00DA6EDF503124316E2D4A2E2A34502D5CAB
:1010FE002E50800A2A6E3550800A2A58D8A0EBD777
:10110E00150E2C6E000E306E000E2F6E0BD0780E5C
:10111E002F24D96E000E3020DA6EDF502C242C6E68
:10112E002F4A302A32502F5C3050800A2A6E3350AC
:10113E00800A2A58D8A0EBD7020E056E010E0AECD3
:10114E000CF031502A6E2B6A2AC020F02BC021F0F1
:10115E00E2EC0BF080B0FED782A015D0010E056E2A
:10116E00080E0AEC0CF0160E096E0F0E0A6E18EC35
:10117E000BF0000E376E010E366E160E516E0F0E00
:10118E00526E82B0FED78AB203D02A6A2A2A01D0C2
:10119E002A6A2A468A502A18FD0B2A188A6E8AB0A5
:1011AE0003D02A6A2A2A01D02A6A8A502A18FE0BEC
:1011BE002A188A6EFF0E2A6E8A0EE82EFED72A2E67
:1011CE00FCD700D0A7D6110E176E000E186E00D1E8
:1011DE00250E1F18D8B409D00DC0D9FF0EC0DAFFE6
:1011EE001FC0DFFF0D4A0E2AF3D0000E1E6E000E3A
:1011FE001D6E000E196E03D019840F4A102A0FC0EF
:10120E00F6FF10C0F7FF0800F550300AD8B4F4D737
:10121E000FC0F6FF10C0F7FF0800F5501BEC0CF0E6
:10122E00D8A036D0000E1E6E000E1D6E1DC001F031
:10123E001EC002F0000E046E0A0E036EF7EC0BF0E9
:10124E0001C01DF002C01EF0D00E136EFF0E146E04
:10125E000FC0F6FF10C0F7FF0800F550156E166AA6
:10126E00135015261450162215501D2616501E22E8
:10127E000F4A102A0FC0F6FF10C0F7FF0800F550F6
:10128E001BEC0CF0D8A004D0D1D7C00E191211D07F
:10129E000FC0F6FF10C0F7FF0F4A102A0800F5CF57
:1012AE001FF01F50000AD8B49FD0750AD8B4EDD7DE
:1012BE008FD017C0D9FF18C0DAFFDECF1AF0DDCFFE
:1012CE001BF0020E1726000E1822010E1F6E050EC1
:1012DE001F18D8B412D01F50020D010EF324F66E53
:1012EE000F0EF420F76E0900F5501A5C0900F55048
:1012FE001B58D8A002D01F2AEAD7800E1FBE7F0E21
:10130E00136E1D501F5C1E50800A1358D8B007D0A4
:10131E001F501D5E000E1FBEFF0E1E5A04D0000E83
:10132E001E6E000E1D6E19A410D01D501E10D8B4C6
:10133E001FD00DC0D9FF0EC0DAFF300EDF6E0D4A82
:10134E000E2A1D06D8A01E06F0D71D501E10D8B4AA
:10135E000FD00DC0D9FF0EC0DAFF200EDF6E0D4A82
:10136E000E2A1D06D8A01E061D501E10D8A4F1D799
:10137E001FC01CF029D01C50020D010EF324F66E76
:10138E000F0EF420F76E0900F5CF03F00A00F5CF2B
:10139E0004F01AC001F01BC002F0EFEC0AF001C01D
:1013AE0008F002C009F0000E0B6E0A0E0A6E88ECF1
:1013BE000BF00850300F1F6E0DC0D9FF0EC0DAFFB4
:1013CE001FC0DFFF0D4A0E2A1C061C28D8A4D3D737
:1013DE000FC0F6FF10C0F7FF0F4A102A0800F5CF16
:1013EE001FF01F50D8A4F4D60DC0D9FF0EC0DAFFDF
:1013FE00000EDF6E120036503710D8A43AD035BE2C
:10140E0006D035506EE1060E345CD8B012007E0E5A
:10141E003424D96E000E3520DA6E22C0DFFF344A36
:10142E00352A010E056E34500008070F0AEC0CF039
:10143E00000E276E000E266E11D07E0E2624D96E5B
:10144E00000E2720DA6EDF50246E256A24C020F0AD
:10145E0025C021F0E2EC0BF0264A272A3450265CF8
:10146E002750800A246E3550800A2458D8B01200B6
:10147E00E4D733BE06D0335034E1060E325CD8B01A
:10148E001200780E3224D96E000E3320DA6E22C08E
:10149E00DFFF324A332A010E056E0A0E0AEC0CF0FB
:1014AE00000E296E000E286E11D0780E2824D96EEB
:1014BE00000E2920DA6EDF50246E256A24C020F03B
:1014CE0025C021F0E2EC0BF0284A292A3250285C84
:1014DE002950800A246E3350800A2458D8B0120046
:1014EE00E4D71200939693948A968A949398939A3B
:1014FE00939C939E0A0E2AEC0CF00A0E2AEC0CF02A
:10150E000A0E2AEC0CF0000E056E020E056401D0D8
:10151E0008D0030EB4EC0AF00A0E2AEC0CF0052AE1
:10152E00F4D7020EB4EC0AF0000E056E030E05643D
:10153E0001D012000550010D0B0EF324F66E0F0EA6
:10154E00F420F76E0800F5CF03F0000EC9EC0BF097
:10155E000A0E2AEC0CF0052AE9D7026E02A003D07F
:10156E00016A012A01D0016A013A8A500118EF0B73
:10157E0001188A6E02A203D0016A012A01D0016A03
:10158E00013A01468A500118DF0B01188A6E02A437
:10159E0003D0016A012A01D0016A013A01460146CF
:1015AE008A500118BF0B01188A6E02A603D0016A79
:1015BE00012A01D0016A013201328A5001187F0BD3
:1015CE0001188A6E00F08A8400F000F08A941200EE
:1015DE00000E066E000E056E03500410D8B41CD01B
:1015EE00010E076E04D0D89003360436072A04AED7
:1015FE00FAD7D890053606360350015C04500258CF
:10160E00D8A005D00350015E0450025A0580D89030
:10161E0004320332072EEDD705C001F006C002F0EA
:10162E00120014D009C0F6FF0AC0F7FFF86A0E0EBA
:10163E00F76403D00800F55005D0F6CFE9FFF7CFD9
:10164E00EAFFEF5041EC0BF0094A0A2A09C0F6FFF7
:10165E000AC0F7FFF86A0E0EF76403D00800F550C3
:10166E0005D0F6CFE9FFF7CFEAFFEF500009D8B467
:10167E001200D8D7086E18D0010E036E000EC9ECFA
:10168E000BF01200020E056E010E0AEC0CF01200A9
:10169E00100E036E000EC9EC0BF0120008C003F022
:1016AE00010EC9EC0BF012000850080AD8B4F0D79E
:1016BE00020AD8B4E7D7060AD8B4DED7EFD7740E2D
:1016CE00F66E180EF76E000EF86E00EE51F010EE7C
:1016DE000EF00900F5CFEEFFE550E150FAE100EE15
:1016EE0060F0460EEE6AE806FDE15F6A00EE32F04B
:1016FE001F0EEE6AE806FDE1000EF86E00018FEF98
:10170E0007F00A500B10D8B418D0010E0C6E04D08E
:10171E00D8900A360B360C2A0BAEFAD70A50085C54
:10172E000B500958D8A004D00A50085E0B50095A25
:10173E00D8900B320A320C2EF1D708C008F009C02F
:10174E0009F012009B8E9B9CD388D38AD38CD390A6
:10175E00D392170E926E000E936E070E946EF18E4C
:10176E000F014869970E0F01486F2D0EC26E100EB5
:10177E00C16ECD8679EC0AF00C0E41EC0CF08A921B
:10178E008A901200046E8A96020E32EC0CF0939838
:10179E00939A939C939E0450D8B402D08A8601D01B
:1017AE008A9600F003380F0BB4EC0AF003500F0BBF
:1017BE00B4EC0AF01200920E0D6E000E0E6E0F0EAD
:1017CE000F6E0F0E106E20C011F021C012F0EAEC59
:1017DE0008F0920E096E000E0A6E18EC0BF0120055
:1017EE0001500302F3CF05F0F4CF06F001500402CE
:1017FE00F350062602500302F350062605C001F0F0
:10180E0006C002F01200066E0504D8B402D0400ED7
:10181E0001D0000E076E0604072607508009036EDE
:10182E00000EC9EC0BF01200036E000E026E3A0EA3
:10183E00036005D02F0E036402D0010E026E02C0AB
:10184E0001F001301200016EC80E00D0E82EFDD757
:10185E00012EFAD71200016E210EE82EFED700F0EF
:10186E00012EFAD71200150F1E00120008000300F9
:10187E0009000F00056E05C003F0000EC9EC0BF059
:02188E00120046
:08FFF800AEF718FFF3F8FFF16A
:00000001FF
