:04000000FDEF0EF012
:100F00000001000A006400E8031027280C010625F0
:100F10003032753A253032753A2530327500253039
:100F200031750023002A00410042004300440000C4
:100F300040EC0FF0020EC7EC0FF08AB202D0010EA7
:100F400001D0000E276E27468A502718FD0B271860
:100F50008A6E8AB002D0010E01D0000E276E8A5030
:100F60002718FE0B27188A6E800E276E440EE82E77
:100F7000FED7272EFCD700D0898089928994899644
:100F800080BA89A023D0010E3A6E0001000E0E6EC9
:100F90000001780E0D6E0F0E106E1E0E0F6E3AC011
:100FA00011F0126AEEEC09F00001000E0A6E000169
:100FB000780E096EAFEC0EF007D0340E276EF20EED
:100FC000E82EFED7272EFCD780BAF7D780BE89A09F
:100FD00023D0020E3A6E0001000E0E6E0001780E54
:100FE0000D6E0F0E106E1E0E0F6E3AC011F0126ACB
:100FF000EEEC09F00001000E0A6E0001780E096E99
:10100000AFEC0EF007D0340E276EF20EE82EFED7AE
:10101000272EFCD780BEF7D780BC89A023D0030E33
:101020003A6E0001000E0E6E0001780E0D6E0F0E6E
:10103000106E1E0E0F6E3AC011F0126AEEEC09F03F
:101040000001000E0A6E0001780E096EAFEC0EF082
:1010500007D0340E276EF20EE82EFED7272EFCD7CF
:1010600080BCF7D782B489A012D00A0E3A6E0F0E58
:101070000A6E270E096EAFEC0EF007D0340E276E05
:10108000F20EE82EFED7272EFCD782B4F7D7899030
:1010900089828994899680BA89A223D0040E3A6EF7
:1010A0000001000E0E6E0001780E0D6E0F0E106E18
:1010B0001E0E0F6E3AC011F0126AEEEC09F000013C
:1010C000000E0A6E0001780E096EAFEC0EF007D02C
:1010D000340E276EF20EE82EFED7272EFCD780BAEC
:1010E000F7D780BE89A223D0050E3A6E0001000E0C
:1010F0000E6E0001780E0D6E0F0E106E1E0E0F6E2E
:101100003AC011F0126AEEEC09F00001000E0A6E0E
:101110000001780E096EAFEC0EF007D0340E276E8A
:10112000F20EE82EFED7272EFCD780BEF7D780BC64
:1011300089A223D0060E3A6E0001000E0E6E000149
:10114000780E0D6E0F0E106E1E0E0F6E3AC011F05F
:10115000126AEEEC09F00001000E0A6E0001780E32
:10116000096EAFEC0EF007D0340E276EF20EE82EAB
:10117000FED7272EFCD780BCF7D782B489A212D025
:101180000B0E3A6E0F0E0A6E290E096EAFEC0EF0C2
:1011900007D0340E276EF20EE82EFED7272EFCD78E
:1011A00082B4F7D7899089928984899680BA89A474
:1011B00023D0070E3A6E0001000E0E6E0001780E6D
:1011C0000D6E0F0E106E1E0E0F6E3AC011F0126AE9
:1011D000EEEC09F00001000E0A6E0001780E096EB7
:1011E000AFEC0EF007D0340E276EF20EE82EFED7CD
:1011F000272EFCD780BAF7D780BE89A423D0080E4B
:101200003A6E0001000E0E6E0001780E0D6E0F0E8C
:10121000106E1E0E0F6E3AC011F0126AEEEC09F05D
:101220000001000E0A6E0001780E096EAFEC0EF0A0
:1012300007D0340E276EF20EE82EFED7272EFCD7ED
:1012400080BEF7D780BC89A423D0090E3A6E000176
:10125000000E0E6E0001780E0D6E0F0E106E1E0E3B
:101260000F6E3AC011F0126AEEEC09F00001000EA8
:101270000A6E0001780E096EAFEC0EF007D0340E46
:10128000276EF20EE82EFED7272EFCD780BCF7D7AC
:1012900082B489A412D00C0E3A6E0F0E0A6E2B0E79
:1012A000096EAFEC0EF007D0340E276EF20EE82E6A
:1012B000FED7272EFCD782B4F7D7899089928994DC
:1012C000898680BA89A612D00D0E3A6E0F0E0A6E6C
:1012D000250E096EAFEC0EF007D0340E276EF20E1D
:1012E000E82EFED7272EFCD780BAF7D780BE89A676
:1012F00023D0000E3A6E0001000E0E6E0001780E33
:101300000D6E0F0E106E1E0E0F6E3AC011F0126AA7
:10131000EEEC09F00001000E0A6E0001780E096E75
:10132000AFEC0EF007D0340E276EF20EE82EFED78B
:10133000272EFCD780BEF7D780BC89A612D00E0E10
:101340003A6E0F0E0A6E230E096EAFEC0EF007D048
:10135000340E276EF20EE82EFED7272EFCD780BC67
:10136000F7D782B489A612D00F0E3A6E0F0E0A6E0E
:101370002D0E096EAFEC0EF007D0340E276EF20E74
:10138000E82EFED7272EFCD782B4F7D7D0EC0CF08E
:101390000001000E0E6E0001780E0D6E0F0E106E25
:1013A0000F0E0F6E56C011F057C012F05AC013F056
:1013B0005BC014F038C015F039C016F0EEEC09F03F
:1013C000020E056E010E8DEC0FF00001000E0A6E8C
:1013D0000001780E096EAFEC0EF0ACD5000E1C6E5D
:1013E000110E1B6E04D12650250AD8B409D00DC0A9
:1013F000D9FF0EC0DAFF26C0DFFF0D4A0E2AF7D054
:10140000000E256E000E246E000E1D6E03D01D848E
:101410000F4A102A0FC0F6FF10C0F7FF0800F55062
:10142000300AD8B4F4D70FC0F6FF10C0F7FF080099
:10143000F5509EEC0FF0D8A036D0000E256E000EB1
:10144000246E24C001F025C002F0000E046E0A0EC6
:10145000036E7AEC0FF001C024F002C025F0D00E2C
:10146000176EFF0E186E0FC0F6FF10C0F7FF0800D2
:10147000F550196E1A6A1750192618501A22195069
:1014800024261A5025220F4A102A0FC0F6FF10C03A
:10149000F7FF0800F5509EEC0FF0D8A004D0D1D78C
:1014A000C00E1D1211D00FC0F6FF10C0F7FF0F4A7B
:1014B000102A0800F5CF26F02650000AD8B4A2D092
:1014C000750AD8B4EDD793D01BC0D9FF1CC0DAFF82
:1014D000DECF1EF0DDCF1FF0020E1B26000E1C22F9
:1014E000010E266E2650050AD8B416D02650020DDD
:1014F000010EF324F66E0F0EF420F76E0900F5CFFF
:1015000017F00900F5CF18F017501E5C18501F583F
:10151000D8A002D0262AE6D7800E26BE7F0E176EF0
:101520002450265C2550800A1758D8B007D0265082
:10153000245E000E26BEFF0E255A04D0000E256E36
:10154000000E246E1DA410D025502410D8B41FD036
:101550000DC0D9FF0EC0DAFF300EDF6E0D4A0E2A25
:101560002406D8A02506F0D725502410D8B40FD0D3
:101570000DC0D9FF0EC0DAFF200EDF6E0D4A0E2A15
:101580002406D8A0250625502410D8A4F1D726C0BB
:1015900023F029D02350020D010EF324F66E0F0E16
:1015A000F420F76E0900F5CF03F00A00F5CF04F040
:1015B0001EC001F01FC002F086EC0EF001C008F062
:1015C00002C009F0000E0B6E0A0E0A6E1FEC0FF03F
:1015D0000850300F266E0DC0D9FF0EC0DAFF26C0AE
:1015E000DFFF0D4A0E2A23062328D8A4D3D70FC025
:1015F000F6FF10C0F7FF0F4A102A0800F5CF26F0BB
:101600002666F1D60DC0D9FF0EC0DAFF000EDF6EE0
:101610001200AEEC0FF0A38038C001F039C002F028
:10162000000E046E0A0E036E3CEC0DF001504A6E83
:101630004A500A0DF350000838244B6E4A50100DE2
:10164000F3504B243C6E5AC001F05BC002F0000E18
:10165000046E0A0E036E3CEC0DF00150486E4850CB
:101660000A0DF35000085A24496E4850100DF350EB
:1016700049243D6E56C001F057C002F0000E046EC2
:101680000A0E036E3CEC0DF00150446E44500A0DFE
:10169000F35000085624456E4450100DF350452475
:1016A0003E6E50C001F051C002F0000E046E0A0EF2
:1016B000036E3CEC0DF001503F6E3F500A0DF350AD
:1016C00000085024406E3F50100DF35040244F6EE0
:1016D00058C001F059C002F0000E046E0A0E036EED
:1016E0003CEC0DF00150466E46500A0DF3500008D8
:1016F0005824476E4650100DF35047244E6E52C08A
:1017000001F053C002F0000E046E0A0E036E3CECB2
:101710000DF00150426E42500A0DF3500008522461
:10172000436E4250100DF35043244D6E54C041F0AF
:1017300054C04CF0000E026E3B0E016E010E036EA3
:101740004DEC0CF0000E026E4C0E016E010E036E9D
:10175000ADEC0BF00F013F8F1200000E066E20EE75
:1017600002F00150D9260250DA22DF50046E130E27
:10177000045CD8B0120020EE02F00150D9260250CD
:10178000DA22DF50D8B4120020EE01F00150D92641
:101790000250DA22DF50046E320E045CD8B0120020
:1017A00020EE01F00150D9260250DA22DF50D8B4E1
:1017B000120020EE03F00150D9260250DA22990ED1
:1017C000DF6401D0120020EE03F00150D926025050
:1017D000DA22DF50076E20EE01F00150D9260250C8
:1017E000DA22DF500A6E20EE02F00150D9260250B4
:1017F000DA22DF500B6E0350D8A4F29C000E0F01CA
:101800003FBB010E096E096602D0AEEC0FF0000E70
:101810000F013FBF010E056E0550D8B406D0000E73
:1018200091BE010E066E0F013F9FFC0E0F013F1788
:101830000F013F8198CF0CF099CF0DF001C0D9FF77
:1018400002C0DAFFDF500D6EFC0E0F013F17030ED2
:101850000F013F1307C098FF08C099FF0AC098FF07
:101860000BC099FF0CC098FF0DC099FF0550D8B46C
:101870000BD00F013F8F0650D8A4918E0950D8B4D9
:1018800007D0AEEC0FF004D0096602D00F013F9BE9
:101890000350D8B41200F29C1200000E066E20EE27
:1018A00002F00150D9260250DA22DF50046E5A0E9F
:1018B000045CD8B0120020EE01F00150D92602508D
:1018C000DA22DF50046E5A0E045CD8B0120020EE0B
:1018D00003F00150D9260250DA22240EDF6401D031
:1018E000120020EE02F00150D9260250DA22DF5019
:1018F000096E20EE01F00150D9260250DA22DF50A5
:10190000086E0350D8A4F29C000E0F013FBB010EDD
:10191000076E076602D0AEEC0FF0000E0F013FBF5E
:10192000010E056E0550D8B406D0000E91BE010E12
:10193000066E0F013F9FFC0E0F013F170F013F8105
:1019400098CF0AF099CF0BF020EE03F00150D92682
:101950000250DA22DF500A6EFC0E0F013F170F0112
:101960003F810AC098FF0BC099FF08C098FF09C0CB
:1019700099FF0550D8B40BD00F013F8F0650D8A463
:10198000918E0750D8B407D0AEEC0FF004D00766A4
:1019900002D00F013F9B0350D8B41200F28C12000A
:1019A000000E026E3B0E016E4EEC0EF03C500F0B23
:1019B0004B6E3C380F0B0F0B4A6E3D500F0B496EB0
:1019C0003D380F0B0F0B486E3E500F0B456E3E38E7
:1019D0000F0B0F0B446E000E026E4C0E016E8EEC60
:1019E0000DF04D500F0B436E4D380F0B0F0B426E29
:1019F0004E500F0B476E4E380F0B0F0B466E4CC000
:101A000041F04F500F0B406E4F380F0B0F0B3F6ED6
:101A10004A500A0D4B50F324386E000EF420396EF4
:101A200048500A0D4950F3245A6E000EF4205B6EA4
:101A300044500A0D4550F324566E000EF420576EA4
:101A400042500A0D4350F324526E000EF420536EA0
:101A500041C054F0556A46500A0D4750F324586E61
:101A6000000EF420596E3F500A0D4050F324506E82
:101A7000000EF420516E1200000E066E0450800A13
:101A8000F36E800EF35C000ED8B4035CD8B006D0C1
:101A9000036C041ED8B0042A010E066E0250800AA0
:101AA000F36E800EF35C000ED8B4015CD8B006D0A3
:101AB000016C021ED8B0022A010E061A000E086E32
:101AC000000E076E04500310D8B41CD0010E056E32
:101AD00004D0D89003360436052A04AEFAD7D8903D
:101AE000073608360350015C04500258D8A005D0D0
:101AF0000350015E0450025A0780D890043203322A
:101B0000052EEDD70650D8B404D0076C081ED8B007
:101B1000082A07C001F008C002F01200FC0E0F01F5
:101B20003F17030E0F013F1398CF0BF099CF0CF026
:101B300098CF0DF099CF0EF098CF0FF099CF10F00D
:101B4000FC0E0F013F17030E0F013F1398CF03F058
:101B500099CF04F098CF05F099CF06F098CF07F011
:101B600099CF08F0055020EE0DF0DF62D7D720EEB8
:101B700001F00150D9260250DA220DC0DFFF20EE1D
:101B800002F00150D9260250DA220EC0DFFF01C058
:101B9000D9FF02C0DAFF10C0DFFF20EE03F00150D2
:101BA000D9260250DA220BC0DFFF120093969394DD
:101BB0008A968A949398939A939C939E0A0EB7EC74
:101BC0000FF00A0EB7EC0FF00A0EB7EC0FF0000E94
:101BD000056E07D0030E13EC0EF00A0EB7EC0FF0F3
:101BE000052A020E0564F6D7020E13EC0EF0000E65
:101BF000056E030E056401D012000550010D0B0E99
:101C0000F324F66E0F0EF420F76E0800F5CF03F004
:101C1000000E61EC0FF00A0EB7EC0FF0052A030E70
:101C20000564EBD71200026E02A002D0010E01D0B3
:101C3000000E016E013A8A500118EF0B01188A6EEE
:101C400002A202D0010E01D0000E016E013A01463F
:101C50008A500118DF0B01188A6E02A402D0010E0F
:101C600001D0000E016E013A014601468A5001186A
:101C7000BF0B01188A6E02A602D0010E01D0000E21
:101C8000016E013201328A5001187F0B01188A6EF1
:101C900000F08A8400F000F08A941200FC0E0F011C
:101CA0003F170F013F8198CF0FF099CF10F098CFD9
:101CB00011F099CF12F0FC0E0F013F170F013F8179
:101CC00098CF07F099CF08F098CF09F099CF0AF094
:101CD000095020EE11F0DF62E1D720EE03F0015051
:101CE000D9260250DA220FC0DFFF20EE02F00150A9
:101CF000D9260250DA2212C0DFFF20EE01F0015097
:101D0000D9260250DA2211C0DFFF1200000E066E43
:101D1000000E056E04500310D8B41CD0010E076EDF
:101D200004D0D89003360436072A04AEFAD7D890E8
:101D3000053606360350015C04500258D8A005D081
:101D40000350015E0450025A0580D89004320332D9
:101D5000072EEDD705C001F006C002F0120014D026
:101D600009C0F6FF0AC0F7FFF86A0E0EF76403D049
:101D70000800F55005D0F6CFE9FFF7CFEAFFEF50A6
:101D8000D8EC0EF0094A0A2A09C0F6FF0AC0F7FF8C
:101D9000F86A0E0EF76403D00800F55005D0F6CFB0
:101DA000E9FFF7CFEAFFEF500009D8B41200D8D707
:101DB000086E18D0010E036E000E61EC0FF01200D9
:101DC000020E056E010E8DEC0FF01200100E036E68
:101DD000000E61EC0FF0120008C003F0010E61EC80
:101DE0000FF012000850080AD8B4F0D7020AD8B48D
:101DF000E7D7060AD8B4DED7EFD700EE60F02C0E96
:101E0000EE6AE806FDE15C6A00EE28F0170EEE6A65
:101E1000E806FDE19C0EF66E1F0EF76E000EF86EE2
:101E200000EE50F010EE0CF00900F5CFEEFFE5509B
:101E3000E150FAE1000EF86E000198EF07F00B5048
:101E40000A10D8B418D0010E0C6E04D0D8900A36FF
:101E50000B360C2A0BAEFAD70A50085C0B50095807
:101E6000D8A004D00A50085E0B50095AD8900B3203
:101E70000A320C2EF1D708C008F009C009F0120090
:101E80009B8E9B9CD388D38AD38CD390D392F00E15
:101E9000926E000E936E070E946E0F0148690F014B
:101EA00049690F013F8F0F013F8BCD8609EC0BF085
:101EB000D6EC0DF00C0EC7EC0FF08A948A928A9043
:101EC0001200046E8A96020EBFEC0FF09398939A5C
:101ED000939C939E0450D8B402D08A8601D08A96EF
:101EE00000F003380F0B13EC0EF003500F0B13EC44
:101EF0000EF0120001500302F3CF05F0F4CF06F00C
:101F000001500402F350062602500302F350062645
:101F100005C001F006C002F01200066E0504D8B438
:101F200002D0400E01D0000E076E060407260750AF
:101F30008009036E000E61EC0FF01200036E000EBC
:101F4000026E3A0E035CD8B005D02F0E036402D0A7
:101F5000010E026E02C001F001301200F29C550E1B
:101F6000A76EAA0EA76E0F013F8BF28C1200016EB6
:101F7000FA0E00F0E82EFDD7012EFAD71200016EFE
:101F8000210EE82EFED700F0012EFAD71200056EC2
:101F900005C003F0000E61EC0FF012000F00080006
:081FA0000300120009001E00FD
:08FFF800AEF718FFF3F8FFF16A
:00000001FF
