:04000000D9EF1AF02A
:100F00000001000A006400E8031027280C01060015
:100F1000803F72313FFE753E58633D951D3CC5AE26
:100F20003A79213994803793A7355615340000005B
:100F300000803FF0FFBEE2A93E8376BEAE2B3E3C72
:100F4000C3BDD2133D78D3BB496E73657274206EF6
:100F500065772050617373776F72642000202020C2
:100F60002020202020202020202020202000416C34
:100F700061726D20616374697661746564200049F3
:100F80006E736572742050617373776F72642000A2
:100F9000253032752F253032752F253032750025DA
:100FA0003032753A253032753A253032750050614D
:100FB0007373776F726400456474205061737300BB
:100FC0004163746976652000507265737320410037
:100FD000496E73657274002044696100486F7261E4
:100FE000002053656700204D696E00416E696F00F7
:0B0FF000204D657300253031750000B6
:100FFC00898089928994899680BA89A01AD0010E29
:10100C000001A26F0001A2513B6E3C6A3BC039F05B
:10101C003CC03AF057EC18F008D0680E3B6EE40E6A
:10102C00E82EFED73B2EFCD700D080AA02D089B088
:10103C00F4D780BE89A01AD0020E0001A26F000165
:10104C00A2513B6E3C6A3BC039F03CC03AF057ECC5
:10105C0018F008D0680E3B6EE40EE82EFED73B2E3F
:10106C00FCD700D080AE02D089B0F4D780BC89A068
:10107C001AD0030E0001A26F0001A2513B6E3C6A14
:10108C003BC039F03CC03AF057EC18F008D0680E71
:10109C003B6EE40EE82EFED73B2EFCD700D080AC86
:1010AC0002D089B0F4D7899089828994899680BAC4
:1010BC0089A21AD0040E0001A26F0001A2513B6E4E
:1010CC003C6A3BC039F03CC03AF057EC18F008D001
:1010DC00680E3B6EE40EE82EFED73B2EFCD700D0FC
:1010EC0080AA02D089B2F4D780BE89A21AD0050E8C
:1010FC000001A26F0001A2513B6E3C6A3BC039F06B
:10110C003CC03AF057EC18F008D0680E3B6EE40E79
:10111C00E82EFED73B2EFCD700D080AE02D089B291
:10112C00F4D780BC89A21AD0060E0001A26F000170
:10113C00A2513B6E3C6A3BC039F03CC03AF057ECD4
:10114C0018F008D0680E3B6EE40EE82EFED73B2E4E
:10115C00FCD700D080AC02D089B2F4D789908992A8
:10116C008984899680BA89A41AD0070E0001A26FCF
:10117C000001A2513B6E3C6A3BC039F03CC03AF0D6
:10118C0057EC18F008D0680E3B6EE40EE82EFED734
:10119C003B2EFCD700D080AA02D089B4F4D780BEF5
:1011AC0089A41AD0080E0001A26F0001A2513B6E57
:1011BC003C6A3BC039F03CC03AF057EC18F008D010
:1011CC00680E3B6EE40EE82EFED73B2EFCD700D00B
:1011DC0080AE02D089B4F4D780BC89A41AD0090E91
:1011EC000001A26F0001A2513B6E3C6A3BC039F07A
:1011FC003CC03AF057EC18F008D0680E3B6EE40E89
:10120C00E82EFED73B2EFCD700D080AC02D089B4A0
:10121C00F4D7899089928994898680AE120089A628
:10122C001200000E0001A26F0001A2513B6E3C6A3D
:10123C003BC039F03CC03AF057EC18F008D0680EBF
:10124C003B6EE40EE82EFED73B2EFCD700D080AED2
:10125C00120089A61200F3D7000E0001E46F000EF5
:10126C00E36F000E0001916F010E906F0001E351CE
:10127C000001E411D8A453D0000E0001936F000EAE
:10128C00926F000E0001DE6F000EDD6F31D0FEECB0
:10129C0007F0020E0001921900019311D8A428D076
:1012AC0094EC11F05BC0DDF05CC0DEF00001DEBF41
:1012BC001AD00001DE5104E10001DD05D8A013D0E5
:1012CC000001DEBF08D00001DE510DE1200E00014F
:1012DC00DD5DD8B008D0DDC0CBF0DEC0CCF00001B5
:1012EC00924B932B05D0000E0001936F000E926F62
:1012FC00000193BFCCD70001935105E1030E00010F
:10130C00925DD8A0C4D711EC18F00001E34BE42B8C
:10131C00820E5F6EDE0EE82EFED75F2EFCD700012C
:10132C00E3050001E411D8A453D0000E0001936F23
:10133C00000E926F000E0001E06F000EDF6F31D0D7
:10134C00FEEC07F0020E0001921900019311D8A4D3
:10135C0028D094EC11F05BC0DFF05CC0E0F0000131
:10136C00E0BF1AD00001E05104E10001DF05D8A074
:10137C0013D00001E0BF08D00001E0510DE10D0ECB
:10138C000001DF5DD8B008D0DFC0CFF0E0C0D0F0F6
:10139C000001924B932B05D0000E0001936F000EB1
:1013AC00926F000193BFCCD70001935105E1030E5E
:1013BC000001925DD8A0C4D711EC18F00001E34BEA
:1013CC00E42B820E5F6EDE0EE82EFED75F2EFCD76E
:1013DC00020E0001E3190001E411D8A44CD0000E58
:1013EC000001936F000E926F000E0001E26F000E71
:1013FC00E16F2AD0FEEC07F0020E000192190001F9
:10140C009311D8A421D094EC11F05BC0E1F05CC036
:10141C00E2F00001E2BF13D00001E2BF08D00001EE
:10142C00E2510DE1640E0001E15DD8B008D0E1C0DD
:10143C00D1F0E2C0D2F00001924B932B05D0000EFC
:10144C000001936F000E926F000193BFD3D7000180
:10145C00935105E1030E0001925DD8A0CBD711EC9E
:10146C0018F00001E34BE42B820E5F6EDE0EE82ECB
:10147C00FED75F2EFCD73EEC0EF0000E0001916FF4
:10148C00000E906F000E0001936F000E926F120011
:10149C00260E306E000E316E00D1250E3818D8B4E1
:1014AC0009D022C0D9FF23C0DAFF38C0DFFF224A9F
:1014BC00232AF3D0000E376E000E366E000E326EFD
:1014CC0003D03284244A252A24C0F6FF25C0F7FF16
:1014DC000800F550300AD8B4F4D724C0F6FF25C064
:1014EC00F7FF0800F550AFEC1CF0D8A036D0000E7A
:1014FC00376E000E366E36C01CF037C01DF0000E75
:10150C001F6E0A0E1E6E67EC1CF01CC036F01DC060
:10151C0037F0D00E2C6EFF0E2D6E24C0F6FF25C0BA
:10152C00F7FF0800F5502E6E2F6A2C502E262D50EA
:10153C002F222E5036262F503722244A252A24C0FB
:10154C00F6FF25C0F7FF0800F550AFEC1CF0D8A053
:10155C0004D0D1D7C00E321211D024C0F6FF25C052
:10156C00F7FF244A252A0800F5CF38F03850000A36
:10157C00D8B49FD0750AD8B4EDD78FD030C0D9FF6E
:10158C0031C0DAFFDECF33F0DDCF34F0020E30267F
:10159C00000E3122010E386E050E3818D8B412D058
:1015AC003850020D010EF324F66E0F0EF420F76E78
:1015BC000900F550335C0900F5503458D8A002D01E
:1015CC00382AEAD7800E38BE7F0E2C6E3650385C27
:1015DC003750800A2C58D8B007D03850365E000EE1
:1015EC0038BEFF0E375A04D0000E376E000E366E22
:1015FC0032A410D036503710D8B41FD022C0D9FF27
:10160C0023C0DAFF300EDF6E224A232A3606D8A01A
:10161C003706F0D736503710D8B40FD022C0D9FFC8
:10162C0023C0DAFF200EDF6E224A232A3606D8A00A
:10163C00370636503710D8A4F1D738C035F029D03A
:10164C003550020D010EF324F66E0F0EF420F76EDA
:10165C000900F5CF03F00A00F5CF04F033C001F018
:10166C0034C002F006EC1BF001C008F002C009F017
:10167C00000E0B6E0A0E0A6EF1EC1BF00850300FC8
:10168C00386E22C0D9FF23C0DAFF38C0DFFF224AF0
:10169C00232A35063528D8A4D3D724C0F6FF25C075
:1016AC00F7FF244A252A0800F5CF38F03850D8A483
:1016BC00F4D622C0D9FF23C0DAFF000EDF6E120071
:1016CC00000E0001E46F000EE36F000E0001916F3D
:1016DC00010E906F0001E3510001E411D8A44CD02D
:1016EC00000E0001936F000E926F000E0001DE6F72
:1016FC00000EDD6F2AD0FEEC07F0020E00019219ED
:10170C0000019311D8A421D094EC11F05BC0DDF052
:10171C005CC0DEF00001DEBF13D00001DEBF08D0DC
:10172C000001DE510DE1180E0001DD5DD8B008D0CE
:10173C00DDC0C9F0DEC0CAF00001924B932B05D07E
:10174C00000E0001936F000E926F000193BFD3D770
:10175C000001935105E1030E0001925DD8A0CBD797
:10176C00DFEC18F00001E34BE42B820E5F6EDE0E13
:10177C00E82EFED75F2EFCD70001E3050001E41133
:10178C00D8A44CD0000E0001936F000E926F000E87
:10179C000001E06F000EDF6F2AD0FEEC07F0020EA6
:1017AC000001921900019311D8A421D094EC11F0EE
:1017BC005BC0DFF05CC0E0F00001E0BF13D00001C3
:1017CC00E0BF08D00001E0510DE13C0E0001DF5DEF
:1017DC00D8B008D0DFC0C7F0E0C0C8F00001924B11
:1017EC00932B05D0000E0001936F000E926F000139
:1017FC0093BFD3D70001935105E1030E0001925D15
:10180C00D8A0CBD7DFEC18F00001E34BE42B820E11
:10181C005F6EDE0EE82EFED75F2EFCD7020E0001A7
:10182C00E3190001E411D8A44CD0000E0001936F11
:10183C00000E926F000E0001E26F000EE16F2AD0D5
:10184C00FEEC07F0020E0001921900019311D8A4CE
:10185C0021D094EC11F05BC0E1F05CC0E2F000012F
:10186C00E2BF13D00001E2BF08D00001E2510DE14C
:10187C003C0E0001E15DD8B008D0E1C094F0E2C0AC
:10188C0095F00001924B932B05D0000E0001936F45
:10189C00000E926F000193BFD3D70001935105E165
:1018AC00030E0001925DD8A0CBD7DFEC18F000013D
:1018BC00E34BE42B820E5F6EDE0EE82EFED75F2E1E
:1018CC00FCD73EEC0EF0000E0001916F000E906FF5
:1018DC00000E0001936F000E926F120041504210E7
:1018EC004310D8A407D0000E416E800E426E3F0EFE
:1018FC00436E1200720E016E310E026E440E036EB8
:10190C0041C004F042C005F043C006F03CEC17F0B7
:10191C00D8B00CD0000E0001896F220E886FFF0E1C
:10192C00416E7F0E426E7F0E436E120041C001F07D
:10193C0042C002F043C003F0490E046E3A0E056E2D
:10194C00C40E066E3CEC17F0D8B00CD0000E0001A3
:10195C00896F220E886F000E416E000E426E000ED3
:10196C00436E120043AE02D0010E01D0000E496E40
:10197C004950D8B40ED041C001F042C002F043C06F
:10198C0003F08CEC1CF001C041F002C042F003C02B
:10199C0043F041C00DF042C00EF043C00FF0AA0E50
:1019AC00106EB80E116E3F0E126E11EC13F00DC0CE
:1019BC0041F00EC042F00FC043F041C02EF042C0C7
:1019CC002FF043C030F0FEEC13F02EC044F02FC0CB
:1019DC0045F030C046F044C00DF045C00EF046C096
:1019EC000FF097EC12F00DC047F00EC048F041C05C
:1019FC002EF042C02FF043C030F047C009F048C071
:101A0C000AF032EC1CF009C031F00AC032F00BC005
:101A1C0033F012EC1CF02EC041F02FC042F030C05D
:101A2C0043F041C02EF042C02FF043C030F00F0EF7
:101A3C00316E0F0E326E000E346E090E336E6DEC7D
:101A4C0014F02EC03AF02FC03BF030C03CF047C031
:101A5C003DF048C03EF0D6EC14F03AC041F03BC02B
:101A6C0042F03CC043F04950D8B425D041280EE197
:101A7C007F0E42180BE17F0E4318D8A407D0000E3E
:101A8C00416E000E426E000E436E1200000E096E87
:101A9C00800E0A6E3F0E0B6E41C00CF042C00DF072
:101AAC0043C00EF08BEC13F009C041F00AC042F0B9
:101ABC000BC043F0120041C041F042C042F043C0A1
:101ACC0043F0120024C028F0296A2A6A23342836ED
:101ADC0001E3298028502D6E27C028F0296A2A6A34
:101AEC002634283601E3298028502C6E2D50D8B48A
:101AFC000BD02C502D5CD8B00ED02D5000082C24BF
:101B0C00286E180E286407D025C022F026C023F0BA
:101B1C0027C024F012002C50D8B40BD02D502C5CC4
:101B2C00D8B00ED02C5000082D24286E180E286426
:101B3C0007D022C022F023C023F024C024F01200CE
:101B4C00060E2B6E24BE2B8E27BE2B8C238EFF0EE7
:101B5C002216FF0E2316000E2416268EFF0E2516B7
:101B6C00FF0E2616000E27162C502D5CD8B01BD05D
:101B7C00D8902536263627362C062D502C18D8B45E
:101B8C000DD02B062BC028F0070E2816D8B406D083
:101B9C00EFD7D8902432233222322D2A2C502D18F4
:101BAC00D8B41FD0F6D72D502C5CD8B01AD0D89002
:101BBC002236233624362D062D502C18D8B40DD0B1
:101BCC002B062BC028F0070E2816D8B406D0EFD75A
:101BDC00D8902732263225322C2A2C502D18D8A4F6
:101BEC00F7D72BAE0CD0FF0E221AFF0E231AFF0EC6
:101BFC00241A010E2226000E2322000E24222BACC6
:101C0C000CD0FF0E251AFF0E261AFF0E271A010EF6
:101C1C002526000E2622000E2722000E2B6E2250A7
:101C2C002526235026222450272227AE0ED0FF0E25
:101C3C00251AFF0E261AFF0E271A010E2526000E56
:101C4C002622000E2722010E2B6E25C001F026C085
:101C5C0002F027C003F02DC004F02BC005F0FCEC03
:101C6C0015F001C022F002C023F003C024F01200D2
:101C7C00D4EC1CF0A38094C001F095C002F0000ECF
:101C8C00046E0A0E036E9DEC18F001500001F26F09
:101C9C000001F2510A0DF3500008000194250001D7
:101CAC00F36F0001F251100DF3500001F325000108
:101CBC00BC6FC7C001F0C8C002F0000E046E0A0E63
:101CCC00036E9DEC18F001500001F06F0001F05113
:101CDC000A0DF35000080001C7250001F16F000147
:101CEC00F051100DF3500001F1250001BD6FC9C07A
:101CFC0001F0CAC002F0000E046E0A0E036E9DECD9
:101D0C0018F001500001EE6F0001EE510A0DF35076
:101D1C0000080001C9250001EF6F0001EE51100D04
:101D2C00F3500001EF250001BE6FD1C001F0D2C00D
:101D3C0002F0000E046E0A0E036E9DEC18F00150BA
:101D4C000001E76F0001E7510A0DF3500008000194
:101D5C00D1250001E86F0001E751100DF35000018F
:101D6C00E8250001BA6FCFC001F0D0C002F0000E20
:101D7C00046E0A0E036E9DEC18F001500001EA6F20
:101D8C000001EA510A0DF35000080001CF250001B3
:101D9C00EB6F0001EA51100DF3500001EB2500012F
:101DAC00B96FCBC001F0CCC002F0000E046E0A0E6D
:101DBC00036E9DEC18F001500001EC6F0001EC512A
:101DCC000A0DF35000080001CB250001ED6F000156
:101DDC00EC51100DF3500001ED250001B86FCDC092
:101DEC00E9F0CDC0B7F0BB0E016E000E026E010E15
:101DFC00036E19EC12F0B70E016E000E026E010E9E
:101E0C00036E6AEC10F00F013F8F1200000E566E3D
:101E1C004A504B104C10D8A41CD0000E016E000E72
:101E2C00026E000E036E4DC004F04EC005F04FC0A4
:101E3C0006F03CEC17F0D8A005D0000E0001896F1D
:101E4C00210E886F000E4A6E000E4B6E000E4C6E0B
:101E5C0012004D504E104F10D8A407D0000E4A6EF1
:101E6C00800E4B6E3F0E4C6E12004CAE41D04DC0EE
:101E7C000DF04EC00EF04FC00FF097EC12F00DC0ED
:101E8C0057F00EC058F00FC059F010C05AF057C0A0
:101E9C0009F058C00AF059C00BF05AC00CF0ABEC6A
:101EAC001AF04D50091807E14E500A1804E14F5032
:101EBC000B18D8B40CD0000E0001896F210E886F5E
:101ECC00000E4A6E000E4B6E000E4C6E12005750F8
:101EDC00010B566E4AC001F04BC002F04CC003F02F
:101EEC008CEC1CF001C04AF002C04BF003C04CF06B
:101EFC004AC03AF04BC03BF04CC03CF005EC11F042
:101F0C003AC050F03BC051F03CC052F050C00DF004
:101F1C0051C00EF052C00FF04DC010F04EC011F079
:101F2C004FC012F011EC13F00DC053F00EC054F072
:101F3C000FC055F053C041F054C042F055C043F0AF
:101F4C0074EC0CF041C04AF042C04BF043C04CF072
:101F5C005650D8B40FD04AC001F04BC002F04CC060
:101F6C0003F08CEC1CF001C04AF002C04BF003C033
:101F7C004CF012004AC04AF04BC04BF04CC04CF035
:101F8C001200BB0E016E000E026E43EC1AF0000143
:101F9C00BC510F0B0001F36F0001BC390F0B0F0B81
:101FAC000001F26F0001BD510F0B0001F16F000138
:101FBC00BD390F0B0F0B0001F06F0001BE510F0B61
:101FCC000001EF6F0001BE390F0B0F0B0001EE6F1C
:101FDC00B70E016E000E026E84EC17F00001B851C2
:101FEC000F0B0001ED6F0001B8390F0B0F0B000147
:101FFC00EC6F0001B9510F0B0001EB6F0001B93907
:10200C000F0B0F0B0001EA6FB7C0E9F00001BA51DA
:10201C000F0B0001E86F0001BA390F0B0F0B000119
:10202C00E76F0001F2510A0D0001F351F324000196
:10203C00946F0001000EF4200001956F0001F05127
:10204C000A0D0001F151F3240001C76F0001000ECD
:10205C00F4200001C86F0001EE510A0D0001EF5190
:10206C00F3240001C96F0001000EF4200001CA6FB7
:10207C000001EC510A0D0001ED51F3240001CB6F6E
:10208C000001000EF4200001CC6FE9C0CDF000017E
:10209C00CE6B0001EA510A0D0001EB51F324000153
:1020AC00CF6F0001000EF4200001D06F0001E7514A
:1020BC000A0D0001E851F3240001D16F0001000E5C
:1020CC00F4200001D26F1200000E066E20EE02F01A
:1020DC000150D9260250DA22130EDF60120020EED6
:1020EC0002F00150D9260250DA22DF50D8B4120087
:1020FC0020EE01F00150D9260250DA22320EDF60B8
:10210C00120020EE01F00150D9260250DA22DF50E5
:10211C00D8B4120020EE03F00150D9260250DA2276
:10212C00990EDF6401D0120020EE03F00150D92685
:10213C000250DA22DF50076E20EE01F00150D92652
:10214C000250DA22DF500A6E20EE02F00150D9263E
:10215C000250DA22DF500B6E0350D8A4F29C0F0110
:10216C00000E3FBB010E096E0950D8B4D4EC1CF024
:10217C000F01000E3FBF010E056E0550D8B406D0FE
:10218C00000E91BE010E066E0F013F9FFC0E0F015B
:10219C003F170F013F8198CF0CF099CF0DF001C084
:1021AC00D9FF02C0DAFFDF500D6EFC0E0F013F1796
:1021BC00030E0F013F1307C098FF08C099FF0AC018
:1021CC0098FF0BC099FF0CC098FF0DC099FF0550EC
:1021DC00D8B40BD00F013F8F0650D8A4918E095064
:1021EC00D8B408D0D4EC1CF005D00950D8A402D037
:1021FC000F013F9B0350D8B41200F29C12003CAE6E
:10220C000CD0000E0001896F210E886F000E3A6E03
:10221C00000E3B6E000E3C6E12003A503B103C1010
:10222C00D8A40CD0000E0001896F220E886F000E0E
:10223C003A6E000E3B6E000E3C6E1200000E106EDD
:10224C00000E116E400E126E3D0E046E000E056EE9
:10225C003AC001F03BC002F03CC003F0F4EC16F0C5
:10226C0001C00DF002C00EF003C00FF011EC13F022
:10227C000DC022F00EC023F00FC024F0000E256E0E
:10228C00800E266EBF0E276E68EC0DF022C03AF061
:10229C0023C03BF024C03CF03D06D8A03E063AC01B
:1022AC002EF03BC02FF03CC030F02D0E316E0F0ED7
:1022BC00326E000E346E080E336E6DEC14F02EC0C0
:1022CC003AF02FC03BF030C03CF0720E106E310E65
:1022DC00116E3F0E126E3DC009F03EC00AF032EC9A
:1022EC001CF009C00DF00AC00EF00BC00FF011EC81
:1022FC0013F00DC022F00EC023F00FC024F03AC032
:10230C0025F03BC026F03CC027F068EC0DF022C055
:10231C003AF023C03BF024C03CF01200000E000148
:10232C00DA6F000ED96F000E0001DC6F010EDB6F4F
:10233C000001DCBF5AD0010E0001DB255D6E000EE2
:10234C000001DC215E6E5D1E5E1E5D4A5E2A020E81
:10235C005D24096E000E5E200A6E32EC1CF009C082
:10236C00D3F00AC0D4F00BC0D5F0D3C04DF0D4C01C
:10237C004EF0D5C04FF0000E4A6E200E4B6E410E43
:10238C004C6E0CEC0FF04AC0D6F04BC0D7F04CC0E2
:10239C00D8F0D6C00DF0D7C00EF0D8C00FF097EC27
:1023AC0012F00DC01CF00EC01DF0D8900001DB35F2
:1023BC00D96E0001DC35DA6E800ED926000EDA22D9
:1023CC00DECF1EF0DDCF1FF067EC1CF00001D95101
:1023DC001C240001D96F0001DA511D200001DA6FB5
:1023EC000001DB07D8A0DC07A3D7A30E226E000EDA
:1023FC00236E9A0E246E0F0E256ED9C026F0DAC00D
:10240C0027F04EEC0AF0020E056E080E9EEC1CF046
:10241C00A30E096E000E0A6E2FEC1BF0D9C05BF0F8
:10242C00DAC05CF01200000E066E20EE02F00150D5
:10243C00D9260250DA225A0EDF60120020EE01F08B
:10244C000150D9260250DA225A0EDF60120020EE1B
:10245C0003F00150D9260250DA22240EDF6401D099
:10246C00120020EE02F00150D9260250DA22DF5081
:10247C00096E20EE01F00150D9260250DA22DF500D
:10248C00086E0350D8A4F29C0F01000E3FBB010E46
:10249C00076E0750D8B4D4EC1CF00F01000E3FBFF0
:1024AC00010E056E0550D8B406D0000E91BE010E7B
:1024BC00066E0F013F9FFC0E0F013F170F013F816E
:1024CC0098CF0AF099CF0BF020EE03F00150D926EB
:1024DC000250DA22DF500A6EFC0E0F013F170F017B
:1024EC003F810AC098FF0BC099FF08C098FF09C034
:1024FC0099FF0550D8B40BD00F013F8F0650D8A4CC
:10250C00918E0750D8B408D0D4EC1CF005D00750ED
:10251C00D8A402D00F013F9B0350D8B41200F28C08
:10252C0012000FC011F0126A136A0E34113601E357
:10253C00128011501B6E1B50D8A409D0000E0D6ECA
:10254C00000E0E6E000E0F6E000E106E1200170EA7
:10255C00116E0DC012F00EC013F00FC014F0112844
:10256C00156E04D0D890143213321232152EFAD7BD
:10257C001250166E0E8EFF0E0D16FF0E0E16000E5E
:10258C000F160D50176E0E50186E0F50196E1A6AEA
:10259C008E0E1B5E1BAE16D01B50800A8F0FD8B050
:1025AC0009D0000E0D6E000E0E6E000E0F6E000E9A
:1025BC00106E1200D8901A321932183217321B3E94
:1025CC00F9D715D0170E1B640FD0000E0D6E000E30
:1025DC000E6E000E0F6E000E106E1200D890173695
:1025EC00183619361A361B061B50D8A4F7D71650B6
:1025FC00D8B408D01A1E191E181E176C000E1822FB
:10260C0019221A2217C00DF018C00EF019C00FF0C5
:10261C001AC010F012000FC013F0146A156A0E34B1
:10262C00133601E314801350166E1650D8A407D03D
:10263C00000E0D6E000E0E6E000E0F6E120012C00C
:10264C0013F0146A156A1134133601E31480135015
:10265C001B6E1B50D8A407D0000E0D6E000E0E6E14
:10266C00000E0F6E12001B507B0F16260FC01BF0B6
:10267C0012501B1A800E1B160E8E118EFF0E10168A
:10268C00FF0E1116000E1216000E176E000E186EAD
:10269C00000E196E070E1A6E0DA006D010501726DC
:1026AC001150182212501922D8900F320E320D32BE
:1026BC00D8901036113612361A2EEED7090E1A6E25
:1026CC000DA006D0105017261150182212501922A6
:1026DC00D8900F320E320D32D89019321832173280
:1026EC001A2EEED717C001F018C002F019C003F073
:1026FC0016C004F01BC005F0FCEC15F001C00DF089
:10270C0002C00EF003C00FF012000BC00FF0106AE5
:10271C00116A0A340F3601E310800F50166E1650F2
:10272C00D8A407D0000E096E000E0A6E000E0B6EB8
:10273C0012000EC00FF0106A116A0D340F3601E34F
:10274C0010800F50176E1750D8A407D0000E096ECA
:10275C00000E0A6E000E0B6E1200000E136E000EB1
:10276C00146E000E156E1750890F165E0BC017F005
:10277C000E50171A800E17160A8EFF0E0916FF0E32
:10278C000A16000E0B160D8EFF0E0C16FF0E0D16F4
:10279C00000E0E16180E126ED8901336143615360F
:1027AC000C50095C0D500A580E500B58D8A007D08D
:1027BC000C50095E0D500A5A0E500B5A1380D890CB
:1027CC0009360A360B36122EE7D713C001F014C0A7
:1027DC0002F015C003F016C004F017C005F0FCECB5
:1027EC0015F001C009F002C00AF003C00BF0120092
:1027FC002EC001F02FC002F030C003F0340E046E76
:10280C00000E056EF4EC16F035AE10D030AE07D0DD
:10281C00000E2E6E800E2F6EBF0E306E1200000E4C
:10282C002E6E000E2F6E000E306E1200355004E12D
:10283C00150E345CD8A007D02EC02EF02FC02FF070
:10284C0030C030F012002EC00DF02FC00EF030C092
:10285C000FF097EC12F00DC01CF00EC01DF00FC065
:10286C001EF010C01FF05AEC19F01CC031F01DC046
:10287C0032F01EC033F02EC001F02FC002F030C079
:10288C0003F031C004F032C005F033C006F03CEC6C
:10289C0017F0D8B015D031C022F032C023F033C0BD
:1028AC0024F0000E256E800E266EBF0E276E68EC8F
:1028BC000DF022C02EF023C02FF024C030F01200F7
:1028CC0031C02EF032C02FF033C030F0120033C0C4
:1028DC001CF034C01DF0000E1F6E030E1E6E67EC54
:1028EC001CF031C035F032C036F01C5035261D506E
:1028FC00362235C0F6FF36C0F7FF0900F5CF37F0AA
:10290C000900F5CF38F00A00F5CF39F03ED037C0CA
:10291C0010F038C011F039C012F02EC00DF02FC0DD
:10292C000EF030C00FF011EC13F00DC022F00EC001
:10293C0023F00FC024F0000E1F6E030E1E6E330624
:10294C00D8A0340633C01CF034C01DF067EC1CF06A
:10295C0031C035F032C036F01C5035261D503622B1
:10296C0035C0F6FF36C0F7FF0900F5CF25F009009A
:10297C00F5CF26F00A00F5CF27F068EC0DF022C059
:10298C0037F023C038F024C039F033503410D8A4B9
:10299C00BED737C02EF038C02FF039C030F012003F
:1029AC003A503B103C10D8A407D0000E3A6E000EE3
:1029BC003B6E000E3C6E12003C507F0B3F6E406A2B
:1029CC00D8903F3640363F503D2640503E223BAEDD
:1029DC0003D03F6A3F2A01D03F6A3F503D26000E8C
:1029EC003E223EAE0CD0000E0001896F220E886F85
:1029FC00000E3A6E000E3B6E000E3C6E12003EBE98
:102A0C0016D03E04D8A013D0000E0001896F220E00
:102A1C00886F3CAE06D0FF0E3A6E7F0E3B6EFF0EFB
:102A2C00ECD7FF0E3A6E7F0E3B6E7F0EE6D73E3430
:102A3C003E30406E3D303F6E3C503F18800B3F188F
:102A4C003C6E3DC03FF0010E3F163F323F323B50D3
:102A5C003F187F0B3F183B6E3AC03AF03BC03BF03F
:102A6C003CC03CF01200899089928984899682B48A
:102A7C0089A41DD0030E00018C1900018D11D8A45E
:102A8C0006D0000E00018D6F000E8C6F0CD0000173
:102A9C008C4B8D2B08D0680E396EE40EE82EFED7C9
:102AAC00392EFCD700D082A402D089B4F4D78990F7
:102ABC0089928994898682B489A61DD000018C5193
:102ACC0000018D11D8A406D0000E00018D6F030EED
:102ADC008C6F0DD000018C07D8A08D0708D0680E24
:102AEC00396EE40EE82EFED7392EFCD700D082A426
:102AFC0002D089B6F4D7A30E226E000E236EF50E0B
:102B0C00246E0F0E256E8CC026F08DC027F04EEC77
:102B1C000AF0010E056E080E9EEC1CF0A30E096E59
:102B2C00000E0A6E2FEC1BF01200000E0001936FCA
:102B3C00000E926F010E056E010E9EEC1CF06E0ED7
:102B4C00096E0F0E0A6E2FEC1BF0020E056E010EB5
:102B5C009EEC1CF05D0E096E0F0E0A6E2FEC1BF036
:102B6C00000E00018F6F010E8E6F30D0000193BFED
:102B7C0008D00001935108E1040E0001925DD8B019
:102B8C0003D0FEEC07F012D01DEC19F0015002102E
:102B9C00D8B407D0000E00018F6F000E8E6F8A9094
:102BAC001200000E0001936F000E926F82AA82BC7D
:102BBC0002D082AE0BD08AB003D03D6A3D2A01D040
:102BCC003D6A8A503D18FE0B3D188A6E00018E51ED
:102BDC0000018F11D8B41200C9D7FF0E3D6E8A0EBA
:102BEC00E82EFED73D2EFCD700D012000450D8B4EE
:102BFC0005D0015002100310D8A40CD0000E016EA9
:102C0C00000E026E000E036E1200042AD8900332DE
:102C1C0002320132000E0114066E000E0214076E11
:102C2C00FE0E0314086E065007100810D8B40CD012
:102C3C00ECD7042A010E0126000E0222000E0322FC
:102C4C00D890033202320132000E0114066E000ECF
:102C5C000214076EFF0E0314086E065007100810BE
:102C6C00D8B406D0E6D70406D8900136023603361F
:102C7C0002BE03D0020E0460F6D704A0029ED890C8
:102C8C000432045003120550D8A4038E01C001F085
:102C9C0002C002F003C003F0120000018A510001CF
:102CAC008B11D8A422D0000E00018B6F010E8A6FFD
:102CBC00010E056E010E9EEC1CF0D00E096E0F0E6F
:102CCC000A6E2FEC1BF0020E056E010E9EEC1CF032
:102CDC00AE0E096E0F0E0A6E2FEC1BF0D00E0B6EA3
:102CEC00CA0EE82EFED70B2EFCD700018A05000178
:102CFC008B11D8A41200000E00018B6F000E8A6F8E
:102D0C00010E056E010E9EEC1CF0650E096E0F0E89
:102D1C000A6E2FEC1BF0020E056E010E9EEC1CF0E1
:102D2C00650E096E0F0E0A6E2FEC1BF09C0E0B6ECF
:102D3C00D70EE82EFED70B2EFCD700F01200000E9B
:102D4C000001936F000E926F010E056E010E9EEC4A
:102D5C001CF0480E096E0F0E0A6E2FEC1BF0020EC3
:102D6C00056E010E9EEC1CF05D0E096E0F0E0A6EC8
:102D7C002FEC1BF0000193BF08D00001935108E128
:102D8C00040E0001925DD8B003D0FEEC07F0F2D730
:102D9C00000E3E6E000E3D6E3EBE06D03E501DE156
:102DAC00040E3D5CD8B01200D8903D34D96E3E3440
:102DBC00DA6E600ED926000EDA22D8903D34E16E20
:102DCC003E34E26EBF0EE126000EE222DECFE6FFBD
:102DDC00DDCFE5FF3D4A3E2ADFD71200015002103D
:102DEC000310D8A40FD004C0D9FF05C0DAFF000E21
:102DFC00DE6E000EDD6E000E016E000E026E000E19
:102E0C00036E120003507F0B066E076AD8900636CD
:102E1C00073604C0D9FF05C0DAFF06C0DEFF07C0C5
:102E2C00DDFF02AE03D0066A062A01D0066A065000
:102E3C0004C0D9FF05C0DAFFDE12000EDD1204C09B
:102E4C00D9FF05C0DAFF820EDE26FF0EDD220380DD
:102E5C000382038403860388038A039C029E01C0B9
:102E6C0001F002C002F003C003F0120003AE16D052
:102E7C0001C007F002C008F003C009F0071E081ECD
:102E8C00091E072A000E08220922000E0724016ED3
:102E9C00000E0820026E800E0920036E06AE16D0BE
:102EAC0004C007F005C008F006C009F0071E081E94
:102EBC00091E072A000E08220922000E0724046EA0
:102ECC00000E0820056E800E0920066E000E011AF9
:102EDC00000E021A800E031A000E041A000E051AB8
:102EEC00800E061A0450015C055002580650035817
:102EFC00D8B002D0D8901200D8801200FC0E0F016E
:102F0C003F17030E0F013F1398CF0BF099CF0CF026
:102F1C0098CF0DF099CF0EF098CF0FF099CF10F00D
:102F2C00FC0E0F013F17030E0F013F1398CF03F058
:102F3C0099CF04F098CF05F099CF06F098CF07F011
:102F4C0099CF08F005500D18D8A4D8D720EE01F071
:102F5C000150D9260250DA220DC0DFFF20EE02F01C
:102F6C000150D9260250DA220EC0DFFF01C0D9FF72
:102F7C0002C0DAFF10C0DFFF20EE03F00150D926AB
:102F8C000250DA220BC0DFFF1200898089928994EB
:102F9C00899680AA02D089B007D080AE02D089B0C1
:102FAC0003D080BC89A002D00CEC1AF089908982E5
:102FBC008994899680AA02D089B207D080AE02D0BB
:102FCC0089B203D080BC89A202D00CEC1AF0899093
:102FDC0089928984899680AA02D089B407D080AE60
:102FEC0002D089B403D080BC89A402D00CEC1AF0B6
:102FFC00899089928994898680AA02D089B608D052
:10300C0080AE02D089B604D080AC120089A6120022
:10301C000CEC1AF012000001CCBF0FD00001CC5107
:10302C0005E1200E0001CB5DD8A007D0000E0001F9
:10303C00CC6F010ECB6F3EEC0EF00001D0BF0FD069
:10304C000001D05105E10D0E0001CF5DD8A007D0D5
:10305C00000E0001D06F010ECF6F3EEC0EF0A30EF0
:10306C00226E000E236E900E246E0F0E256ECBC0BA
:10307C0026F0CCC027F0CFC028F0D0C029F0D1C0AA
:10308C002AF0D2C02BF04EEC0AF0010E056E090EA0
:10309C009EEC1CF0A30E096E000E0A6E2FEC1BF0BA
:1030AC0012000001905100019111D8A42DD0D8909C
:1030BC0000019235D96E00019335DA6E600ED92677
:1030CC00000EDA2239C0DEFF3AC0DDFF020E056EBB
:1030DC00000192299EEC1CF0A30E226E000E236EB2
:1030EC00F50E246E0F0E256E39C026F03AC027F06F
:1030FC004EEC0AF0A30E096E000E0A6E2FEC1BF0BC
:10310C000001924B932B1200D89000019235D96E8E
:10311C0000019335DA6E800ED926000EDA2239C002
:10312C00DEFF3AC0DDFF0001924B932B1200000E24
:10313C00066E04AE06D0036C041ED8B0042A010E31
:10314C00066E02AE06D0016C021ED8B0022A010E29
:10315C00061A000E086E000E076E03500410D8B449
:10316C001CD0010E056E04D0D89003360436052A07
:10317C0004AEFAD7D890073608360350015C0450D9
:10318C000258D8A005D00350015E0450025A0780A3
:10319C00D89004320332052EEDD70650D8B404D0A3
:1031AC00076C081ED8B0082A07C001F008C002F04E
:1031BC0012000001CABF19D00001CA5105E1180E56
:1031CC000001C95DD8A011D0000E0001CA6F000E1D
:1031DC00C96F000E0001C86F000EC76F000E000112
:1031EC00956F000E946F3EEC0EF0A30E226E000E47
:1031FC00236E9F0E246E0F0E256EC9C026F0CAC01A
:10320C0027F0C7C028F0C8C029F094C02AF095C098
:10321C002BF04EEC0AF0020E056E090E9EEC1CF023
:10322C00A30E096E000E0A6E2FEC1BF01200000E9E
:10323C00086E000E076E000E0A6E000E096E0ABEB6
:10324C0003D00A502CE127D0D8900934D96E0A3417
:10325C00DA6E600ED926000EDA22D8900934E16EAF
:10326C000A34E26EBF0EE126000EE222DE50E618B2
:10327C0008E1DE50E618D8A404D0000E086E010E4A
:10328C0003D0000E086E000E076E094A0A2A0ABE09
:10329C00DBD70A5004E1040E095CD8A0D5D707C0CF
:1032AC0001F008C002F01200000E256E8E0E246E86
:1032BC001FAE11D01F1E1E1E1D1E1C6C000E1D22CB
:1032CC001E221F22010E256E06D0D8901F321E32F0
:1032DC001D321C32242A000E1C14206E000E1D14EC
:1032EC00216E000E1E14226EFF0E1F14236E205032
:1032FC00211022102310D8A4E8D71CC001F01DC047
:10330C0002F01EC003F024C004F025C005F0FCEC54
:10331C0015F001C01CF002C01DF003C01EF012001D
:10332C00939693948A968A949398939A939C939E4B
:10333C000A0EDDEC1CF00A0EDDEC1CF00A0EDDECC6
:10334C001CF0000E056E020E056401D008D0030EB1
:10335C00D1EC19F00A0EDDEC1CF0052AF4D7020EA4
:10336C00D1EC19F0000E056E030E056401D01200AD
:10337C000550010D0B0EF324F66E0F0EF420F76EB4
:10338C000800F5CF03F0000E4EEC1CF00A0EDDEC3D
:10339C001CF0052AE9D7026E02A003D0016A012AAB
:1033AC0001D0016A013A8A500118EF0B01188A6E9C
:1033BC0002A203D0016A012A01D0016A013A014636
:1033CC008A500118DF0B01188A6E02A403D0016A1F
:1033DC00012A01D0016A013A014601468A500118BE
:1033EC00BF0B01188A6E02A603D0016A012A01D014
:1033FC00016A013201328A5001187F0B01188A6E62
:10340C0000F08A8400F000F08A941200000E000193
:10341C00936F000E926F010E056E010E9EEC1CF068
:10342C007F0E096E0F0E0A6E2FEC1BF0020E056E4E
:10343C00010E9EEC1CF05D0E096E0F0E0A6E2FEC49
:10344C001BF0000193BF08D00001935108E1040E5A
:10345C000001925DD8B003D0FEEC07F0F2D7BEECC1
:10346C001CF01DEC19F001040210D8A403D07AEC66
:10347C001AF0120080EC1BF0E4D7FC0E0F013F1782
:10348C000F013F8198CF0FF099CF10F098CF11F02A
:10349C0099CF12F0FC0E0F013F170F013F8198CF0F
:1034AC0007F099CF08F098CF09F099CF0AF009509E
:1034BC001118D8A4E2D720EE03F00150D9260250FF
:1034CC00DA220FC0DFFF20EE02F00150D9260250A5
:1034DC00DA2212C0DFFF20EE01F00150D926025093
:1034EC00DA2211C0DFFF1200010E056E010E9EECF8
:1034FC001CF0C00E096E0F0E0A6E2FEC1BF0020EA4
:10350C00056E010E9EEC1CF0B70E096E0F0E0A6EC6
:10351C002FEC1BF0C7EC0FF001EC1DF039EC15F0A3
:10352C0058EC1BF0899089828994899682B4120098
:10353C00DBD7FF0E0001E56F8A0EE82EFED7E52FD4
:10354C00FCD700F082A4D0D7F4D78E0E116E06D023
:10355C00D8900C320B320A320932112A000E09149F
:10356C000D6E000E0A140E6E000E0B140F6EFF0E75
:10357C000C14106E0D500E100F101010D8A4E8D7AC
:10358C0009C001F00AC002F00BC003F011C004F036
:10359C00000E056EFCEC15F001C009F002C00AF03B
:1035AC0003C00BF01200F60EF66E390EF76E000E1D
:1035BC00F86E01EE00F010EE0CF00900F5CFEEFF06
:1035CC00E550E150FAE1940EF66E390EF76E000EEE
:1035DC00F86E00EEBFF010EE14F00900F5CFEEFF20
:1035EC00E550E150FAE10001F46B00EE60F05F0E83
:1035FC00EE6AE806FDE1000EF86E00017AEF1CF0B1
:10360C00000E066E000E056E03500410D8B41CD0CC
:10361C00010E076E04D0D89003360436072A04AE88
:10362C00FAD7D890053606360350015C0450025880
:10363C00D8A005D00350015E0450025A0580D890E2
:10364C0004320332072EEDD705C001F006C002F09C
:10365C00120014D009C0F6FF0AC0F7FFF86A0E0E6C
:10366C00F76403D00800F55005D0F6CFE9FFF7CF8B
:10367C00EAFFEF50CCEC1BF0094A0A2A09C0F6FF0E
:10368C000AC0F7FFF86A0E0EF76403D00800F55075
:10369C0005D0F6CFE9FFF7CFEAFFEF500009D8B419
:1036AC001200D8D7898089928994899682A41200B5
:1036BC0089A0120000018C5100018D11D8B49BEC33
:1036CC0015F000018C0500018D11D8B4A5EC16F095
:1036DC00020E00018C1900018D11D8B432EC09F0E6
:1036EC00030E00018C1900018D11D8A4120066EC98
:1036FC000BF01200020E056E010E9EEC1CF05F0E1C
:10370C00096E0F0E0A6E2FEC1BF0000E0C6E000EE5
:10371C000B6E0CAE10D0D8900B34D96E0C34DA6E14
:10372C00600ED926000EDA22000EDE6E000EDD6E63
:10373C000B4A0C2AEED7000E0001936F000E926F0D
:10374C0012009B8E9B9CD388D38AD38CD390D3921C
:10375C00F00E926E000E936E070E946E0F01486978
:10376C000F0149690F013F8F0F013F8BCD863EEC56
:10377C000EF096EC19F00C0EF4EC1CF08A948A9274
:10378C008A9001EC1DF03EEC0EF01200086E18D081
:10379C00010E036E000E4EEC1CF01200020E056EB4
:1037AC00010E9EEC1CF01200100E036E000E4EEC7F
:1037BC001CF0120008C003F0010E4EEC1CF01200BD
:1037CC000850080AD8B4F0D7020AD8B4E7D7060ACA
:1037DC00D8B4DED7EFD70A500B10D8B418D0010EDE
:1037EC000C6E04D0D8900A360B360C2A0BAEFAD7D6
:1037FC000A50085C0B500958D8A004D00A50085E37
:10380C000B50095AD8900B320A320C2EF1D708C043
:10381C0008F009C009F01200315032103310D8B43E
:10382C0006D0000E311A000E321A800E331A2EC03A
:10383C0022F02FC023F030C024F031C025F032C06C
:10384C0026F033C027F068EC0DF022C02EF023C018
:10385C002FF024C030F01200000E0C6E0AAE06D011
:10386C00096C0A1ED8B00A2A010E0C6E09C001F0B0
:10387C000AC002F0036A8E0E046E0CC005F0FCEC5C
:10388C0015F001C009F002C00AF003C00BF01200E1
:10389C00046E8A96020EE5EC1CF09398939A939C16
:1038AC00939E0450D8B402D08A8601D08A9600F038
:1038BC0003380F0BD1EC19F003500F0BD1EC19F0AE
:1038CC0012001C501E02F3CF20F0F4CF21F01C503C
:1038DC001F02F35021261D501E02F350212620C03A
:1038EC001CF021C01DF01200A7EC1BF0C7EC0FF070
:1038FC00EDEC1CF0FBD7FF0E0001E66F8A0EE82EF4
:10390C00FED7E62FFCD700F000EF00F001500210BC
:10391C000310D8B406D0000E011A000E021A800E45
:10392C00031A01C001F002C002F003C003F0120040
:10393C00066E0504D8B402D0400E01D0000E076EFE
:10394C000604072607508009036E000E4EEC1CF08F
:10395C001200036E000E026E3A0E036005D02F0E9D
:10396C00036402D0010E026E02C001F0013012009D
:10397C00020E056E070E9EEC1CF0C80E096E0F0EA3
:10398C000A6E2FEC1BF01200010002000300040071
:10399C001E0012000800030009000F00F29C550ED7
:1039AC00A76EAA0EA76E0F013F8BF28C1200016E50
:1039BC00C80E00D0E82EFDD7012EFAD71200016EEA
:1039CC00210EE82EFED700F0012EFAD7120001ECE2
:1039DC001DF053EC16F0CBEC17F01200056E05C081
:1039EC0003F0000E4EEC1CF01200D70FF00FEB0F93
:1039FC00DC0FE60FE10F11EC18F0DFEC18F0120001
:08FFF800AEF718FFF3F8FFF16A
:00000001FF
