:040000002DEF10F0E0
:100F00000001000A006400E8031027280C010649CC
:100F10006E73657274206E65772050617373776F9E
:100F2000726420002020202020202020202020204B
:100F30002020202000416C61726D2061637469760D
:100F4000617465642000496E73657274205061732A
:100F500073776F72642000253032752F253032751B
:100F60002F2530327500253032753A253032753AEA
:100F7000253032750050617373776F726400456479
:100F8000742050617373004163746976652000506A
:100F900072657373204100286E756C6C2900496E70
:100FA00073657274002044696100486F72610020AB
:100FB00053656700204D696E00416E696F00204DDA
:100FC000657300253031750025730000110E1F6E0A
:100FD000000E206E7AD1250E2718D8B409D00DC086
:100FE000D9FF0EC0DAFF27C0DFFF0D4A0E2A6DD1F0
:100FF000000E266E000E256E000E1B6E03D01B84A5
:101000000F4A102A0FC0F6FF10C0F7FF0800F55076
:10101000300AD8B4F4D70FC0F6FF10C0F7FF0800AD
:10102000F55010EC12F0D8A0ADD0000E266E000ED8
:10103000256E25C001F026C002F0000E046E0A0ED7
:10104000036EDBEC11F001C025F002C026F0D00EDB
:10105000176EFF0E186E0FC0F6FF10C0F7FF0800E6
:10106000F550196E1A6A1750192618501A2219507D
:1010700025261A5026220F4A102A0FC0F6FF10C04C
:10108000F7FF0800F55010EC12F0D8A07BD0D1D7B4
:101090001FC0D9FF20C0DAFFDECF21F0DDCF22F064
:1010A000020E1F26000E202221502210D8A404D0A8
:1010B000970E216E0F0E226E000E246E000E236E10
:1010C00002D0234A242A23502124176E24502220A0
:1010D000186E17C0F6FF18C0F7FFF86A0E0EF76417
:1010E00003D00800F55005D0F6CFE9FFF7CFEAFFAF
:1010F000EF500009D8A4E5D72550235C265024588A
:10110000D8B005D02350255E2450265A0DD0000EAD
:10111000266E000E256E08D00DC0D9FF0EC0DAFF76
:10112000200EDF6E0D4A0E2A2506D8A02606252899
:10113000F3E12628D8B41AD0EFD721C0F6FF22C099
:10114000F7FFF86A0DC0D9FF0EC0DAFF0E0EF76484
:1011500003D00800F55005D0F6CFE9FFF7CFEAFF3E
:10116000EF50DF6E214A222A0D4A0E2A2306D8A00C
:1011700024062328E2E12428D8B4A7D0DED7C00E65
:101180001B1214D00FC0F6FF10C0F7FF0F4A102A31
:101190000800F5CF27F02750000AD8B4A2D0730A70
:1011A000D8B476D7060AD8B4EAD78FD01FC0D9FFF3
:1011B00020C0DAFFDECF1CF0DDCF1DF0020E1F26AF
:1011C000000E2022010E276E050E2718D8B412D06B
:1011D0002750020D010EF324F66E0F0EF420F76E69
:1011E0000900F5501C5C0900F5501D58D8A002D02C
:1011F000272AEAD7800E27BE7F0E176E2550275C60
:101200002650800A1758D8B007D02750255E000E08
:1012100027BEFF0E265A04D0000E266E000E256E45
:101220001BA410D025502610D8B41FD00DC0D9FF54
:101230000EC0DAFF300EDF6E0D4A0E2A2506D8A04A
:101240002606F0D725502610D8B40FD00DC0D9FFF0
:101250000EC0DAFF200EDF6E0D4A0E2A2506D8A03A
:10126000260625502610D8A4F1D727C01EF029D075
:101270001E50020D010EF324F66E0F0EF420F76ED1
:101280000900F5CF03F00A00F5CF04F01CC001F00F
:101290001DC002F088EC10F001C008F002C009F097
:1012A000000E0B6E0A0E0A6E6EEC11F00850300F35
:1012B000276E0DC0D9FF0EC0DAFF27C0DFFF0D4A31
:1012C0000E2A1E061E28D8A4D3D70FC0F6FF10C0C2
:1012D000F7FF0F4A102A0800F5CF27F02750D8A4AF
:1012E0007AD60DC0D9FF0EC0DAFF000EDF6E1200F5
:1012F000898089928994899680BA89A018D0010E34
:10130000436E43502A6E2B6A2AC028F02BC029F066
:101310005FEC10F008D0680E2A6EE40EE82EFED7BF
:101320002A2EFCD700D080AA02D089B0F4D780BE84
:1013300089A018D0020E436E43502A6E2B6A2AC031
:1013400028F02BC029F05FEC10F008D0680E2A6E50
:10135000E40EE82EFED72A2EFCD700D080AE02D0B5
:1013600089B0F4D780BC89A018D0030E436E4350D7
:101370002A6E2B6A2AC028F02BC029F05FEC10F0EF
:1013800008D0680E2A6EE40EE82EFED72A2EFCD76F
:1013900000D080AC02D089B0F4D78990898289943A
:1013A000899680BA89A218D0040E436E43502A6EE3
:1013B0002B6A2AC028F02BC029F05FEC10F008D06F
:1013C000680E2A6EE40EE82EFED72A2EFCD700D037
:1013D00080AA02D089B2F4D780BE89A218D0050EA7
:1013E000436E43502A6E2B6A2AC028F02BC029F086
:1013F0005FEC10F008D0680E2A6EE40EE82EFED7DF
:101400002A2EFCD700D080AE02D089B2F4D780BC9F
:1014100089A218D0060E436E43502A6E2B6A2AC04A
:1014200028F02BC029F05FEC10F008D0680E2A6E6F
:10143000E40EE82EFED72A2EFCD700D080AC02D0D6
:1014400089B2F4D7899089928984899680BA89A4CF
:1014500018D0070E436E43502A6E2B6A2AC028F01C
:101460002BC029F05FEC10F008D0680E2A6EE40E55
:10147000E82EFED72A2EFCD700D080AA02D089B44D
:10148000F4D780BE89A418D0080E436E43502A6E4C
:101490002B6A2AC028F02BC029F05FEC10F008D08E
:1014A000680E2A6EE40EE82EFED72A2EFCD700D056
:1014B00080AE02D089B4F4D780BC89A418D0090EBC
:1014C000436E43502A6E2B6A2AC028F02BC029F0A5
:1014D0005FEC10F008D0680E2A6EE40EE82EFED7FE
:1014E0002A2EFCD700D080AC02D089B4F4D78990E2
:1014F00089928994898680AE120089A61200000E16
:10150000436E43502A6E2B6A2AC028F02BC029F064
:101510005FEC10F008D0680E2A6EE40EE82EFED7BD
:101520002A2EFCD700D080AE120089A61200F3D775
:1015300035EC12F0A38035C001F036C002F0000E89
:10154000046E0A0E036E58EC0EF001505D6E5D5095
:101550000A0DF350000835245E6E5D50100DF350F7
:101560005E24496E4CC001F04DC002F0000E046EC6
:101570000A0E036E58EC0EF001505C6E5C500A0DC2
:10158000F35000084C240001B36F5C50100DF35071
:101590000001B3254A6E4EC001F04FC002F0000EAC
:1015A000046E0A0E036E58EC0EF001505B6E5B5039
:1015B0000A0DF35000084E240001B26F5B50100D6D
:1015C000F3500001B2254B6E56C001F057C002F037
:1015D000000E046E0A0E036E58EC0EF00150586EA9
:1015E00058500A0DF350000856240001AE6F5850B1
:1015F000100DF3500001AE25476E54C001F055C0E8
:1016000002F0000E046E0A0E036E58EC0EF001504C
:10161000596E59500A0DF350000854240001B06F60
:101620005950100DF3500001B025466E50C001F026
:1016300051C002F0000E046E0A0E036E58EC0EF05C
:1016400001505A6E5A500A0DF35000085024000100
:10165000B16F5A50100DF3500001B125456E52C0C4
:10166000AFF052C044F0480E016E000E026E010E43
:10167000036EE1EC0BF0440E016E000E026E010EE3
:10168000036E46EC0BF00F013F8F1200000E066E4A
:1016900020EE02F00150D9260250DA22130EDF604C
:1016A000120020EE02F00150D9260250DA22DF505B
:1016B000D8B4120020EE01F00150D9260250DA22EF
:1016C000320EDF60120020EE01F00150D9260250E8
:1016D000DA22DF50D8B4120020EE03F00150D926F0
:1016E0000250DA22990EDF6401D0120020EE03F0DE
:1016F0000150D9260250DA22DF50076E20EE01F0A9
:101700000150D9260250DA22DF500A6E20EE02F094
:101710000150D9260250DA22DF500B6E0350D8A4B4
:10172000F29C0F01000E3FBB010E096E0950D8B4A8
:1017300035EC12F00F01000E3FBF010E056E055093
:10174000D8B406D0000E91BE010E066E0F013F9F69
:10175000FC0E0F013F170F013F8198CF0CF099CF7E
:101760000DF001C0D9FF02C0DAFFDF500D6EFC0E94
:101770000F013F17030E0F013F1307C098FF08C06A
:1017800099FF0AC098FF0BC099FF0CC098FF0DC0CD
:1017900099FF0550D8B40BD00F013F8F0650D8A445
:1017A000918E0950D8B408D035EC12F005D009500C
:1017B000D8A402D00F013F9B0350D8B41200F29C72
:1017C0001200000E066E20EE02F00150D9260250E3
:1017D000DA225A0EDF60120020EE01F00150D92605
:1017E0000250DA225A0EDF60120020EE03F00150A0
:1017F000D9260250DA22240EDF6401D0120020EE36
:1018000002F00150D9260250DA22DF50096E20EE94
:1018100001F00150D9260250DA22DF50086E035041
:10182000D8A4F29C0F01000E3FBB010E076E0750BB
:10183000D8B435EC12F00F01000E3FBF010E056E5B
:101840000550D8B406D0000E91BE010E066E0F01F1
:101850003F9FFC0E0F013F170F013F8198CF0AF009
:1018600099CF0BF020EE03F00150D9260250DA2276
:10187000DF500A6EFC0E0F013F170F013F810AC0B7
:1018800098FF0BC099FF08C098FF09C099FF055049
:10189000D8B40BD00F013F8F0650D8A4918E0750BB
:1018A000D8B408D035EC12F005D00750D8A402D037
:1018B0000F013F9B0350D8B41200F28C1200480E67
:1018C000016E000E026EC3EC0FF049500F0B5E6EFE
:1018D00049380F0B0F0B5D6E4A500F0B0001B36FB1
:1018E0004A380F0B0F0B5C6E4B500F0B0001B26FA1
:1018F0004B380F0B0F0B5B6E440E016E000E026E29
:10190000CBEC0DF045500F0B0001B16F45380F0BBC
:101910000F0B5A6E46500F0B0001B06F46380F0B7D
:101920000F0B596E44C0AFF047500F0B0001AE6F64
:1019300047380F0B0F0B586E5D500A0D5E50F324A5
:10194000356E000EF420366E5C500A0D0001B35166
:10195000F3244C6E0001000EF4204D6E5B500A0D16
:101960000001B251F3244E6E0001000EF4204F6EC0
:101970005A500A0D0001B151F324506E0001000EBF
:10198000F420516EAFC052F0536A59500A0D000155
:10199000B051F324546E0001000EF420556E5850DF
:1019A0000A0D0001AE51F324566E0001000EF42022
:1019B000576E1200899089928984899682B489A48D
:1019C00019D0030E31183210D8A405D0000E326E93
:1019D000000E316E0BD0314A322A08D0680E286EC4
:1019E000E40EE82EFED7282EFCD700D082A402D029
:1019F00089B4F4D7899089928994898682B489A61A
:101A000019D031503210D8A405D0000E326E030E1A
:101A1000316E0CD03106D8A0320608D0680E286E80
:101A2000E40EE82EFED7282EFCD700D082A402D0E8
:101A300089B6F4D7860E0D6E000E0E6EC30E0F6EB5
:101A40000F0E106E31C011F032C012F0E6EC07F04C
:101A5000010E056E080EFFEC11F0860E096E000EE9
:101A60000A6EB1EC10F012002F503010D8A421D023
:101A7000000E306E010E2F6E010E056E010EFFEC92
:101A800011F09E0E096E0F0E0A6EB1EC10F0020EF0
:101A9000056E010EFFEC11F0750E096E0F0E0A6E49
:101AA000B1EC10F0D00E0B6ECA0EE82EFED70B2E46
:101AB000FCD72F043010D8A41200000E306E000E98
:101AC0002F6E010E056E010EFFEC11F02C0E096E4B
:101AD0000F0E0A6EB1EC10F0020E056E010EFFEC57
:101AE00011F02C0E096E0F0E0A6EB1EC10F09C0E68
:101AF0000B6ED70EE82EFED70B2EFCD700F012008F
:101B0000000E346E000E336E010E056E010EFFECFA
:101B100011F00F0E096E0F0E0A6EB1EC10F0020EEE
:101B2000056E010EFFEC11F0240E096E0F0E0A6E09
:101B3000B1EC10F034BE06D0345007E1040E335C33
:101B4000D8B003D078EC09F0F5D7000E2D6E000E5A
:101B50002C6E2DBE06D02D501DE1040E2C5CD8B08D
:101B60001200D8902C34D96E2D34DA6E600ED9263E
:101B7000000EDA22D8902C34E16E2D34E26EA60EDF
:101B8000E126000EE222DECFE6FFDDCFE5FF2C4AA4
:101B90002D2ADFD71200FC0E0F013F17030E0F0195
:101BA0003F1398CF0BF099CF0CF098CF0DF099CF51
:101BB0000EF098CF0FF099CF10F0FC0E0F013F17E9
:101BC000030E0F013F1398CF03F099CF04F098CF85
:101BD00005F099CF06F098CF07F099CF08F005509F
:101BE0000D18D8A4D8D720EE01F00150D926025004
:101BF000DA220DC0DFFF20EE02F00150D92602509C
:101C0000DA220EC0DFFF01C0D9FF02C0DAFF10C028
:101C1000DFFF20EE03F00150D9260250DA220BC07C
:101C2000DFFF1200898089928994899680AA02D068
:101C300089B007D080AE02D089B003D080BC89A023
:101C400002D0FAEC0FF0899089828994899680AA53
:101C500002D089B207D080AE02D089B203D080BC56
:101C600089A202D0FAEC0FF0899089928984899632
:101C700080AA02D089B407D080AE02D089B403D044
:101C800080BC89A402D0FAEC0FF0899089928994E3
:101C9000898680AA02D089B608D080AE02D089B6E3
:101CA00004D080AC120089A61200FAEC0FF01200EA
:101CB000000E066E04AE06D0036C041ED8B0042AD3
:101CC000010E066E02AE06D0016C021ED8B0022ACA
:101CD000010E061A000E086E000E076E0350041067
:101CE000D8B41CD0010E056E04D0D890033604364B
:101CF000052A04AEFAD7D890073608360350015C9F
:101D000004500258D8A005D00350015E0450025A76
:101D10000780D89004320332052EEDD70650D8B490
:101D200004D0076C081ED8B0082A07C001F008C00C
:101D300002F0120051BE0CD0515004E1200E505C54
:101D4000D8A006D0000E516E010E506E98EC0AF02D
:101D500055BE0CD0555004E10D0E545CD8A006D0F1
:101D6000000E556E010E546E98EC0AF0860E0D6E44
:101D7000000E0E6E570E0F6E0F0E106E50C011F04B
:101D800051C012F054C013F055C014F056C015F0F5
:101D900057C016F0E6EC07F0010E056E090EFFECD9
:101DA00011F0860E096E000E0A6EB1EC10F01200F2
:101DB000000E086E000E076E000E0A6E000E096E11
:101DC0000ABE03D00A502CE127D0D8900934D96E2E
:101DD0000A34DA6E600ED926000EDA22D890093461
:101DE000E16E0A34E26EA60EE126000EE222DE501B
:101DF000E61808E1DE50E618D8A404D0000E086EFC
:101E0000010E03D0000E086E000E076E094A0A2A62
:101E10000ABEDBD70A5004E1040E095CD8A0D5D76E
:101E200007C001F008C002F01200939693948A96BE
:101E30008A949398939A939C939E0A0E3EEC12F088
:101E40000A0E3EEC12F00A0E3EEC12F0000E056E89
:101E5000020E056401D008D0030E50EC0FF00A0EFC
:101E60003EEC12F0052AF4D7020E50EC0FF0000EF3
:101E7000056E030E056401D012000550010D0B0E16
:101E8000F324F66E0F0EF420F76E0800F5CF03F082
:101E9000000EAEEC11F00A0E3EEC12F0052AE9D766
:101EA000026E02A003D0016A012A01D0016A013A40
:101EB0008A500118EF0B01188A6E02A203D0016A42
:101EC000012A01D0016A013A01468A500118DF0B4C
:101ED00001188A6E02A403D0016A012A01D0016AA6
:101EE000013A014601468A500118BF0B01188A6E5B
:101EF00002A603D0016A012A01D0016A013201322F
:101F00008A5001187F0B01188A6E00F08A8400F055
:101F100000F08A9412004FBE14D04F5004E1180E06
:101F20004E5CD8A00ED0000E4F6E000E4E6E000E0E
:101F30004D6E000E4C6E000E366E000E356E98EC37
:101F40000AF0860E0D6E000E0E6E660E0F6E0F0EF0
:101F5000106E4EC011F04FC012F04CC013F04DC0C7
:101F600014F035C015F036C016F0E6EC07F0020E9E
:101F7000056E090EFFEC11F0860E096E000E0A6E5A
:101F8000B1EC10F01200FC0E0F013F170F013F8162
:101F900098CF0FF099CF10F098CF11F099CF12F0A1
:101FA000FC0E0F013F170F013F8198CF07F099CF2B
:101FB00008F098CF09F099CF0AF009501118D8A469
:101FC000E2D720EE03F00150D9260250DA220FC0EA
:101FD000DFFF20EE02F00150D9260250DA2212C0B3
:101FE000DFFF20EE01F00150D9260250DA2211C0A5
:101FF000DFFF1200000E346E000E336E010E056E10
:10200000010EFFEC11F0460E096E0F0E0A6EB1ECD8
:1020100010F0020E056E010EFFEC11F0240E096E99
:102020000F0E0A6EB1EC10F034BE06D0345007E14A
:10203000040E335CD8B003D078EC09F0F5D71FEC70
:1020400012F0D8EC0EF001040210D8A403D08FECEB
:1020500011F0EAD7DAEC10F0E7D7560EF66E240E40
:10206000F76E000EF86E00EE9AF010EE14F0090014
:10207000F5CFEEFFE550E150FAE1B80EF66E240E12
:10208000F76E000EF86E00EE4CF010EE0CF009004A
:10209000F5CFEEFFE550E150FAE100EE60F03A0EC8
:1020A000EE6AE806FDE15F6A00EE2FF01D0EEE6AB3
:1020B000E806FDE1000EF86E0001EEEF11F0D89099
:1020C0003334D96E3434DA6E600ED926000EDA223B
:1020D00028C0DEFF29C0DDFF020E056E3328FFECAD
:1020E00011F0860E0D6E000E0E6EC30E0F6E0F0EEB
:1020F000106E28C011F029C012F0E6EC07F0860E31
:10210000096E000E0A6EB1EC10F0334A342A120048
:10211000000E066E000E056E03500410D8B41CD0DD
:10212000010E076E04D0D89003360436072A04AE99
:10213000FAD7D890053606360350015C0450025891
:10214000D8A005D00350015E0450025A0580D890F3
:1021500004320332072EEDD705C001F006C002F0AD
:10216000120014D009C0F6FF0AC0F7FFF86A0E0E7D
:10217000F76403D00800F55005D0F6CFE9FFF7CF9C
:10218000EAFFEF5025EC11F0094A0A2A09C0F6FFD0
:102190000AC0F7FFF86A0E0EF76403D00800F55086
:1021A00005D0F6CFE9FFF7CFEAFFEF500009D8B42A
:1021B0001200D8D7020E056E010EFFEC11F0260EAC
:1021C000096E0F0E0A6EB1EC10F0000E0C6E000ED0
:1021D0000B6E0CAE10D0D8900B34D96E0C34DA6E76
:1021E000600ED926000EDA22000EDE6E000EDD6EC5
:1021F0000B4A0C2AEED7000E346E000E336E12001E
:102200009B8E9B9CD388D38AD38CD390D392F00E91
:10221000926E000E936E070E946E0F0148690F01C7
:1022200049690F013F8F0F013F8BCD8698EC0AF073
:1022300015EC0FF00C0E55EC12F08A948A928A90ED
:1022400062EC12F098EC0AF01200086E18D0010E41
:10225000036E000EAEEC11F01200020E056E010EC0
:10226000FFEC11F01200100E036E000EAEEC11F038
:10227000120008C003F0010EAEEC11F0120008507D
:10228000080AD8B4F0D7020AD8B4E7D7060AD8B4F7
:10229000DED7EFD7000E346E000E336E010E056EE2
:1022A000010EFFEC11F0350E096E0F0E0A6EB1EC47
:1022B00010F0020E056E010EFFEC11F0240E096EF7
:1022C0000F0E0A6EB1EC10F01200FF0E0B6E8A0EAC
:1022D000E82EFED70B2EFCD700D012000A500B10B0
:1022E000D8B418D0010E0C6E04D0D8900A360B3634
:1022F0000C2A0BAEFAD70A50085C0B500958D8A02C
:1023000004D00A50085E0B50095AD8900B320A329A
:102310000C2EF1D708C008F009C009F01200010E18
:10232000056E010EFFEC11F0870E096E0F0E0A6E9E
:10233000B1EC10F0020E056E010EFFEC11F07E0EF6
:10234000096E0F0E0A6EB1EC10F05FEC0CF062EC4F
:1023500012F0DAEC0CF0C7EC11F0E1D7046E8A96BB
:10236000020E46EC12F09398939A939C939E04501D
:10237000D8B402D08A8601D08A9600F003380F0BB9
:1023800050EC0FF003500F0B50EC0FF0120089804F
:1023900089928994899682A4120089A012003150F2
:1023A0003210D8B44AEC11F031043210D8A4120023
:1023B00080EC0DF0120001500302F3CF05F0F4CFD2
:1023C00006F001500402F350062602500302F350B7
:1023D000062605C001F006C002F0120000EC11F064
:1023E0005FEC0CF04EEC12F0FBD7FF0E2E6E8A0E57
:1023F000E82EFED72E2EFCD700D000EF00F0066EA0
:102400000504D8B402D0400E01D0000E076E0604B9
:10241000072607508009036E000EAEEC11F0120083
:10242000036E000E026E3A0E036005D02F0E036499
:1024300002D0010E026E02C001F001301200020E45
:10244000056E070EFFEC11F08F0E096E0F0E0A6E6F
:10245000B1EC10F01200A50FBE0FB90FAA0FB40F08
:10246000AF0F0100020003000400F29C550EA76E9E
:10247000AA0EA76E0F013F8BF28C1200016EC80EE0
:1024800000D0E82EFDD7012EFAD71200016E210EE2
:10249000E82EFED700F0012EFAD7120062EC12F0FF
:1024A00034EC0DF012EC0EF01200056E05C003F0D6
:1024B000000EAEEC11F012001E0012000800030026
:0E24C00009000F009AEC0EF08BEC0FF01200EA
:08FFF800AEF718FFF3F8FFF16A
:00000001FF
