:0400000096EF10F077
:100F00000001000A006400E8031027280C010620F5
:100F100020202020202020202020202020202000F1
:100F2000496E736572742050617373776F726420B9
:100F300000253032752F253032752F25303275005F
:100F4000253032753A253032753A253032750050E9
:100F5000617373776F726400286E756C6C29004939
:100F60006E73657274002044696100486F7261009D
:100F70002053656700204D696E00416E696F002047
:0D0F80004D657300253031750025730000AC
:100F8E0044EC11F0000E316E000E306E000E2F6E1E
:100F9E00000E2E6E020E1EEC12F08AB203D02D6AD7
:100FAE002D2A01D02D6A2D468A502D18FD0B2D1895
:100FBE008A6E8AB003D02D6A2D2A01D02D6A8A50EE
:100FCE002D18FE0B2D188A6EFF0E2D6E8A0EE82E32
:100FDE00FED72D2EFCD700D0A6EC0DF024EC0EF093
:100FEE00B7EC0EF02E042F10D8A4A5D180B40ED0DD
:100FFE00070E30183110D8A405D0000E316E000E39
:10100E00306E02D0304A312A80A4FED780BE0ED078
:10101E0030503110D8A405D0000E316E070E306E50
:10102E0003D03006D8A0310680AEFED7840E0D6EEA
:10103E00000E0E6E890E0F6E0F0E106ED89030349D
:10104E00D96E3134DA6E980ED926000EDA22DECF42
:10105E0011F0DDCF12F0ADEC09F0020E056E0D0EA3
:10106E00DBEC11F0840E096E000E0A6E1BEC11F013
:10107E0030503110D8A428D080B612D0060E531896
:10108E005410D8A407D0000E546E000E536E3FECD1
:10109E000BF004D0534A542A3FEC0BF080A6FED737
:1010AE0080BC12D053505410D8A407D0000E546EEA
:1010BE00060E536E3FEC0BF005D05306D8A0540627
:1010CE003FEC0BF080ACFED730043110D8A42FD0FB
:1010DE0080B612D01F0E51185210D8A407D0000E91
:1010EE00526E010E516E3FEC0BF004D0514A522A53
:1010FE003FEC0BF080A6FED780BC12D051045210EC
:10110E00D8A407D0000E526E1F0E516E3FEC0BF09E
:10111E0005D05106D8A052063FEC0BF080ACFED79E
:10112E00820E2D6EDE0EE82EFED72D2EFCD7020E71
:10113E0030183110D8A42FD080B612D00C0E5518FE
:10114E005610D8A407D0000E566E010E556E3FEC09
:10115E000BF004D0554A562A3FEC0BF080A6FED772
:10116E0080BC12D055045610D8A407D0000E566E6F
:10117E000C0E556E3FEC0BF005D05506D8A056065A
:10118E003FEC0BF080ACFED7820E2D6EDE0EE82EFD
:10119E00FED72D2EFCD7030E30183110D8A42FD029
:1011AE0080B612D0630E57185810D8A407D0000E70
:1011BE00586E000E576E3FEC0BF004D0574A582A6B
:1011CE003FEC0BF080A6FED780BC12D057505810C3
:1011DE00D8A407D0000E586E630E576E3FEC0BF07E
:1011EE0005D05706D8A058063FEC0BF080ACFED7C2
:1011FE00820E2D6EDE0EE82EFED72D2EFCD7040E9F
:10120E0030183110D8A42FD080B612D03B0E4F1804
:10121E005010D8A407D0000E506E000E4F6E3FEC4B
:10122E000BF004D04F4A502A3FEC0BF080A6FED7AD
:10123E0080BC12D04F505010D8A407D0000E506E64
:10124E003B0E4F6E3FEC0BF005D04F06D8A050066C
:10125E003FEC0BF080ACFED7820E2D6EDE0EE82E2C
:10126E00FED72D2EFCD7050E30183110D8A42FD056
:10127E0080B612D03B0E4D184E10D8A407D0000EDB
:10128E004E6E000E4D6E3FEC0BF004D04D4A4E2AC2
:10129E003FEC0BF080A6FED780BC12D04D504E1006
:1012AE00D8A407D0000E4E6E3B0E4D6E3FEC0BF0E9
:1012BE0005D04D06D8A04E063FEC0BF080ACFED705
:1012CE00820E2D6EDE0EE82EFED72D2EFCD7060ECC
:1012DE0030183110D8A42FD080B612D03B0E36184D
:1012EE003710D8A407D0000E376E000E366E3FECC6
:1012FE000BF004D0364A372A3FEC0BF080A6FED70F
:10130E0080BC12D036503710D8A407D0000E376EDE
:10131E003B0E366E3FEC0BF005D03606D8A03706E6
:10132E003FEC0BF080ACFED7820E2D6EDE0EE82E5B
:10133E00FED72D2EFCD72BEC12F0FF0E2D6E8A0E43
:10134E00E82EFED72D2EFCD700D024D6110E1F6E00
:10135E00000E206E7AD1250E2718D8B409D00DC0F4
:10136E00D9FF0EC0DAFF27C0DFFF0D4A0E2A6DD15E
:10137E00000E266E000E256E000E1B6E03D01B8413
:10138E000F4A102A0FC0F6FF10C0F7FF0800F550E5
:10139E00300AD8B4F4D70FC0F6FF10C0F7FF08001C
:1013AE00F550ECEC11F0D8A0ADD0000E266E000E6C
:1013BE00256E25C001F026C002F0000E046E0A0E46
:1013CE00036EC8EC11F001C025F002C026F0D00E5D
:1013DE00176EFF0E186E0FC0F6FF10C0F7FF080055
:1013EE00F550196E1A6A1750192618501A221950EC
:1013FE0025261A5026220F4A102A0FC0F6FF10C0BB
:10140E00F7FF0800F550ECEC11F0D8A07BD0D1D747
:10141E001FC0D9FF20C0DAFFDECF21F0DDCF22F0D2
:10142E00020E1F26000E202221502210D8A404D016
:10143E00580E216E0F0E226E000E246E000E236EBD
:10144E0002D0234A242A23502124176E245022200E
:10145E00186E17C0F6FF18C0F7FFF86A0E0EF76485
:10146E0003D00800F55005D0F6CFE9FFF7CFEAFF1D
:10147E00EF500009D8A4E5D72550235C26502458F8
:10148E00D8B005D02350255E2450265A0DD0000E1C
:10149E00266E000E256E08D00DC0D9FF0EC0DAFFE5
:1014AE00200EDF6E0D4A0E2A2506D8A02606252808
:1014BE00F3E12628D8B41AD0EFD721C0F6FF22C008
:1014CE00F7FFF86A0DC0D9FF0EC0DAFF0E0EF764F3
:1014DE0003D00800F55005D0F6CFE9FFF7CFEAFFAD
:1014EE00EF50DF6E214A222A0D4A0E2A2306D8A07B
:1014FE0024062328E2E12428D8B4A7D0DED7C00ED4
:10150E001B1214D00FC0F6FF10C0F7FF0F4A102A9F
:10151E000800F5CF27F02750000AD8B4A2D0730ADE
:10152E00D8B476D7060AD8B4EAD78FD01FC0D9FF61
:10153E0020C0DAFFDECF1CF0DDCF1DF0020E1F261D
:10154E00000E2022010E276E050E2718D8B412D0D9
:10155E002750020D010EF324F66E0F0EF420F76ED7
:10156E000900F5501C5C0900F5501D58D8A002D09A
:10157E00272AEAD7800E27BE7F0E176E2550275CCE
:10158E002650800A1758D8B007D02750255E000E77
:10159E0027BEFF0E265A04D0000E266E000E256EB4
:1015AE001BA410D025502610D8B41FD00DC0D9FFC3
:1015BE000EC0DAFF300EDF6E0D4A0E2A2506D8A0B9
:1015CE002606F0D725502610D8B40FD00DC0D9FF5F
:1015DE000EC0DAFF200EDF6E0D4A0E2A2506D8A0A9
:1015EE00260625502610D8A4F1D727C01EF029D0E4
:1015FE001E50020D010EF324F66E0F0EF420F76E40
:10160E000900F5CF03F00A00F5CF04F01CC001F07D
:10161E001DC002F0F2EC10F001C008F002C009F09B
:10162E00000E0B6E0A0E0A6E8EEC11F00850300F83
:10163E00276E0DC0D9FF0EC0DAFF27C0DFFF0D4A9F
:10164E000E2A1E061E28D8A4D3D70FC0F6FF10C030
:10165E00F7FF0F4A102A0800F5CF27F02750D8A41D
:10166E007AD60DC0D9FF0EC0DAFF000EDF6E120063
:10167E0005EC12F0A38036C001F037C002F0000E68
:10168E00046E0A0E036EFDEC0EF001505E6E5E509F
:10169E000A0DF350000836240001B26F5E50100D93
:1016AE00F3500001B2254A6E4DC001F04EC002F05B
:1016BE00000E046E0A0E036EFDEC0EF001505D6E10
:1016CE005D500A0DF35000084D240001B16F5D50BE
:1016DE00100DF3500001B1254B6E4FC001F050C0FC
:1016EE0002F0000E046E0A0E036EFDEC0EF00150B9
:1016FE005C6E5C500A0DF35000084F240001B06F71
:10170E005C50100DF3500001B0254C6E57C001F027
:10171E0058C002F0000E046E0A0E036EFDEC0EF0C1
:10172E000150596E59500A0DF3500008572400010C
:10173E00AC6F5950100DF3500001AC25486E55C0DA
:10174E0001F056C002F0000E046E0A0E036EFDECA0
:10175E000EF001505A6E5A500A0DF35000085524DF
:10176E000001AE6F5A50100DF3500001AE25476EBA
:10177E0051C001F052C002F0000E046E0A0E036E4C
:10178E00FDEC0EF001505B6E5B500A0DF35000083D
:10179E0051240001AF6F5B50100DF3500001AF25C7
:1017AE00466E53C0ADF053C045F0490E016E000EAB
:1017BE00026E010E036E28EC0DF0450E016E000E4A
:1017CE00026E010E036E8DEC0CF00F013F8F1200B6
:1017DE00898089928994899680BA89A00BD0010E4E
:1017EE00446E44502B6E2C6A2BC028F02CC029F06E
:1017FE0062EC10F080BE89A00BD0020E446E4450F5
:10180E002B6E2C6A2BC028F02CC029F062EC10F045
:10181E0080BC89A00BD0030E446E44502B6E2C6AF4
:10182E002BC028F02CC029F062EC10F08990898230
:10183E008994899680BA89A20BD0040E446E4450C6
:10184E002B6E2C6A2BC028F02CC029F062EC10F005
:10185E0080BE89A20BD0050E446E44502B6E2C6AAE
:10186E002BC028F02CC029F062EC10F080BC89A2AD
:10187E000BD0060E446E44502B6E2C6A2BC028F0F3
:10188E002CC029F062EC10F0899089928984899697
:10189E0080BA89A40BD0070E446E44502B6E2C6A6E
:1018AE002BC028F02CC029F062EC10F080BE89A469
:1018BE000BD0080E446E44502B6E2C6A2BC028F0B1
:1018CE002CC029F062EC10F080BC89A40BD0090E5C
:1018DE00446E44502B6E2C6A2BC028F02CC029F07D
:1018EE0062EC10F0899089928994898680AE1200FC
:1018FE0089A61200000E446E44502B6E2C6A2BC02B
:10190E0028F02CC029F062EC10F01200000E066ECA
:10191E0020EE02F00150D9260250DA22130EDF60BB
:10192E00120020EE02F00150D9260250DA22DF50CA
:10193E00D8B4120020EE01F00150D9260250DA225E
:10194E00320EDF60120020EE01F00150D926025057
:10195E00DA22DF50D8B4120020EE03F00150D9265F
:10196E000250DA22990EDF6401D0120020EE03F04D
:10197E000150D9260250DA22DF50076E20EE01F018
:10198E000150D9260250DA22DF500A6E20EE02F004
:10199E000150D9260250DA22DF500B6E0350D8A424
:1019AE00F29C0F01000E3FBB010E096E0950D8B418
:1019BE0005EC12F00F01000E3FBF010E056E055033
:1019CE00D8B406D0000E91BE010E066E0F013F9FD9
:1019DE00FC0E0F013F170F013F8198CF0CF099CFEE
:1019EE000DF001C0D9FF02C0DAFFDF500D6EFC0E04
:1019FE000F013F17030E0F013F1307C098FF08C0DA
:101A0E0099FF0AC098FF0BC099FF0CC098FF0DC03C
:101A1E0099FF0550D8B40BD00F013F8F0650D8A4B4
:101A2E00918E0950D8B408D005EC12F005D00950AB
:101A3E00D8A402D00F013F9B0350D8B41200F29CE1
:101A4E001200000E066E20EE02F00150D926025052
:101A5E00DA225A0EDF60120020EE01F00150D92674
:101A6E000250DA225A0EDF60120020EE03F001500F
:101A7E00D9260250DA22240EDF6401D0120020EEA5
:101A8E0002F00150D9260250DA22DF50096E20EE04
:101A9E0001F00150D9260250DA22DF50086E0350B1
:101AAE00D8A4F29C0F01000E3FBB010E076E07502B
:101ABE00D8B405EC12F00F01000E3FBF010E056EFB
:101ACE000550D8B406D0000E91BE010E066E0F0161
:101ADE003F9FFC0E0F013F170F013F8198CF0AF079
:101AEE0099CF0BF020EE03F00150D9260250DA22E6
:101AFE00DF500A6EFC0E0F013F170F013F810AC027
:101B0E0098FF0BC099FF08C098FF09C099FF0550B8
:101B1E00D8B40BD00F013F8F0650D8A4918E07502A
:101B2E00D8B408D005EC12F005D00750D8A402D0D6
:101B3E000F013F9B0350D8B41200F28C1200490ED5
:101B4E00016E000E026E2BEC10F04A500F0B0001CE
:101B5E00B26F4A380F0B0F0B5E6E4B500F0B00011E
:101B6E00B16F4B380F0B0F0B5D6E4C500F0B00010E
:101B7E00B06F4C380F0B0F0B5C6E450E016E000EE6
:101B8E00026E70EC0EF046500F0B0001AF6F463830
:101B9E000F0B0F0B5B6E47500F0B0001AE6F4738EC
:101BAE000F0B0F0B5A6E45C0ADF048500F0B0001D6
:101BBE00AC6F48380F0B0F0B596E5E500A0D0001BB
:101BCE00B251F324366E0001000EF420376E5D50D4
:101BDE000A0D0001B151F3244D6E0001000EF420E8
:101BEE004E6E5C500A0D0001B051F3244F6E000191
:101BFE00000EF420506E5B500A0D0001AF51F3241D
:101C0E00516E0001000EF420526EADC053F0546AB6
:101C1E005A500A0D0001AE51F324556E0001000E0C
:101C2E00F420566E59500A0D0001AC51F324576E34
:101C3E000001000EF420586E120032503310D8A45A
:101C4E0021D0000E336E010E326E010E056E010EA6
:101C5E00DBEC11F05F0E096E0F0E0A6E1BEC11F02D
:101C6E00020E056E010EDBEC11F04F0E096E0F0E1B
:101C7E000A6E1BEC11F0D00E0B6ECA0EE82EFED7BC
:101C8E000B2EFCD732043310D8A41200000E336E84
:101C9E00000E326E010E056E010EDBEC11F0170E0A
:101CAE00096E0F0E0A6E1BEC11F0020E056E010E80
:101CBE00DBEC11F0170E096E0F0E0A6E1BEC11F015
:101CCE009C0E0B6ED70EE82EFED70B2EFCD700F017
:101CDE001200FC0E0F013F17030E0F013F1398CF9A
:101CEE000BF099CF0CF098CF0DF099CF0EF098CF56
:101CFE000FF099CF10F0FC0E0F013F17030E0F01DE
:101D0E003F1398CF03F099CF04F098CF05F099CFF9
:101D1E0006F098CF07F099CF08F005500D18D8A40B
:101D2E00D8D720EE01F00150D9260250DA220DC08C
:101D3E00DFFF20EE02F00150D9260250DA220EC04B
:101D4E00DFFF01C0D9FF02C0DAFF10C0DFFF20EEB7
:101D5E0003F00150D9260250DA220BC0DFFF120029
:101D6E00898089928994899680AA02D089B007D0F9
:101D7E0080AE02D089B003D080BC89A002D0C8EC5E
:101D8E0010F0899089828994899680AA02D089B2AE
:101D9E0007D080AE02D089B203D080BC89A202D017
:101DAE00C8EC10F0899089928984899680AA02D015
:101DBE0089B407D080AE02D089B403D080BC89A488
:101DCE0002D0C8EC10F0899089928994898680AAF5
:101DDE0002D089B608D080AE02D089B604D080ACCD
:101DEE00120089A61200C8EC10F01200000E066E4A
:101DFE0004AE06D0036C041ED8B0042A010E066E83
:101E0E0002AE06D0016C021ED8B0022A010E061ACE
:101E1E00000E086E000E076E03500410D8B41CD0CE
:101E2E00010E056E04D0D89003360436052A04AE92
:101E3E00FAD7D890073608360350015C0450025882
:101E4E00D8A005D00350015E0450025A0780D890E6
:101E5E0004320332052EEDD70650D8B404D0076CE9
:101E6E00081ED8B0082A07C001F008C002F0120000
:101E7E0052BE0CD0525004E1200E515CD8A006D0B8
:101E8E00000E526E010E516E3FEC0BF056BE0CD092
:101E9E00565004E10D0E555CD8A006D0000E566EBD
:101EAE00010E556E3FEC0BF0840E0D6E000E0E6E95
:101EBE00310E0F6E0F0E106E51C011F052C012F097
:101ECE0055C013F056C014F057C015F058C016F098
:101EDE00ADEC09F0010E056E090EDBEC11F0840E6F
:101EEE00096E000E0A6E1BEC11F01200939693947D
:101EFE008A968A949398939A939C939E0A0E0EECCC
:101F0E0012F00A0E0EEC12F00A0E0EEC12F0000E8B
:101F1E00056E020E056401D008D0030EB8EC0FF06A
:101F2E000A0E0EEC12F0052AF4D7020EB8EC0FF0E2
:101F3E00000E056E030E056401D012000550010D52
:101F4E000B0EF324F66E0F0EF420F76E0800F5CF8D
:101F5E0003F0000EAFEC11F00A0E0EEC12F0052A93
:101F6E00E9D7026E02A003D0016A012A01D0016AEC
:101F7E00013A8A500118EF0B01188A6E02A203D0A3
:101F8E00016A012A01D0016A013A01468A500118FC
:101F9E00DF0B01188A6E02A403D0016A012A01D058
:101FAE00016A013A014601468A500118BF0B011819
:101FBE008A6E02A603D0016A012A01D0016A01329B
:101FCE0001328A5001187F0B01188A6E00F08A8444
:101FDE0000F000F08A94120050BE14D0505004E16C
:101FEE00180E4F5CD8A00ED0000E506E000E4F6E25
:101FFE00000E4E6E000E4D6E000E376E000E366EDB
:10200E003FEC0BF0840E0D6E000E0E6E400E0F6E3A
:10201E000F0E106E4FC011F050C012F04DC013F0E5
:10202E004EC014F036C015F037C016F0ADEC09F006
:10203E00020E056E090EDBEC11F0840E096E000E19
:10204E000A6E1BEC11F01200FC0E0F013F170F0170
:10205E003F8198CF0FF099CF10F098CF11F099CF14
:10206E0012F0FC0E0F013F170F013F8198CF07F0C2
:10207E0099CF08F098CF09F099CF0AF009501118AE
:10208E00D8A4E2D720EE03F00150D9260250DA226E
:10209E000FC0DFFF20EE02F00150D9260250DA22E7
:1020AE0012C0DFFF20EE01F00150D9260250DA22D5
:1020BE0011C0DFFF1200D8903434D96E3534DA6E89
:1020CE00600ED926000EDA2228C0DEFF29C0DDFF01
:1020DE00020E056E3428DBEC11F0840E0D6E000E30
:1020EE000E6E840E0F6E0F0E106E28C011F029C0EA
:1020FE0012F0ADEC09F0840E096E000E0A6E1BECA8
:10210E0011F0344A352A08D0680E2A6EE40EE82EF5
:10211E00FED72A2EFCD700D080AA1200F5D7F60ED5
:10212E00F66E230EF76E000EF86E00EE98F010EEBF
:10213E0014F00900F5CFEEFFE550E150FAE14A0E3A
:10214E00F66E240EF76E000EF86E00EE4DF010EEE9
:10215E000CF00900F5CFEEFFE550E150FAE100EE8C
:10216E0060F0380EEE6AE806FDE15F6A00EE32F0CE
:10217E001B0EEE6AE806FDE1000EF86E0001C7EFD9
:10218E0007F0010E056E010EDBEC11F0200E096E4C
:10219E000F0E0A6E1BEC11F0020E056E010EDBEC3B
:1021AE0011F00F0E096E0F0E0A6E1BEC11F035BEFC
:1021BE0006D03550FCE1040E345CD8B0F8D7EFEC05
:1021CE000BF0899089928994898680BA89A6EFD777
:1021DE002BEC12F01200000E066E000E056E035070
:1021EE000410D8B41CD0010E076E04D0D89003365C
:1021FE000436072A04AEFAD7D890053606360350B1
:10220E00015C04500258D8A005D00350015E045062
:10221E00025A0580D89004320332072EEDD705C03E
:10222E0001F006C002F0120014D009C0F6FF0AC079
:10223E00F7FFF86A0E0EF76403D00800F55005D0CC
:10224E00F6CFE9FFF7CFEAFFEF5069EC11F0094A3C
:10225E000A2A09C0F6FF0AC0F7FFF86A0E0EF764E5
:10226E0003D00800F55005D0F6CFE9FFF7CFEAFF0F
:10227E00EF500009D8B41200D8D79B8E9B9CD38800
:10228E00D38AD38CD390D392F00E926E000E936EAF
:10229E00070E946E0F0148690F0149690F013F8FB8
:1022AE000F013F8BCD863FEC0BF07DEC0FF00C0E4B
:1022BE001EEC12F08A948A928A902BEC12F03FEC6C
:1022CE000BF01200086E18D0010E036E000EAFEC6C
:1022DE0011F01200020E056E010EDBEC11F0120071
:1022EE00100E036E000EAFEC11F0120008C003F0DA
:1022FE00010EAFEC11F012000850080AD8B4F0D756
:10230E00020AD8B4E7D7060AD8B4DED7EFD70A50F8
:10231E000B10D8B418D0010E0C6E04D0D8900A361B
:10232E000B360C2A0BAEFAD70A50085C0B50095824
:10233E00D8A004D00A50085E0B50095AD8900B3220
:10234E000A320C2EF1D708C008F009C009F01200AD
:10235E00046E8A96020E16EC12F09398939A939C42
:10236E00939E0450D8B402D08A8601D08A9600F08B
:10237E0003380F0BB8EC0FF003500F0BB8EC0FF047
:10238E00120001500302F3CF05F0F4CF06F0015016
:10239E000402F350062602500302F350062605C02F
:1023AE0001F006C002F01200066E0504D8B402D089
:1023BE00400E01D0000E076E060407260750800956
:1023CE00036E000EAFEC11F01200036E000E026EE3
:1023DE003A0E036005D02F0E036402D0010E026E7A
:1023EE0002C001F001301200660F7F0F7A0F6B0FE3
:1023FE00750F700F0100020003000400F29C550ED1
:10240E00A76EAA0EA76E0F013F8BF28C1200016E03
:10241E00C80E00D0E82EFDD7012EFAD71200016E9D
:10242E00210EE82EFED700F0012EFAD71200056E0F
:10243E0005C003F0000EAFEC11F012001E001200EA
:10244E000800030009000F003FEC0FF0F3EC0FF053
:02245E0012006A
:08FFF800AEF718FFF3F8FFF16A
:00000001FF
