:04000000E9EF68F0CC
:10CD420089EC6BF041EC6AF01200D3FFECFFE7FFD5
:10CD5200D8FFE2FFDDFFA1EC66F0D9EC6EF0CFEC7C
:10CD62006BF01200056E05C003F0000E41EC67F097
:10CD72001200016E210EE82EFED700F0012EFAD726
:10CD82001200016EC80E00D0E82EFDD7012EFAD790
:10CD92001200F29C550EA76EAA0EA76E0F013F8BD2
:10CDA200F28C12000100020003000400CDFF1E00FD
:10CDB20012000800030009000F00020E056E070EA4
:10CDC200F9EC66F0AF0E096EFF0E0A6E69EC68F0C0
:10CDD2001200036E000E026E3A0E036005D02F0E93
:10CDE200036402D0010E026E02C001F00130120093
:10CDF200066E0504D8B402D0400E01D0000E076EB4
:10CE02000604072607508009036E000E41EC67F006
:10CE12001200015002100310D8B406D0000E011AFD
:10CE2200000E021A800E031A01C001F002C002F0C5
:10CE320003C003F01200F5EC67F056EC74F0ACECB2
:10CE420066F0FBD7FF0E0001E86F8A0EE82EFED7D0
:10CE5200E82FFCD700F000EF00F01C501E02F3CFC9
:10CE620020F0F4CF21F01C501F02F35021261D5058
:10CE72001E02F350212620C01CF021C01DF012001A
:10CE8200046E8A96020EBAEC66F09398939A939C7B
:10CE9200939E0450D8B402D08A8601D08A9600F0BC
:10CEA20003380F0B53EC69F003500F0B53EC69F08E
:10CEB2001200CBC09CF0CCC09DF0CFC09AF0D0C085
:10CEC2009BF0D1C098F0D2C099F0C9C096F0CAC008
:10CED20097F0C7C094F0C8C095F0A6C092F0A7C062
:10CEE20093F01200000E0C6E0AAE06D0096C0A1EF8
:10CEF200D8B00A2A010E0C6E09C001F00AC002F075
:10CF0200036A8E0E046E0CC005F02BEC6EF001C0AD
:10CF120009F002C00AF003C00BF0120031503210C7
:10CF22003310D8B406D0000E311A000E321A800E19
:10CF3200331A2EC022F02FC023F030C024F031C0AB
:10CF420025F032C026F033C027F082EC76F022C002
:10CF52002EF023C02FF024C030F012000A500B1024
:10CF6200D8B418D0010E0C6E04D0D8900A360B3605
:10CF72000C2A0BAEFAD70A50085C0B500958D8A0FD
:10CF820004D00A50085E0B50095AD8900B320A326C
:10CF92000C2EF1D708C008F009C009F01200086E83
:10CFA20018D0010E036E000E41EC67F01200020E63
:10CFB200056E010EF9EC66F01200100E036E000E03
:10CFC20041EC67F0120008C003F0010E41EC67F07B
:10CFD20012000850080AD8B4F0D7020AD8B4E7D72A
:10CFE200060AD8B4DED7EFD79B8E9B9CD388D38A10
:10CFF200D38CD390D392F00E926E000E936EE70E06
:10D00200946E0F0148690F0149690F013F8F0F01AB
:10D012003F8BCD86B4EC75F08EEC69F00C0EB3EC60
:10D0220066F08A948A928A90A1EC66F0B4EC75F06C
:10D032001200020E056E010EF9EC66F0D40E096EB6
:10D04200FE0E0A6E69EC68F0000E0C6E000E0B6E9E
:10D052000CAE10D0D8900B34D96E0C34DA6E600E50
:10D06200D926000EDA22000EDE6E000EDD6E0B4AAD
:10D072000C2AEED7000E0001A56F000EA46F12005D
:10D08200898089928994899682A4120089A01200CB
:10D092000001905100019111D8B44CEC78F00001DC
:10D0A200900500019111D8B436EC6DF0020E00012A
:10D0B200901900019111D8B4E8EC7BF0030E000145
:10D0C200901900019111D8A412008FEC7AF012008D
:10D0D20014D009C0F6FF0AC0F7FFF86A0E0EF76413
:10D0E20003D00800F55005D0F6CFE9FFF7CFEAFFED
:10D0F200EF50D0EC67F0094A0A2A09C0F6FF0AC0CD
:10D10200F7FFF86A0E0EF76403D00800F55005D059
:10D11200F6CFE9FFF7CFEAFFEF500009D8B41200CB
:10D12200D8D7000E066E000E056E03500410D8B458
:10D132001CD0010E076E04D0D89003360436072A9D
:10D1420004AEFAD7D890053606360350015C045077
:10D152000258D8A005D00350015E0450025A05803F
:10D16200D89004320332072EEDD705C001F006C075
:10D1720002F012008E0E116E06D0D8900C320B32D5
:10D182000A320932112A000E09140D6E000E0A1419
:10D192000E6E000E0B140F6EFF0E0C14106E0D505F
:10D1A2000E100F101010D8A4E8D709C001F00AC061
:10D1B20002F00BC003F011C004F0000E056E2BEC60
:10D1C2006EF001C009F002C00AF003C00BF01200B9
:10D1D2004C0EF66ECD0EF76E000EF86E01EE28F0D4
:10D1E20010EE0CF00900F5CFEEFFE550E150FAE148
:10D1F200A60EF66ECD0EF76E000EF86E00EEBDF0C6
:10D2020010EE16F00900F5CFEEFFE550E150FAE11D
:10D2120001EE00F0280EEE6AE806FDE10001F66B71
:10D2220000EE60F05D0EEE6AE806FDE1000EF86EBB
:10D2320000011CEF67F0FC0E0F013F170F013F8149
:10D2420098CF0FF099CF10F098CF11F099CF12F03C
:10D25200FC0E0F013F170F013F8198CF07F099CFC6
:10D2620008F098CF09F099CF0AF009501118D8A404
:10D27200E2D720EE03F00150D9260250DA220FC085
:10D28200DFFF20EE02F00150D9260250DA2212C04E
:10D29200DFFF20EE01F00150D9260250DA2211C040
:10D2A200DFFF1200026E02A003D0016A012A01D040
:10D2B200016A013A8A500118EF0B01188A6E02A224
:10D2C20003D0016A012A01D0016A013A01468A505B
:10D2D2000118DF0B01188A6E02A403D0016A012A29
:10D2E20001D0016A013A014601468A500118BF0B7A
:10D2F20001188A6E02A603D0016A012A01D0016ACE
:10D30200013201328A5001187F0B01188A6E00F037
:10D312008A8400F000F08A941200939693948A967D
:10D322008A949398939A939C939E0A0EC2EC66F009
:10D332000A0EC2EC66F00A0EC2EC66F0000E056E32
:10D34200020E056401D008D0030E53EC69F00A0EF8
:10D35200C2EC66F0052AF4D7020E53EC69F0000E17
:10D36200056E030E056401D012000550010D570E23
:10D37200F324F66EFE0EF420F76E0800F5CF03F0EC
:10D38200000E41EC67F00A0EC2EC66F0052AE9D7FE
:10D3920000018C5100018D11D8A417D0000E00019C
:10D3A2008D6F010E8C6F010E056E010EF9EC66F0A9
:10D3B200E30E096EFE0E0A6E69EC68F0D00E0B6E7B
:10D3C200CA0EE82EFED70B2EFCD700018C050001F9
:10D3D2008D11D8A41200000E00018D6F000E8C6F0B
:10D3E200010E056E010EF9EC66F0D20E096EFE0E0C
:10D3F2000A6E69EC68F09C0E0B6ED70EE82EFED713
:10D402000B2EFCD700F01200000E256E8E0E246E3D
:10D412001FAE11D01F1E1E1E1D1E1C6C000E1D22D3
:10D422001E221F22010E256E06D0D8901F321E32F8
:10D432001D321C32242A000E1C14206E000E1D14F4
:10D44200216E000E1E14226EFF0E1F14236E20503A
:10D45200211022102310D8A4E8D71CC001F01DC04F
:10D4620002F01EC003F024C004F025C005F02BEC2E
:10D472006EF001C01CF002C01DF003C01EF01200CD
:10D482000001CABF19D00001CA5105E1180E0001FE
:10D49200C95DD8A011D0000E0001CA6F000EC96F7D
:10D4A200000E0001C86F000EC76F000E0001A76FCB
:10D4B200000EA66FB4EC75F0140E226E010E236EF0
:10D4C200140E246EFF0E256EC9C026F0CAC027F0C6
:10D4D200C7C028F0C8C029F0A6C02AF0A7C02BF008
:10D4E2004FEC7DF0020E056E090EF9EC66F0140E9B
:10D4F200096E010E0A6E69EC68F01200000E086EE9
:10D50200000E076E000E0A6E000E096E0ABE03D0F0
:10D512000A502EE129D0D8900934D96E0A34DA6E35
:10D52200600ED926000EDA22D8900934E16E0A3450
:10D53200E26EBD0EE126000EE222DE50E61809E19F
:10D54200DE50E618D8A405D0000E086E010E076E54
:10D5520005D0000E086E000E076E0AD0094A0A2A8C
:10D562000ABED9D70A5004E1040E095CD8A0D3D769
:10D5720007C001F008C002F01200000E066E04AEF1
:10D5820006D0036C041ED8B0042A010E066E02AE49
:10D5920006D0016C021ED8B0022A010E061A000E35
:10D5A200086E000E076E03500410D8B41CD0010E92
:10D5B200056E04D0D89003360436052A04AEFAD795
:10D5C200D890073608360350015C04500258D8A0A0
:10D5D20005D00350015E0450025A0780D8900432ED
:10D5E2000332052EEDD70650D8B404D0076C081EBE
:10D5F200D8B0082A07C001F008C002F01200020EDB
:10D602000001901900019111D8A416D0010E056EE7
:10D61200010EF9EC66F0500E096EFF0E0A6E69EC0F
:10D6220068F0020E056E010EF9EC66F02C0E096E22
:10D63200FF0E0A6E69EC68F0030E000190190001FA
:10D642009111D8A416D0010E056E010EF9EC66F008
:10D65200620E096EFF0E0A6E69EC68F0020E056E2C
:10D66200010EF9EC66F02C0E096EFF0E0A6E69ECE3
:10D6720068F09C0E0B6ED70EE82EFED70B2EFCD751
:10D6820000F012000001A2510001A311D8A42DD074
:10D69200D8900001A435D96E0001A535DA6E600E6E
:10D6A200D926000EDA223FC0DEFF40C0DDFF020EA7
:10D6B200056E0001A429F9EC66F0140E226E010E2B
:10D6C200236EF10E246EFF0E256E3FC026F040C081
:10D6D20027F04FEC7DF0140E096E010E0A6E69EC14
:10D6E20068F00001A44BA52B1200D8900001A435CC
:10D6F200D96E0001A535DA6E800ED926000EDA2227
:10D702003FC0DEFF40C0DDFF0001A44BA52B12008D
:10D712000001CCBF0FD00001CC5105E1200E000169
:10D72200CB5DD8A007D0000E0001CC6F010ECB6FED
:10D73200B4EC75F00001D0BF0FD00001D05105E16B
:10D742000D0E0001CF5DD8A007D0000E0001D06FF2
:10D75200010ECF6FB4EC75F0140E226E010E236E23
:10D76200050E246EFF0E256ECBC026F0CCC027F02E
:10D77200CFC028F0D0C029F0D1C02AF0D2C02BF0FF
:10D782004FEC7DF0010E056E090EF9EC66F0140EF9
:10D79200096E010E0A6E69EC68F0120089808992A6
:10D7A2008994899680AA02D089B007D080AE02D02F
:10D7B20089B003D080BC89A002D082EC6EF089903F
:10D7C20089828994899680AA02D089B207D080AED4
:10D7D20002D089B203D080BC89A202D082EC6EF062
:10D7E200899089928984899680AA02D089B407D0C7
:10D7F20080AE02D089B403D080BC89A402D082EC6E
:10D802006EF0899089928994898680AA02D089B61D
:10D8120008D080AE02D089B604D080AC120089A6AE
:10D82200120082EC6EF01200FC0E0F013F17030E85
:10D832000F013F1398CF0BF099CF0CF098CF0DF05A
:10D8420099CF0EF098CF0FF099CF10F0FC0E0F0188
:10D852003F17030E0F013F1398CF03F099CF04F047
:10D8620098CF05F099CF06F098CF07F099CF08F03E
:10D8720005500D18D8A4D8D720EE01F00150D926B2
:10D882000250DA220DC0DFFF20EE02F00150D9264D
:10D892000250DA220EC0DFFF01C0D9FF02C0DAFF58
:10D8A20010C0DFFF20EE03F00150D9260250DA2229
:10D8B2000BC0DFFF120003AE16D001C007F002C09A
:10D8C20008F003C009F0071E081E091E072A000EF1
:10D8D20008220922000E0724016E000E0820026EA3
:10D8E200800E0920036E06AE16D004C007F005C0F4
:10D8F20008F006C009F0071E081E091E072A000EBE
:10D9020008220922000E0724046E000E0820056E6C
:10D91200800E0920066E000E011A000E021A800EF9
:10D92200031A000E041A000E051A800E061A04507D
:10D93200015C0550025806500358D8B002D0D89066
:10D942001200D8801200015002100310D8A40FD088
:10D9520004C0D9FF05C0DAFF000EDE6E000EDD6ED8
:10D96200000E016E000E026E000E036E12000350D6
:10D972007F0B066E076AD8900636073604C0D9FFB9
:10D9820005C0DAFF06C0DEFF07C0DDFF02AE03D02E
:10D99200066A062A01D0066A065004C0D9FF05C0ED
:10D9A200DAFFDE12000EDD1204C0D9FF05C0DAFF75
:10D9B200820EDE26FF0EDD220380038203840386AD
:10D9C2000388038A039C029E01C001F002C002F098
:10D9D20003C003F01200899089928984899682B4E7
:10D9E20089A41DD0040E0001901900019111D8A440
:10D9F20006D0000E0001916F000E906F0CD0000156
:10DA0200904B912B08D0680E016EE40EE82EFED7E3
:10DA1200012EFCD700D082A402D089B4F4D7899019
:10DA220089928994898682A4120089A61200000133
:10DA3200905100019111D8A406D0000E0001916FFF
:10DA4200040E906F0DD000019007D8A0910708D066
:10DA5200680E016EE40EE82EFED7012EFCD700D030
:10DA620082A4120089A61200F3D7000E0001A56F4E
:10DA7200000EA46F010E056E010EF9EC66F0AB0EFE
:10DA8200096EFE0E0A6E69EC68F0020E056E010E5A
:10DA9200F9EC66F0D20E096EFE0E0A6E69EC68F0C1
:10DAA2000001A5BF08D00001A55108E1040E000144
:10DAB200A45DD8B003D05BEC79F0F2D7000E446ECF
:10DAC200000E436E44BE06D044501DE1040E435C7A
:10DAD200D8B01200D8904334D96E4434DA6E600E56
:10DAE200D926000EDA22D8904334E16E4434E26E35
:10DAF200BD0EE126000EE222DECFE6FFDDCFE5FF1E
:10DB0200434A442ADFD71200000E226E010E236E12
:10DB1200940E246EFE0E256E9CC026F09DC027F04A
:10DB22009AC028F09BC029F098C02AF099C02BF027
:10DB32004FEC7DF0010E056E010EF9EC66F0000E61
:10DB4200096E010E0A6E69EC68F0000E226E010E7B
:10DB5200236EC00E246EFE0E256EC5C026F0C6C012
:10DB620027F096C028F097C029F094C02AF095C0FB
:10DB72002BF092C02CF093C02DF04FEC7DF0020EF2
:10DB8200056E010EF9EC66F0000E096E010E0A6ECA
:10DB920069EC68F002D0ECEC6CF0040E0001901914
:10DBA20000019111D8A41200F6D7010E056E010EE4
:10DBB200F9EC66F08F0E096EFF0E0A6E69EC68F0E2
:10DBC200020E056E010EF9EC66F0860E096EFF0E6E
:10DBD2000A6E69EC68F056EC74F0A1EC66F0000194
:10DBE200905100019111D8B405D0000190050001B7
:10DBF2009111D8B46CEC70F0020E00019019000182
:10DC02009111D8B406D0030E0001901900019111B0
:10DC1200D8B400EC6BF0040E0001901900019111D0
:10DC2200D8B485EC6DF0ECEC6CF041EC68F08990C6
:10DC320089828994899682B41200CDD7FF0E0001A1
:10DC4200E56F8A0EE82EFED7E52FFCD700F082A4FE
:10DC5200C2D7F4D70450D8B405D001500210031033
:10DC6200D8A40CD0000E016E000E026E000E036EE0
:10DC72001200042AD890033202320132000E01143B
:10DC8200066E000E0214076EFE0E0314086E065096
:10DC920007100810D8B40CD0ECD7042A010E0126C4
:10DCA200000E0222000E0322D89003320232013209
:10DCB200000E0114066E000E0214076EFF0E03140E
:10DCC200086E065007100810D8B406D0E6D704062E
:10DCD200D89001360236033602BE03D0020E04602B
:10DCE200F6D704A0029ED8900432045003120550C5
:10DCF200D8A4038E01C001F002C002F003C003F0F9
:10DD02001200000E0001E76F000EE66F000E000128
:10DD1200A56F000EA46F010E056E010EF9EC66F000
:10DD2200F40E096EFE0E0A6E69EC68F0020E056EC4
:10DD3200010EF9EC66F0D20E096EFE0E0A6E69EC67
:10DD420068F00001A5BF08D00001A55108E1040E4A
:10DD52000001A45DD8B003D05BEC79F010D0DEEC0A
:10DD620066F07FEC6AF001040210D8A403D0D6EC6E
:10DD72006DF012000001E64BE72B1AEC68F000018F
:10DD8200E7BFDFD70001E75105E1030E0001E65DC1
:10DD9200D8A0D7D7000E00019F6F010E9E6FB70E5D
:10DDA2000001C56FFF0E0001C66F4CEC78F0C9D7B9
:10DDB20000018E5100018F11D8A42BD0000E00015A
:10DDC2008F6F010E8E6F010E056E010EF9EC66F07B
:10DDD200C60E096EFF0E0A6E69EC68F0020E056E41
:10DDE200010EF9EC66F0470E096EFF0E0A6E69EC41
:10DDF20068F0FF0E0B6E8A0EE82EFED70B2EFCD7B4
:10DE020000D0FF0E0B6E8A0EE82EFED70B2EFCD72B
:10DE120000D000018E0500018F11D8A41200000E5F
:10DE220000018F6F000E8E6F010E056E010EF9EC70
:10DE320066F0DA0E096EFE0E0A6E69EC68F0020EEA
:10DE4200056E010EF9EC66F0DA0E096EFE0E0A6E30
:10DE520069EC68F09C0E0B6ED70EE82EFED70B2EE7
:10DE6200FCD700F012003A503B103C10D8A407D067
:10DE7200000E3A6E000E3B6E000E3C6E12003C50DD
:10DE82007F0B3F6E406AD8903F3640363F503D266A
:10DE920040503E223BAE03D03F6A3F2A01D03F6A48
:10DEA2003F503D26000E3E223EAE0CD0000E000139
:10DEB200896F220E886F000E3A6E000E3B6E000EC6
:10DEC2003C6E12003EBE16D03E04D8A013D0000E07
:10DED2000001896F220E886F3CAE06D0FF0E3A6EAB
:10DEE2007F0E3B6EFF0EECD7FF0E3A6E7F0E3B6E3F
:10DEF2007F0EE6D73E343E30406E3D303F6E3C50A2
:10DF02003F18800B3F183C6E3DC03FF0010E3F169C
:10DF12003F323F323B503F187F0B3F183B6E3AC0B7
:10DF22003AF03BC03BF03CC03CF0120033C01CF066
:10DF320034C01DF0000E1F6E030E1E6E2EEC67F035
:10DF420031C035F032C036F01C5035261D50362215
:10DF520035C0F6FF36C0F7FF0900F5CF37F00900EC
:10DF6200F5CF38F00A00F5CF39F03ED037C010F0C7
:10DF720038C011F039C012F02EC00DF02FC00EF0D3
:10DF820030C00FF0BAEC71F00DC022F00EC023F0D9
:10DF92000FC024F0000E1F6E030E1E6E3306D8A0B3
:10DFA200340633C01CF034C01DF02EEC67F031C0D3
:10DFB20035F032C036F01C5035261D50362235C0A1
:10DFC200F6FF36C0F7FF0900F5CF25F00900F5CFBF
:10DFD20026F00A00F5CF27F082EC76F022C037F067
:10DFE20023C038F024C039F033503410D8A4BED73F
:10DFF20037C02EF038C02FF039C030F01200000EBA
:10E002000001DA6F000ED96F000E0001DC6F010E05
:10E01200DB6F0001DCBF5AD0010E0001DB255D6E13
:10E02200000E0001DC215E6E5D1E5E1E5D4A5E2AF0
:10E03200020E5D24096E000E5E200A6E73EC67F01C
:10E0420009C0D3F00AC0D4F00BC0D5F0D3C04DF054
:10E05200D4C04EF0D5C04FF0000E4A6E200E4B6E6B
:10E06200410E4C6EF9EC74F04AC0D6F04BC0D7F0BA
:10E072004CC0D8F0D6C00DF0D7C00EF0D8C00FF00B
:10E0820034EC72F00DC01CF00EC01DF0D8900001EF
:10E09200DB35D96E0001DC35DA6E800ED926000E32
:10E0A200DA22DECF1EF0DDCF1FF02EEC67F000018A
:10E0B200D9511C240001D96F0001DA511D20000141
:10E0C200DA6F0001DB07D8A0DC07A3D7D9C05BF069
:10E0D200DAC05CF0120000018A5100018B11D8A451
:10E0E20030D0000E00018B6F010E8A6F010E056E9B
:10E0F200010EF9EC66F0230E096EFF0E0A6E69EC52
:10E1020068F0020E056E010EF9EC66F0860E096EDD
:10E11200FF0E0A6E69EC68F0D00E0B6ECA0EE82E86
:10E12200FED70B2EFCD7D00E0B6ECA0EE82EFED7F2
:10E132000B2EFCD7D00E0B6ECA0EE82EFED70B2E7E
:10E14200FCD700018A0500018B11D8A41200000E31
:10E1520000018B6F000E8A6F000190510001911136
:10E16200D8A40BD0010E056E010EF9EC66F0DB0EA1
:10E17200096EFE0E0A6E69EC68F00001900500015E
:10E182009111D8A40BD0020E056E010EF9EC66F0C7
:10E19200DA0E096EFE0E0A6E69EC68F09C0E0B6ECA
:10E1A200D70EE82EFED70B2EFCD700F012002EC0A1
:10E1B20001F02FC002F030C003F0340E046E000EE6
:10E1C200056EA4EC6CF035AE10D030AE07D0000E68
:10E1D2002E6E800E2F6EBF0E306E1200000E2E6E4F
:10E1E200000E2F6E000E306E1200355004E1150E37
:10E1F200345CD8A007D02EC02EF02FC02FF030C034
:10E2020030F012002EC00DF02FC00EF030C00FF013
:10E2120034EC72F00DC01CF00EC01DF00FC01EF0E9
:10E2220010C01FF005EC6AF01CC031F01DC032F0C6
:10E232001EC033F02EC001F02FC002F030C003F038
:10E2420031C004F032C005F033C006F05CEC6CF073
:10E25200D8B015D031C022F032C023F033C024F040
:10E26200000E256E800E266EBF0E276E82EC76F0B3
:10E2720022C02EF023C02FF024C030F0120031C093
:10E282002EF032C02FF033C030F012000BC00FF06E
:10E29200106A116A0A340F3601E310800F50166EAD
:10E2A2001650D8A407D0000E096E000E0A6E000E9A
:10E2B2000B6E12000EC00FF0106A116A0D340F3689
:10E2C20001E310800F50176E1750D8A407D0000E2C
:10E2D200096E000E0A6E000E0B6E1200000E136E17
:10E2E200000E146E000E156E1750890F165E0BC0CD
:10E2F20017F00E50171A800E17160A8EFF0E091607
:10E30200FF0E0A16000E0B160D8EFF0E0C16FF0ED8
:10E312000D16000E0E16180E126ED8901336143605
:10E3220015360C50095C0D500A580E500B58D8A0E7
:10E3320007D00C50095E0D500A5A0E500B5A13802A
:10E34200D89009360A360B36122EE7D713C001F0E1
:10E3520014C002F015C003F016C004F017C005F097
:10E362002BEC6EF001C009F002C00AF003C00BF002
:10E3720012000FC013F0146A156A0E34133601E34B
:10E3820014801350166E1650D8A407D0000E0D6ECE
:10E39200000E0E6E000E0F6E120012C013F0146A01
:10E3A200156A1134133601E3148013501B6E1B508F
:10E3B200D8A407D0000E0D6E000E0E6E000E0F6E6A
:10E3C20012001B507B0F16260FC01BF012501B1A97
:10E3D200800E1B160E8E118EFF0E1016FF0E1116DA
:10E3E200000E1216000E176E000E186E000E196E39
:10E3F200070E1A6E0DA006D01050172611501822C3
:10E4020012501922D8900F320E320D32D890103697
:10E41200113612361A2EEED7090E1A6E0DA006D03C
:10E42200105017261150182212501922D8900F326C
:10E432000E320D32D8901932183217321A2EEED708
:10E4420017C001F018C002F019C003F016C004F0A2
:10E452001BC005F02BEC6EF001C00DF002C00EF0F7
:10E4620003C00FF012000FC011F0126A136A0E34CB
:10E47200113601E3128011501B6E1B50D8A409D033
:10E48200000E0D6E000E0E6E000E0F6E000E106E60
:10E492001200170E116E0DC012F00EC013F00FC055
:10E4A20014F01128156E04D0D8901432133212329F
:10E4B200152EFAD71250166E0E8EFF0E0D16FF0E87
:10E4C2000E16000E0F160D50176E0E50186E0F50CE
:10E4D200196E1A6A8E0E1B5E1BAE16D01B50800A76
:10E4E2008F0FD8B009D0000E0D6E000E0E6E000E0A
:10E4F2000F6E000E106E1200D8901A3219321832B6
:10E5020017321B3EF9D715D0170E1B640FD0000E21
:10E512000D6E000E0E6E000E0F6E000E106E1200CB
:10E52200D8901736183619361A361B061B50D8A43F
:10E53200F7D71650D8B408D01A1E191E181E176C19
:10E54200000E182219221A2217C00DF018C00EF060
:10E5520019C00FF01AC010F01200000E066E20EE65
:10E5620002F00150D9260250DA225A0EDF60120060
:10E5720020EE01F00150D9260250DA225A0EDF6055
:10E58200120020EE03F00150D9260250DA22240EA6
:10E59200DF6401D0120020EE02F00150D9260250B1
:10E5A200DA22DF50096E20EE01F00150D926025026
:10E5B200DA22DF50086E0350D8A4F29C0F01000E3D
:10E5C2003FBB010E076E0750D8B4CAEC66F00F01CC
:10E5D200000E3FBF010E056E0550D8B406D0000EE6
:10E5E20091BE010E066E0F013F9FFC0E0F013F17F9
:10E5F2000F013F8198CF0AF099CF0BF020EE03F084
:10E602000150D9260250DA22DF500A6EFC0E0F01A9
:10E612003F170F013F810AC098FF0BC099FF08C046
:10E6220098FF09C099FF0550D8B40BD00F013F8F56
:10E632000650D8A4918E0750D8B408D0CAEC66F020
:10E6420005D00750D8A402D00F013F9B0350D8B485
:10E652001200F28C12003CAE0CD0000E0001896F49
:10E66200210E886F000E3A6E000E3B6E000E3C6E5D
:10E6720012003A503B103C10D8A40CD0000E0001FE
:10E68200896F220E886F000E3A6E000E3B6E000EEE
:10E692003C6E1200000E106E000E116E400E126ED5
:10E6A2003D0E046E000E056E3AC001F03BC002F052
:10E6B2003CC003F0A4EC6CF001C00DF002C00EF0FF
:10E6C20003C00FF0BAEC71F00DC022F00EC023F0BF
:10E6D2000FC024F0000E256E800E266EBF0E276E30
:10E6E20082EC76F022C03AF023C03BF024C03CF02A
:10E6F2003D06D8A03E063AC02EF03BC02FF03CC0EB
:10E7020030F0790E316EFE0E326E000E346E080E4F
:10E71200336E97EC6FF02EC03AF02FC03BF030C052
:10E722003CF0720E106E310E116E3F0E126E3DC035
:10E7320009F03EC00AF073EC67F009C00DF00AC0A0
:10E742000EF00BC00FF0BAEC71F00DC022F00EC04B
:10E7520023F00FC024F03AC025F03BC026F03CC0A5
:10E7620027F082EC76F022C03AF023C03BF024C0BE
:10E772003CF01200000E066E20EE02F00150D92687
:10E782000250DA22130EDF60120020EE02F0015076
:10E79200D9260250DA22DF50D8B4120020EE01F05E
:10E7A2000150D9260250DA22320EDF60120020EE2A
:10E7B20001F00150D9260250DA22DF50D8B41200FB
:10E7C20020EE03F00150D9260250DA22990EDF64BE
:10E7D20001D0120020EE03F00150D9260250DA22B5
:10E7E200DF50076E20EE01F00150D9260250DA22E6
:10E7F200DF500A6E20EE02F00150D9260250DA22D2
:10E80200DF500B6E0350D8A4F29C0F01000E3FBBE9
:10E81200010E096E0950D8B4CAEC66F00F01000E61
:10E822003FBF010E056E0550D8B406D0000E91BE52
:10E83200010E066E0F013F9FFC0E0F013F170F01E5
:10E842003F8198CF0CF099CF0DF001C0D9FF02C0E3
:10E85200DAFFDF500D6EFC0E0F013F17030E0F01A2
:10E862003F1307C098FF08C099FF0AC098FF0BC06A
:10E8720099FF0CC098FF0DC099FF0550D8B40BD07A
:10E882000F013F8F0650D8A4918E0950D8B408D0FA
:10E89200CAEC66F005D00950D8A402D00F013F9B04
:10E8A2000350D8B41200F29C1200B90E016E000E91
:10E8B200026E1CEC69F00001BA510F0B0001F56FFA
:10E8C2000001BA390F0B0F0B0001F46F0001BB51AD
:10E8D2000F0B0001F36F0001BB390F0B0F0B00018F
:10E8E200F26F0001BC510F0B0001F16F0001BC3946
:10E8F2000F0B0F0B0001F06FB50E016E000E026ED2
:10E9020015EC6CF00001B6510F0B0001EF6F000126
:10E91200B6390F0B0F0B0001EE6F0001B7510F0B51
:10E922000001ED6F0001B7390F0B0F0B0001EC6F07
:10E93200B5C0EBF00001B8510F0B0001EA6F000106
:10E94200B8390F0B0F0B0001E96F0001F4510A0DEA
:10E952000001F551F3240001A66F0001000EF4201E
:10E962000001A76F0001F2510A0D0001F351F324D7
:10E972000001C76F0001000EF4200001C86F000102
:10E98200F0510A0D0001F151F3240001C96F000199
:10E99200000EF4200001CA6F0001EE510A0D0001C1
:10E9A200EF51F3240001CB6F0001000EF4200001AF
:10E9B200CC6FEBC0CDF00001CE6B0001EC510A0D23
:10E9C2000001ED51F3240001CF6F0001000EF4208D
:10E9D2000001D06F0001E9510A0D0001EA51F32450
:10E9E2000001D16F0001000EF4200001D26F12006D
:10E9F200000E566E4A504B104C10D8A41CD0000E7C
:10EA0200016E000E026E000E036E4DC004F04EC089
:10EA120005F04FC006F05CEC6CF0D8A005D0000EFB
:10EA22000001896F210E886F000E4A6E000E4B6E38
:10EA3200000E4C6E12004D504E104F10D8A407D04D
:10EA4200000E4A6E800E4B6E3F0E4C6E12004CAEA4
:10EA520041D04DC00DF04EC00EF04FC00FF034EC5F
:10EA620072F00DC057F00EC058F00FC059F010C030
:10EA72005AF057C009F058C00AF059C00BF05AC0FA
:10EA82000CF0BBEC68F04D50091807E14E500A1823
:10EA920004E14F500B18D8B40CD0000E0001896F5E
:10EAA200210E886F000E4A6E000E4B6E000E4C6EE9
:10EAB20012005750010B566E4AC001F04BC002F0D3
:10EAC2004CC003F00AEC67F001C04AF002C04BF000
:10EAD20003C04CF04AC03AF04BC03BF04CC03CF093
:10EAE2002CEC73F03AC050F03BC051F03CC052F0F5
:10EAF20050C00DF051C00EF052C00FF04DC010F0DA
:10EB02004EC011F04FC012F0BAEC71F00DC053F0CC
:10EB12000EC054F00FC055F053C041F054C042F043
:10EB220055C043F058EC77F041C04AF042C04BF078
:10EB320043C04CF05650D8B40FD04AC001F04BC07D
:10EB420002F04CC003F00AEC67F001C04AF002C0C8
:10EB52004BF003C04CF012004AC04AF04BC04BF0DD
:10EB62004CC04CF01200CAEC66F0A380A6C001F0C3
:10EB7200A7C002F0000E046E0A0E036EBEEC6AF02D
:10EB820001500001F46F0001F4510A0DF350000826
:10EB92000001A6250001F56F0001F451100DF3509C
:10EBA2000001F5250001BA6FC7C001F0C8C002F02C
:10EBB200000E046E0A0E036EBEEC6AF001500001F4
:10EBC200F26F0001F2510A0DF35000080001C7254F
:10EBD2000001F36F0001F251100DF3500001F32513
:10EBE2000001BB6FC9C001F0CAC002F0000E046E82
:10EBF2000A0E036EBEEC6AF001500001F06F0001D4
:10EC0200F0510A0DF35000080001C9250001F16F0F
:10EC12000001F051100DF3500001F1250001BC6F0D
:10EC2200D1C001F0D2C002F0000E046E0A0E036ED3
:10EC3200BEEC6AF001500001E96F0001E9510A0DD2
:10EC4200F35000080001D1250001EA6F0001E951EB
:10EC5200100DF3500001EA250001B86FCFC001F09A
:10EC6200D0C002F0000E046E0A0E036EBEEC6AF013
:10EC720001500001EC6F0001EC510A0DF350000845
:10EC82000001CF250001ED6F0001EC51100DF35092
:10EC92000001ED250001B76FCBC001F0CCC002F03E
:10ECA200000E046E0A0E036EBEEC6AF00150000103
:10ECB200EE6F0001EE510A0DF35000080001CB2562
:10ECC2000001EF6F0001EE51100DF3500001EF252E
:10ECD2000001B66FCDC0EBF0CDC0B5F0B90E016E3C
:10ECE200000E026E010E036EAEEC72F0B50E016EF6
:10ECF200000E026E010E036EBBEC73F00F013F8F2C
:10ED0200120024C028F0296A2A6A2334283601E333
:10ED1200298028502D6E27C028F0296A2A6A2634B5
:10ED2200283601E3298028502C6E2D50D8B40BD000
:10ED32002C502D5CD8B00ED02D5000082C24286EFB
:10ED4200180E286407D025C022F026C023F027C061
:10ED520024F012002C50D8B40BD02D502C5CD8B01B
:10ED62000ED02C5000082D24286E180E286407D0CF
:10ED720022C022F023C023F024C024F01200060E89
:10ED82002B6E24BE2B8E27BE2B8C238EFF0E2216BB
:10ED9200FF0E2316000E2416268EFF0E2516FF0EDA
:10EDA2002616000E27162C502D5CD8B01BD0D890FA
:10EDB2002536263627362C062D502C18D8B40DD0E1
:10EDC2002B062BC028F0070E2816D8B406D0EFD792
:10EDD200D8902432233222322D2A2C502D18D8B426
:10EDE2001FD0F6D72D502C5CD8B01AD0D89022362E
:10EDF200233624362D062D502C18D8B40DD02B06D0
:10EE02002BC028F0070E2816D8B406D0EFD7D8901A
:10EE12002732263225322C2A2C502D18D8A4F7D787
:10EE22002BAE0CD0FF0E221AFF0E231AFF0E241A4D
:10EE3200010E2226000E2322000E24222BAC0CD01F
:10EE4200FF0E251AFF0E261AFF0E271A010E25267F
:10EE5200000E2622000E2722000E2B6E225025269F
:10EE6200235026222450272227AE0ED0FF0E251A29
:10EE7200FF0E261AFF0E271A010E2526000E262245
:10EE8200000E2722010E2B6E25C001F026C002F0D3
:10EE920027C003F02DC004F02BC005F02BEC6EF060
:10EEA20001C022F002C023F003C024F0120041503E
:10EEB20042104310D8A407D0000E416E800E426E5D
:10EEC2003F0E436E1200720E016E310E026E440E40
:10EED200036E41C004F042C005F043C006F05CEC92
:10EEE2006CF0D8B00CD0000E0001896F220E886F32
:10EEF200FF0E416E7F0E426E7F0E436E120041C0C6
:10EF020001F042C002F043C003F0490E046E3A0E13
:10EF1200056EC40E066E5CEC6CF0D8B00CD0000E20
:10EF22000001896F220E886F000E416E000E426E44
:10EF3200000E436E120043AE02D0010E01D0000E4D
:10EF4200496E4950D8B40ED041C001F042C002F01F
:10EF520043C003F00AEC67F001C041F002C042F086
:10EF620003C043F041C00DF042C00EF043C00FF0A9
:10EF7200AA0E106EB80E116E3F0E126EBAEC71F040
:10EF82000DC041F00EC042F00FC043F041C02EF060
:10EF920042C02FF043C030F0D8EC70F02EC044F0E5
:10EFA2002FC045F030C046F044C00DF045C00EF011
:10EFB20046C00FF034EC72F00DC047F00EC048F0BE
:10EFC20041C02EF042C02FF043C030F047C009F0DC
:10EFD20048C00AF073EC67F009C031F00AC032F0A1
:10EFE2000BC033F08FEC67F02EC041F02FC042F01F
:10EFF20030C043F041C02EF042C02FF043C030F089
:10F002005B0E316EFE0E326E000E346E090E336EE2
:10F0120097EC6FF02EC03AF02FC03BF030C03CF0BE
:10F0220047C03DF048C03EF034EC6FF03AC041F0CA
:10F032003BC042F03CC043F04950D8B425D04128EF
:10F042000EE17F0E42180BE17F0E4318D8A407D0C1
:10F05200000E416E000E426E000E436E1200000E54
:10F06200096E800E0A6E3F0E0B6E41C00CF042C05C
:10F072000DF043C00EF047EC71F009C041F00AC038
:10F0820042F00BC043F0120041C041F042C042F0D6
:10F0920043C043F01200010E056E010EF9EC66F05A
:10F0A200E30E096EFE0E0A6E69EC68F0020E056E42
:10F0B200010EF9EC66F0D20E096EFE0E0A6E69ECD4
:10F0C20068F0000E0001A56F000EA46F000E000193
:10F0D200A16F010EA06F000E456E000E446EE3D0CC
:10F0E2000001A5BF08D00001A55131E1040E0001C5
:10F0F200A45DD8B02CD000019E0500019F11D8A4B8
:10F1020023D05AEC67F0C9EC69F08AB203D0436AA3
:10F11200432A01D0436A43468A504318FD0B4318E1
:10F122008A6E8AB003D0436A432A01D0436A8A5066
:10F132004318FE0B43188A6EFF0E436E8A0EE82EAA
:10F14200FED7432EFCD700D05BEC79F067D07FEC82
:10F152006AF001500210D8B419D0000E0001A16F5C
:10F16200000EA06F8A928A90000E00019F6F000E1F
:10F172009E6F000E456E000E446EFF0E436E8A0EA9
:10F18200E82EFED7432EFCD700D01200000E00015D
:10F19200A56F000EA46F444A452A020E056E010EA9
:10F1A200F9EC66F0D20E096EFE0E0A6E69EC68F09A
:10F1B20045BE34D0455004E1030E445CD8A02ED0A5
:10F1C200C9EC69F0000E00019F6F010E9E6FB70E31
:10F1D2000001C56FFF0E0001C66F5AEC67F08AB2DC
:10F1E20003D0436A432A01D0436A43468A504318F4
:10F1F200FD0B43188A6E8AB003D0436A432A01D0BA
:10F20200436A8A504318FE0B43188A6EFF0E436E00
:10F212008A0EE82EFED7432EFCD700D082BA82ACEB
:10F2220002D082BE40D0C9EC69F0000E00019F6F8F
:10F23200010E9E6F82BA06D0970E0001C56FFF0EB7
:10F242000001C66F82BC06D09F0E0001C56FFF0E83
:10F252000001C66F82BE06D0A70E0001C56FFF0E69
:10F262000001C66F5AEC67F08AB203D0436A432AA0
:10F2720001D0436A43468A504318FD0B43188A6EF5
:10F282008AB003D0436A432A01D0436A8A504318A2
:10F29200FE0B43188A6EFF0E436E8A0EE82EFED7CF
:10F2A200432EFCD700D00001A0510001A111D8B417
:10F2B200120016D7898089928994899680BA89A08A
:10F2C2001AD0010E0001B46F0001B451416E426ABE
:10F2D20041C03FF042C040F043EC6BF008D0680EF2
:10F2E200416EE40EE82EFED7412EFCD700D080AA54
:10F2F20002D089B0F4D780BE89A01AD0020E0001D4
:10F30200B46F0001B451416E426A41C03FF042C045
:10F3120040F043EC6BF008D0680E416EE40EE82E2C
:10F32200FED7412EFCD700D080AE02D089B0F4D7F0
:10F3320080BC89A01AD0030E0001B46F0001B45141
:10F34200416E426A41C03FF042C040F043EC6BF074
:10F3520008D0680E416EE40EE82EFED7412EFCD78F
:10F3620000D080AC02D089B0F4D789908982899488
:10F37200899680BA89A21AD0040E0001B46F0001E6
:10F38200B451416E426A41C03FF042C040F043EC8A
:10F392006BF008D0680E416EE40EE82EFED7412EC7
:10F3A200FCD700D080AA02D089B2F4D780BE89A24D
:10F3B2001AD0050E0001B46F0001B451416E426AC9
:10F3C20041C03FF042C040F043EC6BF008D0680E01
:10F3D200416EE40EE82EFED7412EFCD700D080AE5F
:10F3E20002D089B2F4D780BC89A21AD0060E0001DD
:10F3F200B46F0001B451416E426A41C03FF042C055
:10F4020040F043EC6BF008D0680E416EE40EE82E3B
:10F41200FED7412EFCD700D080AC02D089B2F4D7FF
:10F42200899089928984899680BA89A41AD0070E14
:10F432000001B46F0001B451416E426A41C03FF015
:10F4420042C040F043EC6BF008D0680E416EE40E0F
:10F45200E82EFED7412EFCD700D080AA02D089B474
:10F46200F4D780BE89A41AD0080E0001B46F00013F
:10F47200B451416E426A41C03FF042C040F043EC99
:10F482006BF008D0680E416EE40EE82EFED7412ED6
:10F49200FCD700D080AE02D089B4F4D780BC89A456
:10F4A2001AD0090E0001B46F0001B451416E426AD4
:10F4B20041C03FF042C040F043EC6BF008D0680E10
:10F4C200416EE40EE82EFED7412EFCD700D080AC70
:10F4D20002D089B4F4D7899089928994898680AEC2
:10F4E200120089A61200000E0001B46F0001B4518F
:10F4F200416E426A41C03FF042C040F043EC6BF0C3
:10F5020008D0680E416EE40EE82EFED7412EFCD7DD
:10F5120000D080AE120089A61200F3D7000E0001BF
:10F52200E46F000EE36F000E0001A36F010EA26FE5
:10F532000001E3510001E411D8A465D0020E056E6A
:10F54200010EF9EC66F06B0E096EFF0E0A6E69ECA5
:10F5520068F0000E0001A56F000EA46F000E0001FE
:10F56200DE6F000EDD6F2AD05BEC79F0020E000137
:10F57200A4190001A511D8A421D000EC70F05BC041
:10F58200DDF05CC0DEF00001DEBF13D00001DEBFA3
:10F5920008D00001DE510DE1180E0001DD5DD8B08A
:10F5A20008D0DDC0C9F0DEC0CAF00001A44BA52B13
:10F5B20005D0000E0001A56F000EA46F0001A5BFCB
:10F5C200D3D70001A55105E1030E0001A45DD8A027
:10F5D200CBD7820E5F6EDE0EE82EFED75F2EFCD7F3
:10F5E20041EC6AF0820E5F6EDE0EE82EFED75F2ED1
:10F5F200FCD70001E34BE42B820E5F6EDE0EE82E99
:10F60200FED75F2EFCD70001E3050001E411D8A468
:10F6120065D0020E056E010EF9EC66F07D0E096EE4
:10F62200FF0E0A6E69EC68F0000E0001A56F000E75
:10F63200A46F000E0001E06F000EDF6F2AD05BECBA
:10F6420079F0020E0001A4190001A511D8A421D05D
:10F6520000EC70F05BC0DFF05CC0E0F00001E0BFE6
:10F6620013D00001E0BF08D00001E0510DE13C0ED3
:10F672000001DF5DD8B008D0DFC0C7F0E0C0C8F03D
:10F682000001A44BA52B05D0000E0001A56F000EB2
:10F69200A46F0001A5BFD3D70001A55105E1030E58
:10F6A2000001A45DD8A0CBD7820E5F6EDE0EE82EDD
:10F6B200FED75F2EFCD741EC6AF0820E5F6EDE0E43
:10F6C200E82EFED75F2EFCD70001E34BE42B820E1F
:10F6D2005F6EDE0EE82EFED75F2EFCD7020E000113
:10F6E200E3190001E411D8A465D0020E056E010EE3
:10F6F200F9EC66F0740E096EFF0E0A6E69EC68F0A2
:10F70200000E0001A56F000EA46F000E0001E26F53
:10F71200000EE16F2AD05BEC79F0020E0001A41911
:10F722000001A511D8A421D000EC70F05BC0E1F07B
:10F732005CC0E2F00001E2BF13D00001E2BF08D0DA
:10F742000001E2510DE13C0E0001E15DD8B008D0AC
:10F75200E1C0A6F0E2C0A7F00001A44BA52B05D0A2
:10F76200000E0001A56F000EA46F0001A5BFD3D744
:10F772000001A55105E1030E0001A45DD8A0CBD77D
:10F78200820E5F6EDE0EE82EFED75F2EFCD741ECB6
:10F792006AF0820E5F6EDE0EE82EFED75F2EFCD779
:10F7A2000001E34BE42B820E5F6EDE0EE82EFED7E5
:10F7B2005F2EFCD7B4EC75F0000E0001A36F000EB3
:10F7C200A26F000E0001A56F000EA46F1200000EC2
:10F7D2000001E46F000EE36F000E0001A36F010E43
:10F7E200A26F0001E3510001E411D8A46CD0020E13
:10F7F200056E010EF9EC66F03E0E096EFF0E0A6E02
:10F8020069EC68F0000E0001A56F000EA46F000EF7
:10F812000001DE6F000EDD6F31D05BEC79F0020E7D
:10F822000001A4190001A511D8A428D000EC70F0A1
:10F832005BC0DDF05CC0DEF00001DEBF1AD000016B
:10F84200DE5104E10001DD05D8A013D00001DEBFC6
:10F8520008D00001DE510DE1200E0001DD5DD8B0BF
:10F8620008D0DDC0CBF0DEC0CCF00001A44BA52B4C
:10F8720005D0000E0001A56F000EA46F0001A5BF08
:10F88200CCD70001A55105E1030E0001A45DD8A06B
:10F89200C4D7820E5F6EDE0EE82EFED75F2EFCD737
:10F8A20089EC6BF0820E5F6EDE0EE82EFED75F2EC5
:10F8B200FCD70001E34BE42B820E5F6EDE0EE82ED6
:10F8C200FED75F2EFCD70001E3050001E411D8A4A6
:10F8D2006CD0020E056E010EF9EC66F0350E096E63
:10F8E200FF0E0A6E69EC68F0000E0001A56F000EB3
:10F8F200A46F000E0001E06F000EDF6F31D05BECF1
:10F9020079F0020E0001A4190001A511D8A428D093
:10F9120000EC70F05BC0DFF05CC0E0F00001E0BF23
:10F922001AD00001E05104E10001DF05D8A013D094
:10F932000001E0BF08D00001E0510DE10D0E000111
:10F94200DF5DD8B008D0DFC0CFF0E0C0D0F000015A
:10F95200A44BA52B05D0000E0001A56F000EA46FCD
:10F962000001A5BFCCD70001A55105E1030E00019E
:10F97200A45DD8A0C4D7820E5F6EDE0EE82EFED73D
:10F982005F2EFCD789EC6BF0820E5F6EDE0EE82EE6
:10F99200FED75F2EFCD70001E34BE42B820E5F6E95
:10F9A200DE0EE82EFED75F2EFCD7020E0001E31911
:10F9B2000001E411D8A465D0020E056E010EF9EC27
:10F9C20066F0590E096EFF0E0A6E69EC68F0000EC1
:10F9D2000001A56F000EA46F000E0001E26F000E81
:10F9E200E16F2AD05BEC79F0020E0001A41900014C
:10F9F200A511D8A421D000EC70F05BC0E1F05CC08E
:10FA0200E2F00001E2BF13D00001E2BF08D0000122
:10FA1200E2510DE1640E0001E15DD8B008D0E1C011
:10FA2200D1F0E2C0D2F00001A44BA52B05D0000E0C
:10FA32000001A56F000EA46F0001A5BFD3D700017E
:10FA4200A55105E1030E0001A45DD8A0CBD7820E1B
:10FA52005F6EDE0EE82EFED75F2EFCD789EC6BF0D0
:10FA6200820E5F6EDE0EE82EFED75F2EFCD70001FF
:10FA7200E34BE42B820E5F6EDE0EE82EFED75F2E86
:10FA8200FCD7B4EC75F0000E0001A36F000EA26F5C
:10FA9200000E0001A56F000EA46F1200260E356E37
:10FAA200000E366EBFD1250E3C18D8B409D022C044
:10FAB200D9FF23C0DAFF3CC0DFFF224A232AB2D19A
:10FAC200000E3E6E000E3D6E000E3B6E03D03B8478
:10FAD200244A252A24C0F6FF25C0F7FF0800F55066
:10FAE200300AD8B4F4D724C0F6FF25C0F7FF0800C7
:10FAF200F550EAEC66F0D8A0ACD0000E3E6E000ED7
:10FB02003D6E3DC01CF03EC01DF0000E1F6E0A0E81
:10FB12001E6E2EEC67F01CC03DF01DC03EF0D00EF4
:10FB22002E6EFF0E2F6E24C0F6FF25C0F7FF0800D1
:10FB3200F550306E316A2E5030262F50312230501F
:10FB42003D2631503E22244A252A24C0F6FF25C0F4
:10FB5200F7FF0800F550EAEC66F0D8A07AD0D1D7CA
:10FB620035C0D9FF36C0DAFFDECF33F0DDCF34F057
:10FB7200020E3526000E362233503410D8A404D09B
:10FB8200BF0E336EFF0E346E000E386E000E376EEF
:10FB920002D0374A382A375033242E6E3850342058
:10FBA2002F6E2EC0F6FF2FC0F7FFF86A0E0EF76415
:10FBB20003D00800F55005D0F6CFE9FFF7CFEAFFF2
:10FBC200EF500009D8A4E5D73D50375C3E50385875
:10FBD200D8B005D037503D5E38503E5A0DD0000E99
:10FBE2003E6E000E3D6E08D022C0D9FF23C0DAFF60
:10FBF200200EDF6E224A232A3D06D8A03E063D286B
:10FC0200F3E13E28D8B41AD0EFD733C0F6FF34C0A0
:10FC1200F7FFF86A22C0D9FF23C0DAFF0E0EF7649D
:10FC220003D00800F55005D0F6CFE9FFF7CFEAFF81
:10FC3200EF50DF6E334A342A224A232A3706D8A0ED
:10FC420038063728E2E13828D8B4ECD0DED73B8C2E
:10FC52001AD024C0F6FF25C0F7FF244A252A08003F
:10FC6200F5CF3CF03C50000AD8B4E8D0640AD8B4CE
:10FC72000AD00D0AD8B407D01A0AD8B471D7060A26
:10FC8200D8B4E5D7CFD03BBC15D035C0D9FF36C0EC
:10FC9200DAFFDECF39F0DDCF3AF0020E3526000E64
:10FCA20036223AAE13D0030E3B12396C3A1ED8B04C
:10FCB2003A2A0CD035C0D9FF36C0DAFFDECF39F090
:10FCC200DDCF3AF0020E3526000E3622010E3C6ED2
:10FCD200050E3C18D8B412D03C50020D4D0EF32440
:10FCE200F66EFE0EF420F76E0900F550395C09003D
:10FCF200F5503A58D8A002D03C2AEAD73D503E10DF
:10FD0200D8B409D03BC02EF0030E2E16D8B403D0BF
:10FD12003D06D8A03E06800E3CBE7F0E2E6E3D50A4
:10FD22003C5C3E50800A2E58D8B007D03C503D5E15
:10FD3200000E3CBEFF0E3E5A04D0000E3E6E000E78
:10FD42003D6E3BA41ED03BC02EF0030E2E16D8B43F
:10FD520008D022C0D9FF23C0DAFF2D0EDF6E224A5F
:10FD6200232A3D503E10D8B42DD022C0D9FF23C043
:10FD7200DAFF300EDF6E224A232A3D06D8A03E0665
:10FD8200F0D73D503E10D8B40FD022C0D9FF23C0C7
:10FD9200DAFF200EDF6E224A232A3D06D8A03E0655
:10FDA2003D503E10D8A4F1D73BC02EF0030E2E16C4
:10FDB200D8B408D022C0D9FF23C0DAFF2D0EDF6EDF
:10FDC200224A232A3CC032F029D03250020D4D0E75
:10FDD200F324F66EFE0EF420F76E0900F5CF03F061
:10FDE2000A00F5CF04F039C001F03AC002F092ECFB
:10FDF20068F001C008F002C009F0000E0B6E0A0E96
:10FE02000A6EAFEC67F00850300F3C6E22C0D9FF8B
:10FE120023C0DAFF3CC0DFFF224A232A32063228FF
:10FE2200D8A4D3D724C0F6FF25C0F7FF244A252A39
:10FE32000800F5CF3CF03C50D8A435D622C0D9FFFB
:10FE420023C0DAFF000EDF6E12000001000A006418
:10FE520000E8031027280C010600803F72313FFEA4
:10FE6200753E58633D951D3CC5AE3A792139948063
:10FE72003793A73556153400000000803FF0FFBECF
:10FE8200E2A93E8376BEAE2B3E3CC3BDD2133D7883
:10FE9200D3BB5265706F72742020253032692F25D2
:10FEA2003032692F2530326900496E7365727420D1
:10FEB2006E65772050617373776F726420002573CB
:10FEC20020253032693A253032693A2530326900CC
:10FED2002020202020202020202020202020202020
:10FEE20000416C61726D206163746976617465644E
:10FEF2002000496E736572742050617373776F725C
:10FF0200642000253032752F253032752F2530328E
:10FF12007500253032753A253032753A2530327502
:10FF22000041637469766520200050726573732006
:10FF3200412000536574204D74682000536574207D
:10FF4200446179200050617373776F726400456475
:10FF520074204461746500536574205965617200B0
:10FF620045647420486F75720053657420486F753C
:10FF72007200536574205365637300536574204D9A
:10FF8200696E730045647420506173730041637439
:10FF9200697665200073656E736F72310073656EEA
:10FFA200736F72320073656E736F723300507265D5
:10FFB20073732041003320747269657300286E7573
:10FFC2006C6C2900496E73657274006361757365A8
:10FFD200002044696100486F726100205365670028
:10FFE200204D696E00416E696F00204D65730025DA
:05FFF200303175000034
:08FFF800AEF718FFF3F8FFF16A
:00000001FF
