:04000000EDEF6AF0C6
:10D1DA00B5EC6DF06DEC6CF01200D4FFEDFFE8FFDA
:10D1EA00D9FFE3FFDEFFEDEC68F04FEC70F0FBECEB
:10D1FA006DF01200056E05C003F0000E8CEC69F0AC
:10D20A001200016E210EE82EFED700F0012EFAD789
:10D21A001200016EC80E00D0E82EFDD7012EFAD7F3
:10D22A001200F29C550EA76EAA0EA76E0F013F8B35
:10D23A00F28C120001000200030004001E0012001A
:10D24A000800030009000F00020E056E070E44ECE9
:10D25A0069F0C50E096EFF0E0A6E9BEC6AF01200A9
:10D26A00036E000E026E3A0E036005D02F0E0364A1
:10D27A0002D0010E026E02C001F001301200066EE9
:10D28A000504D8B402D0400E01D0000E076E060481
:10D29A00072607508009036E000E8CEC69F0120015
:10D2AA00015002100310D8B406D0000E011A000E65
:10D2BA00021A800E031A01C001F002C002F003C074
:10D2CA0003F0120027EC6AF01AEC76F0F8EC68F03A
:10D2DA00FBD7FF0E0001DA6F8A0EE82EFED7DA2F8F
:10D2EA00FCD700F000EF00F01C501E02F3CF20F034
:10D2FA00F4CF21F01C501F02F35021261D501E02AC
:10D30A00F350212620C01CF021C01DF01200046E2B
:10D31A008A96020E06EC69F09398939A939C939ED0
:10D32A000450D8B402D08A8601D08A9600F0033815
:10D33A000F0B7FEC6BF003500F0B7FEC6BF01200BE
:10D34A00000E0C6E0AAE06D0096C0A1ED8B00A2A64
:10D35A00010E0C6E09C001F00AC002F0036A8E0EBB
:10D36A00046E0CC005F0A1EC70F001C009F002C017
:10D37A000AF003C00BF01200315032103310D8B447
:10D38A0006D0000E311A000E321A800E331A2EC041
:10D39A0022F02FC023F030C024F031C025F032C073
:10D3AA0026F033C027F046EC78F022C02EF023C0D6
:10D3BA002FF024C030F012000A500B10D8B418D045
:10D3CA00010E0C6E04D0D8900A360B360C2A0BAE1E
:10D3DA00FAD70A50085C0B500958D8A004D00A5052
:10D3EA00085E0B50095AD8900B320A320C2EF1D72C
:10D3FA0008C008F009C009F01200086E18D0010E22
:10D40A00036E000E8CEC69F01200020E056E010E1E
:10D41A0044EC69F01200100E036E000E8CEC69F0F9
:10D42A00120008C003F0010E8CEC69F012000850DB
:10D43A00080AD8B4F0D7020AD8B4E7D7060AD8B48B
:10D44A00DED7EFD79B8E9B9CD388D38AD38CD3907D
:10D45A00D392F00E926E000E936EE70E946E0F0149
:10D46A0048690F0149690F013F8F0F013F8BCD8634
:10D47A0078EC77F0BAEC6BF00C0EFFEC68F08A945B
:10D48A008A928A90EDEC68F078EC77F01200020E3E
:10D49A00056E010E44EC69F0410E096EFF0E0A6E2C
:10D4AA009BEC6AF0000E0C6E000E0B6E0CAE10D0E8
:10D4BA00D8900B34D96E0C34DA6E600ED926000E71
:10D4CA00DA22000EDE6E000EDD6E0B4A0C2AEED753
:10D4DA00000E0001996F000E986F120089808992E0
:10D4EA008994899682A4120089A0120000019051A1
:10D4FA0000019111D8B41CEC79F0000190050001EB
:10D50A009111D8B4AFEC6FF0020E0001901900012E
:10D51A009111D8B421EC7DF0030E0001901900019D
:10D52A009111D8A41200FBEC7AF0120014D009C0B1
:10D53A00F6FF0AC0F7FFF86A0E0EF76403D0080078
:10D54A00F55005D0F6CFE9FFF7CFEAFFEF5002EC2E
:10D55A006AF0094A0A2A09C0F6FF0AC0F7FFF86A00
:10D56A000E0EF76403D00800F55005D0F6CFE9FF98
:10D57A00F7CFEAFFEF500009D8B41200D8D7000E4F
:10D58A00066E000E056E03500410D8B41CD0010EAE
:10D59A00076E04D0D89003360436072A04AEFAD7A9
:10D5AA00D890053606360350015C04500258D8A0BC
:10D5BA0005D00350015E0450025A0580D890043207
:10D5CA000332072EEDD705C001F006C002F01200A3
:10D5DA00E40EF66ED10EF76E000EF86E01EE00F054
:10D5EA0010EE0CF00900F5CFEEFFE550E150FAE13C
:10D5FA003E0EF66ED20EF76E000EF86E00EEDBF0FF
:10D60A0010EE14F00900F5CFEEFFE550E150FAE113
:10D61A000001FC6B00EE60F0650EEE6AE806FDE1C3
:10D62A00000EF86E000167EF69F08E0E116E06D0DB
:10D63A00D8900C320B320A320932112A000E091420
:10D64A000D6E000E0A140E6E000E0B140F6EFF0EF6
:10D65A000C14106E0D500E100F101010D8A4E8D72D
:10D66A0009C001F00AC002F00BC003F011C004F0B7
:10D67A00000E056EA1EC70F001C009F002C00AF0BC
:10D68A0003C00BF01200FC0E0F013F170F013F8180
:10D69A0098CF0FF099CF10F098CF11F099CF12F0E0
:10D6AA00FC0E0F013F170F013F8198CF07F099CF6A
:10D6BA0008F098CF09F099CF0AF009501118D8A4A8
:10D6CA00E2D720EE03F00150D9260250DA220FC029
:10D6DA00DFFF20EE02F00150D9260250DA2212C0F2
:10D6EA00DFFF20EE01F00150D9260250DA2211C0E4
:10D6FA00DFFF1200026E02A003D0016A012A01D0E4
:10D70A00016A013A8A500118EF0B01188A6E02A2C7
:10D71A0003D0016A012A01D0016A013A01468A50FE
:10D72A000118DF0B01188A6E02A403D0016A012ACC
:10D73A0001D0016A013A014601468A500118BF0B1D
:10D74A0001188A6E02A603D0016A012A01D0016A71
:10D75A00013201328A5001187F0B01188A6E00F0DB
:10D76A008A8400F000F08A941200939693948A9621
:10D77A008A949398939A939C939E0A0E0EEC69F05E
:10D78A000A0E0EEC69F00A0E0EEC69F0000E056E38
:10D79A00020E056401D008D0030E7FEC6BF00A0E6E
:10D7AA000EEC69F0052AF4D7020E7FEC6BF0000E3E
:10D7BA00056E030E056401D012000550010DED0E31
:10D7CA00F324F66EFE0EF420F76E0800F5CF03F090
:10D7DA00000E8CEC69F00A0E0EEC69F0052AE9D706
:10D7EA0000018C5100018D11D8A417D0000E000140
:10D7FA008D6F010E8C6F010E056E010E44EC69F0FF
:10D80A00500E096EFF0E0A6E9BEC6AF0D00E0B6E7C
:10D81A00CA0EE82EFED70B2EFCD700018C0500019C
:10D82A008D11D8A41200000E00018D6F000E8C6FAE
:10D83A00010E056E010E44EC69F03F0E096EFF0EF3
:10D84A000A6E9BEC6AF09C0E0B6ED70EE82EFED782
:10D85A000B2EFCD700F01200000E256E8E0E246EE1
:10D86A001FAE11D01F1E1E1E1D1E1C6C000E1D2277
:10D87A001E221F22010E256E06D0D8901F321E329C
:10D88A001D321C32242A000E1C14206E000E1D1498
:10D89A00216E000E1E14226EFF0E1F14236E2050DE
:10D8AA00211022102310D8A4E8D71CC001F01DC0F3
:10D8BA0002F01EC003F024C004F025C005F0A1EC5C
:10D8CA0070F001C01CF002C01DF003C01EF012006F
:10D8DA000001E6BF19D00001E65105E1180E00016A
:10D8EA00E55DD8A011D0000E0001E66F000EE56FCD
:10D8FA00000E0001E46F000EE36F000E00019B6F43
:10D90A00000E9A6F78EC77F0A90E226E000E236E45
:10D91A00810E246EFF0E256EE5C026F0E6C027F0C4
:10D92A00E3C028F0E4C029F09AC02AF09BC02BF08B
:10D93A0009EC7CF0020E056E090E44EC69F0A90EA2
:10D94A00096E000E0A6E9BEC6AF01200000E086E59
:10D95A00000E076E000E0A6E000E096E0ABE03D094
:10D96A000A502EE129D0D8900934D96E0A34DA6ED9
:10D97A00600ED926000EDA22D8900934E16E0A34F4
:10D98A00E26EDB0EE126000EE222DE50E61809E125
:10D99A00DE50E618D8A405D0000E086E010E076EF8
:10D9AA0005D0000E086E000E076E0AD0094A0A2A30
:10D9BA000ABED9D70A5004E1040E095CD8A0D3D70D
:10D9CA0007C001F008C002F01200000E066E04AE95
:10D9DA0006D0036C041ED8B0042A010E066E02AEED
:10D9EA0006D0016C021ED8B0022A010E061A000ED9
:10D9FA00086E000E076E03500410D8B41CD0010E36
:10DA0A00056E04D0D89003360436052A04AEFAD738
:10DA1A00D890073608360350015C04500258D8A043
:10DA2A0005D00350015E0450025A0780D890043290
:10DA3A000332052EEDD70650D8B404D0076C081E61
:10DA4A00D8B0082A07C001F008C002F01200020E7E
:10DA5A000001901900019111D8A416D0010E056E8B
:10DA6A00010E44EC69F0A20E096EFF0E0A6E9BECE1
:10DA7A006AF0020E056E010E44EC69F0C50E096EDD
:10DA8A00FF0E0A6E9BEC6AF0030E0001901900016A
:10DA9A009111D8A416D0010E056E010E44EC69F05E
:10DAAA00AB0E096EFF0E0A6E9BEC6AF0020E056E53
:10DABA00010E44EC69F0C50E096EFF0E0A6E9BEC6E
:10DACA006AF09C0E0B6ED70EE82EFED70B2EFCD7F3
:10DADA0000F012000001965100019711D8A42DD030
:10DAEA00D89000019835D96E00019935DA6E600E2A
:10DAFA00D926000EDA2239C0DEFF3AC0DDFF020E57
:10DB0A00056E0001982944EC69F0A90E226E000EF8
:10DB1A00236EF20E246EFF0E256E39C026F03AC02F
:10DB2A0027F009EC7CF0A90E096E000E0A6E9BEC38
:10DB3A006AF00001984B992B1200D8900001983591
:10DB4A00D96E00019935DA6E800ED926000EDA22D6
:10DB5A0039C0DEFF3AC0DDFF0001984B992B120055
:10DB6A000001E8BF0FD00001E85105E1200E0001D5
:10DB7A00E75DD8A007D0000E0001E86F010EE76F3D
:10DB8A0078EC77F00001ECBF0FD00001EC5105E111
:10DB9A000D0E0001EB5DD8A007D0000E0001EC6F5E
:10DBAA00010EEB6F78EC77F0A90E226E000E236E51
:10DBBA00720E246EFF0E256EE7C026F0E8C027F02D
:10DBCA00EBC028F0ECC029F0EDC02AF0EEC02BF033
:10DBDA0009EC7CF0010E056E090E44EC69F0A90E01
:10DBEA00096E000E0A6E9BEC6AF012008980899217
:10DBFA008994899680AA02D089B007D080AE02D0D3
:10DC0A0089B003D080BC89A002D0FEEC6FF0899065
:10DC1A0089828994899680AA02D089B207D080AE77
:10DC2A0002D089B203D080BC89A202D0FEEC6FF088
:10DC3A00899089928984899680AA02D089B407D06A
:10DC4A0080AE02D089B403D080BC89A402D0FEEC95
:10DC5A006FF0899089928994898680AA02D089B6C0
:10DC6A0008D080AE02D089B604D080AC120089A652
:10DC7A001200FEEC6FF01200FC0E0F013F17030EAC
:10DC8A000F013F1398CF0BF099CF0CF098CF0DF0FE
:10DC9A0099CF0EF098CF0FF099CF10F0FC0E0F012C
:10DCAA003F17030E0F013F1398CF03F099CF04F0EB
:10DCBA0098CF05F099CF06F098CF07F099CF08F0E2
:10DCCA0005500D18D8A4D8D720EE01F00150D92656
:10DCDA000250DA220DC0DFFF20EE02F00150D926F1
:10DCEA000250DA220EC0DFFF01C0D9FF02C0DAFFFC
:10DCFA0010C0DFFF20EE03F00150D9260250DA22CD
:10DD0A000BC0DFFF120003AE16D001C007F002C03D
:10DD1A0008F003C009F0071E081E091E072A000E94
:10DD2A0008220922000E0724016E000E0820026E46
:10DD3A00800E0920036E06AE16D004C007F005C097
:10DD4A0008F006C009F0071E081E091E072A000E61
:10DD5A0008220922000E0724046E000E0820056E10
:10DD6A00800E0920066E000E011A000E021A800E9D
:10DD7A00031A000E041A000E051A800E061A045021
:10DD8A00015C0550025806500358D8B002D0D8900A
:10DD9A001200D8801200015002100310D8A40FD02C
:10DDAA0004C0D9FF05C0DAFF000EDE6E000EDD6E7C
:10DDBA00000E016E000E026E000E036E120003507A
:10DDCA007F0B066E076AD8900636073604C0D9FF5D
:10DDDA0005C0DAFF06C0DEFF07C0DDFF02AE03D0D2
:10DDEA00066A062A01D0066A065004C0D9FF05C091
:10DDFA00DAFFDE12000EDD1204C0D9FF05C0DAFF19
:10DE0A00820EDE26FF0EDD22038003820384038650
:10DE1A000388038A039C029E01C001F002C002F03B
:10DE2A0003C003F01200899089928984899682B48A
:10DE3A0089A41DD0030E0001901900019111D8A4E4
:10DE4A0006D0000E0001916F000E906F0CD00001F9
:10DE5A00904B912B08D0680E016EE40EE82EFED787
:10DE6A00012EFCD700D082A402D089B4F4D78990BD
:10DE7A0089928994898682A4120089A612000001D7
:10DE8A00905100019111D8A406D0000E0001916FA3
:10DE9A00030E906F0DD000019007D8A0910708D00B
:10DEAA00680E016EE40EE82EFED7012EFCD700D0D4
:10DEBA0082A4120089A61200F3D7010E056E010E84
:10DECA0044EC69F0BD0E096EFF0E0A6E9BEC6AF017
:10DEDA00020E056E010E44EC69F0B40E096EFF0ED7
:10DEEA000A6E9BEC6AF01AEC76F0EDEC68F0000131
:10DEFA00905100019111D8B405D00001900500019C
:10DF0A009111D8B430EC72F0020E000190190001A0
:10DF1A009111D8B406D0030E000190190001911195
:10DF2A00D8B42CEC6DF018EC6FF073EC6AF08990B1
:10DF3A0089828994899682B41200D5D7FF0E00018E
:10DF4A00D76F8A0EE82EFED7D72FFCD700F082A40F
:10DF5A00CAD7F4D7000E0001996F000E986F010E10
:10DF6A00056E010E44EC69F02A0E096EFF0E0A6E68
:10DF7A009BEC6AF0020E056E010E44EC69F03F0E4E
:10DF8A00096EFF0E0A6E9BEC6AF0000199BF08D079
:10DF9A000001995108E1040E0001985DD8B003D040
:10DFAA003DEC7EF0F2D7000E3E6E000E3D6E3EBE98
:10DFBA0006D03E501DE1040E3D5CD8B01200D89048
:10DFCA003D34D96E3E34DA6E600ED926000EDA225E
:10DFDA00D8903D34E16E3E34E26EDB0EE126000E4F
:10DFEA00E222DECFE6FFDDCFE5FF3D4A3E2ADFD75C
:10DFFA001200000E0001D96F000ED86F000E00014A
:10E00A00996F000E986F010E056E010E44EC69F0CF
:10E01A00610E096EFF0E0A6E9BEC6AF0020E056E27
:10E02A00010E44EC69F03F0E096EFF0E0A6E9BEC7E
:10E03A006AF0000199BF08D00001995108E1040E65
:10E04A000001985DD8B003D03DEC7EF010D029ECE9
:10E05A0069F0ABEC6CF001040210D8A403D062ECB6
:10E06A006FF012000001D84BD92B4CEC6AF000017A
:10E07A00D9BFDFD70001D95105E1030E0001D85DF0
:10E08A00D8A0D7D7000E0001936F010E926F1CEC37
:10E09A0079F0CFD700018E5100018F11D8A422D078
:10E0AA00000E00018F6F010E8E6F010E056E010EBC
:10E0BA0044EC69F0CD0E096EFF0E0A6E9BEC6AF015
:10E0CA00020E056E010E44EC69F0990E096EFF0E00
:10E0DA000A6E9BEC6AF0D00E0B6ECA0EE82EFED7C3
:10E0EA000B2EFCD700018E0500018F11D8A4120057
:10E0FA00000E00018F6F000E8E6F010E056E010E6D
:10E10A0044EC69F0470E096EFF0E0A6E9BEC6AF04A
:10E11A00020E056E010E44EC69F0470E096EFF0E01
:10E12A000A6E9BEC6AF09C0E0B6ED70EE82EFED799
:10E13A000B2EFCD700F012000450D8B405D00150C1
:10E14A0002100310D8A40CD0000E016E000E026E4D
:10E15A00000E036E1200042AD890033202320132F2
:10E16A00000E0114066E000E0214076EFE0E031452
:10E17A00086E065007100810D8B40CD0ECD7042A41
:10E18A00010E0126000E0222000E0322D89003324D
:10E19A0002320132000E0114066E000E0214076EDE
:10E1AA00FF0E0314086E065007100810D8B406D0E4
:10E1BA00E6D70406D89001360236033602BE03D0EB
:10E1CA00020E0460F6D704A0029ED89004320450CE
:10E1DA0003120550D8A4038E01C001F002C002F058
:10E1EA0003C003F012003A503B103C10D8A407D0E9
:10E1FA00000E3A6E000E3B6E000E3C6E12003C5052
:10E20A007F0B3F6E406AD8903F3640363F503D26DE
:10E21A0040503E223BAE03D03F6A3F2A01D03F6ABC
:10E22A003F503D26000E3E223EAE0CD0000E0001AD
:10E23A00896F220E886F000E3A6E000E3B6E000E3A
:10E24A003C6E12003EBE16D03E04D8A013D0000E7B
:10E25A000001896F220E886F3CAE06D0FF0E3A6E1F
:10E26A007F0E3B6EFF0EECD7FF0E3A6E7F0E3B6EB3
:10E27A007F0EE6D73E343E30406E3D303F6E3C5016
:10E28A003F18800B3F183C6E3DC03FF0010E3F1611
:10E29A003F323F323B503F187F0B3F183B6E3AC02C
:10E2AA003AF03BC03BF03CC03CF0120033C01CF0DB
:10E2BA0034C01DF0000E1F6E030E1E6E79EC69F05D
:10E2CA0031C035F032C036F01C5035261D5036228A
:10E2DA0035C0F6FF36C0F7FF0900F5CF37F0090061
:10E2EA00F5CF38F00A00F5CF39F03ED037C010F03C
:10E2FA0038C011F039C012F02EC00DF02FC00EF048
:10E30A0030C00FF07EEC73F00DC022F00EC023F087
:10E31A000FC024F0000E1F6E030E1E6E3306D8A027
:10E32A00340633C01CF034C01DF079EC69F031C0FA
:10E33A0035F032C036F01C5035261D50362235C015
:10E34A00F6FF36C0F7FF0900F5CF25F00900F5CF33
:10E35A0026F00A00F5CF27F046EC78F022C037F015
:10E36A0023C038F024C039F033503410D8A4BED7B3
:10E37A0037C02EF038C02FF039C030F01200000E2E
:10E38A000001CC6F000ECB6F000E0001CE6F010EA4
:10E39A00CD6F0001CEBF5AD0010E0001CD255D6EB2
:10E3AA00000E0001CE215E6E5D1E5E1E5D4A5E2A73
:10E3BA00020E5D24096E000E5E200A6EA5EC69F05D
:10E3CA0009C0C5F00AC0C6F00BC0C7F0C5C04DF001
:10E3DA00C6C04EF0C7C04FF0000E4A6E200E4B6EFC
:10E3EA00410E4C6EBDEC76F04AC0C8F04BC0C9F085
:10E3FA004CC0CAF0C8C00DF0C9C00EF0CAC00FF0B8
:10E40A00F8EC73F00DC01CF00EC01DF0D89000019E
:10E41A00CD35D96E0001CE35DA6E800ED926000EC2
:10E42A00DA22DECF1EF0DDCF1FF079EC69F00001B1
:10E43A00CB511C240001CB6F0001CC511D200001DF
:10E44A00CC6F0001CD07D8A0CE07A3D7CBC05BF015
:10E45A00CCC05CF0120000018A5100018B11D8A4D3
:10E46A0030D0000E00018B6F010E8A6F010E056E0F
:10E47A00010E44EC69F0900E096EFF0E0A6E9BECD9
:10E48A006AF0020E056E010E44EC69F0B40E096ED4
:10E49A00FF0E0A6E9BEC6AF0D00E0B6ECA0EE82EC7
:10E4AA00FED70B2EFCD7D00E0B6ECA0EE82EFED767
:10E4BA000B2EFCD7D00E0B6ECA0EE82EFED70B2EF3
:10E4CA00FCD700018A0500018B11D8A41200000EA6
:10E4DA0000018B6F000E8A6F0001905100019111AB
:10E4EA00D8A40BD0010E056E010E44EC69F0480E5B
:10E4FA00096EFF0E0A6E9BEC6AF00001900500019E
:10E50A009111D8A40BD0020E056E010E44EC69F0ED
:10E51A00470E096EFF0E0A6E9BEC6AF09C0E0B6E9C
:10E52A00D70EE82EFED70B2EFCD700F012002EC015
:10E53A0001F02FC002F030C003F0340E046E000E5A
:10E54A00056ED0EC6EF035AE10D030AE07D0000EAE
:10E55A002E6E800E2F6EBF0E306E1200000E2E6EC3
:10E56A00000E2F6E000E306E1200355004E1150EAB
:10E57A00345CD8A007D02EC02EF02FC02FF030C0A8
:10E58A0030F012002EC00DF02FC00EF030C00FF088
:10E59A00F8EC73F00DC01CF00EC01DF00FC01EF099
:10E5AA0010C01FF031EC6CF01CC031F01DC032F00D
:10E5BA001EC033F02EC001F02FC002F030C003F0AD
:10E5CA0031C004F032C005F033C006F088EC6EF0BA
:10E5DA00D8B015D031C022F032C023F033C024F0B5
:10E5EA00000E256E800E266EBF0E276E46EC78F062
:10E5FA0022C02EF023C02FF024C030F0120031C008
:10E60A002EF032C02FF033C030F012000BC00FF0E2
:10E61A00106A116A0A340F3601E310800F50166E21
:10E62A001650D8A407D0000E096E000E0A6E000E0E
:10E63A000B6E12000EC00FF0106A116A0D340F36FD
:10E64A0001E310800F50176E1750D8A407D0000EA0
:10E65A00096E000E0A6E000E0B6E1200000E136E8B
:10E66A00000E146E000E156E1750890F165E0BC041
:10E67A0017F00E50171A800E17160A8EFF0E09167B
:10E68A00FF0E0A16000E0B160D8EFF0E0C16FF0E4D
:10E69A000D16000E0E16180E126ED890133614367A
:10E6AA0015360C50095C0D500A580E500B58D8A05C
:10E6BA0007D00C50095E0D500A5A0E500B5A13809F
:10E6CA00D89009360A360B36122EE7D713C001F056
:10E6DA0014C002F015C003F016C004F017C005F00C
:10E6EA00A1EC70F001C009F002C00AF003C00BF0FF
:10E6FA0012000FC013F0146A156A0E34133601E3C0
:10E70A0014801350166E1650D8A407D0000E0D6E42
:10E71A00000E0E6E000E0F6E120012C013F0146A75
:10E72A00156A1134133601E3148013501B6E1B5003
:10E73A00D8A407D0000E0D6E000E0E6E000E0F6EDE
:10E74A0012001B507B0F16260FC01BF012501B1A0B
:10E75A00800E1B160E8E118EFF0E1016FF0E11164E
:10E76A00000E1216000E176E000E186E000E196EAD
:10E77A00070E1A6E0DA006D0105017261150182237
:10E78A0012501922D8900F320E320D32D89010360C
:10E79A00113612361A2EEED7090E1A6E0DA006D0B1
:10E7AA00105017261150182212501922D8900F32E1
:10E7BA000E320D32D8901932183217321A2EEED77D
:10E7CA0017C001F018C002F019C003F016C004F017
:10E7DA001BC005F0A1EC70F001C00DF002C00EF0F4
:10E7EA0003C00FF012000FC011F0126A136A0E3440
:10E7FA00113601E3128011501B6E1B50D8A409D0A8
:10E80A00000E0D6E000E0E6E000E0F6E000E106ED4
:10E81A001200170E116E0DC012F00EC013F00FC0C9
:10E82A0014F01128156E04D0D89014321332123213
:10E83A00152EFAD71250166E0E8EFF0E0D16FF0EFB
:10E84A000E16000E0F160D50176E0E50186E0F5042
:10E85A00196E1A6A8E0E1B5E1BAE16D01B50800AEA
:10E86A008F0FD8B009D0000E0D6E000E0E6E000E7E
:10E87A000F6E000E106E1200D8901A32193218322A
:10E88A0017321B3EF9D715D0170E1B640FD0000E96
:10E89A000D6E000E0E6E000E0F6E000E106E120040
:10E8AA00D8901736183619361A361B061B50D8A4B4
:10E8BA00F7D71650D8B408D01A1E191E181E176C8E
:10E8CA00000E182219221A2217C00DF018C00EF0D5
:10E8DA0019C00FF01AC010F01200000E066E20EEDA
:10E8EA0002F00150D9260250DA225A0EDF601200D5
:10E8FA0020EE01F00150D9260250DA225A0EDF60CA
:10E90A00120020EE03F00150D9260250DA22240E1A
:10E91A00DF6401D0120020EE02F00150D926025025
:10E92A00DA22DF50096E20EE01F00150D92602509A
:10E93A00DA22DF50086E0350D8A4F29C0F01000EB1
:10E94A003FBB010E076E0750D8B416EC69F00F01F1
:10E95A00000E3FBF010E056E0550D8B406D0000E5A
:10E96A0091BE010E066E0F013F9FFC0E0F013F176D
:10E97A000F013F8198CF0AF099CF0BF020EE03F0F8
:10E98A000150D9260250DA22DF500A6EFC0E0F011E
:10E99A003F170F013F810AC098FF0BC099FF08C0BB
:10E9AA0098FF09C099FF0550D8B40BD00F013F8FCB
:10E9BA000650D8A4918E0750D8B408D016EC69F046
:10E9CA0005D00750D8A402D00F013F9B0350D8B4FA
:10E9DA001200F28C12003CAE0CD0000E0001896FBE
:10E9EA00210E886F000E3A6E000E3B6E000E3C6ED2
:10E9FA0012003A503B103C10D8A40CD0000E000173
:10EA0A00896F220E886F000E3A6E000E3B6E000E62
:10EA1A003C6E1200000E106E000E116E400E126E49
:10EA2A003D0E046E000E056E3AC001F03BC002F0C6
:10EA3A003CC003F0D0EC6EF001C00DF002C00EF045
:10EA4A0003C00FF07EEC73F00DC022F00EC023F06D
:10EA5A000FC024F0000E256E800E266EBF0E276EA4
:10EA6A0046EC78F022C03AF023C03BF024C03CF0D8
:10EA7A003D06D8A03E063AC02EF03BC02FF03CC05F
:10EA8A0030F00F0E316EFF0E326E000E346E080E2D
:10EA9A00336E5BEC71F02EC03AF02FC03BF030C001
:10EAAA003CF0720E106E310E116E3F0E126E3DC0AA
:10EABA0009F03EC00AF0A5EC69F009C00DF00AC0E1
:10EACA000EF00BC00FF07EEC73F00DC022F00EC0FA
:10EADA0023F00FC024F03AC025F03BC026F03CC01A
:10EAEA0027F046EC78F022C03AF023C03BF024C06D
:10EAFA003CF01200000E066E20EE02F00150D926FC
:10EB0A000250DA22130EDF60120020EE02F00150EA
:10EB1A00D9260250DA22DF50D8B4120020EE01F0D2
:10EB2A000150D9260250DA22320EDF60120020EE9E
:10EB3A0001F00150D9260250DA22DF50D8B412006F
:10EB4A0020EE03F00150D9260250DA22990EDF6432
:10EB5A0001D0120020EE03F00150D9260250DA2229
:10EB6A00DF50076E20EE01F00150D9260250DA225A
:10EB7A00DF500A6E20EE02F00150D9260250DA2246
:10EB8A00DF500B6E0350D8A4F29C0F01000E3FBB5E
:10EB9A00010E096E0950D8B416EC69F00F01000E87
:10EBAA003FBF010E056E0550D8B406D0000E91BEC7
:10EBBA00010E066E0F013F9FFC0E0F013F170F015A
:10EBCA003F8198CF0CF099CF0DF001C0D9FF02C058
:10EBDA00DAFFDF500D6EFC0E0F013F17030E0F0117
:10EBEA003F1307C098FF08C099FF0AC098FF0BC0DF
:10EBFA0099FF0CC098FF0DC099FF0550D8B40BD0EF
:10EC0A000F013F8F0650D8A4918E0950D8B408D06E
:10EC1A0016EC69F005D00950D8A402D00F013F9B29
:10EC2A000350D8B41200F29C1200C10E016E000EFD
:10EC3A00026E48EC6BF00001C2510F0B0001FB6F32
:10EC4A000001C2390F0B0F0B0001FA6F0001C3510B
:10EC5A000F0B0001F96F0001C3390F0B0F0B0001F5
:10EC6A00F86F0001C4510F0B0001F76F0001C4399E
:10EC7A000F0B0F0B0001F66FBD0E016E000E026E38
:10EC8A0041EC6EF00001BE510F0B0001F56F00015F
:10EC9A00BE390F0B0F0B0001F46F0001BF510F0BB0
:10ECAA000001F36F0001BF390F0B0F0B0001F26F68
:10ECBA00BDC0F1F00001C0510F0B0001F06F00015F
:10ECCA00C0390F0B0F0B0001EF6F0001FA510A0D4B
:10ECDA000001FB51F32400019A6F0001000EF42099
:10ECEA0000019B6F0001F8510A0D0001F951F3244C
:10ECFA000001E36F0001000EF4200001E46F00013F
:10ED0A00F6510A0D0001F751F3240001E56F0001E5
:10ED1A00000EF4200001E66F0001F4510A0D000113
:10ED2A00F551F3240001E76F0001000EF420000101
:10ED3A00E86FF1C0E9F00001EA6B0001F2510A0D37
:10ED4A000001F351F3240001EB6F0001000EF420DF
:10ED5A000001EC6F0001EF510A0D0001F051F3249C
:10ED6A000001ED6F0001000EF4200001EE6F1200A9
:10ED7A00000E566E4A504B104C10D8A41CD0000EF0
:10ED8A00016E000E026E000E036E4DC004F04EC0FE
:10ED9A0005F04FC006F088EC6EF0D8A005D0000E42
:10EDAA000001896F210E886F000E4A6E000E4B6EAD
:10EDBA00000E4C6E12004D504E104F10D8A407D0C2
:10EDCA00000E4A6E800E4B6E3F0E4C6E12004CAE19
:10EDDA0041D04DC00DF04EC00EF04FC00FF0F8EC10
:10EDEA0073F00DC057F00EC058F00FC059F010C0A4
:10EDFA005AF057C009F058C00AF059C00BF05AC06F
:10EE0A000CF01AEC6BF04D50091807E14E500A1835
:10EE1A0004E14F500B18D8B40CD0000E0001896FD2
:10EE2A00210E886F000E4A6E000E4B6E000E4C6E5D
:10EE3A0012005750010B566E4AC001F04BC002F047
:10EE4A004CC003F055EC69F001C04AF002C04BF027
:10EE5A0003C04CF04AC03AF04BC03BF04CC03CF007
:10EE6A00F0EC74F03AC050F03BC051F03CC052F0A4
:10EE7A0050C00DF051C00EF052C00FF04DC010F04E
:10EE8A004EC011F04FC012F07EEC73F00DC053F07B
:10EE9A000EC054F00FC055F053C041F054C042F0B8
:10EEAA0055C043F007EC7AF041C04AF042C04BF03B
:10EEBA0043C04CF05650D8B40FD04AC001F04BC0F2
:10EECA0002F04CC003F055EC69F001C04AF002C0F0
:10EEDA004BF003C04CF012004AC04AF04BC04BF052
:10EEEA004CC04CF0120016EC69F0A3809AC001F0F5
:10EEFA009BC002F0000E046E0A0E036EEAEC6CF080
:10EF0A0001500001FA6F0001FA510A0DF35000088E
:10EF1A0000019A250001FB6F0001FA51100DF35010
:10EF2A000001FB250001C26FE3C001F0E4C002F05A
:10EF3A00000E046E0A0E036EEAEC6CF0015000013A
:10EF4A00F86F0001F8510A0DF35000080001E3259B
:10EF5A000001F96F0001F851100DF3500001F92575
:10EF6A000001C36FE5C001F0E6C002F0000E046EB6
:10EF7A000A0E036EEAEC6CF001500001F66F000114
:10EF8A00F6510A0DF35000080001E5250001F76F5C
:10EF9A000001F651100DF3500001F7250001C46F6E
:10EFAA00EDC001F0EEC002F0000E046E0A0E036E10
:10EFBA00EAEC6CF001500001EF6F0001EF510A0D0D
:10EFCA00F35000080001ED250001F06F0001EF5138
:10EFDA00100DF3500001F0250001C06FEBC001F0E5
:10EFEA00ECC002F0000E046E0A0E036EEAEC6CF03E
:10EFFA0001500001F26F0001F2510A0DF3500008AE
:10F00A000001EB250001F36F0001F251100DF350DE
:10F01A000001F3250001BF6FE7C001F0E8C002F06C
:10F02A00000E046E0A0E036EEAEC6CF00150000149
:10F03A00F46F0001F4510A0DF35000080001E725AE
:10F04A000001F56F0001F451100DF3500001F52590
:10F05A000001BE6FE9C0F1F0E9C0BDF0C10E016E5A
:10F06A00000E026E010E036E72EC74F0BD0E016E9C
:10F07A00000E026E010E036E7FEC75F00F013F8FDA
:10F08A00120024C028F0296A2A6A2334283601E3A8
:10F09A00298028502D6E27C028F0296A2A6A26342A
:10F0AA00283601E3298028502C6E2D50D8B40BD075
:10F0BA002C502D5CD8B00ED02D5000082C24286E70
:10F0CA00180E286407D025C022F026C023F027C0D6
:10F0DA0024F012002C50D8B40BD02D502C5CD8B090
:10F0EA000ED02C5000082D24286E180E286407D044
:10F0FA0022C022F023C023F024C024F01200060EFE
:10F10A002B6E24BE2B8E27BE2B8C238EFF0E22162F
:10F11A00FF0E2316000E2416268EFF0E2516FF0E4E
:10F12A002616000E27162C502D5CD8B01BD0D8906E
:10F13A002536263627362C062D502C18D8B40DD055
:10F14A002B062BC028F0070E2816D8B406D0EFD706
:10F15A00D8902432233222322D2A2C502D18D8B49A
:10F16A001FD0F6D72D502C5CD8B01AD0D8902236A2
:10F17A00233624362D062D502C18D8B40DD02B0644
:10F18A002BC028F0070E2816D8B406D0EFD7D8908F
:10F19A002732263225322C2A2C502D18D8A4F7D7FC
:10F1AA002BAE0CD0FF0E221AFF0E231AFF0E241AC2
:10F1BA00010E2226000E2322000E24222BAC0CD094
:10F1CA00FF0E251AFF0E261AFF0E271A010E2526F4
:10F1DA00000E2622000E2722000E2B6E2250252614
:10F1EA00235026222450272227AE0ED0FF0E251A9E
:10F1FA00FF0E261AFF0E271A010E2526000E2622BA
:10F20A00000E2722010E2B6E25C001F026C002F047
:10F21A0027C003F02DC004F02BC005F0A1EC70F05C
:10F22A0001C022F002C023F003C024F01200010E34
:10F23A00056E010E44EC69F0500E096EFF0E0A6E5F
:10F24A009BEC6AF0020E056E010E44EC69F03F0E6B
:10F25A00096EFF0E0A6E9BEC6AF0000E0001996FB0
:10F26A00000E986F000E0001956F010E946F000E4C
:10F27A003F6E000E3E6EBFD0000199BF08D000015C
:10F28A0099512FE1040E0001985DD8B02AD00001EF
:10F29A00920500019311D8A421D0F5EC6BF08AB243
:10F2AA0003D03D6A3D2A01D03D6A3D468A503D1849
:10F2BA00FD0B3D188A6E8AB003D03D6A3D2A01D003
:10F2CA003D6A8A503D18FE0B3D188A6EFF0E3D6E50
:10F2DA008A0EE82EFED73D2EFCD700D03DEC7EF0FC
:10F2EA005FD0ABEC6CF001500210D8B419D0000E0C
:10F2FA000001956F000E946F8A928A90000E0001A9
:10F30A00936F000E926F000E3F6E000E3E6EFF0E60
:10F31A003D6E8A0EE82EFED73D2EFCD700D0120095
:10F32A00000E0001996F000E986F3E4A3F2A020EA6
:10F33A00056E010E44EC69F03F0E096EFF0E0A6E6F
:10F34A009BEC6AF03FBE2CD03F5004E1030E3E5CBA
:10F35A00D8A026D0F5EC6BF0000E0001936F010ED9
:10F36A00926F8AB203D03D6A3D2A01D03D6A3D467A
:10F37A008A503D18FD0B3D188A6E8AB003D03D6A4B
:10F38A003D2A01D03D6A8A503D18FE0B3D188A6E0F
:10F39A00FF0E3D6E8A0EE82EFED73D2EFCD700D01A
:10F3AA0082BA82AC02D082BE26D0F5EC6BF0000E97
:10F3BA000001936F010E926F8AB203D03D6A3D2A13
:10F3CA0001D03D6A3D468A503D18FD0B3D188A6EB4
:10F3DA008AB003D03D6A3D2A01D03D6A8A503D1861
:10F3EA00FE0B3D188A6EFF0E3D6E8A0EE82EFED782
:10F3FA003D2EFCD700D00001945100019511D8B4DC
:10F40A0012003AD7415042104310D8A407D0000E38
:10F41A00416E800E426E3F0E436E1200720E016EF6
:10F42A00310E026E440E036E41C004F042C005F074
:10F43A0043C006F088EC6EF0D8B00CD0000E000184
:10F44A00896F220E886FFF0E416E7F0E426E7F0E0D
:10F45A00436E120041C001F042C002F043C003F003
:10F46A00490E046E3A0E056EC40E066E88EC6EF0F6
:10F47A00D8B00CD0000E0001896F220E886F000EE2
:10F48A00416E000E426E000E436E120043AE02D071
:10F49A00010E01D0000E496E4950D8B40ED041C0B9
:10F4AA0001F042C002F043C003F055EC69F001C01C
:10F4BA0041F002C042F003C043F041C00DF042C027
:10F4CA000EF043C00FF0AA0E106EB80E116E3F0E6A
:10F4DA00126E7EEC73F00DC041F00EC042F00FC008
:10F4EA0043F041C02EF042C02FF043C030F09CECF4
:10F4FA0072F02EC044F02FC045F030C046F044C030
:10F50A000DF045C00EF046C00FF0F8EC73F00DC0D8
:10F51A0047F00EC048F041C02EF042C02FF043C061
:10F52A0030F047C009F048C00AF0A5EC69F009C0FC
:10F53A0031F00AC032F00BC033F0C1EC69F02EC0D2
:10F54A0041F02FC042F030C043F041C02EF042C01B
:10F55A002FF043C030F0F10E316EFE0E326E000E07
:10F56A00346E090E336E5BEC71F02EC03AF02FC088
:10F57A003BF030C03CF047C03DF048C03EF0F8ECEC
:10F58A0070F03AC041F03BC042F03CC043F04950F1
:10F59A00D8B425D041280EE17F0E42180BE17F0E28
:10F5AA004318D8A407D0000E416E000E426E000E1A
:10F5BA00436E1200000E096E800E0A6E3F0E0B6E2D
:10F5CA0041C00CF042C00DF043C00EF00BEC73F0DA
:10F5DA0009C041F00AC042F00BC043F0120041C01A
:10F5EA0041F042C042F043C043F01200000E000155
:10F5FA00D66F000ED56F000E0001976F010E966F41
:10F60A000001D5510001D611D8A44CD0000E00013A
:10F61A00996F000E986F000E0001D06F000ECF6F29
:10F62A002AD03DEC7EF0020E0001981900019911D2
:10F63A00D8A421D0C4EC71F05BC0CFF05CC0D0F08C
:10F64A000001D0BF13D00001D0BF08D00001D051B3
:10F65A000DE1180E0001CF5DD8B008D0CFC0E5F09B
:10F66A00D0C0E6F00001984B992B05D0000E00019E
:10F67A00996F000E986F000199BFD3D70001995175
:10F68A0005E1030E0001985DD8A0CBD76DEC6CF0B4
:10F69A000001D54BD62B820E5F6EDE0EE82EFED70A
:10F6AA005F2EFCD70001D5050001D611D8A44CD095
:10F6BA00000E0001996F000E986F000E0001D26FC4
:10F6CA00000ED16F2AD03DEC7EF0020E000198198F
:10F6DA0000019911D8A421D0C4EC71F05BC0D1F01B
:10F6EA005CC0D2F00001D2BF13D00001D2BF08D053
:10F6FA000001D2510DE13C0E0001D15DD8B008D015
:10F70A00D1C0E3F0D2C0E4F00001984B992B05D0A8
:10F71A00000E0001996F000E986F000199BFD3D7B0
:10F72A000001995105E1030E0001985DD8A0CBD7DD
:10F73A006DEC6CF00001D54BD62B820E5F6EDE0E9F
:10F74A00E82EFED75F2EFCD7020E0001D519000164
:10F75A00D611D8A44CD0000E0001996F000E986FF4
:10F76A00000E0001D46F000ED36F2AD03DEC7EF05C
:10F77A00020E0001981900019911D8A421D0C4ECF5
:10F78A0071F05BC0D3F05CC0D4F00001D4BF13D0D9
:10F79A000001D4BF08D00001D4510DE13C0E000194
:10F7AA00D35DD8B008D0D3C09AF0D4C09BF0000182
:10F7BA00984B992B05D0000E0001996F000E986F97
:10F7CA00000199BFD3D70001995105E1030E000149
:10F7DA00985DD8A0CBD76DEC6CF00001D54BD62B39
:10F7EA00820E5F6EDE0EE82EFED75F2EFCD778EC17
:10F7FA0077F0000E0001976F000E966F000E000161
:10F80A00996F000E986F1200260E306E000E316E40
:10F81A0000D1250E3818D8B409D022C0D9FF23C088
:10F82A00DAFF38C0DFFF224A232AF3D0000E376EF0
:10F83A00000E366E000E326E03D03284244A252A18
:10F84A0024C0F6FF25C0F7FF0800F550300AD8B4E7
:10F85A00F4D724C0F6FF25C0F7FF0800F55035ECB1
:10F86A0069F0D8A036D0000E376E000E366E36C05C
:10F87A001CF037C01DF0000E1F6E0A0E1E6E79ECCA
:10F88A0069F01CC036F01DC037F0D00E2C6EFF0E8A
:10F89A002D6E24C0F6FF25C0F7FF0800F5502E6E26
:10F8AA002F6A2C502E262D502F222E5036262F50BE
:10F8BA003722244A252A24C0F6FF25C0F7FF08006C
:10F8CA00F55035EC69F0D8A004D0D1D7C00E321269
:10F8DA0011D024C0F6FF25C0F7FF244A252A0800C4
:10F8EA00F5CF38F03850000AD8B49FD0750AD8B48A
:10F8FA00EDD78FD030C0D9FF31C0DAFFDECF33F079
:10F90A00DDCF34F0020E3026000E3122010E386EA1
:10F91A00050E3818D8B412D03850020DE30EF3246D
:10F92A00F66EFE0EF420F76E0900F550335C0900FE
:10F93A00F5503458D8A002D0382AEAD7800E38BEFB
:10F94A007F0E2C6E3650385C3750800A2C58D8B04F
:10F95A0007D03850365E000E38BEFF0E375A04D034
:10F96A00000E376E000E366E32A410D036503710A5
:10F97A00D8B41FD022C0D9FF23C0DAFF300EDF6E01
:10F98A00224A232A3606D8A03706F0D7365037102F
:10F99A00D8B40FD022C0D9FF23C0DAFF200EDF6E01
:10F9AA00224A232A3606D8A0370636503710D8A45A
:10F9BA00F1D738C035F029D03550020DE30EF324C3
:10F9CA00F66EFE0EF420F76E0900F5CF03F00A007A
:10F9DA00F5CF04F033C001F034C002F0C4EC6AF091
:10F9EA0001C008F002C009F0000E0B6E0A0E0A6E82
:10F9FA00E1EC69F00850300F386E22C0D9FF23C0FD
:10FA0A00DAFF38C0DFFF224A232A35063528D8A470
:10FA1A00D3D724C0F6FF25C0F7FF244A252A0800B9
:10FA2A00F5CF38F03850D8A4F4D622C0D9FF23C075
:10FA3A00DAFF000EDF6E1200000E0001D66F000E14
:10FA4A00D56F000E0001976F010E966F0001D55118
:10FA5A000001D611D8A453D0000E0001996F000EF0
:10FA6A00986F000E0001D06F000ECF6F31D03DECC1
:10FA7A007EF0020E0001981900019911D8A428D02D
:10FA8A00C4EC71F05BC0CFF05CC0D0F00001D0BF15
:10FA9A001AD00001D05104E10001CF05D8A013D03B
:10FAAA000001D0BF08D00001D0510DE1200E0001A5
:10FABA00CF5DD8B008D0CFC0E7F0D0C0E8F00001E1
:10FACA00984B992B05D0000E0001996F000E986F84
:10FADA00000199BFCCD70001995105E1030E00013D
:10FAEA00985DD8A0C4D7B5EC6DF00001D54BD62BE4
:10FAFA00820E5F6EDE0EE82EFED75F2EFCD7000167
:10FB0A00D5050001D611D8A453D0000E0001996F73
:10FB1A00000E986F000E0001D26F000ED16F31D027
:10FB2A003DEC7EF0020E0001981900019911D8A44B
:10FB3A0028D0C4EC71F05BC0D1F05CC0D2F00001F7
:10FB4A00D2BF1AD00001D25104E10001D105D8A0D8
:10FB5A0013D00001D2BF08D00001D2510DE10D0E21
:10FB6A000001D15DD8B008D0D1C0EBF0D2C0ECF022
:10FB7A000001984B992B05D0000E0001996F000ED9
:10FB8A00986F000199BFCCD70001995105E1030E86
:10FB9A000001985DD8A0C4D7B5EC6DF00001D54B33
:10FBAA00D62B820E5F6EDE0EE82EFED75F2EFCD7B6
:10FBBA00020E0001D5190001D611D8A44CD0000EAE
:10FBCA000001996F000E986F000E0001D46F000EAD
:10FBDA00D36F2AD03DEC7EF0020E00019819000185
:10FBEA009911D8A421D0C4EC71F05BC0D3F05CC0E9
:10FBFA00D4F00001D4BF13D00001D4BF08D0000153
:10FC0A00D4510DE1640E0001D35DD8B008D0D3C041
:10FC1A00EDF0D4C0EEF00001984B992B05D0000E00
:10FC2A000001996F000E986F000199BFD3D70001A8
:10FC3A00995105E1030E0001985DD8A0CBD7B5EC28
:10FC4A006DF00001D54BD62B820E5F6EDE0EE82ECC
:10FC5A00FED75F2EFCD778EC77F0000E0001976F85
:10FC6A00000E966F000E0001996F000E986F120039
:10FC7A00898089928994899680BA89A01AD0010EBE
:10FC8A000001A86F0001A8513B6E3C6A3BC039F0E5
:10FC9A003CC03AF06FEC6DF008D0680E3B6EE40E93
:10FCAA00E82EFED73B2EFCD700D080AA02D089B01E
:10FCBA00F4D780BE89A01AD0020E0001A86F0001F5
:10FCCA00A8513B6E3C6A3BC039F03CC03AF06FEC3D
:10FCDA006DF008D0680E3B6EE40EE82EFED73B2E80
:10FCEA00FCD700D080AE02D089B0F4D780BC89A0FE
:10FCFA001AD0030E0001A86F0001A8513B6E3C6A9E
:10FD0A003BC039F03CC03AF06FEC6DF008D0680E99
:10FD1A003B6EE40EE82EFED73B2EFCD700D080AC1B
:10FD2A0002D089B0F4D7899089828994899680BA59
:10FD3A0089A21AD0040E0001A86F0001A8513B6ED7
:10FD4A003C6A3BC039F03CC03AF06FEC6DF008D029
:10FD5A00680E3B6EE40EE82EFED73B2EFCD700D091
:10FD6A0080AA02D089B2F4D780BE89A21AD0050E21
:10FD7A000001A86F0001A8513B6E3C6A3BC039F0F4
:10FD8A003CC03AF06FEC6DF008D0680E3B6EE40EA2
:10FD9A00E82EFED73B2EFCD700D080AE02D089B227
:10FDAA00F4D780BC89A21AD0060E0001A86F000100
:10FDBA00A8513B6E3C6A3BC039F03CC03AF06FEC4C
:10FDCA006DF008D0680E3B6EE40EE82EFED73B2E8F
:10FDDA00FCD700D080AC02D089B2F4D7899089923E
:10FDEA008984899680BA89A41AD0070E0001A86F5F
:10FDFA000001A8513B6E3C6A3BC039F03CC03AF066
:10FE0A006FEC6DF008D0680E3B6EE40EE82EFED75C
:10FE1A003B2EFCD700D080AA02D089B4F4D780BE8A
:10FE2A0089A41AD0080E0001A86F0001A8513B6EE0
:10FE3A003C6A3BC039F03CC03AF06FEC6DF008D038
:10FE4A00680E3B6EE40EE82EFED73B2EFCD700D0A0
:10FE5A0080AE02D089B4F4D780BC89A41AD0090E26
:10FE6A000001A86F0001A8513B6E3C6A3BC039F003
:10FE7A003CC03AF06FEC6DF008D0680E3B6EE40EB1
:10FE8A00E82EFED73B2EFCD700D080AC02D089B436
:10FE9A00F4D7899089928994898680AE120089A6BE
:10FEAA001200000E0001A86F0001A8513B6E3C6AC7
:10FEBA003BC039F03CC03AF06FEC6DF008D0680EE8
:10FECA003B6EE40EE82EFED73B2EFCD700D080AE68
:10FEDA00120089A61200F3D70001000A006400E8A4
:10FEEA00031027280C010600803F72313FFE753E41
:10FEFA0058633D951D3CC5AE3A79213994803793B4
:10FF0A00A73556153400000000803FF0FFBEE2A975
:10FF1A003E8376BEAE2B3E3CC3BDD2133D78D3BBE7
:10FF2A00496E73657274206E6577205061737377BA
:10FF3A006F726420002020202020202020202020F2
:10FF4A00202020202000416C61726D206163746959
:10FF5A0076617465642000496E736572742050611D
:10FF6A007373776F72642000253032752F25303213
:10FF7A00752F2530327500253032753A25303275A5
:10FF8A003A25303275004163746976652020005045
:10FF9A00617373776F726400456474204461746599
:10FFAA000045647420486F7572004564742050617E
:10FFBA0073730041637469766520005072657373C8
:10FFCA00204100496E7365727400204469610048DB
:10FFDA006F7261002053656700204D696E00416EA3
:0EFFEA00696F00204D657300253031750000F1
:08FFF800AEF718FFF3F8FFF16A
:00000001FF
