:040000007DEF1BF085
:100F00000001000A006400E8031027280C01060015
:100F1000803F72313FFE753E58633D951D3CC5AE26
:100F20003A79213994803793A7355615340000005B
:100F300000803FF0FFBEE2A93E8376BEAE2B3E3C72
:100F4000C3BDD2133D78D3BB496E73657274206EF6
:100F500065772050617373776F72642000202020C2
:100F60002020202020202020202020202000416C34
:100F700061726D20616374697661746564200049F3
:100F80006E736572742050617373776F72642000A2
:100F9000253032752F253032752F253032750025DA
:100FA0003032753A253032753A253032750050614D
:100FB0007373776F726400456474205061737300BB
:100FC0004163746976652000507265737320410037
:100FD000496E73657274002044696100486F7261E4
:100FE000002053656700204D696E00416E696F00F7
:0B0FF000204D657300253031750000B6
:100FFC00898089928994899680BA89A01AD0010E29
:10100C000001A46F0001A4513B6E3C6A3BC039F057
:10101C003CC03AF030EC19F008D0680E3B6EE40E90
:10102C00E82EFED73B2EFCD700D080AA02D089B088
:10103C00F4D780BE89A01AD0020E0001A46F000163
:10104C00A4513B6E3C6A3BC039F03CC03AF030ECEA
:10105C0019F008D0680E3B6EE40EE82EFED73B2E3E
:10106C00FCD700D080AE02D089B0F4D780BC89A068
:10107C001AD0030E0001A46F0001A4513B6E3C6A10
:10108C003BC039F03CC03AF030EC19F008D0680E97
:10109C003B6EE40EE82EFED73B2EFCD700D080AC86
:1010AC0002D089B0F4D7899089828994899680BAC4
:1010BC0089A21AD0040E0001A46F0001A4513B6E4A
:1010CC003C6A3BC039F03CC03AF030EC19F008D027
:1010DC00680E3B6EE40EE82EFED73B2EFCD700D0FC
:1010EC0080AA02D089B2F4D780BE89A21AD0050E8C
:1010FC000001A46F0001A4513B6E3C6A3BC039F067
:10110C003CC03AF030EC19F008D0680E3B6EE40E9F
:10111C00E82EFED73B2EFCD700D080AE02D089B291
:10112C00F4D780BC89A21AD0060E0001A46F00016E
:10113C00A4513B6E3C6A3BC039F03CC03AF030ECF9
:10114C0019F008D0680E3B6EE40EE82EFED73B2E4D
:10115C00FCD700D080AC02D089B2F4D789908992A8
:10116C008984899680BA89A41AD0070E0001A46FCD
:10117C000001A4513B6E3C6A3BC039F03CC03AF0D4
:10118C0030EC19F008D0680E3B6EE40EE82EFED75A
:10119C003B2EFCD700D080AA02D089B4F4D780BEF5
:1011AC0089A41AD0080E0001A46F0001A4513B6E53
:1011BC003C6A3BC039F03CC03AF030EC19F008D036
:1011CC00680E3B6EE40EE82EFED73B2EFCD700D00B
:1011DC0080AE02D089B4F4D780BC89A41AD0090E91
:1011EC000001A46F0001A4513B6E3C6A3BC039F076
:1011FC003CC03AF030EC19F008D0680E3B6EE40EAF
:10120C00E82EFED73B2EFCD700D080AC02D089B4A0
:10121C00F4D7899089928994898680AE120089A628
:10122C001200000E0001A46F0001A4513B6E3C6A39
:10123C003BC039F03CC03AF030EC19F008D0680EE5
:10124C003B6EE40EE82EFED73B2EFCD700D080AED2
:10125C00120089A61200F3D7000E0001D26F000E07
:10126C00D16F000E0001936F010E926F0001D151EE
:10127C000001D211D8A453D0000E0001956F000EBE
:10128C00946F000E0001CC6F000ECB6F31D0FEECD2
:10129C0007F0020E0001941900019511D8A428D072
:1012AC007DEC12F05BC0CBF05CC0CCF00001CCBF8D
:1012BC001AD00001CC5104E10001CB05D8A013D009
:1012CC000001CCBF08D00001CC510DE1200E000173
:1012DC00CB5DD8B008D0CBC0E3F0CCC0E4F00001BB
:1012EC00944B952B05D0000E0001956F000E946F5A
:1012FC00000195BFCCD70001955105E1030E00010B
:10130C00945DD8A0C4D7EAEC18F00001D14BD22BD5
:10131C00820E5F6EDE0EE82EFED75F2EFCD700012C
:10132C00D1050001D211D8A453D0000E0001956F45
:10133C00000E946F000E0001CE6F000ECD6F31D0F9
:10134C00FEEC07F0020E0001941900019511D8A4CF
:10135C0028D07DEC12F05BC0CDF05CC0CEF000016B
:10136C00CEBF1AD00001CE5104E10001CD05D8A0AA
:10137C0013D00001CEBF08D00001CE510DE10D0EEF
:10138C000001CD5DD8B008D0CDC0E7F0CEC0E8F0FC
:10139C000001944B952B05D0000E0001956F000EAB
:1013AC00946F000195BFCCD70001955105E1030E58
:1013BC000001945DD8A0C4D7EAEC18F00001D14B21
:1013CC00D22B820E5F6EDE0EE82EFED75F2EFCD780
:1013DC00020E0001D1190001D211D8A44CD0000E7C
:1013EC000001956F000E946F000E0001D06F000E7F
:1013FC00CF6F2AD0FEEC07F0020E00019419000109
:10140C009511D8A421D07DEC12F05BC0CFF05CC05C
:10141C00D0F00001D0BF13D00001D0BF08D0000124
:10142C00D0510DE1640E0001CF5DD8B008D0CFC013
:10143C00E9F0D0C0EAF00001944B952B05D0000EDA
:10144C000001956F000E946F000195BFD3D700017A
:10145C00955105E1030E0001945DD8A0CBD7EAECC1
:10146C0018F00001D14BD22B820E5F6EDE0EE82EEF
:10147C00FED75F2EFCD727EC0FF0000E0001936F08
:10148C00000E926F000E0001956F000E946F12000B
:10149C00260E306E000E316E00D1250E3818D8B4E1
:1014AC0009D022C0D9FF23C0DAFF38C0DFFF224A9F
:1014BC00232AF3D0000E376E000E366E000E326EFD
:1014CC0003D03284244A252A24C0F6FF25C0F7FF16
:1014DC000800F550300AD8B4F4D724C0F6FF25C064
:1014EC00F7FF0800F55053EC1DF0D8A036D0000ED5
:1014FC00376E000E366E36C01CF037C01DF0000E75
:10150C001F6E0A0E1E6E0BEC1DF01CC036F01DC0BB
:10151C0037F0D00E2C6EFF0E2D6E24C0F6FF25C0BA
:10152C00F7FF0800F5502E6E2F6A2C502E262D50EA
:10153C002F222E5036262F503722244A252A24C0FB
:10154C00F6FF25C0F7FF0800F55053EC1DF0D8A0AE
:10155C0004D0D1D7C00E321211D024C0F6FF25C052
:10156C00F7FF244A252A0800F5CF38F03850000A36
:10157C00D8B49FD0750AD8B4EDD78FD030C0D9FF6E
:10158C0031C0DAFFDECF33F0DDCF34F0020E30267F
:10159C00000E3122010E386E050E3818D8B412D058
:1015AC003850020D010EF324F66E0F0EF420F76E78
:1015BC000900F550335C0900F5503458D8A002D01E
:1015CC00382AEAD7800E38BE7F0E2C6E3650385C27
:1015DC003750800A2C58D8B007D03850365E000EE1
:1015EC0038BEFF0E375A04D0000E376E000E366E22
:1015FC0032A410D036503710D8B41FD022C0D9FF27
:10160C0023C0DAFF300EDF6E224A232A3606D8A01A
:10161C003706F0D736503710D8B40FD022C0D9FFC8
:10162C0023C0DAFF200EDF6E224A232A3606D8A00A
:10163C00370636503710D8A4F1D738C035F029D03A
:10164C003550020D010EF324F66E0F0EF420F76EDA
:10165C000900F5CF03F00A00F5CF04F033C001F018
:10166C0034C002F0AAEC1BF001C008F002C009F073
:10167C00000E0B6E0A0E0A6E95EC1CF00850300F23
:10168C00386E22C0D9FF23C0DAFF38C0DFFF224AF0
:10169C00232A35063528D8A4D3D724C0F6FF25C075
:1016AC00F7FF244A252A0800F5CF38F03850D8A483
:1016BC00F4D622C0D9FF23C0DAFF000EDF6E120071
:1016CC00000E0001D26F000ED16F000E0001936F5F
:1016DC00010E926F0001D1510001D211D8A44CD04F
:1016EC00000E0001956F000E946F000E0001CC6F80
:1016FC00000ECB6F2AD0FEEC07F0020E00019419FD
:10170C0000019511D8A421D07DEC12F05BC0CBF078
:10171C005CC0CCF00001CCBF13D00001CCBF08D012
:10172C000001CC510DE1180E0001CB5DD8B008D0F2
:10173C00CBC0E1F0CCC0E2F00001944B952B05D06E
:10174C00000E0001956F000E946F000195BFD3D76A
:10175C000001955105E1030E0001945DD8A0CBD793
:10176C00F7EC19F00001D14BD22B820E5F6EDE0E1E
:10177C00E82EFED75F2EFCD70001D1050001D21157
:10178C00D8A44CD0000E0001956F000E946F000E83
:10179C000001CE6F000ECD6F2AD0FEEC07F0020ECA
:1017AC000001941900019511D8A421D07DEC12F000
:1017BC005BC0CDF05CC0CEF00001CEBF13D00001F9
:1017CC00CEBF08D00001CE510DE13C0E0001CD5D25
:1017DC00D8B008D0CDC0DFF0CEC0E0F00001944B03
:1017EC00952B05D0000E0001956F000E946F000133
:1017FC0095BFD3D70001955105E1030E0001945D0F
:10180C00D8A0CBD7F7EC19F00001D14BD22B820E1C
:10181C005F6EDE0EE82EFED75F2EFCD7020E0001A7
:10182C00D1190001D211D8A44CD0000E0001956F33
:10183C00000E946F000E0001D06F000ECF6F2AD0F7
:10184C00FEEC07F0020E0001941900019511D8A4CA
:10185C0021D07DEC12F05BC0CFF05CC0D0F0000169
:10186C00D0BF13D00001D0BF08D00001D0510DE182
:10187C003C0E0001CF5DD8B008D0CFC096F0D0C0E0
:10188C0097F00001944B952B05D0000E0001956F3D
:10189C00000E946F000195BFD3D70001955105E15F
:1018AC00030E0001945DD8A0CBD7F7EC19F0000122
:1018BC00D14BD22B820E5F6EDE0EE82EFED75F2E42
:1018CC00FCD727EC0FF0000E0001936F000E926F07
:1018DC00000E0001956F000E946F120041504210E3
:1018EC004310D8A407D0000E416E800E426E3F0EFE
:1018FC00436E1200720E016E310E026E440E036EB8
:10190C0041C004F042C005F043C006F015EC18F0DD
:10191C00D8B00CD0000E0001896F220E886FFF0E1C
:10192C00416E7F0E426E7F0E436E120041C001F07D
:10193C0042C002F043C003F0490E046E3A0E056E2D
:10194C00C40E066E15EC18F0D8B00CD0000E0001C9
:10195C00896F220E886F000E416E000E426E000ED3
:10196C00436E120043AE02D0010E01D0000E496E40
:10197C004950D8B40ED041C001F042C002F043C06F
:10198C0003F030EC1DF001C041F002C042F003C086
:10199C0043F041C00DF042C00EF043C00FF0AA0E50
:1019AC00106EB80E116E3F0E126EFAEC13F00DC0E5
:1019BC0041F00EC042F00FC043F041C02EF042C0C7
:1019CC002FF043C030F0E7EC14F02EC044F02FC0E1
:1019DC0045F030C046F044C00DF045C00EF046C096
:1019EC000FF080EC13F00DC047F00EC048F041C072
:1019FC002EF042C02FF043C030F047C009F048C071
:101A0C000AF0D6EC1CF009C031F00AC032F00BC061
:101A1C0033F0B6EC1CF02EC041F02FC042F030C0B9
:101A2C0043F041C02EF042C02FF043C030F00F0EF7
:101A3C00316E0F0E326E000E346E090E336E56EC94
:101A4C0015F02EC03AF02FC03BF030C03CF047C030
:101A5C003DF048C03EF0BFEC15F03AC041F03BC041
:101A6C0042F03CC043F04950D8B425D041280EE197
:101A7C007F0E42180BE17F0E4318D8A407D0000E3E
:101A8C00416E000E426E000E436E1200000E096E87
:101A9C00800E0A6E3F0E0B6E41C00CF042C00DF072
:101AAC0043C00EF074EC14F009C041F00AC042F0CF
:101ABC000BC043F0120041C041F042C042F043C0A1
:101ACC0043F01200000E0001956F000E946F010E92
:101ADC00056E010E42EC1DF06E0E096E0F0E0A6EB5
:101AEC00D3EC1BF0020E056E010E42EC1DF05D0EE8
:101AFC00096E0F0E0A6ED3EC1BF0000E0001916FF5
:101B0C00010E906F000E3F6E000E3E6EB4D00001C1
:101B1C0095BF08D0000195512DE1040E0001945D94
:101B2C00D8B028D000018E0500018F11D8A41FD089
:101B3C008AB203D03D6A3D2A01D03D6A3D468A50A7
:101B4C003D18FD0B3D188A6E8AB003D03D6A3D2AC4
:101B5C0001D03D6A8A503D18FE0B3D188A6EFF0E6F
:101B6C003D6E8A0EE82EFED73D2EFCD700D0FEEC43
:101B7C0007F05DD0B8EC19F001500210D8B419D0B0
:101B8C00000E0001916F000E906F8A928A90000EE9
:101B9C0000018F6F000E8E6F000E3F6E000E3E6EBA
:101BAC00FF0E3D6E8A0EE82EFED73D2EFCD700D0E0
:101BBC001200000E0001956F000E946F3E4A3F2AF2
:101BCC00020E056E010E42EC1DF05D0E096E0F0E3D
:101BDC000A6ED3EC1BF03FBE2AD03F5004E1030E3B
:101BEC003E5CD8A024D0000E00018F6F010E8E6FCA
:101BFC008AB203D03D6A3D2A01D03D6A3D468A50E7
:101C0C003D18FD0B3D188A6E8AB003D03D6A3D2A03
:101C1C0001D03D6A8A503D18FE0B3D188A6EFF0EAE
:101C2C003D6E8A0EE82EFED73D2EFCD700D082BA30
:101C3C0082AC02D082BE1FD08AB203D03D6A3D2A4C
:101C4C0001D03D6A3D468A503D18FD0B3D188A6E09
:101C5C008AB003D03D6A3D2A01D03D6A8A503D18B6
:101C6C00FE0B3D188A6EFF0E3D6E8A0EE82EFED7D7
:101C7C003D2EFCD700D00001905100019111D8B439
:101C8C00120045D7FF0E3D6E8A0EE82EFED73D2E74
:101C9C00FCD700D0120024C028F0296A2A6A233409
:101CAC00283601E3298028502D6E27C028F0296A98
:101CBC002A6A2634283601E3298028502C6E2D50B0
:101CCC00D8B40BD02C502D5CD8B00ED02D500008B1
:101CDC002C24286E180E286407D025C022F026C0AC
:101CEC0023F027C024F012002C50D8B40BD02D5068
:101CFC002C5CD8B00ED02C5000082D24286E180E59
:101D0C00286407D022C022F023C023F024C024F082
:101D1C001200060E2B6E24BE2B8E27BE2B8C238E10
:101D2C00FF0E2216FF0E2316000E2416268EFF0E13
:101D3C002516FF0E2616000E27162C502D5CD8B03B
:101D4C001BD0D8902536263627362C062D502C182D
:101D5C00D8B40DD02B062BC028F0070E2816D8B4FB
:101D6C0006D0EFD7D8902432233222322D2A2C5091
:101D7C002D18D8B41FD0F6D72D502C5CD8B01AD053
:101D8C00D8902236233624362D062D502C18D8B454
:101D9C000DD02B062BC028F0070E2816D8B406D071
:101DAC00EFD7D8902732263225322C2A2C502D18DA
:101DBC00D8A4F7D72BAE0CD0FF0E221AFF0E231A85
:101DCC00FF0E241A010E2226000E2322000E2422BE
:101DDC002BAC0CD0FF0E251AFF0E261AFF0E271A5D
:101DEC00010E2526000E2622000E2722000E2B6E39
:101DFC0022502526235026222450272227AE0ED0EF
:101E0C00FF0E251AFF0E261AFF0E271A010E252685
:101E1C00000E2622000E2722010E2B6E25C001F08B
:101E2C0026C002F027C003F02DC004F02BC005F033
:101E3C0084EC16F001C022F002C023F003C024F0A1
:101E4C00120078EC1DF0A38096C001F097C002F050
:101E5C00000E046E0A0E036E76EC19F001500001B0
:101E6C00F66F0001F6510A0DF3500008000196259B
:101E7C000001F76F0001F651100DF3500001F7252A
:101E8C000001BE6FDFC001F0E0C002F0000E046E76
:101E9C000A0E036E76EC19F001500001F46F00018C
:101EAC00F4510A0DF35000080001DF250001F56F15
:101EBC000001F451100DF3500001F5250001BF6F26
:101ECC00E1C001F0E2C002F0000E046E0A0E036ED7
:101EDC0076EC19F001500001F26F0001F2510A0D7D
:101EEC00F35000080001E1250001F36F0001F251ED
:101EFC00100DF3500001F3250001C06FE9C001F093
:101F0C00EAC002F0000E046E0A0E036E76EC19F0B5
:101F1C0001500001EB6F0001EB510A0DF35000086A
:101F2C000001E9250001EC6F0001EB51100DF3509D
:101F3C000001EC250001BC6FE7C001F0E8C002F025
:101F4C00000E046E0A0E036E76EC19F001500001BF
:101F5C00EE6F0001EE510A0DF35000080001E72569
:101F6C000001EF6F0001EE51100DF3500001EF2551
:101F7C000001BB6FE3C001F0E4C002F0000E046E80
:101F8C000A0E036E76EC19F001500001F06F00019F
:101F9C00F0510A0DF35000080001E3250001F16F28
:101FAC000001F051100DF3500001F1250001BA6F42
:101FBC00E5C0EDF0E5C0B9F0BD0E016E000E026E8D
:101FCC00010E036E02EC13F0B90E016E000E026EE0
:101FDC00010E036E53EC11F00F013F8F1200000E37
:101FEC00566E4A504B104C10D8A41CD0000E016EEB
:101FFC00000E026E000E036E4DC004F04EC005F0D4
:10200C004FC006F015EC18F0D8A005D0000E00015A
:10201C00896F210E886F000E4A6E000E4B6E000EFB
:10202C004C6E12004D504E104F10D8A407D0000E1D
:10203C004A6E800E4B6E3F0E4C6E12004CAE41D071
:10204C004DC00DF04EC00EF04FC00FF080EC13F0F1
:10205C000DC057F00EC058F00FC059F010C05AF018
:10206C0057C009F058C00AF059C00BF05AC00CF018
:10207C004FEC1BF04D50091807E14E500A1804E1C3
:10208C004F500B18D8B40CD0000E0001896F210EE4
:10209C00886F000E4A6E000E4B6E000E4C6E1200D6
:1020AC005750010B566E4AC001F04BC002F04CC0A9
:1020BC0003F030EC1DF001C04AF002C04BF003C03D
:1020CC004CF04AC03AF04BC03BF04CC03CF0EEEC4C
:1020DC0011F03AC050F03BC051F03CC052F050C02F
:1020EC000DF051C00EF052C00FF04DC010F04EC0AC
:1020FC0011F04FC012F0FAEC13F00DC053F00EC0FB
:10210C0054F00FC055F053C041F054C042F055C0CC
:10211C0043F074EC0CF041C04AF042C04BF043C0A9
:10212C004CF05650D8B40FD04AC001F04BC002F05E
:10213C004CC003F030EC1DF001C04AF002C04BF073
:10214C0003C04CF012004AC04AF04BC04BF04CC0DC
:10215C004CF01200BD0E016E000E026EE7EC1AF090
:10216C000001BE510F0B0001F76F0001BE390F0BC0
:10217C000F0B0001F66F0001BF510F0B0001F56F43
:10218C000001BF390F0B0F0B0001F46F0001C051A0
:10219C000F0B0001F36F0001C0390F0B0F0B000187
:1021AC00F26FB90E016E000E026E5DEC18F00001BC
:1021BC00BA510F0B0001F16F0001BA390F0B0F0B65
:1021CC000001F06F0001BB510F0B0001EF6F00011C
:1021DC00BB390F0B0F0B0001EE6FB9C0EDF0000116
:1021EC00BC510F0B0001EC6F0001BC390F0B0F0B36
:1021FC000001EB6F0001F6510A0D0001F751F324B9
:10220C000001966F0001000EF4200001976F000191
:10221C00F4510A0D0001F551F3240001DF6F0001A8
:10222C00000EF4200001E06F0001F2510A0D0001D4
:10223C00F351F3240001E16F0001000EF4200001C2
:10224C00E26F0001F0510A0D0001F151F32400017D
:10225C00E36F0001000EF4200001E46FEDC0E5F027
:10226C000001E66B0001EE510A0D0001EF51F32461
:10227C000001E76F0001000EF4200001E86F00017F
:10228C00EB510A0D0001EC51F3240001E96F000140
:10229C00000EF4200001EA6F1200000E066E20EE14
:1022AC0002F00150D9260250DA22130EDF60120020
:1022BC0020EE02F00150D9260250DA22DF50D8B4B9
:1022CC00120020EE01F00150D9260250DA22320E13
:1022DC00DF60120020EE01F00150D9260250DA2204
:1022EC00DF50D8B4120020EE03F00150D926025072
:1022FC00DA22990EDF6401D0120020EE03F00150B7
:10230C00D9260250DA22DF50076E20EE01F0015080
:10231C00D9260250DA22DF500A6E20EE02F001506C
:10232C00D9260250DA22DF500B6E0350D8A4F29C4F
:10233C000F01000E3FBB010E096E0950D8B478ECAA
:10234C001DF00F01000E3FBF010E056E0550D8B4F5
:10235C0006D0000E91BE010E066E0F013F9FFC0EC3
:10236C000F013F170F013F8198CF0CF099CF0DF063
:10237C0001C0D9FF02C0DAFFDF500D6EFC0E0F0159
:10238C003F17030E0F013F1307C098FF08C099FFBA
:10239C000AC098FF0BC099FF0CC098FF0DC099FFA5
:1023AC000550D8B40BD00F013F8F0650D8A4918E96
:1023BC000950D8B408D078EC1DF005D00950D8A439
:1023CC0002D00F013F9B0350D8B41200F29C1200B4
:1023DC003CAE0CD0000E0001896F210E886F000EF0
:1023EC003A6E000E3B6E000E3C6E12003A503B10E3
:1023FC003C10D8A40CD0000E0001896F220E886FFF
:10240C00000E3A6E000E3B6E000E3C6E1200000E7B
:10241C00106E000E116E400E126E3D0E046E000E0C
:10242C00056E3AC001F03BC002F03CC003F0CDECAD
:10243C0017F001C00DF002C00EF003C00FF0FAEC63
:10244C0013F00DC022F00EC023F00FC024F0000ECC
:10245C00256E800E266EBF0E276E51EC0EF022C03C
:10246C003AF023C03BF024C03CF03D06D8A03E0619
:10247C003AC02EF03BC02FF03CC030F02D0E316E28
:10248C000F0E326E000E346E080E336E56EC15F0D5
:10249C002EC03AF02FC03BF030C03CF0720E106EE4
:1024AC00310E116E3F0E126E3DC009F03EC00AF0A7
:1024BC00D6EC1CF009C00DF00AC00EF00BC00FF0EA
:1024CC00FAEC13F00DC022F00EC023F00FC024F074
:1024DC003AC025F03BC026F03CC027F051EC0EF082
:1024EC0022C03AF023C03BF024C03CF01200000E96
:1024FC000001C86F000EC76F000E0001CA6F010EFD
:10250C00C96F0001CABF5AD0010E0001C9255D6E0A
:10251C00000E0001CA215E6E5D1E5E1E5D4A5E2AC3
:10252C00020E5D24096E000E5E200A6ED6EC1CF0C5
:10253C0009C0C1F00AC0C2F00BC0C3F0C1C04DF05D
:10254C00C2C04EF0C3C04FF0000E4A6E200E4B6E50
:10255C00410E4C6EF5EC0FF04AC0C4F04BC0C5F008
:10256C004CC0C6F0C4C00DF0C5C00EF0C6C00FF014
:10257C0080EC13F00DC01CF00EC01DF0D8900001C3
:10258C00C935D96E0001CA35DA6E800ED926000E17
:10259C00DA22DECF1EF0DDCF1FF00BEC1DF00001B8
:1025AC00C7511C240001C76F0001C8511D20000138
:1025BC00C86F0001C907D8A0CA07A3D7A50E226E01
:1025CC00000E236E9A0E246E0F0E256EC7C026F0D9
:1025DC00C8C027F04EEC0AF0020E056E080E42EC55
:1025EC001DF0A50E096E000E0A6ED3EC1BF0C7C0D1
:1025FC005BF0C8C05CF01200000E066E20EE02F01C
:10260C000150D9260250DA225A0EDF60120020EE59
:10261C0001F00150D9260250DA225A0EDF60120066
:10262C0020EE03F00150D9260250DA22240EDF648A
:10263C0001D0120020EE02F00150D9260250DA220D
:10264C00DF50096E20EE01F00150D9260250DA223B
:10265C00DF50086E0350D8A4F29C0F01000E3FBB54
:10266C00010E076E0750D8B478EC1DF00F01000E68
:10267C003FBF010E056E0550D8B406D0000E91BEBA
:10268C00010E066E0F013F9FFC0E0F013F170F014D
:10269C003F8198CF0AF099CF0BF020EE03F0015058
:1026AC00D9260250DA22DF500A6EFC0E0F013F17BA
:1026BC000F013F810AC098FF0BC099FF08C098FF1B
:1026CC0009C099FF0550D8B40BD00F013F8F0650AD
:1026DC00D8A4918E0750D8B408D078EC1DF005D052
:1026EC000750D8A402D00F013F9B0350D8B412005E
:1026FC00F28C12000FC011F0126A136A0E341136EC
:10270C0001E3128011501B6E1B50D8A409D0000E8F
:10271C000D6E000E0E6E000E0F6E000E106E12007F
:10272C00170E116E0DC012F00EC013F00FC014F086
:10273C001128156E04D0D890143213321232152E83
:10274C00FAD71250166E0E8EFF0E0D16FF0E0E16C9
:10275C00000E0F160D50176E0E50186E0F50196E8E
:10276C001A6A8E0E1B5E1BAE16D01B50800A8F0F82
:10277C00D8B009D0000E0D6E000E0E6E000E0F6E4E
:10278C00000E106E1200D8901A321932183217320D
:10279C001B3EF9D715D0170E1B640FD0000E0D6E13
:1027AC00000E0E6E000E0F6E000E106E1200D89002
:1027BC001736183619361A361B061B50D8A4F7D7FD
:1027CC001650D8B408D01A1E191E181E176C000EFD
:1027DC00182219221A2217C00DF018C00EF019C0B9
:1027EC000FF01AC010F012000FC013F0146A156A23
:1027FC000E34133601E314801350166E1650D8A401
:10280C0007D0000E0D6E000E0E6E000E0F6E120035
:10281C0012C013F0146A156A1134133601E31480D4
:10282C0013501B6E1B50D8A407D0000E0D6E000E5B
:10283C000E6E000E0F6E12001B507B0F16260FC073
:10284C001BF012501B1A800E1B160E8E118EFF0ED3
:10285C001016FF0E1116000E1216000E176E000E3B
:10286C00186E000E196E070E1A6E0DA006D01050C1
:10287C0017261150182212501922D8900F320E32EE
:10288C000D32D8901036113612361A2EEED7090E9C
:10289C001A6E0DA006D01050172611501822125087
:1028AC001922D8900F320E320D32D89019321832BC
:1028BC0017321A2EEED717C001F018C002F019C04B
:1028CC0003F016C004F01BC005F084EC16F001C038
:1028DC000DF002C00EF003C00FF012000BC00FF091
:1028EC00106A116A0A340F3601E310800F50166E0D
:1028FC001650D8A407D0000E096E000E0A6E000EFA
:10290C000B6E12000EC00FF0106A116A0D340F36E8
:10291C0001E310800F50176E1750D8A407D0000E8B
:10292C00096E000E0A6E000E0B6E1200000E136E76
:10293C00000E146E000E156E1750890F165E0BC02C
:10294C0017F00E50171A800E17160A8EFF0E091666
:10295C00FF0E0A16000E0B160D8EFF0E0C16FF0E38
:10296C000D16000E0E16180E126ED8901336143665
:10297C0015360C50095C0D500A580E500B58D8A047
:10298C0007D00C50095E0D500A5A0E500B5A13808A
:10299C00D89009360A360B36122EE7D713C001F041
:1029AC0014C002F015C003F016C004F017C005F0F7
:1029BC0084EC16F001C009F002C00AF003C00BF061
:1029CC0012002EC001F02FC002F030C003F0340E04
:1029DC00046E000E056ECDEC17F035AE10D030AE97
:1029EC0007D0000E2E6E800E2F6EBF0E306E1200B2
:1029FC00000E2E6E000E2F6E000E306E1200355033
:102A0C0004E1150E345CD8A007D02EC02EF02FC0D8
:102A1C002FF030C030F012002EC00DF02FC00EF091
:102A2C0030C00FF080EC13F00DC01CF00EC01DF088
:102A3C000FC01EF010C01FF035EC1AF01CC031F0A6
:102A4C001DC032F01EC033F02EC001F02FC002F0BA
:102A5C0030C003F031C004F032C005F033C006F0D2
:102A6C0015EC18F0D8B015D031C022F032C023F0DC
:102A7C0033C024F0000E256E800E266EBF0E276E1E
:102A8C0051EC0EF022C02EF023C02FF024C030F0F9
:102A9C00120031C02EF032C02FF033C030F01200D3
:102AAC0033C01CF034C01DF0000E1F6E030E1E6EE2
:102ABC000BEC1DF031C035F032C036F01C50352611
:102ACC001D50362235C0F6FF36C0F7FF0900F5CF92
:102ADC0037F00900F5CF38F00A00F5CF39F03ED0C9
:102AEC0037C010F038C011F039C012F02EC00DF004
:102AFC002FC00EF030C00FF0FAEC13F00DC022F026
:102B0C000EC023F00FC024F0000E1F6E030E1E6EBD
:102B1C003306D8A0340633C01CF034C01DF00BECC7
:102B2C001DF031C035F032C036F01C5035261D502A
:102B3C00362235C0F6FF36C0F7FF0900F5CF25F079
:102B4C000900F5CF26F00A00F5CF27F051EC0EF076
:102B5C0022C037F023C038F024C039F03350341081
:102B6C00D8A4BED737C02EF038C02FF039C030F003
:102B7C0012003A503B103C10D8A407D0000E3A6E0D
:102B8C00000E3B6E000E3C6E12003C507F0B3F6EF5
:102B9C00406AD8903F3640363F503D2640503E224A
:102BAC003BAE03D03F6A3F2A01D03F6A3F503D26DF
:102BBC00000E3E223EAE0CD0000E0001896F220E9C
:102BCC00886F000E3A6E000E3B6E000E3C6E1200CB
:102BDC003EBE16D03E04D8A013D0000E0001896F63
:102BEC00220E886F3CAE06D0FF0E3A6E7F0E3B6E07
:102BFC00FF0EECD7FF0E3A6E7F0E3B6E7F0EE6D7C4
:102C0C003E343E30406E3D303F6E3C503F18800BA2
:102C1C003F183C6E3DC03FF0010E3F163F323F3235
:102C2C003B503F187F0B3F183B6E3AC03AF03BC00D
:102C3C003BF03CC03CF012008990899289848996C3
:102C4C0082B489A41DD0030E00018C1900018D11D2
:102C5C00D8A406D0000E00018D6F000E8C6F0CD026
:102C6C0000018C4B8D2B08D0680E396EE40EE82ECB
:102C7C00FED7392EFCD700D082A402D089B4F4D769
:102C8C00899089928994898682B489A61DD0000185
:102C9C008C5100018D11D8A406D0000E00018D6F4F
:102CAC00030E8C6F0DD000018C07D8A08D0708D0B7
:102CBC00680E396EE40EE82EFED7392EFCD700D004
:102CCC0082A402D089B6F4D7A50E226E000E236E14
:102CDC00F50E246E0F0E256E8CC026F08DC027F0DD
:102CEC004EEC0AF0010E056E080E42EC1DF0A50E1E
:102CFC00096E000E0A6ED3EC1BF012000450D8B40F
:102D0C0005D0015002100310D8A40CD0000E016E97
:102D1C00000E026E000E036E1200042AD8900332CD
:102D2C0002320132000E0114066E000E0214076E00
:102D3C00FE0E0314086E065007100810D8B40CD001
:102D4C00ECD7042A010E0126000E0222000E0322EB
:102D5C00D890033202320132000E0114066E000EBE
:102D6C000214076EFF0E0314086E065007100810AD
:102D7C00D8B406D0E6D70406D8900136023603360E
:102D8C0002BE03D0020E0460F6D704A0029ED890B7
:102D9C000432045003120550D8A4038E01C001F074
:102DAC0002C002F003C003F0120000018A510001BE
:102DBC008B11D8A422D0000E00018B6F010E8A6FEC
:102DCC00010E056E010E42EC1DF0D00E096E0F0EB9
:102DDC000A6ED3EC1BF0020E056E010E42EC1DF0D8
:102DEC00AE0E096E0F0E0A6ED3EC1BF0D00E0B6EEE
:102DFC00CA0EE82EFED70B2EFCD700018A05000167
:102E0C008B11D8A41200000E00018B6F000E8A6F7C
:102E1C00010E056E010E42EC1DF0650E096E0F0ED3
:102E2C000A6ED3EC1BF0020E056E010E42EC1DF087
:102E3C00650E096E0F0E0A6ED3EC1BF09C0E0B6E1A
:102E4C00D70EE82EFED70B2EFCD700F01200000E8A
:102E5C000001D56F000ED46F000E0001956F000EAF
:102E6C00946F010E056E010E42EC1DF07F0E096E83
:102E7C000F0E0A6ED3EC1BF0020E056E010E42EC27
:102E8C001DF05D0E096E0F0E0A6ED3EC1BF00001E7
:102E9C0095BF08D00001955108E1040E0001945D26
:102EAC00D8B003D0FEEC07F010D062EC1DF0B8ECFB
:102EBC0019F001040210D8A403D01EEC1BF0120070
:102ECC000001D44BD52B24EC1CF00001D5BFDFD76F
:102EDC000001D55105E1030E0001D45DD8A0D7D770
:102EEC00000E00018F6F010E8E6F68EC0DF0CFD7C6
:102EFC00000E0001956F000E946F010E056E010E11
:102F0C0042EC1DF0480E096E0F0E0A6ED3EC1BF04E
:102F1C00020E056E010E42EC1DF05D0E096E0F0ED9
:102F2C000A6ED3EC1BF0000195BF08D0000195513F
:102F3C0008E1040E0001945DD8B003D0FEEC07F05C
:102F4C00F2D7000E3E6E000E3D6E3EBE06D03E50D9
:102F5C001DE1040E3D5CD8B01200D8903D34D96E02
:102F6C003E34DA6E600ED926000EDA22D8903D344B
:102F7C00E16E3E34E26ED70EE126000EE222DECF89
:102F8C00E6FFDDCFE5FF3D4A3E2ADFD712000150B8
:102F9C0002100310D8A40FD004C0D9FF05C0DAFF6B
:102FAC00000EDE6E000EDD6E000E016E000E026E67
:102FBC00000E036E120003507F0B066E076AD8904A
:102FCC000636073604C0D9FF05C0DAFF06C0DEFF9F
:102FDC0007C0DDFF02AE03D0066A062A01D0066ADE
:102FEC00065004C0D9FF05C0DAFFDE12000EDD1258
:102FFC0004C0D9FF05C0DAFF820EDE26FF0EDD22EB
:10300C0003800382038403860388038A039C029E45
:10301C0001C001F002C002F003C003F0120003AEC5
:10302C0016D001C007F002C008F003C009F0071E5B
:10303C00081E091E072A000E08220922000E07246A
:10304C00016E000E0820026E800E0920036E06AE83
:10305C0016D004C007F005C008F006C009F0071E22
:10306C00081E091E072A000E08220922000E07243A
:10307C00046E000E0820056E800E0920066E000EF0
:10308C00011A000E021A800E031A000E041A000E0A
:10309C00051A800E061A0450015C055002580650A1
:1030AC000358D8B002D0D8901200D8801200FC0E71
:1030BC000F013F17030E0F013F1398CF0BF099CF61
:1030CC000CF098CF0DF099CF0EF098CF0FF099CF60
:1030DC0010F0FC0E0F013F17030E0F013F1398CF9A
:1030EC0003F099CF04F098CF05F099CF06F098CF64
:1030FC0007F099CF08F005500D18D8A4D8D720EEBA
:10310C0001F00150D9260250DA220DC0DFFF20EE6B
:10311C0002F00150D9260250DA220EC0DFFF01C0A6
:10312C00D9FF02C0DAFF10C0DFFF20EE03F0015020
:10313C00D9260250DA220BC0DFFF12008980899257
:10314C008994899680AA02D089B007D080AE02D02B
:10315C0089B003D080BC89A002D02DEC17F08990E7
:10316C0089828994899680AA02D089B207D080AED0
:10317C0002D089B203D080BC89A202D02DEC17F00A
:10318C00899089928984899680AA02D089B407D0C3
:10319C0080AE02D089B403D080BC89A402D02DECBF
:1031AC0017F0899089928994898680AA02D089B671
:1031BC0008D080AE02D089B604D080AC120089A6AB
:1031CC0012002DEC17F012000001E4BF0FD000012B
:1031DC00E45105E1200E0001E35DD8A007D0000EFC
:1031EC000001E46F010EE36F27EC0FF00001E8BF64
:1031FC000FD00001E85105E10D0E0001E75DD8A0EC
:10320C0007D0000E0001E86F010EE76F27EC0FF0FE
:10321C00A50E226E000E236E900E246E0F0E256EE0
:10322C00E3C026F0E4C027F0E7C028F0E8C029F09E
:10323C00E9C02AF0EAC02BF04EEC0AF0010E056E44
:10324C00090E42EC1DF0A50E096E000E0A6ED3ECB1
:10325C001BF012000001925100019311D8A42DD043
:10326C00D89000019435D96E00019535DA6E600E58
:10327C00D926000EDA2239C0DEFF3AC0DDFF020E7D
:10328C00056E0001942942EC1DF0A50E226E000E75
:10329C00236EF50E246E0F0E256E39C026F03AC043
:1032AC0027F04EEC0AF0A50E096E000E0A6ED3EC58
:1032BC001BF00001944B952B1200D8900001943513
:1032CC00D96E00019535DA6E800ED926000EDA2201
:1032DC0039C0DEFF3AC0DDFF0001944B952B120084
:1032EC00000E066E04AE06D0036C041ED8B0042A81
:1032FC00010E066E02AE06D0016C021ED8B0022A78
:10330C00010E061A000E086E000E076E0350041014
:10331C00D8B41CD0010E056E04D0D89003360436F8
:10332C00052A04AEFAD7D890073608360350015C4C
:10333C0004500258D8A005D00350015E0450025A24
:10334C000780D89004320332052EEDD70650D8B43E
:10335C0004D0076C081ED8B0082A07C001F008C0BA
:10336C0002F01200000E086E000E076E000E0A6EC0
:10337C00000E096E0ABE03D00A502EE129D0D89057
:10338C000934D96E0A34DA6E600ED926000EDA22B0
:10339C00D8900934E16E0A34E26ED70EE126000EA5
:1033AC00E222DE50E61809E1DE50E618D8A405D07A
:1033BC00000E086E010E076E05D0000E086E000E92
:1033CC00076E0AD0094A0A2A0ABED9D70A5004E164
:1033DC00040E095CD8A0D3D707C001F008C002F0D6
:1033EC0012000001E2BF19D00001E25105E1180EF4
:1033FC000001E15DD8A011D0000E0001E26F000EBB
:10340C00E16F000E0001E06F000EDF6F000E000197
:10341C00976F000E966F27EC0FF0A50E226E000E24
:10342C00236E9F0E246E0F0E256EE1C026F0E2C0B7
:10343C0027F0DFC028F0E0C029F096C02AF097C032
:10344C002BF04EEC0AF0020E056E090E42EC1DF04C
:10345C00A50E096E000E0A6ED3EC1BF01200000EC6
:10346C00256E8E0E246E1FAE11D01F1E1E1E1D1E2D
:10347C001C6C000E1D221E221F22010E256E06D072
:10348C00D8901F321E321D321C32242A000E1C14FE
:10349C00206E000E1D14216E000E1E14226EFF0EE7
:1034AC001F14236E2050211022102310D8A4E8D70B
:1034BC001CC001F01DC002F01EC003F024C004F0BB
:1034CC0025C005F084EC16F001C01CF002C01DF004
:1034DC0003C01EF01200939693948A968A94939844
:1034EC00939A939C939E0A0E81EC1DF00A0E81EC2C
:1034FC001DF00A0E81EC1DF0000E056E020E056427
:10350C0001D008D0030EACEC1AF00A0E81EC1DF0C1
:10351C00052AF4D7020EACEC1AF0000E056E030E61
:10352C00056401D012000550010D0B0EF324F66E4C
:10353C000F0EF420F76E0800F5CF03F0000EF2EC3E
:10354C001CF00A0E81EC1DF0052AE9D7026E02A0D0
:10355C0003D0016A012A01D0016A013A8A5001188C
:10356C00EF0B01188A6E02A203D0016A012A01D066
:10357C00016A013A01468A500118DF0B01188A6E64
:10358C0002A403D0016A012A01D0016A013A014662
:10359C0001468A500118BF0B01188A6E02A603D08F
:1035AC00016A012A01D0016A013201328A500118E4
:1035BC007F0B01188A6E00F08A8400F000F08A9468
:1035CC001200FC0E0F013F170F013F8198CF0FF037
:1035DC0099CF10F098CF11F099CF12F0FC0E0F018B
:1035EC003F170F013F8198CF07F099CF08F098CF84
:1035FC0009F099CF0AF009501118D8A4E2D720EE9F
:10360C0003F00150D9260250DA220FC0DFFF20EE62
:10361C0002F00150D9260250DA2212C0DFFF20EE50
:10362C0001F00150D9260250DA2211C0DFFF12003E
:10363C00010E056E010E42EC1DF0C00E096E0F0E50
:10364C000A6ED3EC1BF0020E056E010E42EC1DF05F
:10365C00B70E096E0F0E0A6ED3EC1BF0B0EC10F027
:10366C00A5EC1DF022EC16F0FCEC1BF08990898285
:10367C008994899682B41200DBD7FF0E0001D36FB8
:10368C008A0EE82EFED7D32FFCD700F082A4D0D719
:10369C00F4D78E0E116E06D0D8900C320B320A3243
:1036AC000932112A000E09140D6E000E0A140E6E4A
:1036BC00000E0B140F6EFF0E0C14106E0D500E102E
:1036CC000F101010D8A4E8D709C001F00AC002F0FE
:1036DC000BC003F011C004F0000E056E84EC16F064
:1036EC0001C009F002C00AF003C00BF012003E0E3C
:1036FC00F66E3B0EF76E000EF86E01EE00F010EE5B
:10370C000CF00900F5CFEEFFE550E150FAE1DC0ECC
:10371C00F66E3A0EF76E000EF86E00EED7F010EE65
:10372C0014F00900F5CFEEFFE550E150FAE100018D
:10373C00F86B00EE60F0610EEE6AE806FDE1000E3B
:10374C00F86E00011EEF1DF0000E066E000E056EE9
:10375C0003500410D8B41CD0010E076E04D0D890BE
:10376C0003360436072A04AEFAD7D8900536063647
:10377C000350015C04500258D8A005D00350015EE0
:10378C000450025A0580D89004320332072EEDD72C
:10379C0005C001F006C002F0120014D009C0F6FFFB
:1037AC000AC0F7FFF86A0E0EF76403D00800F55054
:1037BC0005D0F6CFE9FFF7CFEAFFEF5070EC1CF025
:1037CC00094A0A2A09C0F6FF0AC0F7FFF86A0E0E6A
:1037DC00F76403D00800F55005D0F6CFE9FFF7CF1A
:1037EC00EAFFEF500009D8B41200D8D7898089922B
:1037FC008994899682A4120089A0120000018C5130
:10380C0000018D11D8B468EC0DF000018C0500019D
:10381C008D11D8B47EEC17F0020E00018C1900014A
:10382C008D11D8B432EC09F0030E00018C19000193
:10383C008D11D8A4120066EC0BF01200020E056E6E
:10384C00010E42EC1DF05F0E096E0F0E0A6ED3ECEA
:10385C001BF0000E0C6E000E0B6E0CAE10D0D89040
:10386C000B34D96E0C34DA6E600ED926000EDA22C7
:10387C00000EDE6E000EDD6E0B4A0C2AEED7000E2B
:10388C000001956F000E946F12009B8E9B9CD38849
:10389C00D38AD38CD390D392F00E926E000E936E8B
:1038AC00E70E946E0F0148690F0149690F013F8FB4
:1038BC000F013F8BCD8627EC0FF071EC1AF00C0E3C
:1038CC0098EC1DF08A948A928A90A5EC1DF027EC56
:1038DC000FF01200086E18D0010E036E000EF2EC01
:1038EC001CF01200020E056E010E42EC1DF01200CF
:1038FC00100E036E000EF2EC1CF0120008C003F068
:10390C00010EF2EC1CF012000850080AD8B4F0D7E3
:10391C00020AD8B4E7D7060AD8B4DED7EFD70A50D4
:10392C000B10D8B418D0010E0C6E04D0D8900A36F7
:10393C000B360C2A0BAEFAD70A50085C0B50095800
:10394C00D8A004D00A50085E0B50095AD8900B32FC
:10395C000A320C2EF1D708C008F009C009F0120089
:10396C00315032103310D8B406D0000E311A000E7C
:10397C00321A800E331A2EC022F02FC023F030C022
:10398C0024F031C025F032C026F033C027F051ECC2
:10399C000EF022C02EF023C02FF024C030F0120005
:1039AC00000E0C6E0AAE06D0096C0A1ED8B00A2A9C
:1039BC00010E0C6E09C001F00AC002F0036A8E0EF3
:1039CC00046E0CC005F084EC16F001C009F002C0C6
:1039DC000AF003C00BF01200046E8A96020E89ECFA
:1039EC001DF09398939A939C939E0450D8B402D054
:1039FC008A8601D08A9600F003380F0BACEC1AF0D3
:103A0C0003500F0BACEC1AF012001C501E02F3CF3B
:103A1C0020F0F4CF21F01C501F02F35021261D5032
:103A2C001E02F350212620C01CF021C01DF01200F4
:103A3C004BEC1CF0B0EC10F091EC1DF0FBD7FF0E32
:103A4C000001D66F8A0EE82EFED7D62FFCD700F0D9
:103A5C0000EF00F0015002100310D8B406D0000E95
:103A6C00011A000E021A800E031A01C001F002C0E6
:103A7C0002F003C003F01200066E0504D8B402D0A5
:103A8C00400E01D0000E076E060407260750800971
:103A9C00036E000EF2EC1CF01200036E000E026EB0
:103AAC003A0E036005D02F0E036402D0010E026E95
:103ABC0002C001F001301200020E056E070E42EC3E
:103ACC001DF0C80E096E0F0E0A6ED3EC1BF012001F
:103ADC0001000200030004001E0012000800030095
:103AEC0009000F00F29C550EA76EAA0EA76E0F01CF
:103AFC003F8BF28C1200016EC80E00D0E82EFDD761
:103B0C00012EFAD71200016E210EE82EFED700F01E
:103B1C00012EFAD71200A5EC1DF0DBEC16F0A4EC8C
:103B2C0018F01200056E05C003F0000EF2EC1CF04C
:103B3C001200D70FF00FEB0FDC0FE60FE10FEAECE2
:083B4C0018F0F7EC19F012006B
:08FFF800AEF718FFF3F8FFF16A
:00000001FF
