:04000000D9EF10F034
:100F00000001000A006400E8031027280C010625F0
:100F10003032752F253032752F253032750025304F
:100F200032753A253032753A25303275002020204E
:100F3000202020202000436869636F20202000507B
:100F400065646972202020004772616E646520200C
:100F5000005265706F72746520004D656469616E42
:100F60006F20005465726D696E617200536F6C6F13
:100F7000202020004C756E65732020005361626153
:100F8000646F20004D617274657320004A75657648
:100F900065732000432F4C65636865004D69657279
:100FA000636F6C00436F727461646F00446F6D69AE
:100FB0006E676F00566965726E657300286E756C9A
:100FC0006C290020446961004E64696100486F72B9
:100FD000610043616665002053656700204D696EBE
:100FE00000416E696F00204D65730025303175003A
:100FF000456474002573000018EC12F0000E2D6E8D
:10100000000E2C6E000E376E000E366E30EC0FF0B8
:1010100080BA1BD02C502D10D8A417D0000E2D6EE6
:10102000010E2C6E020E056E0A0E75EC12F0F00E1B
:10103000096E0F0E0A6EA9EC11F0FF0E286E8A0ED3
:10104000E82EFED7282EFCD700D080BA1BD02C0467
:101050002D10D8A417D0000E2D6E000E2C6E020E8F
:10106000056E0A0E75EC12F02D0E096E0F0E0A6E4B
:10107000A9EC11F0FF0E286E8A0EE82EFED7282E5E
:10108000FCD700D02C042D10D8A4FED280B40ED0F2
:10109000070E36183710D8A405D0000E376E000E94
:1010A000366E02D0364A372A80A4FED780BE0ED0D4
:1010B00036503710D8A405D0000E376E070E366EA6
:1010C00003D03606D8A0370680AEFED7AC0E0D6E24
:1010D000000E0E6EF40E0F6E0F0E106ED89036349A
:1010E000D96E3734DA6ED20ED926000EDA22DECF70
:1010F00011F0DDCF12F04FEC0BF0020E056E0D0E6D
:1011000075EC12F0AC0E096E000E0A6EA9EC11F02F
:1011100036503710D8A428D080B612D0060E5918F1
:101120005A10D8A407D0000E5A6E000E596E73ECF8
:101130000DF004D0594A5A2A73EC0DF080A6FED760
:1011400080BC12D059505A10D8A407D0000E5A6E45
:10115000060E596E73EC0DF005D05906D8A05A064C
:1011600073EC0DF080ACFED736043710D8A42FD026
:1011700080B612D01F0E57185810D8A407D0000EF2
:10118000586E010E576E73EC0DF004D0574A582A72
:1011900073EC0DF080A6FED780BC12D05704581017
:1011A000D8A407D0000E586E1F0E576E73EC0DF0CA
:1011B00005D05706D8A0580673EC0DF080ACFED7CA
:1011C000820E286EDE0EE82EFED7282EFCD7020EE9
:1011D00036183710D8A42FD080B612D00C0E5B185A
:1011E0005C10D8A407D0000E5C6E010E5B6E73EC31
:1011F0000DF004D05B4A5C2A73EC0DF080A6FED79C
:1012000080BC12D05B045C10D8A407D0000E5C6ECA
:101210000C0E5B6E73EC0DF005D05B06D8A05C067F
:1012200073EC0DF080ACFED7820E286EDE0EE82E39
:10123000FED7282EFCD7030E36183710D8A42FD08F
:1012400080B612D0630E5D185E10D8A407D0000ED1
:101250005E6E000E5D6E73EC0DF004D05D4A5E2A8A
:1012600073EC0DF080A6FED780BC12D05D505E10EE
:10127000D8A407D0000E5E6E630E5D6E73EC0DF0A9
:1012800005D05D06D8A05E0673EC0DF080ACFED7ED
:10129000820E286EDE0EE82EFED7282EFCD7040E16
:1012A00036183710D8A42FD080B612D03B0E551860
:1012B0005610D8A407D0000E566E000E556E73EC73
:1012C0000DF004D0554A562A73EC0DF080A6FED7D7
:1012D00080BC12D055505610D8A407D0000E566EC0
:1012E0003B0E556E73EC0DF005D05506D8A0560692
:1012F00073EC0DF080ACFED7820E286EDE0EE82E69
:10130000FED7282EFCD7050E36183710D8A42FD0BC
:1013100080B612D03B0E53185410D8A407D0000E3C
:10132000546E000E536E73EC0DF004D0534A542AE1
:1013300073EC0DF080A6FED780BC12D05350541031
:10134000D8A407D0000E546E3B0E536E73EC0DF014
:1013500005D05306D8A0540673EC0DF080ACFED730
:10136000820E286EDE0EE82EFED7282EFCD7060E43
:1013700036183710D8A42FD080B612D03B0E3818AC
:101380003910D8A407D0000E396E000E386E73ECF9
:101390000DF004D0384A392A73EC0DF080A6FED740
:1013A00080BC12D038503910D8A407D0000E396E46
:1013B0003B0E386E73EC0DF005D03806D8A0390618
:1013C00073EC0DF080ACFED7820E286EDE0EE82E98
:1013D000FED7282EFCD7070E36183710D8A454D1C4
:1013E000000E376E000E366E000E336E000E326E3B
:1013F000000E2F6E000E2E6E000E316E000E306E3F
:10140000000E356E000E346E80B40ED0020E32180F
:101410003310D8A405D0000E336E000E326E02D009
:10142000324A332A80A4FED780BE0ED03250331009
:10143000D8A405D0000E336E020E326E03D03206F1
:10144000D8A0330680AEFED732503310D8A420D0B7
:1014500080B60ED0020E2E182F10D8A405D0000E84
:101460002F6E000E2E6E02D02E4A2F2A80A6FED797
:1014700080BC0ED02E502F10D8A405D0000E2F6E99
:10148000020E2E6E03D02E06D8A02F0680ACFED7FB
:1014900032043310D8A420D080B60ED0020E3018FB
:1014A0003110D8A405D0000E316E000E306E02D07F
:1014B000304A312A80A6FED780BC0ED03050311081
:1014C000D8A405D0000E316E020E306E03D0300667
:1014D000D8A0310680ACFED7020E32183310D8A443
:1014E0006CD080B60DD034043510D8A405D0000ED1
:1014F000356E000E346E02D0344A352A80A6FED7EF
:1015000080BC0ED034503510D8A405D0000E356EF6
:10151000010E346E03D03406D8A0350680ACFED759
:1015200080BA4BD034503510D8A41FD02EC001F053
:101530002FC002F0000E046E060E036E51EC12F086
:10154000C00E286E000E296E015028260250292256
:10155000D8903034D96E3134DA6E2850D9262950DB
:10156000DA22020EDE26000EDD2234043510D8A465
:101570001DD0000E2B6E000E2A6EAC0E0D6E000EEE
:101580000E6EEB0E0F6E0F0E106EC0C011F0C1C0CC
:1015900012F04FEC0BF0020E056E0D0E75EC12F012
:1015A000AC0E096E000E0A6EA9EC11F0020E341892
:1015B0003510D8B469D080BAFED7980E0D6E000EE3
:1015C0000E6EF40E0F6E0F0E106ED8902E34D96E74
:1015D0002F34DA6EEE0ED926000EDA22DECF11F0AD
:1015E000DDCF12F04FEC0BF0010E056E010E75EC25
:1015F00012F0980E096E000E0A6EA9EC11F0840E1E
:101600000D6E000E0E6EF40E0F6E0F0E106ED89053
:101610003034D96E3134DA6EE80ED926000EDA2273
:10162000DECF11F0DDCF12F04FEC0BF0010E056EA6
:10163000090E75EC12F0840E096E000E0A6EA9EC0C
:1016400011F0140E0D6E010E0E6EF40E0F6E0F0ED5
:10165000106ED8903434D96E3534DA6EE20ED92655
:10166000000EDA22DECF11F0DDCF12F04FEC0BF0DE
:10167000020E056E010E75EC12F0140E096E010ECD
:101680000A6EA9EC11F0C0D6AEEC12F0FF0E286E77
:101690008A0EE82EFED7282EFCD700D0B7D4110E24
:1016A0001F6E000E206E66D1250E2718D8B409D003
:1016B0000DC0D9FF0EC0DAFF27C0DFFF0D4A0E2A8A
:1016C00059D1000E266E000E256E000E1B6E03D043
:1016D0001B840F4A102A0FC0F6FF10C0F7FF080046
:1016E000F550300AD8B4F4D70FC0F6FF10C0F7FF9A
:1016F0000800F55086EC12F0D8A099D0000E266EA6
:10170000000E256E25C001F026C002F0000E046E0A
:101710000A0E036E51EC12F001C025F002C026F053
:10172000D00E176EFF0E186E0FC0F6FF10C0F7FF39
:101730000800F550196E1A6A1750192618501A2207
:10174000195025261A5026220F4A102A0FC0F6FFDC
:1017500010C0F7FF0800F55086EC12F0D8A067D053
:10176000D1D71FC0D9FF20C0DAFFDECF21F0DDCFF7
:1017700022F0020E1F26000E202221502210D8A493
:1017800004D0BC0E216E0F0E226E000E246E000ED1
:10179000236E02D0234A242A23502124176E24507A
:1017A0002220186E17C0F6FF18C0F7FF0800F5508A
:1017B0000009D8A4EFD72550235C26502458D8B070
:1017C00005D02350255E2450265A0DD0000E266EDB
:1017D000000E256E08D00DC0D9FF0EC0DAFF200E16
:1017E000DF6E0D4A0E2A2506D8A026062528F3E12D
:1017F0002628D8B410D0EFD721C0F6FF22C0F7FFBB
:101800000DC0D9FF0EC0DAFF0800F5CFDFFF214A77
:10181000222A0D4A0E2A2306D8A024062328ECE10A
:101820002428D8B4A7D0E8D7C00E1B1214D00FC0FC
:10183000F6FF10C0F7FF0F4A102A0800F5CF27F077
:101840002750000AD8B4A2D0730AD8B48AD7060A9F
:10185000D8B4EAD78FD01FC0D9FF20C0DAFFDECFBF
:101860001CF0DDCF1DF0020E1F26000E2022010EFF
:10187000276E050E2718D8B412D02750020D010E7E
:10188000F324F66E0F0EF420F76E0900F5501C5C81
:101890000900F5501D58D8A002D0272AEAD7800E9B
:1018A00027BE7F0E176E2550275C2650800A1758DA
:1018B000D8B007D02750255E000E27BEFF0E265A4F
:1018C00004D0000E266E000E256E1BA410D02550ED
:1018D0002610D8B41FD00DC0D9FF0EC0DAFF300ECD
:1018E000DF6E0D4A0E2A2506D8A02606F0D7255011
:1018F0002610D8B40FD00DC0D9FF0EC0DAFF200ECD
:10190000DF6E0D4A0E2A2506D8A026062550261081
:10191000D8A4F1D727C01EF029D01E50020D010E09
:10192000F324F66E0F0EF420F76E0900F5CF03F0E6
:101930000A00F5CF04F01CC001F01DC002F080ECDD
:1019400011F001C008F002C009F0000E0B6E0A0E83
:101950000A6EF7EC11F00850300F276E0DC0D9FF5A
:101960000EC0DAFF27C0DFFF0D4A0E2A1E061E2812
:10197000D8A4D3D70FC0F6FF10C0F7FF0F4A102A24
:101980000800F5CF27F02750D8A48ED60DC0D9FF78
:101990000EC0DAFF000EDF6E120059505A10D8A4A4
:1019A00013D0010E056E010E75EC12F0AC0E096E2F
:1019B0000F0E0A6EA9EC11F0820E0B6EDE0EE82EF1
:1019C000FED70B2EFCD7120059045A10D8A413D0FE
:1019D000010E056E010E75EC12F0740E096E0F0EFD
:1019E0000A6EA9EC11F0820E0B6EDE0EE82EFED709
:1019F0000B2EFCD71200020E59185A10D8A413D07F
:101A0000010E056E010E75EC12F0840E096E0F0EBC
:101A10000A6EA9EC11F0820E0B6EDE0EE82EFED7D8
:101A20000B2EFCD71200030E59185A10D8A413D04D
:101A3000010E056E010E75EC12F09C0E096E0F0E74
:101A40000A6EA9EC11F0820E0B6EDE0EE82EFED7A8
:101A50000B2EFCD71200040E59185A10D8A413D01C
:101A6000010E056E010E75EC12F08C0E096E0F0E54
:101A70000A6EA9EC11F0820E0B6EDE0EE82EFED778
:101A80000B2EFCD71200050E59185A10D8A413D0EB
:101A9000010E056E010E75EC12F0B40E096E0F0EFC
:101AA0000A6EA9EC11F0820E0B6EDE0EE82EFED748
:101AB0000B2EFCD71200060E59185A10D8A412008B
:101AC000010E056E010E75EC12F07C0E096E0F0E04
:101AD0000A6EA9EC11F0820E0B6EDE0EE82EFED718
:101AE0000B2EFCD7120095EC12F0A38038C001F049
:101AF00039C002F0000E046E0A0E036EE3EC0FF024
:101B00000150496E49500A0DF350000838244A6EBE
:101B10004950100DF3504A24506E53C001F054C088
:101B200002F0000E046E0A0E036EE3EC0FF001509B
:101B3000476E47500A0DF35000085324486E475033
:101B4000100DF3504824516E55C001F056C002F0FC
:101B5000000E046E0A0E036EE3EC0FF00150456EAA
:101B600045500A0DF35000085524466E4550100D9F
:101B7000F3504624526E5DC001F05EC002F0000ECC
:101B8000046E0A0E036EE3EC0FF001503E6E3E5001
:101B90000A0DF35000085D243F6E3E50100DF350C7
:101BA0003F244E6E5BC001F05CC002F0000E046E7C
:101BB0000A0E036EE3EC0FF00150416E41500A0D26
:101BC000F35000085B24426E4150100DF350422444
:101BD0004D6E57C001F058C002F0000E046E0A0EA0
:101BE000036EE3EC0FF00150436E43500A0DF350C7
:101BF00000085724446E4350100DF35044244C6E9B
:101C000059C040F059C04BF04F0E016E000E026EED
:101C1000010E036EB2EC0EF04B0E016E000E026E62
:101C2000010E036E17EC0EF00F013F8F1200000E35
:101C3000066E20EE02F00150D9260250DA22130E71
:101C4000DF60120020EE02F00150D9260250DA22A5
:101C5000DF50D8B4120020EE01F00150D926025016
:101C6000DA22320EDF60120020EE01F00150D92698
:101C70000250DA22DF50D8B4120020EE03F00150F7
:101C8000D9260250DA22990EDF6401D0120020EE2C
:101C900003F00150D9260250DA22DF50076E20EE01
:101CA00001F00150D9260250DA22DF500A6E20EEF0
:101CB00002F00150D9260250DA22DF500B6E035099
:101CC000D8A4F29C0F01000E3FBB010E096E095013
:101CD000D8B495EC12F00F01000E3FBF010E056E57
:101CE0000550D8B406D0000E91BE010E066E0F014D
:101CF0003F9FFC0E0F013F170F013F8198CF0CF063
:101D000099CF0DF001C0D9FF02C0DAFFDF500D6E90
:101D1000FC0E0F013F17030E0F013F1307C098FF82
:101D200008C099FF0AC098FF0BC099FF0CC098FF2C
:101D30000DC099FF0550D8B40BD00F013F8F06504E
:101D4000D8A4918E0950D8B408D095EC12F005D0E3
:101D50000950D8A402D00F013F9B0350D8B4120001
:101D6000F29C1200000E066E20EE02F00150D92601
:101D70000250DA225A0EDF60120020EE01F001500C
:101D8000D9260250DA225A0EDF60120020EE03F04C
:101D90000150D9260250DA22240EDF6401D012004D
:101DA00020EE02F00150D9260250DA22DF50096EEF
:101DB00020EE01F00150D9260250DA22DF50086EE1
:101DC0000350D8A4F29C0F01000E3FBB010E076E1A
:101DD0000750D8B495EC12F00F01000E3FBF010E72
:101DE000056E0550D8B406D0000E91BE010E066EE9
:101DF0000F013F9FFC0E0F013F170F013F8198CF4E
:101E00000AF099CF0BF020EE03F00150D9260250D2
:101E1000DA22DF500A6EFC0E0F013F170F013F81DF
:101E20000AC098FF0BC099FF08C098FF09C099FF2E
:101E30000550D8B40BD00F013F8F0650D8A4918E17
:101E40000750D8B408D095EC12F005D00750D8A4AC
:101E500002D00F013F9B0350D8B41200F28C120045
:101E60004F0E016E000E026E49EC11F050500F0B38
:101E70004A6E50380F0B0F0B496E51500F0B486EC6
:101E800051380F0B0F0B476E52500F0B466E5238E6
:101E90000F0B0F0B456E4B0E016E000E026E9CEC8D
:101EA0000FF04C500F0B446E4C380F0B0F0B436E62
:101EB0004D500F0B426E4D380F0B0F0B416E4BC048
:101EC00040F04E500F0B3F6E4E380F0B0F0B3E6E17
:101ED00049500A0D4A50F324386E000EF420396E32
:101EE00047500A0D4850F324536E000EF420546EF0
:101EF00045500A0D4650F324556E000EF420566EE0
:101F000043500A0D4450F324576E000EF420586ECF
:101F100040C059F05A6A41500A0D4250F3245B6E9A
:101F2000000EF4205C6E3E500A0D3F50F3245D6EAF
:101F3000000EF4205E6E1200FC0E0F013F17030E20
:101F40000F013F1398CF0BF099CF0CF098CF0DF005
:101F500099CF0EF098CF0FF099CF10F0FC0E0F0133
:101F60003F17030E0F013F1398CF03F099CF04F0F2
:101F700098CF05F099CF06F098CF07F099CF08F0E9
:101F800005500D18D8A4D8D720EE01F00150D9265D
:101F90000250DA220DC0DFFF20EE02F00150D926F8
:101FA0000250DA220EC0DFFF01C0D9FF02C0DAFF03
:101FB00010C0DFFF20EE03F00150D9260250DA22D4
:101FC0000BC0DFFF1200000E066E04AE06D0036CDD
:101FD000041ED8B0042A010E066E02AE06D0016CB3
:101FE000021ED8B0022A010E061A000E086E000E5C
:101FF000076E03500410D8B41CD0010E056E04D037
:10200000D89003360436052A04AEFAD7D89007369E
:1020100008360350015C04500258D8A005D0035084
:10202000015E0450025A0780D89004320332052E14
:10203000EDD70650D8B404D0076C081ED8B0082AD3
:1020400007C001F008C002F0120058BE0CD0585072
:1020500004E1200E575CD8A006D0000E586E010E89
:10206000576E73EC0DF05CBE0CD05C5004E10D0EAD
:102070005B5CD8A006D0000E5C6E010E5B6E73EC4C
:102080000DF0AC0E0D6E000E0E6E0F0E0F6E0F0EDD
:10209000106E57C011F058C012F05BC013F05CC056
:1020A00014F05DC015F05EC016F04FEC0BF0010EA1
:1020B000056E090E75EC12F0AC0E096E000E0A6E7C
:1020C000A9EC11F01200939693948A968A949398AF
:1020D000939A939C939E0A0E9EEC12F00A0E9EEC2D
:1020E00012F00A0E9EEC12F0000E056E020E056450
:1020F00001D008D0030E9EEC10F00A0E9EEC12F0F8
:10210000052AF4D7020E9EEC10F0000E056E030EA9
:10211000056401D012000550010D0B0EF324F66E7C
:102120000F0EF420F76E0800F5CF03F0000E38EC28
:1021300012F00A0E9EEC12F0052AE9D7026E02A0F8
:1021400003D0016A012A01D0016A013A8A500118BC
:10215000EF0B01188A6E02A203D0016A012A01D096
:10216000016A013A01468A500118DF0B01188A6E94
:1021700002A403D0016A012A01D0016A013A014692
:1021800001468A500118BF0B01188A6E02A603D0BF
:10219000016A012A01D0016A013201328A50011814
:1021A0007F0B01188A6E00F08A8400F000F08A9498
:1021B0001200C80EF66E240EF76E000EF86E00EEDA
:1021C000D2F010EE22F00900F5CFEEFFE550E1501D
:1021D000FAE1780EF66E250EF76E000EF86E00EE40
:1021E00053F010EE0CF00900F5CFEEFFE550E15092
:1021F000FAE101EE00F0280EEE6AE806FDE100EEDD
:1022000060F0720EEE6AE806FDE15F6A00EE38F0FB
:102210001B0EEE6AE806FDE1000EF86E0001FCEF11
:1022200007F056BE14D0565004E1180E555CD8A0E5
:102230000ED0000E566E000E556E000E546E000E3F
:10224000536E000E396E000E386E73EC0DF0AC0E4E
:102250000D6E000E0E6E1E0E0F6E0F0E106E55C020
:1022600011F056C012F053C013F054C014F038C02F
:1022700015F039C016F04FEC0BF0020E056E010E92
:1022800075EC12F0AC0E096E000E0A6EA9EC11F09E
:102290001200FC0E0F013F170F013F8198CF0FF086
:1022A00099CF10F098CF11F099CF12F0FC0E0F01DA
:1022B0003F170F013F8198CF07F099CF08F098CFD3
:1022C00009F099CF0AF009501118D8A4E2D720EEEE
:1022D00003F00150D9260250DA220FC0DFFF20EEB2
:1022E00002F00150D9260250DA2212C0DFFF20EEA0
:1022F00001F00150D9260250DA2211C0DFFF12008E
:10230000000E066E000E056E03500410D8B41CD0EB
:10231000010E076E04D0D89003360436072A04AEA7
:10232000FAD7D890053606360350015C045002589F
:10233000D8A005D00350015E0450025A0580D89001
:1023400004320332072EEDD705C001F006C002F0BB
:10235000120014D009C0F6FF0AC0F7FFF86A0E0E8B
:10236000F76403D00800F55005D0F6CFE9FFF7CFAA
:10237000EAFFEF50D2EC11F0094A0A2A09C0F6FF31
:102380000AC0F7FFF86A0E0EF76403D00800F55094
:1023900005D0F6CFE9FFF7CFEAFFEF500009D8B438
:1023A0001200D8D7086E18D0010E036E000E38EC5C
:1023B00012F01200020E056E010E75EC12F0120002
:1023C000100E036E000E38EC12F0120008C003F07D
:1023D000010E38EC12F012000850080AD8B4F0D7F9
:1023E000020AD8B4E7D7060AD8B4DED7EFD70A5026
:1023F0000B10D8B418D0010E0C6E04D0D8900A3649
:102400000B360C2A0BAEFAD70A50085C0B50095851
:10241000D8A004D00A50085E0B50095AD8900B324D
:102420000A320C2EF1D708C008F009C009F01200DA
:102430009B8E9B9CD388D38AD38CD390D392926863
:10244000000E936E070E946EF18E0F014869970E81
:102450000F01496F3F0EC26EC168CD8663EC10F06C
:102460000C0EB5EC12F0AEEC12F073EC0DF01200A5
:10247000046E8A96020EA6EC12F09398939A939C9F
:10248000939E0450D8B402D08A8601D08A9600F078
:1024900003380F0B9EEC10F003500F0B9EEC10F066
:1024A000120001500302F3CF05F0F4CF06F0015003
:1024B0000402F350062602500302F350062605C01C
:1024C00001F006C002F01200C80FC30FE60FE10FC3
:1024D000CD0FDC0FD70FD20F3F0F510F630F360F09
:1024E0005A0F480F6C0FA40F940F066E0504D8B452
:1024F00002D0400E01D0000E076E060407260750DA
:102500008009036E000E38EC12F01200036E000E0C
:10251000026E3A0E036005D02F0E036402D0010E46
:10252000026E02C001F001301200F29C550EA76E3F
:10253000AA0EA76E0F013F8BF28C1200016EC80E1F
:1025400000D0E82EFDD7012EFAD71200016E210E21
:10255000E82EFED700F0012EFAD71200CDEC0CF0D9
:1025600025EC10F011EC11F01200056E05C003F01F
:10257000000E38EC12F012001E00120008000300DA
:0425800009000F003F
:08FFF800AEF718FFF3F8FFF16A
:00000001FF
