:040000001EEF0FF0F0
:100F00000001000A006400E8031027280C010625F0
:100F10003032752F253032752F253032750025304F
:100F200032753A253032753A25303275004C756E7F
:100F3000657320200053616261646F20004D61720F
:100F400074657320004A756576657320004D696588
:100F500072636F6C00446F6D696E676F00566965F0
:100F6000726E6573003000310000A5EC0FF0000ECA
:100F7000266E000E256E000E286E000E276E05EC04
:100F80000DF080BA1BD025502610D8A417D0000E23
:100F9000266E010E256E020E056E0E0EF1EC0FF0A0
:100FA000670E096E0F0E0A6ED0EC0EF0FF0E246E67
:100FB0008A0EE82EFED7242EFCD700D080BA1BD094
:100FC00025042610D8A417D0000E266E000E256E1C
:100FD000020E056E0E0EF1EC0FF0650E096E0F0E8F
:100FE0000A6ED0EC0EF0FF0E246E8A0EE82EFED7AD
:100FF000242EFCD700D025042610D8A47CD180B4A0
:101000000CD0060E27182810D8A405D0000E286E84
:10101000000E276E02D0274A282A80BE0CD0275007
:101020002810D8A405D0000E286E060E276E03D017
:101030002706D8A0280627502810D8A424D080B688
:1010400010D0060E56185710D8A407D0000E576EB1
:10105000000E566E48EC0BF004D0564A572A48EC66
:101060000BF080BC10D056505710D8A407D0000EFB
:10107000576E060E566E48EC0BF005D05606D8A0FB
:10108000570648EC0BF027042810D8A42BD080B6C4
:1010900010D01E0E54185510D8A407D0000E556E4F
:1010A000000E546E48EC0BF004D0544A552A48EC1C
:1010B0000BF080BC10D054505510D8A407D0000EAF
:1010C000556E1E0E546E48EC0BF005D05406D8A099
:1010D000550648EC0BF0820E246EDE0EE82EFED78D
:1010E000242EFCD7020E27182810D8A42BD080B6A7
:1010F00010D00C0E58185910D8A407D0000E596EF5
:10110000010E586E48EC0BF004D0584A592A48ECAE
:101110000BF080BC10D058045910D8A407D0000E92
:10112000596E0C0E586E48EC0BF005D05806D8A03E
:10113000590648EC0BF0820E246EDE0EE82EFED728
:10114000242EFCD7030E27182810D8A42BD080B645
:1011500010D0630E5A185B10D8A407D0000E5B6E37
:10116000000E5A6E48EC0BF004D05A4A5B2A48EC49
:101170000BF080BC10D05A505B10D8A407D0000EE2
:101180005B6E630E5A6E48EC0BF005D05A06D8A081
:101190005B0648EC0BF0820E246EDE0EE82EFED7C6
:1011A000242EFCD7040E27182810D8A42BD080B6E4
:1011B00010D03B0E52185310D8A407D0000E536E17
:1011C000000E526E48EC0BF004D0524A532A48EC01
:1011D0000BF080BC10D052505310D8A407D0000E92
:1011E000536E3B0E526E48EC0BF005D05206D8A061
:1011F000530648EC0BF0820E246EDE0EE82EFED76E
:10120000242EFCD7050E27182810D8A42BD080B682
:1012100010D03B0E50185110D8A407D0000E516EBC
:10122000000E506E48EC0BF004D0504A512A48ECA6
:101230000BF080BC10D050505110D8A407D0000E35
:10124000516E3B0E506E48EC0BF005D05006D8A006
:10125000510648EC0BF0820E246EDE0EE82EFED70F
:10126000242EFCD7060E27182810D8A42BD080B621
:1012700010D03B0E2D182E10D8A407D0000E2E6EC5
:10128000000E2D6E48EC0BF004D02D4A2E2A48ECAF
:101290000BF080BC10D02D502E10D8A407D0000E1B
:1012A0002E6E3B0E2D6E48EC0BF005D02D06D8A00F
:1012B0002E0648EC0BF0820E246EDE0EE82EFED7D2
:1012C000242EFCD7780E0D6E000E0E6E190E0F6ECA
:1012D0000F0E106E27C011F028C012F08AEC09F032
:1012E000020E056E0F0EF1EC0FF0780E096E000E77
:1012F0000A6ED0EC0EF0A2EC0AF062EC0FF040ECBB
:101300000FF0FF0E246E8A0EE82EFED7242EFCD797
:1013100000D035D6110E1B6E000E1C6E00D1250EAE
:101320002318D8B409D00DC0D9FF0EC0DAFF23C0EE
:10133000DFFF0D4A0E2AF3D0000E226E000E216E42
:10134000000E1D6E03D01D840F4A102A0FC0F6FF39
:1013500010C0F7FF0800F550300AD8B4F4D70FC01A
:10136000F6FF10C0F7FF0800F55002EC10F0D8A00F
:1013700036D0000E226E000E216E21C001F022C078
:1013800002F0000E046E0A0E036EDEEC0FF001C0D8
:1013900021F002C022F0D00E176EFF0E186E0FC0A3
:1013A000F6FF10C0F7FF0800F550196E1A6A1750C3
:1013B000192618501A22195021261A5022220F4A93
:1013C000102A0FC0F6FF10C0F7FF0800F55002EC1E
:1013D00010F0D8A004D0D1D7C00E1D1211D00FC06C
:1013E000F6FF10C0F7FF0F4A102A0800F5CF23F0D0
:1013F0002350000AD8B49FD0750AD8B4EDD78FD047
:101400001BC0D9FF1CC0DAFFDECF1EF0DDCF1FF0FE
:10141000020E1B26000E1C22010E236E050E231841
:10142000D8B412D02350020D010EF324F66E0F0E25
:10143000F420F76E0900F5501E5C0900F5501F58A6
:10144000D8A002D0232AEAD7800E23BE7F0E176EC3
:101450002150235C2250800A1758D8B007D023505F
:10146000215E000E23BEFF0E225A04D0000E226E13
:10147000000E216E1DA410D021502210D8B41FD010
:101480000DC0D9FF0EC0DAFF300EDF6E0D4A0E2AF6
:101490002106D8A02206F0D721502210D8B40FD0B0
:1014A0000DC0D9FF0EC0DAFF200EDF6E0D4A0E2AE6
:1014B0002106D8A0220621502210D8A4F1D723C09B
:1014C00020F029D02050020D010EF324F66E0F0EED
:1014D000F420F76E0900F5CF03F00A00F5CF04F011
:1014E0001EC001F01FC002F0A7EC0EF001C008F012
:1014F00002C009F0000E0B6E0A0E0A6E84EC0FF0AB
:101500000850300F236E0DC0D9FF0EC0DAFF23C084
:10151000DFFF0D4A0E2A20062028D8A4D3D70FC0FB
:10152000F6FF10C0F7FF0F4A102A0800F5CF23F08E
:101530002350D8A4F4D60DC0D9FF0EC0DAFF000E98
:10154000DF6E120056505710D8A413D0010E056E4E
:10155000010EF1EC0FF0550E096E0F0E0A6ED0EC75
:101560000EF0820E0B6EDE0EE82EFED70B2EFCD791
:10157000120056045710D8A413D0010E056E010EA8
:10158000F1EC0FF02D0E096E0F0E0A6ED0EC0EF07E
:10159000820E0B6EDE0EE82EFED70B2EFCD712004D
:1015A000020E56185710D8A413D0010E056E010E66
:1015B000F1EC0FF03D0E096E0F0E0A6ED0EC0EF03E
:1015C000820E0B6EDE0EE82EFED70B2EFCD712001D
:1015D000030E56185710D8A413D0010E056E010E35
:1015E000F1EC0FF04D0E096E0F0E0A6ED0EC0EF0FE
:1015F000820E0B6EDE0EE82EFED70B2EFCD71200ED
:10160000040E56185710D8A413D0010E056E010E03
:10161000F1EC0FF0450E096E0F0E0A6ED0EC0EF0D5
:10162000820E0B6EDE0EE82EFED70B2EFCD71200BC
:10163000050E56185710D8A413D0010E056E010ED2
:10164000F1EC0FF05D0E096E0F0E0A6ED0EC0EF08D
:10165000820E0B6EDE0EE82EFED70B2EFCD712008C
:10166000060E56185710D8A41200010E056E010E72
:10167000F1EC0FF0350E096E0F0E0A6ED0EC0EF085
:10168000820E0B6EDE0EE82EFED70B2EFCD712005C
:1016900011EC10F0A3802DC001F02EC002F0000E5E
:1016A000046E0A0E036EB8EC0DF00150466E465003
:1016B0000A0DF35000082D24476E4650100DF350CC
:1016C00047244D6E50C001F051C002F0000E046E70
:1016D0000A0E036EB8EC0DF00150446E44500A0D32
:1016E000F35000085024456E4450100DF35045242B
:1016F0004E6E52C001F053C002F0000E046E0A0E8E
:10170000036EB8EC0DF00150426E42500A0DF350DA
:1017100000085224436E4250100DF35043244F6E84
:101720005AC001F05BC002F0000E046E0A0E036E98
:10173000B8EC0DF001503B6E3B500A0DF350000821
:101740005A243C6E3B50100DF3503C244B6E58C055
:1017500001F059C002F0000E046E0A0E036EB8ECE0
:101760000DF001503E6E3E500A0DF3500008582413
:101770003F6E3E50100DF3503F244A6E54C001F0AE
:1017800055C002F0000E046E0A0E036EB8EC0DF0A8
:101790000150406E40500A0DF35000085424416E31
:1017A0004050100DF3504124496E56C03DF056C0D4
:1017B00048F04C0E016E000E026E010E036E87ECB7
:1017C0000CF0480E016E000E026E010E036EECEC82
:1017D0000BF00F013F8F1200000E066E20EE02F09C
:1017E0000150D9260250DA22130EDF60120020EEDB
:1017F00002F00150D9260250DA22DF50D8B412008C
:1018000020EE01F00150D9260250DA22320EDF60BC
:10181000120020EE01F00150D9260250DA22DF50EA
:10182000D8B4120020EE03F00150D9260250DA227B
:10183000990EDF6401D0120020EE03F00150D9268A
:101840000250DA22DF50076E20EE01F00150D92657
:101850000250DA22DF500A6E20EE02F00150D92643
:101860000250DA22DF500B6E0350D8A4F29C0F0115
:10187000000E3FBB010E096E0950D8B411EC10F0F8
:101880000F01000E3FBF010E056E0550D8B406D003
:10189000000E91BE010E066E0F013F9FFC0E0F0160
:1018A0003F170F013F8198CF0CF099CF0DF001C089
:1018B000D9FF02C0DAFFDF500D6EFC0E0F013F179B
:1018C000030E0F013F1307C098FF08C099FF0AC01D
:1018D00098FF0BC099FF0CC098FF0DC099FF0550F1
:1018E000D8B40BD00F013F8F0650D8A4918E095069
:1018F000D8B408D011EC10F005D00950D8A402D00B
:101900000F013F9B0350D8B41200F29C1200000E4E
:10191000066E20EE02F00150D9260250DA225A0E4D
:10192000DF60120020EE01F00150D9260250DA22C9
:101930005A0EDF60120020EE03F00150D92602504B
:10194000DA22240EDF6401D0120020EE02F00150F2
:10195000D9260250DA22DF50096E20EE01F0015044
:10196000D9260250DA22DF50086E0350D8A4F29C28
:101970000F01000E3FBB010E076E0750D8B411ECEB
:1019800010F00F01000E3FBF010E056E0550D8B4D8
:1019900006D0000E91BE010E066E0F013F9FFC0E99
:1019A0000F013F170F013F8198CF0AF099CF0BF03D
:1019B00020EE03F00150D9260250DA22DF500A6EE1
:1019C000FC0E0F013F170F013F810AC098FF0BC0AB
:1019D00099FF08C098FF09C099FF0550D8B40BD0F3
:1019E0000F013F8F0650D8A4918E0750D8B408D06D
:1019F00011EC10F005D00750D8A402D00F013F9B86
:101A00000350D8B41200F28C12004C0E016E000E7E
:101A1000026E70EC0EF04D500F0B476E4D380F0BF1
:101A20000F0B466E4E500F0B456E4E380F0B0F0BC3
:101A3000446E4F500F0B436E4F380F0B0F0B426E1F
:101A4000480E016E000E026E71EC0DF049500F0B46
:101A5000416E49380F0B0F0B406E4A500F0B3F6E13
:101A60004A380F0B0F0B3E6E48C03DF04B500F0B2A
:101A70003C6E4B380F0B0F0B3B6E46500A0D475018
:101A8000F3242D6E000EF4202E6E44500A0D4550A6
:101A9000F324506E000EF420516E42500A0D435054
:101AA000F324526E000EF420536E40500A0D415044
:101AB000F324546E000EF420556E3DC056F0576A64
:101AC0003E500A0D3F50F324586E000EF420596E1C
:101AD0003B500A0D3C50F3245A6E000EF4205B6E0E
:101AE0001200FC0E0F013F17030E0F013F1398CF9A
:101AF0000BF099CF0CF098CF0DF099CF0EF098CF56
:101B00000FF099CF10F0FC0E0F013F17030E0F01DD
:101B10003F1398CF03F099CF04F098CF05F099CFF9
:101B200006F098CF07F099CF08F005500D18D8A40B
:101B3000D8D720EE01F00150D9260250DA220DC08C
:101B4000DFFF20EE02F00150D9260250DA220EC04B
:101B5000DFFF01C0D9FF02C0DAFF10C0DFFF20EEB7
:101B600003F00150D9260250DA220BC0DFFF120029
:101B7000000E066E04AE06D0036C041ED8B0042A14
:101B8000010E066E02AE06D0016C021ED8B0022A0B
:101B9000010E061A000E086E000E076E03500410A8
:101BA000D8B41CD0010E056E04D0D890033604368C
:101BB000052A04AEFAD7D890073608360350015CE0
:101BC00004500258D8A005D00350015E0450025AB8
:101BD0000780D89004320332052EEDD70650D8B4D2
:101BE00004D0076C081ED8B0082A07C001F008C04E
:101BF00002F01200939693948A968A949398939AFB
:101C0000939C939E0A0E1AEC10F00A0E1AEC10F038
:101C10000A0E1AEC10F0000E056E020E056401D0DB
:101C200008D0030E35EC0EF00A0E1AEC10F0052A5F
:101C3000F4D7020E35EC0EF0000E056E030E0564AF
:101C400001D012000550010D0B0EF324F66E0F0E9D
:101C5000F420F76E0800F5CF03F0000EC5EC0FF08E
:101C60000A0E1AEC10F0052AE9D7026E02A003D082
:101C7000016A012A01D0016A013A8A500118EF0B6A
:101C800001188A6E02A203D0016A012A01D0016AFA
:101C9000013A01468A500118DF0B01188A6E02A42E
:101CA00003D0016A012A01D0016A013A01460146C6
:101CB0008A500118BF0B01188A6E02A603D0016A70
:101CC000012A01D0016A013201328A5001187F0BCA
:101CD00001188A6E00F08A8400F000F08A941200E5
:101CE000FC0E0F013F170F013F8198CF0FF099CFE6
:101CF00010F098CF11F099CF12F0FC0E0F013F17A2
:101D00000F013F8198CF07F099CF08F098CF09F0E5
:101D100099CF0AF009501118D8A4E2D720EE03F0A9
:101D20000150D9260250DA220FC0DFFF20EE02F068
:101D30000150D9260250DA2212C0DFFF20EE01F056
:101D40000150D9260250DA2211C0DFFF1200000E26
:101D5000066E000E056E03500410D8B41CD0010EA0
:101D6000076E04D0D89003360436072A04AEFAD79B
:101D7000D890053606360350015C04500258D8A0AE
:101D800005D00350015E0450025A0580D8900432F9
:101D90000332072EEDD705C001F006C002F0120095
:101DA00014D009C0F6FF0AC0F7FFF86A0E0EF764F8
:101DB00003D00800F55005D0F6CFE9FFF7CFEAFFD2
:101DC000EF50F9EC0EF0094A0A2A09C0F6FF0AC0E2
:101DD000F7FFF86A0E0EF76403D00800F55005D03F
:101DE000F6CFE9FFF7CFEAFFEF500009D8B41200B1
:101DF000D8D7086E18D0010E036E000EC5EC0FF098
:101E00001200020E056E010EF1EC0FF01200100E22
:101E1000036E000EC5EC0FF0120008C003F0010EB7
:101E2000C5EC0FF012000850080AD8B4F0D7020A27
:101E3000D8B4E7D7060AD8B4DED7EFD7620EF66E6D
:101E4000200EF76E000EF86E00EE50F010EE0CF063
:101E50000900F5CFEEFFE550E150FAE100EE60F049
:101E60002C0EEE6AE806FDE15C6A00EE29F0270E12
:101E7000EE6AE806FDE1000EF86E0001B5EF07F02E
:101E8000780E0D6E000E0E6E1E0E0F6E0F0E106E83
:101E900052C011F053C012F050C013F051C014F0F2
:101EA0002DC015F02EC016F08AEC09F0020E056E5A
:101EB000010EF1EC0FF0780E096E000E0A6ED0ECF8
:101EC0000EF01200780E0D6E000E0E6E0F0E0F6EDD
:101ED0000F0E106E54C011F055C012F058C013F020
:101EE00059C014F05AC015F05BC016F08AEC09F026
:101EF000010E056E090EF1EC0FF0780E096E000E62
:101F00000A6ED0EC0EF012000A500B10D8B418D0A4
:101F1000010E0C6E04D0D8900A360B360C2A0BAE8C
:101F2000FAD70A50085C0B500958D8A004D00A50C0
:101F3000085E0B50095AD8900B320A320C2EF1D79A
:101F400008C008F009C009F012009B8E9B9CD38842
:101F5000D38AD38CD390D3929268000E936E070EDF
:101F6000946EF18E0F0148690F014969C268C1681A
:101F7000CD86FAEC0DF00C0E2AEC10F0A2EC0AF073
:101F800062EC0FF040EC0FF01200046E8A96020E25
:101F900022EC10F09398939A939C939E0450D8B49B
:101FA00002D08A8601D08A9600F003380F0B35ECF8
:101FB0000EF003500F0B35EC0EF01200015003022F
:101FC000F3CF05F0F4CF06F001500402F3500626DB
:101FD00002500302F350062605C001F006C002F0CD
:101FE0001200066E0504D8B402D0400E01D0000ED7
:101FF000076E0604072607508009036E000EC5EC25
:102000000FF01200036E000E026E3A0E036005D050
:102010002F0E036402D0010E026E02C001F00130E7
:102020001200F29C550EA76EAA0EA76E0F013F8BF1
:10203000F28C1200016EC80E00D0E82EFDD7012EE2
:10204000FAD71200016E210EE82EFED700F0012E05
:10205000FAD71200056E05C003F0000EC5EC0FF0B4
:0E20600012001E0012000800030009000F000D
:08FFF800AEF718FFF3F8FFF16A
:00000001FF
