:04000000B1EF0BF061
:100F00000001000A006400E8031027280C01064CC9
:100F1000756E657320200053616261646F20004D1F
:100F2000617274657320004A756576657320004DA3
:100F3000696572636F6C00446F6D696E676F005610
:100F40006965726E657300253031750030003100BF
:010F500000A0
:100F5200D3EC0BF0000E4F6E000E4E6E000E516E73
:100F6200000E506E80BA1BD04E504F10D8A417D02E
:100F7200000E4F6E010E4E6E020E446E0E0E06EC09
:100F82000CF04E0E486E0F0E496E63EC0BF0FF0E26
:100F92004D6E8A0EE82EFED74D2EFCD700D080BAB9
:100FA2001BD04E044F10D8A417D0000E4F6E000E67
:100FB2004E6E020E446E0E0E06EC0CF04C0E486E97
:100FC2000F0E496E63EC0BF0FF0E4D6E8A0EE82E8B
:100FD200FED74D2EFCD700D04E044F10D8A44FD0D0
:100FE20080B417D0020E50185110D8A410D0000EA1
:100FF200516E000E506E020E446E0F0E06EC0CF097
:101002004C0E486E0F0E496E63EC0BF002D0504A44
:10101200512A80BE0CD050505110D8A405D0000ED9
:10102200516E020E506E03D05006D8A05106505099
:101032005110D8A424D080B610D0060E58185910DA
:10104200D8A407D0000E596E000E586EEEEC08F0D0
:1010520004D0584A592AEEEC08F080BC10D05850FF
:101062005910D8A407D0000E596E060E586EEEEC39
:1010720008F005D05806D8A05906EEEC08F05850F2
:101082005910D8A413D0010E446E010E06EC0CF0D8
:10109200370E486E0F0E496E63EC0BF0820E4D6EEA
:1010A200DE0EE82EFED74D2EFCD78ED058045910F6
:1010B200D8A413D0010E446E010E06EC0CF00F0EF4
:1010C200486E0F0E496E63EC0BF0820E4D6EDE0E13
:1010D200E82EFED74D2EFCD777D0020E58185910A5
:1010E200D8A413D0010E446E010E06EC0CF01F0EB4
:1010F200486E0F0E496E63EC0BF0820E4D6EDE0EE3
:10110200E82EFED74D2EFCD75FD0030E581859108B
:10111200D8A413D0010E446E010E06EC0CF02F0E73
:10112200486E0F0E496E63EC0BF0820E4D6EDE0EB2
:10113200E82EFED74D2EFCD747D0040E5818591072
:10114200D8A413D0010E446E010E06EC0CF0270E4B
:10115200486E0F0E496E63EC0BF0820E4D6EDE0E82
:10116200E82EFED74D2EFCD72FD0050E5818591059
:10117200D8A413D0010E446E010E06EC0CF03F0E03
:10118200486E0F0E496E63EC0BF0820E4D6EDE0E52
:10119200E82EFED74D2EFCD717D0060E5818591040
:1011A200D8A412D0010E446E010E06EC0CF0170EFC
:1011B200486E0F0E496E63EC0BF0820E4D6EDE0E22
:1011C200E82EFED74D2EFCD7FF0E4D6E8A0EE82E6E
:1011D200FED74D2EFCD700D0C5D617EC0CF0A3805D
:1011E2001DC040F01EC041F0000E436E0A0E426E5A
:1011F200ABEC0AF04050366E36500A0DF350000840
:101202001D24376E3650100DF35037243D6E52C0F8
:1012120040F053C041F0000E436E0A0E426EABEC3A
:101222000AF04050346E34500A0DF3500008522434
:10123200356E3450100DF35035243E6E54C040F0DC
:1012420055C041F0000E436E0A0E426EABEC0AF03E
:101252004050326E32500A0DF35000085424336E5F
:101262003250100DF35033243F6E5CC040F05DC02D
:1012720041F0000E436E0A0E426EABEC0AF0405093
:101282002B6E2B500A0DF35000085C242C6E2B5051
:10129200100DF3502C243B6E5AC040F05BC041F05D
:1012A200000E436E0A0E426EABEC0AF040502E6EF8
:1012B2002E500A0DF35000085A242F6E2E50100D96
:1012C200F3502F243A6E56C040F057C041F0000E42
:1012D200436E0A0E426EABEC0AF04050306E305054
:1012E2000A0DF35000085624316E3050100DF350A1
:1012F2003124396E58C02DF058C038F03C0E406E83
:10130200000E416E010E426E2DEC0AF0380E406E58
:10131200000E416E010E426E92EC09F00F013F8FFA
:101322001200000E456E20EE02F04050D9264150C8
:10133200DA22130EDF60120020EE02F04050D926AE
:101342004150DA22DF50D8B4120020EE01F04050B2
:10135200D9264150DA22320EDF60120020EE01F06F
:101362004050D9264150DA22DF50D8B4120020EE84
:1013720003F04050D9264150DA22990EDF6401D0A1
:10138200120020EE03F04050D9264150DA22DF50FD
:10139200466E20EE01F04050D9264150DA22DF504D
:1013A200496E20EE02F04050D9264150DA22DF5039
:1013B2004A6E4250D8A4F29C0F01000E3FBB010EB0
:1013C200486E4850D8B417EC0CF00F01000E3FBF26
:1013D200010E446E4450D8B406D0000E91BE010EE8
:1013E200456E0F013F9FFC0E0F013F170F013F811A
:1013F20098CF4BF099CF4CF040C0D9FF41C0DAFFF3
:10140200DF504C6EFC0E0F013F17030E0F013F130E
:1014120046C098FF47C099FF49C098FF4AC099FF4C
:101422004BC098FF4CC099FF4450D8B40BD00F0169
:101432003F8F4550D8A4918E4850D8B408D017ECAD
:101442000CF005D04850D8A402D00F013F9B425067
:10145200D8B41200F29C1200000E456E20EE02F08B
:101462004050D9264150DA225A0EDF60120020EE97
:1014720001F04050D9264150DA225A0EDF601200A4
:1014820020EE03F04050D9264150DA22240EDF64C8
:1014920001D0120020EE02F04050D9264150DA224B
:1014A200DF50486E20EE01F04050D9264150DA223A
:1014B200DF50476E4250D8A4F29C0F01000E3FBB92
:1014C200010E466E4650D8B417EC0CF00F01000E18
:1014D2003FBF010E446E4450D8B406D0000E91BEF8
:1014E200010E456E0F013F9FFC0E0F013F170F01CA
:1014F2003F8198CF49F099CF4AF020EE03F0405057
:10150200D9264150DA22DF50496EFC0E0F013F17F7
:101512000F013F8149C098FF4AC099FF47C098FF19
:1015220048C099FF4450D8B40BD00F013F8F4550AB
:10153200D8A4918E4650D8B408D017EC0CF005D040
:101542004650D8A402D00F013F9B4250D8B412009B
:10155200F28C1200000E456E43AE06D0426C431E62
:10156200D8B0432A010E456E41AE06D0406C411EF2
:10157200D8B0412A010E451A000E476E000E466E83
:1015820042504310D8B41CD0010E446E04D0D890FF
:1015920042364336442A43AEFAD7D89046364736C7
:1015A2004250405C43504158D8A005D04250405E62
:1015B2004350415A4680D89043324232442EEDD7AE
:1015C2004550D8B404D0466C471ED8B0472A46C00E
:1015D20040F047C041F01200939693948A968A9401
:1015E2009398939A939C939E0A0E20EC0CF00A0E09
:1015F20020EC0CF00A0E20EC0CF0000E446E020EF1
:10160200446401D008D0030E28EC0BF00A0E20EC43
:101612000CF0442AF4D7020E28EC0BF0000E446EB4
:10162200030E446401D012004450010D0B0EF3244A
:10163200F66E0F0EF420F76E0800F5CF42F0000EA2
:10164200EDEC0BF00A0E20EC0CF0442AE9D7416EC7
:1016520041A003D0406A402A01D0406A403A8A50F1
:101662004018EF0B40188A6E41A203D0406A402A0C
:1016720001D0406A403A40468A504018DF0B401879
:101682008A6E41A403D0406A402A01D0406A403A9F
:10169200404640468A504018BF0B40188A6E41A609
:1016A20003D0406A402A01D0406A403240328A5018
:1016B20040187F0B40188A6E00F08A8400F000F018
:1016C2008A94120014D048C0F6FF49C0F7FFF86AA6
:1016D2000E0EF76403D00800F55005D0F6CFE9FFEF
:1016E200F7CFEAFFEF508CEC0BF0484A492A48C08A
:1016F200F6FF49C0F7FFF86A0E0EF76403D0080040
:10170200F55005D0F6CFE9FFF7CFEAFFEF50000919
:10171200D8B41200D8D7476E18D0010E426E000E10
:10172200EDEC0BF01200020E446E010E06EC0CF012
:101732001200100E426E000EEDEC0BF0120047C0CC
:1017420042F0010EEDEC0BF012004750080AD8B43B
:10175200F0D7020AD8B4E7D7060AD8B4DED7EFD753
:101762006E0EF66E180EF76E000EF86E00EE52F068
:1017720010EE0CF00900F5CFEEFFE550E150FAE172
:1017820000EE60F0140EEE6AE806FDE15E6A00EE1D
:1017920001F03F0EEE6AE806FDE1000EF86E000170
:1017A200A9EF07F09B8E9B9CD388D38AD38CD390CE
:1017B200D3929268000E936E070E946EF18E0F0113
:1017C20048690F014969C268C168CD86EDEC0AF02B
:1017D2000C0E30EC0CF01200436E8A96020E28ECCE
:1017E2000CF09398939A939C939E4350D8B402D052
:1017F2008A8601D08A9600F042380F0B28EC0BF053
:1018020042500F0B28EC0BF01200456E4404D8B482
:1018120002D0400E01D0000E466E450446264650C8
:101822008009426E000EEDEC0BF01200F29C550E98
:10183200A76EAA0EA76E0F013F8BF28C1200406EAC
:10184200C80E00D0E82EFDD7402EFAD71200406E07
:10185200210EE82EFED700F0402EFAD71200446E79
:1018620044C042F0000EEDEC0BF012001E0012001C
:081872000800030009000F004B
:08FFF800AEF718FFF3F8FFF16A
:00000001FF
