:0400000084EF0EF08B
:100F000000280C01064C756E657320200053616249
:100F100061646F20004D617274657320004A7565CD
:100F200076657320004D696572636F6C00446F6D68
:100F3000696E676F00566965726E6573002F0030C9
:100F40000031003A0000C3EC0EF0000E496E000EB6
:100F5000486E000E4B6E000E4A6E80BA20D048508C
:100F60004910D8A41CD0000E496E010E486E020E26
:100F70003C6E0E0EF6EC0EF0410E406E0F0E416E02
:100F800040504110D8A4000E426EA6EC0EF0FF0EA9
:100F9000456E8A0EE82EFED7452EFCD700D080BACB
:100FA00020D048044910D8A41CD0000E496E000E71
:100FB000486E020E3C6E0E0EF6EC0EF03F0E406ECA
:100FC0000F0E416E40504110D8A4000E426EA6ECA8
:100FD0000EF0FF0E456E8A0EE82EFED7452EFCD78A
:100FE00000D048044910D8A4EBD380B41CD0020E22
:100FF0004A184B10D8A415D0000E4B6E000E4A6E46
:10100000020E3C6E0F0EF6EC0EF03F0E406E0F0E11
:10101000416E40504110D8A4000E426EA6EC0EF076
:1010200002D04A4A4B2A80BE0CD04A504B10D8A45A
:1010300005D0000E4B6E020E4A6E03D04A06D8A0B1
:101040004B064A504B10D8A4ECD080B610D0060EF8
:1010500052185310D8A407D0000E536E000E526ED3
:10106000EAEC0BF004D0524A532AEAEC0BF080BCB5
:1010700010D052505310D8A407D0000E536E060E55
:10108000526EEAEC0BF005D05206D8A05306EAECFB
:101090000BF052505310D8A418D0010E3C6E010E24
:1010A000F6EC0EF02D0E406E0F0E416E40504110CA
:1010B000D8A4000E426EA6EC0EF0820E456EDE0E37
:1010C000E82EFED7452EFCD7ACD052045310D8A43E
:1010D00018D0010E3C6E010EF6EC0EF0050E406EBF
:1010E0000F0E416E40504110D8A4000E426EA6EC87
:1010F0000EF0820E456EDE0EE82EFED7452EFCD792
:1011000090D0020E52185310D8A418D0010E3C6E85
:10111000010EF6EC0EF0150E406E0F0E416E4050B3
:101120004110D8A4000E426EA6EC0EF0820E456E61
:10113000DE0EE82EFED7452EFCD773D0030E5218D4
:101140005310D8A418D0010E3C6E010EF6EC0EF030
:10115000250E406E0F0E416E40504110D8A4000E77
:10116000426EA6EC0EF0820E456EDE0EE82EFED725
:10117000452EFCD756D0040E52185310D8A418D0C0
:10118000010E3C6E010EF6EC0EF01D0E406E0F0EC1
:10119000416E40504110D8A4000E426EA6EC0EF0F5
:1011A000820E456EDE0EE82EFED7452EFCD739D0D6
:1011B000050E52185310D8A418D0010E3C6E010E23
:1011C000F6EC0EF0350E406E0F0E416E40504110A1
:1011D000D8A4000E426EA6EC0EF0820E456EDE0E16
:1011E000E82EFED7452EFCD71CD0060E5218531001
:1011F000D8A417D0010E3C6E010EF6EC0EF00D0EC9
:10120000406E0F0E416E40504110D8A4000E426E49
:10121000A6EC0EF0820E456EDE0EE82EFED7452EB1
:10122000FCD74A044B10D8A473D080B610D01E0E41
:1012300050185110D8A407D0000E516E000E506EF9
:10124000EAEC0BF004D0504A512AEAEC0BF080BCD7
:1012500010D050505110D8A407D0000E516E1E0E61
:10126000506EEAEC0BF005D05006D8A05106EAEC1F
:101270000BF0010E3C6E090EF6EC0EF050C045F07E
:1012800051C046F0476A46BE476845C040F046C078
:1012900041F047C042F0A6EC0EF03D0E406E0F0E3E
:1012A000416E40504110D8A4000E426EA6EC0EF0E4
:1012B00054C045F055C046F0476A46BE476845C031
:1012C00040F046C041F047C042F0A6EC0EF03D0EA3
:1012D000406E0F0E416E40504110D8A4000E426E79
:1012E000A6EC0EF056C045F057C046F0476A46BE21
:1012F000476845C040F046C041F047C042F0A6EC08
:101300000EF0820E456EDE0EE82EFED7452EFCD77F
:10131000020E4A184B10D8A473D080B610D00C0E11
:1013200054185510D8A407D0000E556E010E546EF7
:10133000EAEC0BF004D0544A552AEAEC0BF080BCDE
:1013400010D054045510D8A407D0000E556E0C0EC2
:10135000546EEAEC0BF005D05406D8A05506EAEC22
:101360000BF0010E3C6E090EF6EC0EF050C045F08D
:1013700051C046F0476A46BE476845C040F046C087
:1013800041F047C042F0A6EC0EF03D0E406E0F0E4D
:10139000416E40504110D8A4000E426EA6EC0EF0F3
:1013A00054C045F055C046F0476A46BE476845C040
:1013B00040F046C041F047C042F0A6EC0EF03D0EB2
:1013C000406E0F0E416E40504110D8A4000E426E88
:1013D000A6EC0EF056C045F057C046F0476A46BE30
:1013E000476845C040F046C041F047C042F0A6EC17
:1013F0000EF0820E456EDE0EE82EFED7452EFCD78F
:10140000030E4A184B10D8A473D080B610D0630EC8
:1014100056185710D8A407D0000E576E000E566EFF
:10142000EAEC0BF004D0564A572AEAEC0BF080BCE9
:1014300010D056505710D8A407D0000E576E630E28
:10144000566EEAEC0BF005D05606D8A05706EAEC2B
:101450000BF0010E3C6E090EF6EC0EF050C045F09C
:1014600051C046F0476A46BE476845C040F046C096
:1014700041F047C042F0A6EC0EF03D0E406E0F0E5C
:10148000416E40504110D8A4000E426EA6EC0EF002
:1014900054C045F055C046F0476A46BE476845C04F
:1014A00040F046C041F047C042F0A6EC0EF03D0EC1
:1014B000406E0F0E416E40504110D8A4000E426E97
:1014C000A6EC0EF056C045F057C046F0476A46BE3F
:1014D000476845C040F046C041F047C042F0A6EC26
:1014E0000EF0820E456EDE0EE82EFED7452EFCD79E
:1014F000040E4A184B10D8A473D080B610D03B0EFF
:101500004E184F10D8A407D0000E4F6E000E4E6E2E
:10151000EAEC0BF004D04E4A4F2AEAEC0BF080BC08
:1015200010D04E504F10D8A407D0000E4F6E3B0E77
:101530004E6EEAEC0BF005D04E06D8A04F06EAEC52
:101540000BF0020E3C6E010EF6EC0EF04EC045F0B4
:101550004FC046F0476A46BE476845C040F046C0A7
:1015600041F047C042F0A6EC0EF0430E406E0F0E65
:10157000416E40504110D8A4000E426EA6EC0EF011
:101580004CC045F04DC046F0476A46BE476845C06E
:1015900040F046C041F047C042F0A6EC0EF0430ECA
:1015A000406E0F0E416E40504110D8A4000E426EA6
:1015B000A6EC0EF015C045F016C046F0476A46BED0
:1015C000476845C040F046C041F047C042F0A6EC35
:1015D0000EF0820E456EDE0EE82EFED7452EFCD7AD
:1015E000050E4A184B10D8A473D080B610D03B0E0D
:1015F0004C184D10D8A407D0000E4D6E000E4C6E46
:10160000EAEC0BF004D04E4A4F2AEAEC0BF080BC17
:1016100010D04C504D10D8A407D0000E4D6E3B0E8C
:101620004C6EEAEC0BF005D04C06D8A04D06EAEC67
:101630000BF0020E3C6E010EF6EC0EF04EC045F0C3
:101640004FC046F0476A46BE476845C040F046C0B6
:1016500041F047C042F0A6EC0EF0430E406E0F0E74
:10166000416E40504110D8A4000E426EA6EC0EF020
:101670004CC045F04DC046F0476A46BE476845C07D
:1016800040F046C041F047C042F0A6EC0EF0430ED9
:10169000406E0F0E416E40504110D8A4000E426EB5
:1016A000A6EC0EF015C045F016C046F0476A46BEDF
:1016B000476845C040F046C041F047C042F0A6EC44
:1016C0000EF0820E456EDE0EE82EFED7452EFCD7BC
:1016D000060E4A184B10D8A473D080B610D03B0E1B
:1016E00015181610D8A407D0000E166E000E156E31
:1016F000EAEC0BF004D0154A162AEAEC0BF080BC99
:1017000010D015501610D8A407D0000E166E3B0E40
:10171000156EEAEC0BF005D01506D8A01606EAEC1B
:101720000BF0020E3C6E010EF6EC0EF04EC045F0D2
:101730004FC046F0476A46BE476845C040F046C0C5
:1017400041F047C042F0A6EC0EF0430E406E0F0E83
:10175000416E40504110D8A4000E426EA6EC0EF02F
:101760004CC045F04DC046F0476A46BE476845C08C
:1017700040F046C041F047C042F0A6EC0EF0430EE8
:10178000406E0F0E416E40504110D8A4000E426EC4
:10179000A6EC0EF015C045F016C046F0476A46BEEE
:1017A000476845C040F046C041F047C042F0A6EC53
:1017B0000EF0820E456EDE0EE82EFED7452EFCD7CB
:1017C000FF0E456E8A0EE82EFED7452EFCD700D0C0
:1017D000ADEF07F007EC0FF0A38015C038F016C08E
:1017E00039F0000E3B6E0A0E3A6EA7EC0DF0385041
:1017F0002E6E2E500A0DF350000815242F6E2E5019
:10180000100DF3502F24356E4CC038F04DC039F018
:10181000000E3B6E0A0E3A6EA7EC0DF038502C6E9F
:101820002C500A0DF35000084C242D6E2C50100D36
:10183000F3502D24366E4EC038F04FC039F0000EF4
:101840003B6E0A0E3A6EA7EC0DF038502A6E2A5005
:101850000A0DF35000084E242B6E2A50100DF35041
:101860002B24376E56C038F057C039F0000E3B6E4F
:101870000A0E3A6EA7EC0DF03850236E23500A0D75
:10188000F35000085624246E2350100DF3502424E6
:10189000336E54C038F055C039F0000E3B6E0A0E5E
:1018A0003A6EA7EC0DF03850266E26500A0DF35014
:1018B00000085424276E2650100DF3502724326E52
:1018C00050C038F051C039F0000E3B6E0A0E3A6E2F
:1018D000A7EC0DF03850286E28500A0DF350000880
:1018E0005024296E2850100DF3502924316E52C017
:1018F00025F052C030F0340E386E000E396E010EF5
:101900003A6E29EC0DF0300E386E000E396E010E75
:101910003A6E8EEC0CF00F013F8F1200000E3D6E00
:1019200020EE02F03850D9263950DA22130EDF604B
:10193000120020EE02F03850D9263950DA22DF505A
:10194000D8B4120020EE01F03850D9263950DA22EE
:10195000320EDF60120020EE01F03850D9263950E7
:10196000DA22DF50D8B4120020EE03F03850D92626
:101970003950DA22990EDF6401D0120020EE03F014
:101980003850D9263950DA22DF503E6E20EE01F071
:101990003850D9263950DA22DF50416E20EE02F05D
:1019A0003850D9263950DA22DF50426E3A50D8A446
:1019B000F29C0F01000E3FBB010E406E4050D8B4A8
:1019C00007EC0FF00F01000E3FBF010E3C6E3C50C4
:1019D000D8B406D0000E91BE010E3D6E0F013F9FA0
:1019E000FC0E0F013F170F013F8198CF43F099CFB5
:1019F00044F038C0D9FF39C0DAFFDF50446EFC0E26
:101A00000F013F17030E0F013F133EC098FF3FC069
:101A100099FF41C098FF42C099FF43C098FF44C05E
:101A200099FF3C50D8B40BD00F013F8F3D50D8A444
:101A3000918E4050D8B408D007EC0FF005D040503C
:101A4000D8A402D00F013F9B3A50D8B41200F29CA8
:101A50001200000E3D6E20EE02F03850D9263950AB
:101A6000DA225A0EDF60120020EE01F03850D9263B
:101A70003950DA225A0EDF60120020EE03F038509F
:101A8000D9263950DA22240EDF6401D0120020EE6C
:101A900002F03850D9263950DA22DF50406E20EE5D
:101AA00001F03850D9263950DA22DF503F6E3A50D3
:101AB000D8A4F29C0F01000E3FBB010E3E6E3E50BB
:101AC000D8B407EC0FF00F01000E3FBF010E3C6EC3
:101AD0003C50D8B406D0000E91BE010E3D6E0F01F1
:101AE0003F9FFC0E0F013F170F013F8198CF41F040
:101AF00099CF42F020EE03F03850D9263950DA223F
:101B0000DF50416EFC0E0F013F170F013F8141C0B6
:101B100098FF42C099FF3FC098FF40C099FF3C50DA
:101B2000D8B40BD00F013F8F3D50D8A4918E3E50BA
:101B3000D8B408D007EC0FF005D03E50D8A402D09E
:101B40000F013F9B3A50D8B41200F28C1200000EE5
:101B50003D6E3BAE06D03A6C3B1ED8B03B2A010E20
:101B60003D6E39AE06D0386C391ED8B0392A010E18
:101B70003D1A000E3F6E000E3E6E3A503B10D8B438
:101B80001CD0010E3C6E04D0D8903A363B363C2A2D
:101B90003BAEFAD7D8903E363F363A50385C3B5091
:101BA0003958D8A005D03A50385E3B50395A3E805B
:101BB000D8903B323A323C2EEDD73D50D8B404D0C9
:101BC0003E6C3F1ED8B03F2A3EC038F03FC039F0CF
:101BD0001200939693948A968A949398939A939CDE
:101BE000939E0A0E10EC0FF00A0E10EC0FF00A0E86
:101BF00010EC0FF0000E3C6E020E3C6401D008D0D9
:101C0000030E24EC0EF00A0E10EC0FF03C2AF4D771
:101C1000020E24EC0EF0000E3C6E030E3C6401D06C
:101C200012003C50010D010EF324F66E0F0EF4204D
:101C3000F76E0800F5CF3AF0000EDDEC0EF00A0E5C
:101C400010EC0FF03C2AE9D7396E39A003D0386A7E
:101C5000382A01D0386A383A8A503818EF0B3818C9
:101C60008A6E39A203D0386A382A01D0386A383AE5
:101C700038468A503818DF0B38188A6E39A403D0DA
:101C8000386A382A01D0386A383A384638468A5095
:101C90003818BF0B38188A6E39A603D0386A382A2C
:101CA00001D0386A383238328A5038187F0B3818E9
:101CB0008A6E00F08A8400F000F08A9412003F6E71
:101CC00018D0010E3A6E000EDDEC0EF01200020E7E
:101CD0003C6E010EF6EC0EF01200100E3A6E000E85
:101CE000DDEC0EF012003FC03AF0010EDDEC0EF01C
:101CF00012003F50080AD8B4F0D7020AD8B4E7D788
:101D0000060AD8B4DED7EFD74E0EF66E1E0EF76E6B
:101D1000000EF86E00EE4CF010EE0CF00900F5CF5E
:101D2000EEFFE550E150FAE100EE60F01C0EEE6AC5
:101D3000E806FDE1586A00EE01F0370EEE6AE806AB
:101D4000FDE1000EF86E0001A3EF07F010D040C0D7
:101D5000F6FF41C0F7FF42C0F8FF0800F5505FEC06
:101D60000EF0010E4026000E4122000E422240C01D
:101D7000F6FF41C0F7FF42C0F8FF0800F550000928
:101D8000D8B41200E4D79B8E9B9CD388D38AD38C83
:101D9000D390D3929268000E936E070E946EF18EDC
:101DA0000F0148690F014969C268C168CD86E9EC35
:101DB0000DF00C0E20EC0FF012003B6E8A96020E16
:101DC00018EC0FF09398939A939C939E3B50D8B441
:101DD00002D08A8601D08A9600F03A380F0B24ECA4
:101DE0000EF03A500F0B24EC0EF012003D6E3C0446
:101DF000D8B402D0400E01D0000E3E6E3D043E2607
:101E00003E5080093A6E000EDDEC0EF01200F29C9E
:101E1000550EA76EAA0EA76E0F013F8BF28C120013
:101E2000386EC80E00D0E82EFDD7382EFAD7120033
:101E3000386E210EE82EFED700F0382EFAD71200A9
:101E40003C6E3CC03AF0000EDDEC0EF012001E00BD
:0A1E500012000800030009000F0053
:08FFF800AEF718FFF3F8FFF16A
:00000001FF
