:0400000091EF10F07C
:100F00000001000A006400E8031027280C010625F0
:100F10003032752F253032752F253032750025304F
:100F200032753A253032753A25303275002020204E
:100F3000202020202000436869636F20202000507B
:100F400065646972202020004772616E646520200C
:100F5000004D656469616E6F20005465726D696E45
:100F6000617200536F6C6F202020004C756E6573AA
:100F700020200053616261646F20004D61727465CE
:100F80007320004A75657665732000432F4C6563B6
:100F90006865004D696572636F6C00436F727461C0
:100FA000646F00446F6D696E676F00566965726E9D
:100FB000657300286E756C6C290020446961004ED1
:100FC00064696100486F7261004361666500205387
:100FD000656700204D696E00416E696F00204D65A8
:100FE00073004564740025730000D0EC11F0000E0E
:100FF0002A6E000E296E000E346E000E336EE8EC81
:101000000EF080BA1BD029502A10D8A417D0000E99
:101010002A6E010E296E020E056E0A0E1CEC12F0ED
:10102000E20E096E0F0E0A6E61EC11F0FF0E286ED3
:101030008A0EE82EFED7282EFCD700D080BA1BD00F
:1010400029042A10D8A417D0000E2A6E000E296E8B
:10105000020E056E0A0E1CEC12F02D0E096E0F0E1C
:101060000A6E61EC11F0FF0E286E8A0EE82EFED794
:10107000282EFCD700D029042A10D8A4BDD280B4D1
:101080000ED0070E33183410D8A405D0000E346EDD
:10109000000E336E02D0334A342A80A4FED780BEBD
:1010A0000ED033503410D8A405D0000E346E070E85
:1010B000336E03D03306D8A0340680AEFED7BE0E02
:1010C0000D6E000E0E6EE60E0F6E0F0E106ED890A7
:1010D0003334D96E3434DA6ED20ED926000EDA22C9
:1010E000DECF11F0DDCF12F007EC0BF0020E056E33
:1010F0000D0E1CEC12F0BE0E096E000E0A6E61ECB5
:1011000011F033503410D8A428D080B612D0060E77
:1011100058185910D8A407D0000E596E000E586EFA
:101120002BEC0DF004D0584A592A2BEC0DF080A678
:10113000FED780BC12D058505910D8A407D0000E4A
:10114000596E060E586E2BEC0DF005D05806D8A03F
:1011500059062BEC0DF080ACFED733043410D8A424
:101160002FD080B612D01F0E56185710D8A407D013
:10117000000E576E010E566E2BEC0DF004D0564A41
:10118000572A2BEC0DF080A6FED780BC12D0560457
:101190005710D8A407D0000E576E1F0E566E2BECBA
:1011A0000DF005D05606D8A057062BEC0DF080ACFC
:1011B000FED7820E286EDE0EE82EFED7282EFCD734
:1011C000020E33183410D8A42FD080B612D00C0ED3
:1011D0005A185B10D8A407D0000E5B6E010E5A6E31
:1011E0002BEC0DF004D05A4A5B2A2BEC0DF080A6B4
:1011F000FED780BC12D05A045B10D8A407D0000ED2
:101200005B6E0C0E5A6E2BEC0DF005D05A06D8A072
:101210005B062BEC0DF080ACFED7820E286EDE0E46
:10122000E82EFED7282EFCD7030E33183410D8A48E
:101230002FD080B612D0630E5C185D10D8A407D0F2
:10124000000E5D6E000E5C6E2BEC0DF004D05C4A5F
:101250005D2A2BEC0DF080A6FED780BC12D05C502E
:101260005D10D8A407D0000E5D6E630E5C6E2BEC93
:101270000DF005D05C06D8A05D062BEC0DF080AC1F
:10128000FED7820E286EDE0EE82EFED7282EFCD763
:10129000040E33183410D8A42FD080B612D03B0ED1
:1012A00054185510D8A407D0000E556E000E546E79
:1012B0002BEC0DF004D0544A552A2BEC0DF080A6EF
:1012C000FED780BC12D054505510D8A407D0000EC1
:1012D000556E3B0E546E2BEC0DF005D05406D8A085
:1012E00055062BEC0DF080ACFED7820E286EDE0E7C
:1012F000E82EFED7282EFCD7050E33183410D8A4BC
:101300002FD080B612D03B0E52185310D8A407D05D
:10131000000E536E000E526E2BEC0DF004D0524AAC
:10132000532A2BEC0DF080A6FED780BC12D0525071
:101330005310D8A407D0000E536E3B0E526E2BEC08
:101340000DF005D05206D8A053062BEC0DF080AC62
:10135000FED7820E286EDE0EE82EFED7282EFCD792
:10136000060E33183410D8A42FD080B612D03B0EFE
:1013700035183610D8A407D0000E366E000E356E24
:101380002BEC0DF004D0354A362A2BEC0DF080A65C
:10139000FED780BC12D035503610D8A407D0000E2E
:1013A000366E3B0E356E2BEC0DF005D03506D8A011
:1013B00036062BEC0DF080ACFED7820E286EDE0ECA
:1013C000E82EFED7282EFCD7070E33183410D8A4E9
:1013D00013D1000E346E000E336E000E306E000E10
:1013E0002F6E000E2C6E000E2B6E000E2E6E000E59
:1013F0002D6E000E326E000E316E80B40ED0020ED5
:101400002F183010D8A405D0000E306E000E2F6EAD
:1014100002D02F4A302A80A4FED780BE0ED02F5093
:101420003010D8A405D0000E306E020E2F6E03D0FF
:101430002F06D8A0300680AEFED72F503010D8A48B
:1014400020D080B60ED0020E2B182C10D8A405D0B8
:10145000000E2C6E000E2B6E02D02B4A2C2A80A67A
:10146000FED780BC0ED02B502C10D8A405D0000E77
:101470002C6E020E2B6E03D02B06D8A02C0680AC4F
:10148000FED72F043010D8A420D080B60ED0020E84
:101490002D182E10D8A405D0000E2E6E000E2D6E25
:1014A00002D02D4A2E2A80A6FED780BC0ED02D5009
:1014B0002E10D8A405D0000E2E6E020E2D6E03D075
:1014C0002D06D8A02E0680ACFED7020E2F183010A5
:1014D000D8A42BD080B60DD031043210D8A405D0BA
:1014E000000E326E000E316E02D0314A322A80A6D2
:1014F000FED780BC0ED031503210D8A405D0000EDB
:10150000326E010E316E03D03106D8A0320680ACA7
:10151000FED780BA0AD031503210D8B46DD0310421
:101520003210D8B469D080BAFED7AA0E0D6E000E64
:101530000E6EE60E0F6E0F0E106ED8902B34D96E15
:101540002C34DA6EE80ED926000EDA22DECF11F046
:10155000DDCF12F007EC0BF0010E056E010E1CEC56
:1015600012F0AA0E096E000E0A6E61EC11F0960ED2
:101570000D6E000E0E6EE60E0F6E0F0E106ED890F2
:101580002D34D96E2E34DA6EE20ED926000EDA2210
:10159000DECF11F0DDCF12F007EC0BF0010E056E7F
:1015A000090E1CEC12F0960E096E000E0A6E61EC2C
:1015B00011F0820E0D6E000E0E6EE60E0F6E0F0E07
:1015C000106ED8903134D96E3234DA6EEE0ED926E0
:1015D000000EDA22DECF11F0DDCF12F007EC0BF0B7
:1015E000020E056E010E1CEC12F0820E096E000E4A
:1015F0000A6E61EC11F001D765EC12F0FF0E286E57
:101600008A0EE82EFED7282EFCD700D0F8D4110E73
:101610001F6E000E206E66D1250E2718D8B409D093
:101620000DC0D9FF0EC0DAFF27C0DFFF0D4A0E2A1A
:1016300059D1000E266E000E256E000E1B6E03D0D3
:101640001B840F4A102A0FC0F6FF10C0F7FF0800D6
:10165000F550300AD8B4F4D70FC0F6FF10C0F7FF2A
:101660000800F5503DEC12F0D8A099D0000E266E7F
:10167000000E256E25C001F026C002F0000E046E9B
:101680000A0E036E09EC12F001C025F002C026F02C
:10169000D00E176EFF0E186E0FC0F6FF10C0F7FFCA
:1016A0000800F550196E1A6A1750192618501A2298
:1016B000195025261A5026220F4A102A0FC0F6FF6D
:1016C00010C0F7FF0800F5503DEC12F0D8A067D02D
:1016D000D1D71FC0D9FF20C0DAFFDECF21F0DDCF88
:1016E00022F0020E1F26000E202221502210D8A424
:1016F00004D0B30E216E0F0E226E000E246E000E6B
:10170000236E02D0234A242A23502124176E24500A
:101710002220186E17C0F6FF18C0F7FF0800F5501A
:101720000009D8A4EFD72550235C26502458D8B000
:1017300005D02350255E2450265A0DD0000E266E6B
:10174000000E256E08D00DC0D9FF0EC0DAFF200EA6
:10175000DF6E0D4A0E2A2506D8A026062528F3E1BD
:101760002628D8B410D0EFD721C0F6FF22C0F7FF4B
:101770000DC0D9FF0EC0DAFF0800F5CFDFFF214A08
:10178000222A0D4A0E2A2306D8A024062328ECE19B
:101790002428D8B4A7D0E8D7C00E1B1214D00FC08D
:1017A000F6FF10C0F7FF0F4A102A0800F5CF27F008
:1017B0002750000AD8B4A2D0730AD8B48AD7060A30
:1017C000D8B4EAD78FD01FC0D9FF20C0DAFFDECF50
:1017D0001CF0DDCF1DF0020E1F26000E2022010E90
:1017E000276E050E2718D8B412D02750020D010E0F
:1017F000F324F66E0F0EF420F76E0900F5501C5C12
:101800000900F5501D58D8A002D0272AEAD7800E2B
:1018100027BE7F0E176E2550275C2650800A17586A
:10182000D8B007D02750255E000E27BEFF0E265ADF
:1018300004D0000E266E000E256E1BA410D025507D
:101840002610D8B41FD00DC0D9FF0EC0DAFF300E5D
:10185000DF6E0D4A0E2A2506D8A02606F0D72550A1
:101860002610D8B40FD00DC0D9FF0EC0DAFF200E5D
:10187000DF6E0D4A0E2A2506D8A026062550261012
:10188000D8A4F1D727C01EF029D01E50020D010E9A
:10189000F324F66E0F0EF420F76E0900F5CF03F077
:1018A0000A00F5CF04F01CC001F01DC002F038ECB6
:1018B00011F001C008F002C009F0000E0B6E0A0E14
:1018C0000A6EAFEC11F00850300F276E0DC0D9FF33
:1018D0000EC0DAFF27C0DFFF0D4A0E2A1E061E28A3
:1018E000D8A4D3D70FC0F6FF10C0F7FF0F4A102AB5
:1018F0000800F5CF27F02750D8A48ED60DC0D9FF09
:101900000EC0DAFF000EDF6E120058505910D8A436
:1019100013D0010E056E010E1CEC12F0A30E096E21
:101920000F0E0A6E61EC11F0820E0B6EDE0EE82EC9
:10193000FED70B2EFCD7120058045910D8A413D090
:10194000010E056E010E1CEC12F06B0E096E0F0EEF
:101950000A6E61EC11F0820E0B6EDE0EE82EFED7E1
:101960000B2EFCD71200020E58185910D8A413D011
:10197000010E056E010E1CEC12F07B0E096E0F0EAF
:101980000A6E61EC11F0820E0B6EDE0EE82EFED7B1
:101990000B2EFCD71200030E58185910D8A413D0E0
:1019A000010E056E010E1CEC12F0930E096E0F0E67
:1019B0000A6E61EC11F0820E0B6EDE0EE82EFED781
:1019C0000B2EFCD71200040E58185910D8A413D0AF
:1019D000010E056E010E1CEC12F0830E096E0F0E47
:1019E0000A6E61EC11F0820E0B6EDE0EE82EFED751
:1019F0000B2EFCD71200050E58185910D8A413D07E
:101A0000010E056E010E1CEC12F0AB0E096E0F0EEE
:101A10000A6E61EC11F0820E0B6EDE0EE82EFED720
:101A20000B2EFCD71200060E58185910D8A412001D
:101A3000010E056E010E1CEC12F0730E096E0F0EF6
:101A40000A6E61EC11F0820E0B6EDE0EE82EFED7F0
:101A50000B2EFCD712004CEC12F0A38035C001F025
:101A600036C002F0000E046E0A0E036E9BEC0FF0FF
:101A70000150486E48500A0DF35000083524496E55
:101A80004850100DF35049244F6E52C001F053C01E
:101A900002F0000E046E0A0E036E9BEC0FF0015074
:101AA000466E46500A0DF35000085224476E4650C9
:101AB000100DF3504724506E54C001F055C002F091
:101AC000000E046E0A0E036E9BEC0FF00150446E84
:101AD00044500A0DF35000085424456E4450100D34
:101AE000F3504524516E5CC001F05DC002F0000E61
:101AF000046E0A0E036E9BEC0FF001503D6E3D50DC
:101B00000A0DF35000085C243E6E3D50100DF3505A
:101B10003E244D6E5AC001F05BC002F0000E046E10
:101B20000A0E036E9BEC0FF00150406E40500A0D00
:101B3000F35000085A24416E4050100DF3504124D8
:101B40004C6E56C001F057C002F0000E046E0A0E33
:101B5000036E9BEC0FF00150426E42500A0DF350A1
:101B600000085624436E4250100DF35043244B6E30
:101B700058C03FF058C04AF04E0E016E000E026E83
:101B8000010E036E6AEC0EF04A0E016E000E026E3C
:101B9000010E036ECFEC0DF00F013F8F1200000E0F
:101BA000066E20EE02F00150D9260250DA22130E02
:101BB000DF60120020EE02F00150D9260250DA2236
:101BC000DF50D8B4120020EE01F00150D9260250A7
:101BD000DA22320EDF60120020EE01F00150D92629
:101BE0000250DA22DF50D8B4120020EE03F0015088
:101BF000D9260250DA22990EDF6401D0120020EEBD
:101C000003F00150D9260250DA22DF50076E20EE91
:101C100001F00150D9260250DA22DF500A6E20EE80
:101C200002F00150D9260250DA22DF500B6E035029
:101C3000D8A4F29C0F01000E3FBB010E096E0950A3
:101C4000D8B44CEC12F00F01000E3FBF010E056E30
:101C50000550D8B406D0000E91BE010E066E0F01DD
:101C60003F9FFC0E0F013F170F013F8198CF0CF0F3
:101C700099CF0DF001C0D9FF02C0DAFFDF500D6E21
:101C8000FC0E0F013F17030E0F013F1307C098FF13
:101C900008C099FF0AC098FF0BC099FF0CC098FFBD
:101CA0000DC099FF0550D8B40BD00F013F8F0650DF
:101CB000D8A4918E0950D8B408D04CEC12F005D0BD
:101CC0000950D8A402D00F013F9B0350D8B4120092
:101CD000F29C1200000E066E20EE02F00150D92692
:101CE0000250DA225A0EDF60120020EE01F001509D
:101CF000D9260250DA225A0EDF60120020EE03F0DD
:101D00000150D9260250DA22240EDF6401D01200DD
:101D100020EE02F00150D9260250DA22DF50096E7F
:101D200020EE01F00150D9260250DA22DF50086E71
:101D30000350D8A4F29C0F01000E3FBB010E076EAA
:101D40000750D8B44CEC12F00F01000E3FBF010E4B
:101D5000056E0550D8B406D0000E91BE010E066E79
:101D60000F013F9FFC0E0F013F170F013F8198CFDE
:101D70000AF099CF0BF020EE03F00150D926025063
:101D8000DA22DF500A6EFC0E0F013F170F013F8170
:101D90000AC098FF0BC099FF08C098FF09C099FFBF
:101DA0000550D8B40BD00F013F8F0650D8A4918EA8
:101DB0000750D8B408D04CEC12F005D00750D8A486
:101DC00002D00F013F9B0350D8B41200F28C1200D6
:101DD0004E0E016E000E026E01EC11F04F500F0B13
:101DE000496E4F380F0B0F0B486E50500F0B476E5C
:101DF00050380F0B0F0B466E51500F0B456E51387C
:101E00000F0B0F0B446E4A0E016E000E026E54EC67
:101E10000FF04B500F0B436E4B380F0B0F0B426EF6
:101E20004C500F0B416E4C380F0B0F0B406E4AC0DD
:101E30003FF04D500F0B3E6E4D380F0B0F0B3D6EAC
:101E400048500A0D4950F324356E000EF420366ECA
:101E500046500A0D4750F324526E000EF420536E84
:101E600044500A0D4550F324546E000EF420556E74
:101E700042500A0D4350F324566E000EF420576E64
:101E80003FC058F0596A40500A0D4150F3245A6E31
:101E9000000EF4205B6E3D500A0D3E50F3245C6E44
:101EA000000EF4205D6E1200FC0E0F013F17030EB2
:101EB0000F013F1398CF0BF099CF0CF098CF0DF096
:101EC00099CF0EF098CF0FF099CF10F0FC0E0F01C4
:101ED0003F17030E0F013F1398CF03F099CF04F083
:101EE00098CF05F099CF06F098CF07F099CF08F07A
:101EF00005500D18D8A4D8D720EE01F00150D926EE
:101F00000250DA220DC0DFFF20EE02F00150D92688
:101F10000250DA220EC0DFFF01C0D9FF02C0DAFF93
:101F200010C0DFFF20EE03F00150D9260250DA2264
:101F30000BC0DFFF1200000E066E04AE06D0036C6D
:101F4000041ED8B0042A010E066E02AE06D0016C43
:101F5000021ED8B0022A010E061A000E086E000EEC
:101F6000076E03500410D8B41CD0010E056E04D0C7
:101F7000D89003360436052A04AEFAD7D89007362F
:101F800008360350015C04500258D8A005D0035015
:101F9000015E0450025A0780D89004320332052EA5
:101FA000EDD70650D8B404D0076C081ED8B0082A64
:101FB00007C001F008C002F0120057BE0CD0575005
:101FC00004E1200E565CD8A006D0000E576E010E1C
:101FD000566E2BEC0DF05BBE0CD05B5004E10D0E89
:101FE0005A5CD8A006D0000E5B6E010E5A6E2BEC28
:101FF0000DF0BE0E0D6E000E0E6E0F0E0F6E0F0E5C
:10200000106E56C011F057C012F05AC013F05BC0EA
:1020100014F05CC015F05DC016F007EC0BF0010E7B
:10202000056E090E1CEC12F0BE0E096E000E0A6E53
:1020300061EC11F01200939693948A968A94939887
:10204000939A939C939E0A0E55EC12F00A0E55EC4F
:1020500012F00A0E55EC12F0000E056E020E056429
:1020600001D008D0030E56EC10F00A0E55EC12F019
:10207000052AF4D7020E56EC10F0000E056E030E82
:10208000056401D012000550010D0B0EF324F66E0D
:102090000F0EF420F76E0800F5CF03F0000EF0EC01
:1020A00011F00A0E55EC12F0052AE9D7026E02A0D3
:1020B00003D0016A012A01D0016A013A8A5001184D
:1020C000EF0B01188A6E02A203D0016A012A01D027
:1020D000016A013A01468A500118DF0B01188A6E25
:1020E00002A403D0016A012A01D0016A013A014623
:1020F00001468A500118BF0B01188A6E02A603D050
:10210000016A012A01D0016A013201328A500118A4
:102110007F0B01188A6E00F08A8400F000F08A9428
:1021200012005A0EF66E240EF76E000EF86E00EED8
:10213000D2F010EE20F00900F5CFEEFFE550E150AF
:10214000FAE1E60EF66E240EF76E000EF86E00EE63
:1021500052F010EE0CF00900F5CFEEFFE550E15023
:10216000FAE101EE00F0140EEE6AE806FDE100EE81
:1021700060F0720EEE6AE806FDE15E6A00EE35F090
:102180001D0EEE6AE806FDE1000EF86E0001F5EFA7
:1021900007F055BE14D0555004E1180E545CD8A079
:1021A0000ED0000E556E000E546E000E536E000ED3
:1021B000526E000E366E000E356E2BEC0DF0BE0E1C
:1021C0000D6E000E0E6E1E0E0F6E0F0E106E54C0B2
:1021D00011F055C012F052C013F053C014F035C0C6
:1021E00015F036C016F007EC0BF0020E056E010E6E
:1021F0001CEC12F0BE0E096E000E0A6E61EC11F0BE
:102200001200FC0E0F013F170F013F8198CF0FF016
:1022100099CF10F098CF11F099CF12F0FC0E0F016A
:102220003F170F013F8198CF07F099CF08F098CF63
:1022300009F099CF0AF009501118D8A4E2D720EE7E
:1022400003F00150D9260250DA220FC0DFFF20EE42
:1022500002F00150D9260250DA2212C0DFFF20EE30
:1022600001F00150D9260250DA2211C0DFFF12001E
:10227000000E066E000E056E03500410D8B41CD07C
:10228000010E076E04D0D89003360436072A04AE38
:10229000FAD7D890053606360350015C0450025830
:1022A000D8A005D00350015E0450025A0580D89092
:1022B00004320332072EEDD705C001F006C002F04C
:1022C000120014D009C0F6FF0AC0F7FFF86A0E0E1C
:1022D000F76403D00800F55005D0F6CFE9FFF7CF3B
:1022E000EAFFEF508AEC11F0094A0A2A09C0F6FF0A
:1022F0000AC0F7FFF86A0E0EF76403D00800F55025
:1023000005D0F6CFE9FFF7CFEAFFEF500009D8B4C8
:102310001200D8D7086E18D0010E036E000EF0EC34
:1023200011F01200020E056E010E1CEC12F01200EC
:10233000100E036E000EF0EC11F0120008C003F056
:10234000010EF0EC11F012000850080AD8B4F0D7D2
:10235000020AD8B4E7D7060AD8B4DED7EFD70A50B6
:102360000B10D8B418D0010E0C6E04D0D8900A36D9
:102370000B360C2A0BAEFAD70A50085C0B500958E2
:10238000D8A004D00A50085E0B50095AD8900B32DE
:102390000A320C2EF1D708C008F009C009F012006B
:1023A0009B8E9B9CD388D38AD38CD390D3929268F4
:1023B000000E936E070E946EF18E0F014869970E12
:1023C0000F01496F3F0EC26EC168CD861BEC10F045
:1023D0000C0E6CEC12F065EC12F02BEC0DF0120010
:1023E000046E8A96020E5DEC12F09398939A939C79
:1023F000939E0450D8B402D08A8601D08A9600F009
:1024000003380F0B56EC10F003500F0B56EC10F086
:10241000120001500302F3CF05F0F4CF06F0015093
:102420000402F350062602500302F350062605C0AC
:1024300001F006C002F01200066E0504D8B402D006
:10244000400E01D0000E076E0604072607508009D3
:10245000036E000EF0EC11F01200BF0FBA0FDD0F8B
:10246000D80FC40FD30FCE0FC90F360F510F480F1F
:102470009B0F630F8B0F3F0F5A0F036E000E026E00
:102480003A0E036005D02F0E036402D0010E026ED7
:1024900002C001F001301200F29C550EA76EAA0E88
:1024A000A76E0F013F8BF28C1200016EC80E00D098
:1024B000E82EFDD7012EFAD71200016E210EE82E6C
:1024C000FED700F0012EFAD7120085EC0CF0DDECFF
:1024D0000FF0C9EC10F01200056E05C003F0000EFD
:1024E000F0EC11F012001E001200080003000900B9
:0224F0000F00DB
:08FFF800AEF718FFF3F8FFF16A
:00000001FF
