:04000000C7EF0FF047
:100F00000001000A006400E8031027280C010625F0
:100F10003032752F253032752F253032750025304F
:100F200032753A253032753A25303275002020204E
:100F30002020202020004C756E6573202000536116
:100F40006261646F20004D617274657320004A75A0
:100F50006576657320004D696572636F6C00446F40
:100F60006D696E676F00566965726E657300286EF5
:100F7000756C6C290020446961004E646961004809
:100F80006F7261002053656700204D696E00416EED
:100F9000696F00204D65730045647400257300007F
:100FA00070EC10F0000E2A6E000E296E000E2C6EF2
:100FB000000E2B6EAFEC0DF080BA1BD029502A101A
:100FC000D8A417D0000E2A6E010E296E020E056EEF
:100FD0000A0EE1EC10F0980E096E0F0E0A6E22EC6C
:100FE00010F0FF0E286E8A0EE82EFED7282EFCD7B2
:100FF00000D080BA1BD029042A10D8A417D0000E24
:101000002A6E000E296E020E056E0A0EE1EC10F03B
:101010002D0E096E0F0E0A6E22EC10F0FF0E286ED8
:101020008A0EE82EFED7282EFCD700D029042A10DD
:10103000D8A4A5D180B40ED0060E2B182C10D8A49D
:1010400005D0000E2C6E000E2B6E02D02B4A2C2ADF
:1010500080A4FED780BE0ED02B502C10D8A405D073
:10106000000E2C6E060E2B6E03D02B06D8A02C067D
:1010700080AEFED72B502C10D8A428D080B612D02A
:10108000060E56185710D8A407D0000E576E000E43
:10109000566EF2EC0BF004D0564A572AF2EC0BF0E5
:1010A00080A6FED780BC12D056505710D8A407D0C7
:1010B000000E576E060E566EF2EC0BF005D056067B
:1010C000D8A05706F2EC0BF080ACFED72B042C1006
:1010D000D8A42FD080B612D01F0E54185510D8A403
:1010E00007D0000E556E010E546EF2EC0BF004D0DA
:1010F000544A552AF2EC0BF080A6FED780BC12D0E1
:1011000054045510D8A407D0000E556E1F0E546E0F
:10111000F2EC0BF005D05406D8A05506F2EC0BF01B
:1011200080ACFED7820E286EDE0EE82EFED7282E6B
:10113000FCD7020E2B182C10D8A42FD080B612D0BA
:101140000C0E58185910D8A407D0000E596E010E75
:10115000586EF2EC0BF004D0584A592AF2EC0BF01E
:1011600080A6FED780BC12D058045910D8A407D04E
:10117000000E596E0C0E586EF2EC0BF005D05806AE
:10118000D8A05906F2EC0BF080ACFED7820E286E88
:10119000DE0EE82EFED7282EFCD7030E2B182C10BF
:1011A000D8A42FD080B612D0630E5A185B10D8A4E2
:1011B00007D0000E5B6E000E5A6EF2EC0BF004D0FE
:1011C0005A4A5B2AF2EC0BF080A6FED780BC12D004
:1011D0005A505B10D8A407D0000E5B6E630E5A6E97
:1011E000F2EC0BF005D05A06D8A05B06F2EC0BF03F
:1011F00080ACFED7820E286EDE0EE82EFED7282E9B
:10120000FCD7040E2B182C10D8A42FD080B612D0E7
:101210003B0E52185310D8A407D0000E536E000E88
:10122000526EF2EC0BF004D0524A532AF2EC0BF05F
:1012300080A6FED780BC12D052505310D8A407D03D
:10124000000E536E3B0E526EF2EC0BF005D05206C0
:10125000D8A05306F2EC0BF080ACFED7820E286EBD
:10126000DE0EE82EFED7282EFCD7050E2B182C10EC
:10127000D8A42FD080B612D03B0E50185110D8A44D
:1012800007D0000E516E000E506EF2EC0BF004D041
:10129000504A512AF2EC0BF080A6FED780BC12D047
:1012A00050505110D8A407D0000E516E3B0E506E16
:1012B000F2EC0BF005D05006D8A05106F2EC0BF082
:1012C00080ACFED7820E286EDE0EE82EFED7282ECA
:1012D000FCD7060E2B182C10D8A42FD080B612D015
:1012E0003B0E2D182E10D8A407D0000E2E6E000E27
:1012F0002D6EF2EC0BF004D02D4A2E2AF2EC0BF0FE
:1013000080A6FED780BC12D02D502E10D8A407D0B6
:10131000000E2E6E3B0E2D6EF2EC0BF005D02D065E
:10132000D8A02E06F2EC0BF080ACFED7820E286E11
:10133000DE0EE82EFED7282EFCD77C0E0D6E000E9A
:101340000E6E9C0E0F6E0F0E106ED8902B34D96E51
:101350002C34DA6E900ED926000EDA22DECF11F090
:10136000DDCF12F0CEEC09F0020E056E0D0EE1ECB1
:1013700010F07C0E096E000E0A6E22EC10F04CECA0
:101380000BF0A4EC0EF058EC0FF0FF0E286E8A0E56
:10139000E82EFED7282EFCD700D00CD6110E1F6EDB
:1013A000000E206E66D1250E2718D8B409D00DC0C6
:1013B000D9FF0EC0DAFF27C0DFFF0D4A0E2A59D130
:1013C000000E266E000E256E000E1B6E03D01B84D1
:1013D0000F4A102A0FC0F6FF10C0F7FF0800F550A3
:1013E000300AD8B4F4D70FC0F6FF10C0F7FF0800DA
:1013F000F550F2EC10F0D8A099D0000E266E000E39
:10140000256E25C001F026C002F0000E046E0A0E03
:10141000036ECEEC10F001C025F002C026F0D00E15
:10142000176EFF0E186E0FC0F6FF10C0F7FF080012
:10143000F550196E1A6A1750192618501A221950A9
:1014400025261A5026220F4A102A0FC0F6FF10C078
:10145000F7FF0800F550F2EC10F0D8A067D0D1D714
:101460001FC0D9FF20C0DAFFDECF21F0DDCF22F090
:10147000020E1F26000E202221502210D8A404D0D4
:101480006E0E216E0F0E226E000E246E000E236E65
:1014900002D0234A242A23502124176E24502220CC
:1014A000186E17C0F6FF18C0F7FF0800F5500009C6
:1014B000D8A4EFD72550235C26502458D8B005D0A7
:1014C0002350255E2450265A0DD0000E266E000EA5
:1014D000256E08D00DC0D9FF0EC0DAFF200EDF6EDA
:1014E0000D4A0E2A2506D8A026062528F3E126282F
:1014F000D8B410D0EFD721C0F6FF22C0F7FF0DC03F
:10150000D9FF0EC0DAFF0800F5CFDFFF214A222AFB
:101510000D4A0E2A2306D8A024062328ECE124280D
:10152000D8B4A7D0E8D7C00E1B1214D00FC0F6FF56
:1015300010C0F7FF0F4A102A0800F5CF27F02750F8
:10154000000AD8B4A2D0730AD8B48AD7060AD8B48D
:10155000EAD78FD01FC0D9FF20C0DAFFDECF1CF042
:10156000DDCF1DF0020E1F26000E2022010E276E79
:10157000050E2718D8B412D02750020D010EF324FF
:10158000F66E0F0EF420F76E0900F5501C5C090092
:10159000F5501D58D8A002D0272AEAD7800E27BEC2
:1015A0007F0E176E2550275C2650800A1758D8B03A
:1015B00007D02750255E000E27BEFF0E265A04D006
:1015C000000E266E000E256E1BA410D0255026108E
:1015D000D8B41FD00DC0D9FF0EC0DAFF300EDF6EB9
:1015E0000D4A0E2A2506D8A02606F0D7255026102B
:1015F000D8B40FD00DC0D9FF0EC0DAFF200EDF6EB9
:101600000D4A0E2A2506D8A0260625502610D8A455
:10161000F1D727C01EF029D01E50020D010EF32471
:10162000F66E0F0EF420F76E0900F5CF03F00A00F6
:10163000F5CF04F01CC001F01DC002F0F9EC0FF072
:1016400001C008F002C009F0000E0B6E0A0E0A6E0F
:1016500094EC10F00850300F276E0DC0D9FF0EC06B
:10166000DAFF27C0DFFF0D4A0E2A1E061E28D8A467
:10167000D3D70FC0F6FF10C0F7FF0F4A102A08009B
:10168000F5CF27F02750D8A48ED60DC0D9FF0EC0B5
:10169000DAFF000EDF6E120056505710D8A413D098
:1016A000010E056E010EE1EC10F05E0E096E0F0EDC
:1016B0000A6E22EC10F0820E0B6EDE0EE82EFED7C4
:1016C0000B2EFCD7120056045710D8A413D0010ECD
:1016D000056E010EE1EC10F0360E096E0F0E0A6E6B
:1016E00022EC10F0820E0B6EDE0EE82EFED70B2ED3
:1016F000FCD71200020E56185710D8A413D0010EB2
:10170000056E010EE1EC10F0460E096E0F0E0A6E2A
:1017100022EC10F0820E0B6EDE0EE82EFED70B2EA2
:10172000FCD71200030E56185710D8A413D0010E80
:10173000056E010EE1EC10F0560E096E0F0E0A6EEA
:1017400022EC10F0820E0B6EDE0EE82EFED70B2E72
:10175000FCD71200040E56185710D8A413D0010E4F
:10176000056E010EE1EC10F04E0E096E0F0E0A6EC2
:1017700022EC10F0820E0B6EDE0EE82EFED70B2E42
:10178000FCD71200050E56185710D8A413D0010E1E
:10179000056E010EE1EC10F0660E096E0F0E0A6E7A
:1017A00022EC10F0820E0B6EDE0EE82EFED70B2E12
:1017B000FCD71200060E56185710D8A41200010EBE
:1017C000056E010EE1EC10F03E0E096E0F0E0A6E72
:1017D00022EC10F0820E0B6EDE0EE82EFED70B2EE2
:1017E000FCD7120001EC11F0A3802DC001F02EC037
:1017F00002F0000E046E0A0E036E62EC0EF0015051
:10180000466E46500A0DF35000082D24476E465090
:10181000100DF35047244D6E50C001F051C002F03E
:10182000000E046E0A0E036E62EC0EF00150446E60
:1018300044500A0DF35000085024456E4450100DDA
:10184000F35045244E6E52C001F053C002F0000E1A
:10185000046E0A0E036E62EC0EF00150426E4250AE
:101860000A0DF35000085224436E4250100DF350FD
:1018700043244F6E5AC001F05BC002F0000E046EAC
:101880000A0E036E62EC0EF001503B6E3B500A0DE7
:10189000F35000085A243C6E3B50100DF3503C248A
:1018A0004B6E58C001F059C002F0000E046E0A0ED3
:1018B000036E62EC0EF001503E6E3E500A0DF35086
:1018C000000858243F6E3E50100DF3503F244A6EDE
:1018D00054C001F055C002F0000E046E0A0E036EF3
:1018E00062EC0EF00150406E40500A0DF3500008BB
:1018F0005424416E4050100DF3504124496E56C09F
:101900003DF056C048F04C0E016E000E026E010E06
:10191000036E31EC0DF0480E016E000E026E010EEA
:10192000036E96EC0CF00F013F8F1200000E066E56
:1019300020EE02F00150D9260250DA22130EDF60A9
:10194000120020EE02F00150D9260250DA22DF50B8
:10195000D8B4120020EE01F00150D9260250DA224C
:10196000320EDF60120020EE01F00150D926025045
:10197000DA22DF50D8B4120020EE03F00150D9264D
:101980000250DA22990EDF6401D0120020EE03F03B
:101990000150D9260250DA22DF50076E20EE01F006
:1019A0000150D9260250DA22DF500A6E20EE02F0F2
:1019B0000150D9260250DA22DF500B6E0350D8A412
:1019C000F29C0F01000E3FBB010E096E0950D8B406
:1019D00001EC11F00F01000E3FBF010E056E055026
:1019E000D8B406D0000E91BE010E066E0F013F9FC7
:1019F000FC0E0F013F170F013F8198CF0CF099CFDC
:101A00000DF001C0D9FF02C0DAFFDF500D6EFC0EF1
:101A10000F013F17030E0F013F1307C098FF08C0C7
:101A200099FF0AC098FF0BC099FF0CC098FF0DC02A
:101A300099FF0550D8B40BD00F013F8F0650D8A4A2
:101A4000918E0950D8B408D001EC11F005D009509E
:101A5000D8A402D00F013F9B0350D8B41200F29CCF
:101A60001200000E066E20EE02F00150D926025040
:101A7000DA225A0EDF60120020EE01F00150D92662
:101A80000250DA225A0EDF60120020EE03F00150FD
:101A9000D9260250DA22240EDF6401D0120020EE93
:101AA00002F00150D9260250DA22DF50096E20EEF2
:101AB00001F00150D9260250DA22DF50086E03509F
:101AC000D8A4F29C0F01000E3FBB010E076E075019
:101AD000D8B401EC11F00F01000E3FBF010E056EEE
:101AE0000550D8B406D0000E91BE010E066E0F014F
:101AF0003F9FFC0E0F013F170F013F8198CF0AF067
:101B000099CF0BF020EE03F00150D9260250DA22D3
:101B1000DF500A6EFC0E0F013F170F013F810AC014
:101B200098FF0BC099FF08C098FF09C099FF0550A6
:101B3000D8B40BD00F013F8F0650D8A4918E075018
:101B4000D8B408D001EC11F005D00750D8A402D0C9
:101B50000F013F9B0350D8B41200F28C12004C0EC0
:101B6000016E000E026E90EC0FF04D500F0B476EA1
:101B70004D380F0B0F0B466E4E500F0B456E4E3807
:101B80000F0B0F0B446E4F500F0B436E4F380F0B64
:101B90000F0B426E480E016E000E026E1BEC0EF033
:101BA00049500F0B416E49380F0B0F0B406E4A50D6
:101BB0000F0B3F6E4A380F0B0F0B3E6E48C03DF0C7
:101BC0004B500F0B3C6E4B380F0B0F0B3B6E4650C0
:101BD0000A0D4750F3242D6E000EF4202E6E445053
:101BE0000A0D4550F324506E000EF420516E425001
:101BF0000A0D4350F324526E000EF420536E4050F1
:101C00000A0D4150F324546E000EF420556E3DC071
:101C100056F0576A3E500A0D3F50F324586E000E9E
:101C2000F420596E3B500A0D3C50F3245A6E000EBE
:101C3000F4205B6E1200FC0E0F013F17030E0F0124
:101C40003F1398CF0BF099CF0CF098CF0DF099CFB0
:101C50000EF098CF0FF099CF10F0FC0E0F013F1748
:101C6000030E0F013F1398CF03F099CF04F098CFE4
:101C700005F099CF06F098CF07F099CF08F00550FE
:101C80000D18D8A4D8D720EE01F00150D926025063
:101C9000DA220DC0DFFF20EE02F00150D9260250FB
:101CA000DA220EC0DFFF01C0D9FF02C0DAFF10C088
:101CB000DFFF20EE03F00150D9260250DA220BC0DC
:101CC000DFFF1200000E066E04AE06D0036C041E89
:101CD000D8B0042A010E066E02AE06D0016C021EB8
:101CE000D8B0022A010E061A000E086E000E076E0A
:101CF00003500410D8B41CD0010E056E04D0D89047
:101D000003360436052A04AEFAD7D89007360836CB
:101D10000350015C04500258D8A005D00350015E66
:101D20000450025A0780D89004320332052EEDD7B2
:101D30000650D8B404D0076C081ED8B0082A07C0D3
:101D400001F008C002F0120055BE0CD0555004E15D
:101D5000200E545CD8A006D0000E556E010E546EB5
:101D6000F2EC0BF059BE0CD0595004E10D0E585C4A
:101D7000D8A006D0000E596E010E586EF2EC0BF092
:101D80007C0E0D6E000E0E6E0F0E0F6E0F0E106E8F
:101D900054C011F055C012F058C013F059C014F0DF
:101DA0005AC015F05BC016F0CEEC09F0010E056EBE
:101DB000090EE1EC10F07C0E096E000E0A6E22ECAA
:101DC00010F01200939693948A968A949398939A1B
:101DD000939C939E0A0E0AEC11F00A0E0AEC11F085
:101DE0000A0E0AEC11F0000E056E020E056401D019
:101DF00008D0030E1DEC0FF00A0E0AEC11F0052AB4
:101E0000F4D7020E1DEC0FF0000E056E030E0564F4
:101E100001D012000550010D0B0EF324F66E0F0ECB
:101E2000F420F76E0800F5CF03F0000EB5EC10F0CB
:101E30000A0E0AEC11F0052AE9D7026E02A003D0BF
:101E4000016A012A01D0016A013A8A500118EF0B98
:101E500001188A6E02A203D0016A012A01D0016A28
:101E6000013A01468A500118DF0B01188A6E02A45C
:101E700003D0016A012A01D0016A013A01460146F4
:101E80008A500118BF0B01188A6E02A603D0016A9E
:101E9000012A01D0016A013201328A5001187F0BF8
:101EA00001188A6E00F08A8400F000F08A94120013
:101EB00053BE14D0535004E1180E525CD8A00ED07B
:101EC000000E536E000E526E000E516E000E506EDC
:101ED000000E2E6E000E2D6EF2EC0BF07C0E0D6ED1
:101EE000000E0E6E1E0E0F6E0F0E106E52C011F011
:101EF00053C012F050C013F051C014F02DC015F0B3
:101F00002EC016F0CEEC09F0020E056E010EE1ECCB
:101F100010F07C0E096E000E0A6E22EC10F012001A
:101F2000FC0E0F013F170F013F8198CF0FF099CFA3
:101F300010F098CF11F099CF12F0FC0E0F013F175F
:101F40000F013F8198CF07F099CF08F098CF09F0A3
:101F500099CF0AF009501118D8A4E2D720EE03F067
:101F60000150D9260250DA220FC0DFFF20EE02F026
:101F70000150D9260250DA2212C0DFFF20EE01F014
:101F80000150D9260250DA2211C0DFFF1200340EB0
:101F9000F66E220EF76E000EF86E00EE90F010EE68
:101FA0000EF00900F5CFEEFFE550E150FAE1500EDA
:101FB000F66E220EF76E000EF86E00EE50F010EE88
:101FC0000CF00900F5CFEEFFE550E150FAE100EE2C
:101FD00060F0300EEE6AE806FDE15C6A00EE2DF07E
:101FE000230EEE6AE806FDE1000EF86E0001D0EF68
:101FF00007F0000E066E000E056E03500410D8B4F4
:102000001CD0010E076E04D0D89003360436072A80
:1020100004AEFAD7D890053606360350015C04505A
:102020000258D8A005D00350015E0450025A058022
:10203000D89004320332072EEDD705C001F006C058
:1020400002F0120014D009C0F6FF0AC0F7FFF86AC8
:102050000E0EF76403D00800F55005D0F6CFE9FF67
:10206000F7CFEAFFEF504BEC10F0094A0A2A09C0FB
:10207000F6FF0AC0F7FFF86A0E0EF76403D00800F7
:10208000F55005D0F6CFE9FFF7CFEAFFEF50000992
:10209000D8B41200D8D7086E18D0010E036E000E07
:1020A000B5EC10F01200020E056E010EE1EC10F01E
:1020B0001200100E036E000EB5EC10F0120008C0F6
:1020C00003F0010EB5EC10F012000850080AD8B465
:1020D000F0D7020AD8B4E7D7060AD8B4DED7EFD7CC
:1020E0009B8E9B9CD388D38AD38CD390D3929268B7
:1020F000000E936E070E946EF18E0F014869970ED5
:102100000F01496F3F0EC26EC168CD86E2EC0EF042
:102110000C0E21EC11F04CEC0BF0A4EC0EF058EC92
:102120000FF0F2EC0BF012000A500B10D8B418D0DC
:10213000010E0C6E04D0D8900A360B360C2A0BAE6A
:10214000FAD70A50085C0B500958D8A004D00A509E
:10215000085E0B50095AD8900B320A320C2EF1D778
:1021600008C008F009C009F01200046E8A96020E39
:1021700012EC11F09398939A939C939E0450D8B4C8
:1021800002D08A8601D08A9600F003380F0B1DEC2E
:102190000FF003500F0B1DEC0FF012000150030263
:1021A000F3CF05F0F4CF06F001500402F3500626F9
:1021B00002500302F350062605C001F006C002F0EB
:1021C0001200066E0504D8B402D0400E01D0000EF5
:1021D000076E0604072607508009036E000EB5EC53
:1021E00010F01200036E000E026E3A0E036005D06E
:1021F0002F0E036402D0010E026E02C001F0013006
:102200001200F29C550EA76EAA0EA76E0F013F8B0F
:10221000F28C1200016EC80E00D0E82EFDD7012E00
:10222000FAD71200016E210EE82EFED700F0012E23
:10223000FAD712007A0F750F930F8E0F7F0F890F49
:10224000840F056E05C003F0000EB5EC10F012000F
:0C2250001E0012000800030009000F002F
:08FFF800AEF718FFF3F8FFF16A
:00000001FF
